:020000040800F2
:1000000028090020F5350008850600088706000845
:100010008B0600088F060008930600080000000009
:10002000000000000000000000000000970600082B
:1000300099060008000000009B0600089D060008C5
:100040000F3600080F3600080F3600080F3600087C
:100050000F3600080F3600080F3600080F3600086C
:100060000F3600080F3600080F3600080F3600085C
:100070000F3600080F3600080F3600080F3600084C
:100080000F3600080F3600080F3600080F3600083C
:100090000F3600080F3600080F3600080F3600082C
:1000A0000F3600080F3600080F3600080F3600081C
:1000B000955B00080F3600080F3600080F36000861
:1000C0000F3600080F3600080F3600080F360008FC
:1000D0000F360008673500080F3600080F36000895
:1000E0000F3600080F3600080F3600080F360008DC
:1000F0000F3600080F3600080F3600080F360008CC
:100100000F3600080F3600080F3600080F360008BB
:100110000F3600080F3600080F3600080F360008AB
:100120000F3600080F3600080F3600080F3600089B
:1001300000F002F800F06DF80AA090E8000C82448C
:100140008344AAF10107DA4501D100F062F8AFF269
:10015000090EBAE80F0013F0010F18BFFB1A43F0A5
:100160000103184700750000207500000A444FF095
:10017000000C10F8013B13F0070408BF10F8014B06
:100180001D1108BF10F8015B641E05D010F8016B4B
:10019000641E01F8016BF9D113F0080F1EBF10F8AF
:1001A000014BAD1C0C1B09D16D1E58BF01F801CBD2
:1001B000FAD505E014F8016B01F8016B6D1EF9D555
:1001C0009142D6D37047000000230024002500266A
:1001D000103A28BF78C1FBD8520728BF30C148BFAA
:1001E0000B607047642906F06982752906F0668203
:1001F000782906F09B82632906F01484732906F09F
:100200001984002070471FB5AFF300801FBD10B5E3
:1002100010BD06F01BFC1146FFF7F5FF00F03CF89F
:1002200006F039FCFFF7F3FF03F040F9F8B503F0EF
:10023000A5F80446642094FBF0F5102300930323F3
:100240002A46D22102F0C4FC642094FBF0F100FBAA
:1002500011400A2190FBF1F51023009301232A4657
:10026000D221842002F0B4FC02F0C7FF064610231E
:10027000009302233246E621642002F0A9FCF8BD77
:1002800010B5024600201078012302E0D45C6040E3
:100290005B1C8B42FADB10BD7CB542F2FC1400BF44
:1002A00000BF03F09DF803F0FBF84FF4E13003F0DA
:1002B0000BF900F0FFFA00F0D7FA00F064FEB9483D
:1002C00041684820884702F0CBFE012002F0E2FEA0
:1002D00002F030FF4FF47840B3490880B3A31022F6
:1002E000CDE900231346C82232213C2002F023FD31
:1002F000B2A31022CDE900231346C82246213C2098
:1003000002F019FDB1A31022CDE900231346C82243
:100310005A213C2002F00FFDB0A31022CDE90023AA
:100320001346C8226E213C2002F005FDAEA3102228
:10033000CDE900231346C82282213C2002F0FBFCB9
:10034000AFA31022CDE900231346C82296213C20FA
:1003500002F0F1FCB0A31022CDE900231346C8221D
:10036000AA213C2002F0E7FC1F208F49088008806A
:10037000ADA31022CDE900231346C822BE213C20A4
:1003800002F0D9FCABA31022CDE900231346C8220A
:10039000D2213C2002F0CFFCAAA31022CDE90023F9
:1003A0001346C822E6213C2002F0C5FC002002F0E2
:1003B0007CFF002002F089FF032002F066FF3F204F
:1003C00002F054FF02F0FDFE42F29044204602F09B
:1003D0008BFFE5E09D48008810F4004FF9D09B4862
:1003E0000088C6B200250DE09948415D994804F0A7
:1003F0003EF900BF4021974804F0A7F90128F9D140
:10040000681C85B2944800788542EDDB93480078FB
:10041000242872D131469148FFF732FF711E8F4A6E
:10042000515C88426AD100208B49087010464078A0
:1004300072287BD110468078642877D11046C07826
:10044000792873D1104600795F286FD12420804924
:10045000814A1278885480480078401C7E49087090
:1004600072207B497C4A127888547B480078401C73
:100470007949087064207649774A1278885476481A
:100480000078401C7449087079207149724A1278CA
:10049000885471480078401C6F4908705F206C498F
:1004A0006D4A127888546C480078401C6A4908707C
:1004B0005F216748684A1278815467480078401C79
:1004C00065490870654840796149634A12788854E3
:1004D00061480078401C60490870084601785C4813
:1004E000FFF7CEFE5A495C4A127888545A48007881
:1004F000401C5949087000250FE04AE04AE0544882
:10050000415D544804F0B3F800BF4021514804F065
:100510001CF90128F9D1681C85B24F480078854242
:10052000EDDB4FA006F06AF837E0FFE74B48407874
:1005300066280BD149488078722807D14748C0788F
:10054000652803D1454800795F2826D04348407884
:1005500063280BD1414880786F2807D13F48C07885
:100560006E2803D13D4800795F2816D03B4840787B
:1005700064280BD139488078612807D13748C07882
:10058000742803D1354800795F2806D036A006F0DC
:1005900035F802E037A006F031F800202B4908803A
:1005A00018E70000A00000201A00002057617253D5
:1005B0006869702053544D33320000005244413575
:1005C00038323020544553540000000041544F4D00
:1005D00040414C49454E54454B00000032303132C9
:1005E0002F392F31340000004B4559303A4672659F
:1005F000712B204B4559323A467265712D0000002F
:100600004B4559313A4175746F2053656172636887
:1006100028525829000000004B45595F55503A4D6B
:100620006F646520536574004D6F64653A464D20D4
:1006300052580000467265713A2039332E364D68A3
:100640007A000000527373693A0000002400002011
:100650008C0100200038014001000020FA01002038
:100660006F6BA3A100000000D6A1D2ECB3A3A3A19D
:1006700000000000D0A3D1E9CEBBB4EDCEF3A3A11E
:1006800000000000704700BFFEE700BFFEE700BFAC
:10069000FEE700BFFEE770477047704770470000F5
:1006A00000200021674A126842F48032654B1A60CC
:1006B00000BF644A126802F40031401C11B9B0F561
:1006C000A06FF6D15F4A126812F4003F01D00121F9
:1006D00000E00021012942D15B4A126842F0100279
:1006E000594B1A601A46126822F003021A601A4621
:1006F000126842F002021A60524A5268514B5A6024
:100700001A4652685A601A46526842F480625A6029
:100710001A46526822F47C125A601A46526842F411
:10072000E8125A601A46126842F080721A6000BFDE
:10073000444A126812F0007FFAD0424A526822F00E
:100740000302404B5A601A46526842F002025A6055
:1007500000BF3C4A526802F00C02082AF9D17047E7
:1007600010B5FFF79DFF10BD10B53648006840F08A
:10077000010034490860084640683449084031495E
:10078000486008460068324908402E49086008461B
:10079000006820F4802008600846406820F4FE00CD
:1007A00048604FF41F008860FFF7DAFF4FF00060E9
:1007B0002849086010BD10B5002000210022214BFF
:1007C0005B6803F00C0020B1042806D0082828D16B
:1007D00007E0214B214C236027E01F4B1F4C236077
:1007E00023E0184B5B6803F47011164B5B6803F44D
:1007F0008032022303EB914122B9194B4B43174C32
:1008000023600DE00F4B5B6813F4003F04D0144BE2
:100810004B43124C236003E00F4B4B430F4C2360C0
:1008200003E00D4B0D4C236000BF00BF054B5B6820
:10083000C3F303130B4CE05C084B1B68C340074C2D
:10084000236010BD00100240002002400000FFF8AD
:10085000FFFFF6FE08ED00E000127A000400002021
:1008600000093D000800002008B50121482003F0E0
:100870005FFD2020ADF8000010208DF8030003205C
:100880008DF802006946094803F0A8FA20210748BC
:1008900003F04CFB2020ADF800006946044803F04B
:1008A0009DFA2021024803F041FB08BD000C0140E5
:1008B0000018014008B50121442003F039FD1C2037
:1008C000ADF8000048208DF803006946354803F074
:1008D00085FA0120ADF8000028208DF80300694654
:1008E000314803F07BFA08BD10B5044614B101206D
:1008F0002E4908702D480078002837D0102129484B
:1009000003F0FAFA78B10821264803F0F5FA50B15D
:100910000421244803F0F0FA28B10121224803F011
:10092000EBFA012822D10A2002F091FD00201F4994
:10093000087010211B4803F0DFFA08B9012010BD30
:100940000821184803F0D8FA08B90220F7E7042173
:10095000144803F0D1FA08B90320F0E70121124846
:1009600003F0CAFA01281BD10420E8E710210D4842
:1009700003F0C2FA012813D108210A4803F0BCFA97
:1009800001280DD10421074803F0B6FA012807D148
:100990000121054803F0B0FA10B90120034908709D
:1009A0000020CCE70018014000080140180000209A
:1009B000F94908807047F849891C08807047F64853
:1009C000801C00887047F44A10804FF0D842A2F88B
:1009D0000018704710B504462046FFF7E9FF0520D0
:1009E00002F013FDFFF7EBFF10BDEC48C079EA49B8
:1009F00008807047E849891C0880704730B5014677
:100A000001F01F04C1F34513CA0AE50205EB4315C3
:100A10001544A8B230BD00BF0100A0F10102D0B260
:100A2000FAD1704710B503460C46DC488088A0F523
:100A30001341413905D0D9488088A0F5D041043907
:100A400014D1D649087AFFF7B3FF1812FFF7B3FFA6
:100A5000D8B2FFF7B0FFD149487AFFF7A9FF2012BB
:100A6000FFF7A9FFE0B2FFF7A6FF12E0CB488079BD
:100A7000012804D1C9480088401EC01A83B2C74962
:100A8000087A1946FFF79FFFC449487A2146FFF7C5
:100A90009AFF10BD2DE9F04104460D4600260027BF
:100AA000B046BE480088A04203DDBC484088A8424A
:100AB00002DC0020BDE8F08129462046FFF7B2FFA6
:100AC000B6488088A0F51341413905D0B3488088E5
:100AD000A0F5D041043903D12E20FFF769FF02E0D1
:100AE0002220FFF765FFAD488088A0F5134120392B
:100AF00002D10220FFF78FFFA748801C008800B1B9
:100B000000260220FFF787FFA348801C0688A34821
:100B10008088A0F51341413909D10220FFF77BFFFE
:100B20009D48801CB0F80080F7B23F0208E09B4867
:100B30008088A0F5D041043902D19748801C0688EE
:100B400096488088A0F51341253917D093488088AE
:100B5000A0F58A41353911D090488088A0F58A41A6
:100B600031390BD08D488088A0F50941893905D0ED
:100B70008A488088A0F53541053901D1304699E78A
:100B800086488088A0F51341413907D1F012C00290
:100B9000B91240EA411040EAE8208BE73046FFF7FF
:100BA0002DFF87E700B57D488088A0F513414139C6
:100BB00005D07A488088A0F5D041043903D1292096
:100BC000FFF7F6FE04E040F273110720FFF7FBFE8B
:100BD00000BD00B571488088A0F51341413905D0AA
:100BE0006E488088A0F5D041043903D12820FFF752
:100BF000DFFE03E000210720FFF7E5FE00BD70B532
:100C00000346002400256548807901281ED16348E9
:100C10008088A0F5D041043918D0082B15D2DFE820
:100C200003F00406080A0C0E101206230DE0072339
:100C30000BE0042309E0052307E0012305E000237E
:100C400003E0032301E0022300BF00BF5348808874
:100C5000A0F51341413905D050488088A0F5D04116
:100C600004397CD1082B1CD2DFE803F00406090C00
:100C70000F12151800BF14E044F0800411E044F096
:100C800040040EE044F0C0040BE044F0200408E00F
:100C900044F0600405E044F0A00402E044F0E00405
:100CA00000BF00BF362544F008043C488088A0F50A
:100CB000D041043901D144F0020421462846FFF70F
:100CC00082FE14F0200F0DD0344800883349498843
:100CD000884214DA3148068840883049088008463E
:100CE00046800CE02D4800882C494988884206DD62
:100CF0002A480688408829490880084646802749AE
:100D0000087AFFF755FE0020FFF755FE0020FFF799
:100D100052FE22490988491EC1F30F20FFF74BFEFE
:100D20001E490988491EC8B2FFF745FE1B49487A8B
:100D3000FFF73EFE0020FFF73EFE0020FFF73BFEE0
:100D400016494988491EC1F30F20FFF734FE1349A5
:100D50004988491EC8B2FFF72EFE37E0FFE7082B8F
:100D600021D2DFE803F004070A0D0F12151D44F02D
:100D7000300418E044F0100415E044F0200412E0C0
:100D800000BF10E044F038040DE044F028040AE00D
:100D900044F0180407E00000FE07006CF00100209A
:100DA00044F0080400BF00BFFF488088A0F5094157
:100DB000893904D1112546F24000044302E003259D
:100DC00044F4805421462846FFF7FDFD70BD30B540
:100DD00004460D4629462046FFF724FEFFF705FE90
:100DE000F2480088F249088030BD30B503460C4611
:100DF0001546ED488088A0F51341413905D0EA48F1
:100E00008088A0F5D041043914D1E749087AFFF76A
:100E1000CFFD1812FFF7CFFDD8B2FFF7CCFDE249A6
:100E2000487AFFF7C5FD2012FFF7C5FDE0B2FFF7D6
:100E3000C2FD12E0DC488079012804D1DA4800883C
:100E4000401EC01A83B2D849087A1946FFF7BBFD85
:100E5000D549487A2146FFF7B6FDD348C079D44931
:100E6000891E08804FF0D840A0F8005830BD10B55A
:100E70000446002C3DD1CC498871F02008804FF405
:100E8000A070488008468088A0F51341413905D0FC
:100E9000C5488088A0F5D041043914D12C20C2491E
:100EA000C8712A2008722B20487208468088A0F555
:100EB000D04104394ED14FF4A070BB4908804FF4A3
:100EC000F070488046E0B8488088A0F5094189392B
:100ED00007D12220B449C8714E2008724F204872B1
:100EE00038E02220B049C8712020087221204872C1
:100EF00030E0AD488088A0F5D04104392AD00120E7
:100F0000A94988714FF4A0700880F02048800846F5
:100F10008088A0F51341413907D12C20A249C8711E
:100F20002A2008722B20487214E09F488088A0F580
:100F30000941893907D122209B49C8714F20087285
:100F40004E20487206E022209749C871212008727D
:100F5000202048720020FFF752FE10BD70B50446F5
:100F60000026914805884088454300210846FFF740
:100F700059FDFFF73AFD00BF02E08D480480761C62
:100F8000AE42FAD370BD00B59FB00121080203F054
:100F9000C2F9012140F2691003F0CAF90120ADF84D
:100FA000780010208DF87B0003208DF87A001EA9B0
:100FB000804802F013FF4CF23370ADF8780018202F
:100FC0008DF87B0003208DF87A001EA97A4802F084
:100FD00005FF4FF68070ADF8780018208DF87B0083
:100FE00003208DF87A001EA9744802F0F7FE41F242
:100FF0000100ADF8780018208DF87B0003208DF8F3
:101000007A001EA96E4802F0E9FE01200890002037
:1010100009900F200A9000200B900C900D900E90DC
:101020000190029003200390002004900590069008
:10103000079006200F900020109011901020129021
:101040000020139015901490169017904FF4805034
:101050001890002019904FF480401A9000201B90A7
:1010600008A81C9001A81D900FA802F0A0FB012168
:10107000062002F001FD322002F0E9F901210020F2
:10108000FFF7A1FC322002F0E2F90020FFF7A2FCFA
:101090004549888008468088FF280ADB0846808802
:1010A000A0F57F41FF3904D03F488088B0F5134F49
:1010B00045D1D320FFF77CFCFFF781FCFFF77FFCD5
:1010C000FFF77DFC38498880084680880006000CC0
:1010D0008880FFF774FC3449898808433249888046
:1010E00008468088A0F51341413918D0BF20FFF78A
:1010F0005FFCFFF764FCFFF762FCFFF760FCFFF7A3
:101100005EFC29498880084680880006000C88809B
:10111000FFF755FC244989880843234988802248E1
:101120008088A0F51341413909D01F488088A0F577
:10113000D041043903D049F241301B4988801A4814
:10114000818820A005F05AFA17488088A0F513413D
:1011500041397ED1CF20FFF72BFC0020FFF72BFC7D
:10116000C120FFF728FC3020FFF725FCED20FFF71A
:101170001FFC6420FFF71FFC0320FFF71CFC12205C
:10118000FFF719FC8120FFF716FCE820FFF710FCA1
:101190008520FFF710FC1020FFF70DFC7A20FFF7E9
:1011A0000AFCCB2016E00000F00100201A0000200D
:1011B0000008006C000C01400014014000180140C0
:1011C00000200140204C43442049443A25780D0A30
:1011D00000000000FFF7ECFB3920FFF7ECFB2C20B0
:1011E000FFF7E9FB0020FFF7E6FB3420FFF7E3FB06
:1011F0000220FFF7E0FBF720FFF7DAFB2020FFF7E4
:10120000DAFBEA20FFF7D4FB0020FFF7D4FB002035
:10121000FFF7D1FBC020FFF7CBFB1B20FFF7CBFB79
:10122000C120FFF7C5FB0120FFF7C5FBC520FFF775
:10123000BFFB3020FFF7BFFB3020FFF7BCFBC72010
:10124000FFF7B6FBB720FFF7B6FB3620FFF7B0FB82
:1012500000E0AFE04820FFF7AEFB3A20FFF7A8FB25
:101260005520FFF7A8FBB120FFF7A2FB0020FFF7F6
:10127000A2FB1A20FFF79FFBB620FFF799FB0A207D
:10128000FFF799FBA220FFF796FBF220FFF790FBF8
:101290000020FFF790FB2620FFF78AFB0120FFF7D5
:1012A0008AFBE020FFF784FB0F20FFF784FB2A2056
:1012B000FFF781FB2820FFF77EFB0820FFF77BFB71
:1012C0000E20FFF778FB0820FFF775FB5420FFF78F
:1012D00072FBA920FFF76FFB4320FFF76CFB0A208E
:1012E000FFF769FB0F20FFF766FB0020FFF763FBAA
:1012F0000020FFF760FB0020FFF75DFB0020FFF7F9
:101300005AFBE120FFF754FB0020FFF754FB1520A8
:10131000FFF751FB1720FFF74EFB0720FFF74BFBB2
:101320001120FFF748FB0620FFF745FB2B20FFF7B6
:1013300042FB5620FFF73FFB3C20FFF73CFB05201C
:10134000FFF739FB1020FFF736FB0F20FFF733FBC9
:101350003F20FFF730FB3F20FFF72DFB0F20FFF76B
:101360002AFB2B20FFF724FB0020FFF724FB0020A3
:10137000FFF721FB0120FFF71EFB3F20FFF71BFBC0
:101380002A20FFF715FB0020FFF715FB0020FFF7D1
:1013900012FB0020FFF70FFBEF20FFF70CFB1120E3
:1013A000FFF706FB782002F052F82920FFF700FB38
:1013B00001F00FBAFF488088A0F5D04104397ED1F2
:1013C0001120FFF7F5FA142002F041F8D020FFF7C2
:1013D000EFFA0720FFF7EFFA4220FFF7ECFA1D20A3
:1013E000FFF7E9FAD120FFF7E3FA0020FFF7E3FA6D
:1013F0001A20FFF7E0FA0920FFF7DDFAD220FFF705
:10140000D7FA0120FFF7D7FA2220FFF7D4FAC0203D
:10141000FFF7CEFA1020FFF7CEFA3B20FFF7CBFA0A
:101420000020FFF7C8FA0220FFF7C5FA1120FFF7E6
:10143000C2FAC520FFF7BCFA0320FFF7BCFAC820A8
:10144000FFF7B6FA0020FFF7B6FA2520FFF7B3FA48
:101450002120FFF7B0FA0520FFF7ADFA0020FFF7D3
:10146000AAFA0A20FFF7A7FA6520FFF7A4FA2520B9
:10147000FFF7A1FA7720FFF79EFA5020FFF79BFABB
:101480000F20FFF798FA0020FFF795FAF820FFF7F2
:101490008FFA0120FFF78FFAFE20FFF789FA00206C
:1014A000FFF789FA0220FFF786FA2020FFF780FA7B
:1014B0003620FFF77DFA0820FFF77DFA00E02AE0EA
:1014C0003A20FFF775FA5520FFF775FA2B20FFF742
:1014D0006FFA0020FFF76FFA0020FFF76CFA012087
:1014E000FFF769FA3F20FFF766FA2A20FFF760FA54
:1014F0000020FFF760FA0020FFF75DFA0120FFF7F8
:101500005AFADF20FFF757FA782001F0A0FF2920D0
:10151000FFF74EFA4CE7A7488088A0F5134125391C
:101520007ED147F6F001E520FFF74DFA4FF48071C8
:101530000120FFF748FA4FF4E0610220FFF743FA79
:1015400041F230010320FFF73EFA00210420FFF7AB
:101550003AFA40F202210820FFF735FA002109206B
:10156000FFF731FA00210A20FFF72DFA00210C20A5
:10157000FFF729FA00210D20FFF725FA00210F209F
:10158000FFF721FA00211020FFF71DFA0721112093
:10159000FFF719FA00211220FFF715FA0021132096
:1015A000FFF711FA00210720FFF70DFA41F29061D1
:1015B0001020FFF708FA40F227211120FFF703FA65
:1015C0009D211220FFF7FFF94FF4C8511320FFF7B8
:1015D000FAF925212920FFF7F6F90D212B20FFF735
:1015E000F2F907213020FFF7EEF940F20331312004
:1015F000FFF7E9F903213220FFF7E5F940F2062170
:101600003520FFF7E0F908213620FFF7DCF940F23A
:1016100006413720FFF7D7F94FF44171382000E039
:1016200057E0FFF7D0F907213920FFF7CCF940F256
:1016300002613C20FFF7C7F908213D20FFF7C3F9FD
:1016400000215020FFF7BFF9EF215120FFF7BBF930
:1016500000215220FFF7B7F940F23F115320FFF766
:10166000B2F94FF427416020FFF7ADF90121612065
:10167000FFF7A9F900216A20FFF7A5F900218020D2
:10168000FFF7A1F900218120FFF79DF900218220B9
:10169000FFF799F900218320FFF795F900218420B5
:1016A000FFF791F900218520FFF78DF91021902097
:1016B000FFF789F94FF4C0619220FFF784F940F2F7
:1016C00033110720FFF77FF922210020FFF77BF974
:1016D0006EE638488088A0F5134128396CD141F274
:1016E0008F01EC20FFF76FF941F23421EF20FFF773
:1016F0006AF94FF480710120FFF765F94FF4E0615A
:101700000220FFF760F941F230010320FFF75BF997
:1017100000210420FFF757F940F202210820FFF7CB
:1017200052F900210920FFF74EF900210A20FFF7A6
:101730004AF901210C20FFF746F900210D20FFF79F
:1017400042F900210F20FFF73EF900211020FFF79A
:101750003AF907211120FFF736F900211220FFF78F
:1017600032F900211320FFF72EF901210720FFF79E
:101770002AF9322001F06BFE41F290411020FFF770
:1017800022F940F227211120FFF71DF9322001F044
:101790005EFE8A211220FFF716F9322001F057FE73
:1017A0004FF4D0511320FFF70EF906212920FFF73F
:1017B0000AF902E0F001002088E00D212B20FFF75C
:1017C00002F9322001F043FE00212020FFF7FBF850
:1017D00000212120FFF7F7F8322001F038FE002128
:1017E0003020FFF7F0F840F204613120FFF7EBF80A
:1017F00040F205313220FFF7E6F800213520FFF7EF
:10180000E2F840F609413620FFF7DDF84FF40171A8
:101810003720FFF7D8F840F201313820FFF7D3F82E
:1018200040F207713920FFF7CEF800213C20FFF786
:10183000CAF840F60A213D20FFF7C5F8322001F032
:1018400006FE00215020FFF7BEF8EF215120FFF7E0
:10185000BAF800215220FFF7B6F840F23F115320AA
:10186000FFF7B1F84FF427416020FFF7ACF80121F2
:101870006120FFF7A8F800216A20FFF7A4F80021F3
:101880008020FFF7A0F800218120FFF79CF80021BD
:101890008220FFF798F800218320FFF794F80021B9
:1018A0008420FFF790F800218520FFF78CF81021A5
:1018B0009020FFF788F84FF4C0619220FFF783F87B
:1018C00040F233110720FFF77EF871E5FF4880886A
:1018D000A0F5134120397ED10846FFF774F84FF484
:1018E00080710120FFF76FF84FF4E0610220FFF7ED
:1018F0006AF841F230010320FFF765F80021042067
:10190000FFF761F840F202210820FFF75CF80021A0
:101910000920FFF758F800210A20FFF754F80121A9
:101920000C20FFF750F800210D20FFF74CF80021A4
:101930000F20FFF748F8322001F089FD40F2011135
:101940000720FFF740F8322001F081FD4FF4865167
:101950001020FFF738F807211120FFF734F84FF473
:1019600088711220FFF72FF84FF430611320FFF732
:101970002AF800212920FFF726F844F210012B2035
:10198000FFF721F800215020FFF71DF8EF2151202B
:10199000FFF719F800215220FFF715F840F23F1128
:1019A0005320FFF710F84FF41C516020FFF70BF89D
:1019B00001216120FFF707F800216A20FFF703F8F3
:1019C00000218020FEF7FFFF00218120FEF7FBFFB2
:1019D0000021822000E02CE0FEF7F5FF00218320AB
:1019E000FEF7F1FF00218420FEF7EDFF00218520A6
:1019F000FEF7E9FF10219020FEF7E5FF002192207D
:101A0000FEF7E1FF01219320FEF7DDFF4FF488711F
:101A10009520FEF7D8FF00219720FEF7D4FF002184
:101A20009820FEF7D0FF40F273110720FEF7CBFF9E
:101A3000BEE4A6488088A0F5134131397DD141F23A
:101A40001401E720FEF7BFFF4FF480710120FEF77D
:101A5000BAFF4FF400710220FEF7B5FF41F23801E2
:101A60000320FEF7B0FF40F202210820FEF7ABFF93
:101A700000210920FEF7A7FF00210A20FEF7A3FF9F
:101A800000210C20FEF79FFF00210D20FEF79BFF99
:101A900000210F20FEF797FF00211020FEF793FF93
:101AA00007211120FEF78FFF00211220FEF78BFF88
:101AB00000211320FEF787FFC82001F0C8FC41F287
:101AC00090611020FEF77FFF40F227211120FEF7E2
:101AD0007AFF322001F0BBFC0C211220FEF773FFCD
:101AE000322001F0B4FC4FF400611320FEF76BFFCD
:101AF00011212920FEF767FF0B212B20FEF763FF42
:101B0000322001F0A4FC00212020FEF75CFF40F20F
:101B10003F112120FEF757FF00213020FEF753FF31
:101B20004FF483713120FEF74EFF00213220FEF783
:101B30004AFF4FF40171352000E064E0FEF743FFF7
:101B400041F20A613620FEF73EFF40F2077137206E
:101B5000FEF739FF4FF483713820FEF734FF40F26F
:101B600007713920FEF72FFF40F202413C20FEF7BB
:101B70002AFF40F60F413D20FEF725FF00215020AF
:101B8000FEF721FFEF215120FEF71DFF002152201B
:101B9000FEF719FF40F23F115320FEF714FF4FF4F8
:101BA0001C516020FEF70FFF01216120FEF70BFFA3
:101BB00000216A20FEF707FF00218020FEF703FFC7
:101BC00000218120FEF7FFFE00218220FEF7FBFEB0
:101BD00000218320FEF7F7FE00218420FEF7F3FEAC
:101BE00000218520FEF7EFFE10219020FEF7EBFE8E
:101BF0004FF4C0619220FEF7E6FE40F23311072059
:101C0000FEF7E1FE86E431488088A0F5A841083956
:101C10007DD14FF480710120FEF7D5FE4FF4E061D5
:101C20000220FEF7D0FE41F230010320FEF7CBFE8A
:101C300000210420FEF7C7FE40F207210820FEF72E
:101C4000C2FE00210920FEF7BEFE00210A20FEF799
:101C5000BAFE00210C20FEF7B6FE00210D20FEF793
:101C6000B2FE00210F20FEF7AEFE142001F0EFFBC4
:101C700041F2B0611020FEF7A6FE01211120FEF70F
:101C8000A2FE01211720FEF79EFE4FF49C71122048
:101C9000FEF799FE4FF400611320FEF794FE092130
:101CA0002920FEF790FE09212A20FEF78CFE002154
:101CB000A420FEF788FE00215020FEF784FEEF21CD
:101CC0005120FEF780FE0021522001E0F0010020AB
:101CD000FEF779FE40F23F115320FEF774FE4FF4F9
:101CE0001C516020FEF76FFE01216120FEF76BFEA4
:101CF00000216A20FEF767FE00218020FEF763FEC8
:101D000000218120FEF75FFE0021822000E027E015
:101D1000FEF759FE00218320FEF755FE00218420A6
:101D2000FEF751FE00218520FEF74DFE1321902085
:101D3000FEF749FE00219220FEF745FE0321932085
:101D4000FEF741FE4FF488719520FEF73CFE40F20D
:101D500073110720FEF737FE322001F078FBB7E45D
:101D6000FF488088A0F5A85105397ED10720FEF7ED
:101D70002AFE322001F06BFB4FF48E711220FEF729
:101D800022FE0121A420FEF71EFE0F210820FEF7EF
:101D90001AFE08210A20FEF716FE08210D20FEF784
:101DA00012FE40F207713020FEF70DFE07213120B0
:101DB000FEF709FE40F203613220FEF704FE4FF405
:101DC000E0613320FEF7FFFD40F202213420FEF7F0
:101DD000FAFD02213520FEF7F6FD41F60F7136209F
:101DE000FEF7F1FD40F207713720FEF7ECFD002110
:101DF0003820FEF7E8FD00213920FEF7E4FD40F22F
:101E000007713A20FEF7DFFD00213B20FEF7DBFDE6
:101E100007213C20FEF7D7FD00213D20FEF7D3FD32
:101E2000322001F014FB01210720FEF7CCFD012137
:101E30001720FEF7C8FD322001F009FB4FF4BD5119
:101E40001020FEF7C0FD40F217211120FEF7BBFD68
:101E50004FF48F711220FEF7B6FD4FF4706113201E
:101E6000FEF7B1FD00212A2000E093E0FEF7ABFD74
:101E70000A212920FEF7A7FD4FF49F711220FEF7DB
:101E8000A2FD00215020FEF79EFDEF215120FEF71C
:101E90009AFD00215220FEF796FD40F23F1153209B
:101EA000FEF791FD4FF41C516020FEF78CFD0121DF
:101EB0006120FEF788FD00216A20FEF784FD0021E5
:101EC0008020FEF780FD00218120FEF77CFD0021AF
:101ED0008220FEF778FD00218320FEF774FD0021AB
:101EE0008420FEF770FD00218520FEF76CFD132194
:101EF0009020FEF768FD4FF440719220FEF763FDDD
:101F000005219320FEF75FFD00219520FEF75BFD84
:101F100000219720FEF757FD00219820FEF753FD82
:101F20004FF480710120FEF74EFD4FF4E061022076
:101F3000FEF749FD41F238010320FEF744FD002180
:101F40000420FEF740FD00210C20FEF73CFD00219F
:101F50000F20FEF738FD00212020FEF734FD002180
:101F60002120FEF730FD21210720FEF72CFD142053
:101F700001F06DFA61210720FEF725FD142001F024
:101F800066FA40F273110720FEF71DFD142001F0E0
:101F90005EFA9AE472488088A0F5354105397DD112
:101FA0000846FEF710FD00210846FEF70CFD002153
:101FB0000846FEF708FD00210846FEF704FD012152
:101FC000A420FEF700FD142001F041FA4FF41C514B
:101FD0006020FEF7F8FC40F202210820FEF7F3FC37
:101FE0004FF405713020FEF7EEFC43F215713120FD
:101FF000FEF7E9FC40F204613220FEF7E4FC40F613
:1020000016613320FEF7DFFC42F211213420FEF787
:10201000DAFC4FF4A8513520FEF7D5FC48F2075101
:102020003620FEF7D0FC41F207413720FEF7CBFC0B
:1020300041F203413820FEF7C6FC20213920FEF78B
:10204000C2FC1A219020FEF7BEFC00211020FEF7F2
:10205000BAFC07211120FEF7B6FC00211220FEF782
:10206000B2FC00211320FEF7AEFC142001F0EFF9C2
:102070004FF4E6611020FEF7A6FC40F23711112064
:10208000FEF7A1FC142001F0E2F94FF4DC711220FC
:10209000FEF799FC142001F0DAF900E086E04FF435
:1020A00070611320FEF78FFC80212A20FEF78BFC45
:1020B00048212920FEF787FC142001F0C8F94FF4CD
:1020C00080710120FEF77FFC4FF4E0610220FEF7F3
:1020D0007AFC41F238010320FEF775FC40F2022140
:1020E0000820FEF770FC00210A20FEF76CFC00219E
:1020F0000C20FEF768FC00210D20FEF764FC302167
:102100000E20FEF760FC00215020FEF75CFCEF2162
:102110005120FEF758FC00215220FEF754FC40F2FB
:102120003F115320FEF74FFC4FF41C516020FEF787
:102130004AFC01216120FEF746FC00216A20FEF7DF
:1021400042FC11219020FEF73EFC4FF4C06192202A
:10215000FEF739FC40F202419320FEF734FC01E027
:10216000F001002002219420FEF72DFC142001F044
:102170006EF901210720FEF726FC142001F067F913
:1021800061210720FEF71FFC40F273110720FEF7C4
:102190001AFC00212020FEF716FC00212120FEF76A
:1021A00012FC22210020FEF70EFC12E3FF4880887B
:1021B000A0F5454105397DD10846FEF704FC002114
:1021C0000846FEF700FC142001F041F90021084602
:1021D000FEF7F9FB00210846FEF7F5FB0021084653
:1021E000FEF7F1FB00210846FEF7EDFB0121A420DC
:1021F000FEF7E9FB142001F02AF94FF41C5160208E
:10220000FEF7E1FB40F606010820FEF7DCFB40F29A
:1022100003713020FEF7D7FB01213120FEF7D3FBFD
:1022200004213220FEF7CFFB4FF481713320FEF7FB
:10223000CAFB4FF440713420FEF7C5FB40F2031196
:102240003520FEF7C0FB1F213620FEF7BCFB40F215
:1022500003713720FEF7B7FB01213820FEF7B3FBEF
:1022600004213920FEF7AFFB15219020FEF7ABFBD0
:102270004FF482611020FEF7A6FB40F247211120A7
:10228000FEF7A1FB4FF4DE711220FEF79CFB4FF42A
:1022900060611320FEF797FB782001F0D8F84FF427
:1022A00080710120FEF78FFB4FF400710220FEF7D2
:1022B0008AFB00E050E041F230010320FEF783FB8F
:1022C00008210A20FEF77FFB00210C20FEF77BFB94
:1022D00020210E20FEF777FB00210F20FEF773FB75
:1022E00000212020FEF76FFB00212120FEF76BFB71
:1022F0003D212A20FEF767FB142001F0A8F82D21CC
:102300002920FEF760FB00215020FEF75CFB4DF218
:10231000EF015120FEF757FB00215220FEF753FB3F
:1023200040F23F115320FEF74EFB00216120FEF7E3
:102330004AFB00216A20FEF746FB4FF440719220D1
:10234000FEF741FB05219320FEF73DFB4FF4807122
:102350000720FEF738FB3CE294488088A0F509414D
:1023600089397DD101210020FEF72DFB4AF6A40119
:102370000320FEF728FB00210C20FEF724FB40F68B
:102380000C010D20FEF71FFB4FF42C510E20FEF721
:102390001AFBB0211E20FEF716FB42F63F3101204A
:1023A000FEF711FB4FF4C0610220FEF70CFB002189
:1023B0001020FEF708FB46F278011120FEF703FB20
:1023C00000210520FEF7FFFA00210620FEF7FBFAA8
:1023D0004EF61C711620FEF7F6FA03211720FEF7C1
:1023E000F2FA40F233210720FEF7EDFA00210B202C
:1023F000FEF7E9FA00210F20FEF7E5FA002141205F
:10240000FEF7E1FA00214220FEF7DDFA0021482024
:10241000FEF7D9FA40F23F114920FEF7D4FA002125
:102420004A20FEF7D0FA00214B20FEF7CCFA4FF4F9
:102430006F414420FEF7C7FA00214520FEF7C3FA9A
:1024400040F23F114620FEF7BEFA40F207713020FD
:10245000FEF7B9FA4FF401713120FEF7B4FA00E04B
:102460003DE04FF401713220FEF7ADFA40F2025127
:102470003320FEF7A8FA40F207513420FEF7A3FA02
:102480004FF401713520FEF79EFA4FF401713620AA
:10249000FEF799FA40F202513720FEF794FA40F223
:1024A00002313A20FEF78FFA40F202313B20FEF76C
:1024B0008AFA00212320FEF786FA00212420FEF765
:1024C00082FA4FF400412520FEF77DFA00214F20CB
:1024D000FEF779FA00214E20FEF775FA79E13348CC
:1024E0008088A0F58A4131397ED101210020FEF794
:1024F0006AFA0A2000F0ABFF41F228611020FEF7D3
:1025000062FA0E211220FEF75EFA40F639211320FE
:10251000FEF759FA0A2000F09AFF40211120FEF739
:1025200052FA50211520FEF74EFA0A2000F08FFFD4
:102530001E211220FEF747FA0A2000F088FF4FF410
:10254000B1511020FEF73FFA42F639211320FEF771
:102550003AFA0A2000F07BFF4FF480710120FEF769
:1025600032FA4FF440710220FEF72DFA41F23801A1
:102570000320FEF728FA40F202210820FEF723FA92
:1025800008210A20FEF71FFA00213020FEF71BFA6F
:1025900040F202413120FEF716FA4FF483713220E7
:1025A000FEF711FA40F20351332001E0F001002060
:1025B000FEF709FA4FF482713420FEF704FA40F274
:1025C00001313520FEF7FFF940F207713620FEF7A2
:1025D000FAF940F205313720FEF7F5F94FF40271B0
:1025E0003820FEF7F0F900E03EE040F60B713920AC
:1025F000FEF7E9F902214120FEF7E5F94FF41C51FD
:102600006020FEF7E0F901216120FEF7DCF94FF4CC
:1026100004719020FEF7D7F94FF485719220FEF7F0
:10262000D2F904219320FEF7CEF94FF48071A02057
:10263000FEF7C9F901210720FEF7C5F9212107207E
:10264000FEF7C1F923210720FEF7BDF9332107204A
:10265000FEF7B9F940F233110720FEF7B4F9002173
:10266000A020FEF7B0F9B4E0FA488088A0F58A41CE
:102670003539F8D130211520FEF7A5F910219A201F
:10268000FEF7A1F920211120FEF79DF943F2284120
:102690001020FEF798F902211220FEF794F941F27A
:1026A00038011320FEF78FF9282000F0D0FE122108
:1026B0000846FEF788F9282000F0C9FE43F22041C1
:1026C0001020FEF780F943F238011320FEF77BF962
:1026D000462000F0BCFE00213020FEF774F940F2E5
:1026E00002413120FEF76FF940F207313220FEF748
:1026F0006AF94FF441713320FEF765F90421342063
:10270000FEF761F940F201413520FEF75CF940F235
:1027100007713620FEF757F940F205313720FEF7F2
:1027200052F94FF4C2613820FEF74DF94FF4C261FF
:102730003920FEF748F94FF480710120FEF743F984
:102740004FF440710220FEF73EF941F230010320C0
:10275000FEF739F940F608010820FEF734F90821A0
:102760000A20FEF730F94FF41C516020FEF72BF9D8
:1027700001216120FEF727F94FF49F719020FEF7A9
:1027800022F94FF480719220FEF71DF94FF4807109
:102790009320FEF718F94FF44051A020FEF713F9EB
:1027A0001021A320FEF70FF901210720FEF70BF9F6
:1027B00021210720FEF707F923210720FEF703F95F
:1027C00033210720FEF7FFF840F233110720FEF710
:1027D000FAF80020FEF74BFB01209F4908604FF6F6
:1027E000FF70FEF7BBFB1FB000BD2DE9F04F0446A4
:1027F0000D4616461F46DDF824804FF0000B301BB7
:10280000401C1FFA80FBA94615E049462046FEF70A
:1028100009F9FEF7EAF84FF0000A06E04046FEF735
:10282000CAF80AF101001FFA80FADA45F6DB09F16D
:1028300001001FFA80F9B945E7DDBDE8F08F2DE909
:10284000F84F04460D4616461F46DDF82880301B1B
:10285000401C80B20090781B401C1FFA80F94FF09A
:10286000000A1BE005EB0A0081B22046FEF7DAF809
:10287000FEF7BBF84FF0000B09E00AFB09B038F88F
:102880001000764908800BF101001FFA80FB0098C8
:102890008345F2DB0AF101001FFA80FACA45E1DB49
:1028A000BDE8F88F2DE9FF4F85B004460D4616466A
:1028B000002004900390A6EB04080898A0EB0509FB
:1028C000A3460095B8F1000F02DD012001900AE057
:1028D000B8F1000F02D10020019004E04FF0FF306A
:1028E0000190C8F10008B9F1000F02DD4FF0010AB4
:1028F00009E0B9F1000F02D14FF0000A03E04FF0F8
:10290000FF3AC9F10009C84502DDCDF8088001E0B1
:10291000CDF80890002722E0009881B21FFA8BF0D2
:10292000FEF755FA049840440490039848440390F5
:1029300002990498884205DD04990298081A0490C7
:1029400001988344DDE90210884206DDDDE90210CA
:10295000401A0390009850440090781C87B2029867
:10296000401C8742D8DD09B0BDE8F08FF0B50446C1
:102970000D4616461F462B46324629462046FFF78F
:1029800091FF3B46224629462046FFF78BFF3B46F8
:10299000324639462046FFF785FF3B4632462946F8
:1029A0003046FFF77FFFF0BD2DE9F04304460D46AA
:1029B00016460027B0460320A0EB460946E0A5EBEB
:1029C000080291B2E21990B2FEF701FAEA1B91B245
:1029D00004EB080290B2FEF7FAF9EA1991B204EB9F
:1029E000080290B2FEF7F3F905EB080291B2E21982
:1029F00090B2FEF7ECF905EB080291B2E21B90B23F
:102A0000FEF7E5F9EA1991B2A4EB080290B2FEF7DD
:102A1000DEF9A5EB080291B2E21B90B2FEF7D7F9FE
:102A2000EA1B91B2A4EB080290B2FEF7D0F97F1C2A
:102A3000B9F1000F03DAB800801D814406E0A7EB6E
:102A4000080080000A308144A8F101084745B6DD3E
:102A5000BDE8F083F0010020808121420008006C75
:102A60002DE9F84F04460D4616461F460095CC4802
:102A7000B0F800B0A6F12000C6B20A98002850D1E4
:102A800082464BE00C2F07D106EB4600C54901EB0F
:102A9000800010F80A8004E0C34800EB061010F82C
:102AA0000A804FF0000931E018F0800F03D0BC48D5
:102AB000A0F800B003E0BD480088B9490880294665
:102AC0002046FEF784F94FEA48604FEA1068681C18
:102AD00085B2B7480088A04204DCB148A0F800B035
:102AE000BDE8F88F0098281AB8420BD1009D601CF1
:102AF00084B2AF480088A04203DCA948A0F800B027
:102B0000EEE706E009F1010000F0FF09B9F1080F56
:102B1000CADB00BF0AF1010000F0FF0ABA45B1DBD1
:102B200047E04FF0000A42E00C2F07D106EB4600C9
:102B30009C4901EB800010F80A8004E09A4800EB01
:102B4000061010F80A804FF0000928E018F0800FF6
:102B500003D029462046FEF73AF94FEA48604FEA8B
:102B60001068681C85B292484088A04203DC8C48FB
:102B7000A0F800B0B4E70098281AB8420BD1009D25
:102B8000601C84B28A480088A04203DC8448A0F814
:102B900000B0A5E706E009F1010000F0FF09B9F176
:102BA000080FD3DB00BF0AF1010000F0FF0ABA45AD
:102BB000BADB7B48A0F800B092E710B502460120CE
:102BC00000E050430B00A1F10104E1B2F9D110BDC6
:102BD0002DE9FF4F81B0044615461E460E9F4FF06B
:102BE000000AD0463EE0A6EB0800401EC1B20A2013
:102BF000FFF7E3FFB5FBF0F00A21B0FBF1F201FBB8
:102C0000120000F0FF09BAF1000F16D1701E404506
:102C100013DDB9F1000F0ED10023BB4607EBD771CE
:102C2000491001FB084188B200933B4620220299DB
:102C3000FFF716FF12E04FF0010A0023BB4607EB37
:102C4000D771491001FB084188B200933B4609F156
:102C50003001CAB20299FFF703FF00BF08F101007B
:102C600000F0FF08B045BEDB05B0BDE8F08F2DE9F0
:102C7000FF4F82B0044615461E46DDE90F7800205E
:102C80000190814652E0A6EB0900401EC1B20A2025
:102C9000FFF793FFB5FBF0F00A21B0FBF1F201FB67
:102CA000120000F0FF0A019850BB701E484527DD56
:102CB000BAF1000F22D118F0800F0FD008F00103F5
:102CC000BB4607EBD771491001FB094188B200935D
:102CD0003B4630220399FFF7C3FE0EE008F00103E4
:102CE000BB4607EBD771491001FB094188B200933D
:102CF0003B4620220399FFF7B3FE13E00120019029
:102D000008F00103BB4607EBD771491001FB0941ED
:102D100088B200933B460AF13001CAB20399FFF72B
:102D20009FFE00BF09F1010000F0FF09B145AADBD9
:102D300006B0BDE8F08F2DE9F84704460D4616466B
:102D40001F46DDE9098904F0FF0A301986B27819B7
:102D500087B219E0B44203DB544605EB080085B2A4
:102D6000BD4200DB18E00023009399F800204346A1
:102D700029462046FFF774FE404608EBD87104EB65
:102D800061018CB209F1010999F800007E2803DC89
:102D900099F800002028DDDA00BFBDE8F8870000C0
:102DA0001A000020AC6A0008206F00081C000020F8
:102DB000F001002008B50121082001F0B9FA4FF414
:102DC0004060ADF8000010208DF8030003208DF85E
:102DD000020069469E4801F001F84FF440619C48AA
:102DE00001F0A4F808BD10B59948001D006820F452
:102DF00070409849C1F8040C0846D0F8040C40F41F
:102E000040509349091D0860012093490860934987
:102E1000C1F8A801042000F0F8FA00208F49C1F899
:102E2000AC01042000F0F1FA00208C49C1F8A8019F
:102E300010BD10B58648001D006820F4704085491B
:102E4000C1F8040C0846D0F8040C40F44050804906
:102E5000091D086000208049091F08607F49C1F8EA
:102E6000AC01042000F0D1FA01207B49091F086061
:102E70007A49C1F8AC01042000F0C7FA10BD10B5C2
:102E800000247348001D006820F470407149C1F8A7
:102E9000040C0846D0F8040C40F400406C49091DAD
:102EA000086001206C49086000F0AFFA01206B490E
:102EB000C1F8A80100F0A9FA07E0601CC4B2FA2C1E
:102EC00003DDFFF7B6FF012010BD634880380068BE
:102ED0000028F2D16049091F0860F5E710B500200D
:102EE0005D49091F08605B48D0F8040C20F470406D
:102EF0005849C1F8040C0846D0F8040C40F440507E
:102F00005349091D086000205449C1F8AC01022052
:102F100000F07BFA01205149C1F8A801022000F01D
:102F200074FA00204D49C1F8A80110BD10B5002069
:102F30004949091F08604748D0F8040C20F4704044
:102F40004449C1F8040C0846D0F8040C40F4405041
:102F50003F49091D086001204049C1F8AC01022029
:102F600000F053FA01203D49C1F8A801022000F009
:102F70004CFA00203949C1F8A80110BD70B50546CA
:102F80003348001D006820F470403249C1F8040C39
:102F90000846D0F8040C40F440502D49091D086043
:102FA00000202D49091F0860002417E0E8092A497C
:102FB00008606806050E022000F027FA0120274964
:102FC000C1F8A801022000F020FA00202249091FC0
:102FD0000860022000F019FA601CC4B2082CE5DB7E
:102FE00070BD70B5044600251948001D006820F426
:102FF00070401849C1F8040C0846D0F8040C40F49D
:103000000040C1F8040C002617E000201249091FF7
:103010000860022000F0F9F901201049C1F8A80168
:103020006806050E0C488038006808B1681CC5B2F7
:10303000012000F0EAF9701CC6B2082EE5DB14B9D5
:10304000FFF774FF01E0FFF749FF284670BD00005D
:10305000000C014000000140AC812142008021426F
:1030600008B50121282001F063F98020ADF80000A7
:1030700010208DF8030003208DF8020069460A48ED
:1030800000F0ACFE8020ADF800006946074800F073
:10309000A5FE08BD00F00101054A1160C0F3400122
:1030A000044AC2F898117047000C01400014014016
:1030B0009C8122420080214270B504460D46FFF7F4
:1030C00092FE2220FFF75AFFFFF7D9FE2046FFF7B6
:1030D00055FFFFF7D4FE2812FFF750FFFFF7CFFE92
:1030E000E8B2FFF74BFFFFF7CAFEFFF7A2FE70BD85
:1030F00070B50446FFF777FE2220FFF73FFFFFF78A
:10310000BEFE2046FFF73AFFFFF7B9FEFFF76BFE62
:103110002320FFF733FFFFF7B2FE0120FFF761FF27
:1031200005462D020020FFF75CFF0543FFF781FEF7
:10313000284670BD10B5FFF73DFE0020FFF7D8FF11
:103140000446A4F5B040053837D102210846FFF700
:10315000B3FF322000F07BF94CF201010220FFF7AF
:10316000ABFF4FF4167000F072F948F64F010520DE
:10317000FFF7A2FF4FF4F0410720FFF79DFF082162
:103180001320FFF799FF4FF4A1511520FFF794FF8B
:103190004FF440411620FFF78FFF43F226111C2009
:1031A000FFF78AFF49F624412220FFF785FF4FF2FF
:1031B00060614720FFF780FF01E0012010BD002083
:1031C000FCE710B54020FFF793FF04464FF6F07080
:1031D000044021464020FFF76FFF10BD10B540208E
:1031E000FFF786FF04464FF6F070044044F00104F8
:1031F00021464020FFF760FF10BD10B50B20FFF700
:1032000077FF0446601210BD70B505460520FFF734
:103210006FFF04464FF6F070044005F00F000443C2
:1032200021460520FFF748FF70BD70B50446022017
:10323000FFF75EFF054614B145F4804501E025F433
:10324000804529460220FFF737FF70BD70B505465F
:103250000520FFF74DFF044648F2FF00044044EA12
:10326000052421460520FFF727FF70BD70B50546F0
:103270004220FFF73DFF04464FF6C07004402C4348
:1032800021464220FFF718FF70BD70B50546422069
:10329000FFF72EFF04464FF6FF00044044EA0524E2
:1032A00021464220FFF708FF70BD70B50546032098
:1032B000FFF71EFF04464FF6F370044044EA85040E
:1032C00021460320FFF7F8FE70BD70B505460320C8
:1032D000FFF70EFF04464FF6FC7004402C432146D6
:1032E0000320FFF7E9FE70BD2DE9F04704460026F4
:1032F00000270320FFF7FCFE054605F01F05C5F378
:10330000810705F003060EB90A2604E0012E01D15B
:10331000142600E0052617B942F2FC180FE0012F31
:1033200001D0022F02D141F6B05808E05320FFF738
:10333000DFFE804608EB880040044FEA1048444511
:1033400001DABDE8F087A4EB080090FBF6F01FFA65
:1033500080F9C9F3090945EA891545F010052946A0
:103360000320FFF7A9FE142000F071F800BF0B2026
:10337000FFF7BEFE10F0800FF9D0E2E72DE9F04133
:103380000025A8460320FFF7B3FE0446A711C4F3A7
:10339000810804F003050DB90A2504E0012D01D1CF
:1033A000142500E00525B8F1000F02D142F2FC1609
:1033B00010E0B8F1010F02D0B8F1020F02D141F6CE
:1033C000B05607E05320FFF793FE064606EB860053
:1033D0004004060C07FB056084B22046BDE8F0817E
:1033E00010B56FF0040000F077F92A4800682A4908
:1033F000B0FBF1F029490870084600784FF47A7163
:1034000048432649891C088010BD244A127842434B
:103410004FF0E0235A6100229A611A46126942F085
:1034200001021A6100BF4FF0E022116911F0010F93
:1034300002D011F4803FF6D04FF0E022126922F062
:1034400001024FF0E0231A6100229A617047134A8B
:10345000921C128842434FF0E0235A6100229A6185
:103460001A46126942F001021A6100BF4FF0E022D1
:10347000116911F0010F02D011F4803FF6D04FF026
:10348000E022126922F001024FF0E0231A610022CB
:103490009A6170470400002000127A001E0000208C
:1034A00010B54FF4A06000F0C5F810BD014600BF94
:1034B000704700BF4B4A128812F0400FFAD0C2B2D8
:1034C000484B1B1D1A80704710B586B00446012179
:1034D00044F2040000F02CFF424800F08BFF4FF450
:1034E0000070ADF8140003208DF8160018208DF838
:1034F000170005A93C4800F071FC4FF48060ADF85E
:10350000140004208DF8170005A9374800F066FC68
:1035100025208DF8000003208DF801008DF80200B1
:1035200001208DF80300684600F089F8019400201E
:10353000ADF80800ADF80A00ADF80C00ADF81000C9
:103540000C20ADF80E0001A9264800F096FF0122DC
:1035500040F22551234801F027F80121214801F0CC
:1035600017F806B010BD10B540F225511D4801F006
:1035700002F9002834D01B4801F07DF8C4B21B4882
:10358000008810F4004F2BD11848008810F4804FA9
:103590000CD00A2C03D000201449088020E01348E6
:1035A000008840F400401149088019E00D2C06D134
:1035B0000E48008840F480400C49088010E00B4819
:1035C0000088C0F30D000A490C5408480088401CCC
:1035D0000649088008460088C72801DD00200880C9
:1035E00010BD000000380140000801402400002008
:1035F000FA0100200948804709480047FEE7FEE736
:10360000FEE7FEE7FEE7FEE7FEE7FEE7FEE7FEE792
:1036100004480549054A064B704700006907000841
:103620003101000828030020280900202805002077
:103630002805002032490143324A1160704770B5B5
:10364000002100230F22C4780CB32E4C246804F40C
:10365000E064C4F5E064210AC1F10403CA4044787F
:1036600004FA03F18478144021430901264C0678BA
:10367000A155047804F01F050124AC4005786D11B4
:103680004FF0E02606EB8505C5F8004109E0047817
:1036900004F01F040125A5401C4C0678761144F85F
:1036A000265070BD1A4A0A400243164B1B1F1A606F
:1036B000704741B1134A121D126802434FF0E023D4
:1036C000C3F8102D07E00F4A121D126882434FF015
:1036D000E023C3F8102D7047042808D14FF0E021F3
:1036E000096941F004014FF0E022116107E04FF059
:1036F000E021096921F004014FF0E02211617047D7
:103700000000FA050CED00E000E400E080E100E0DC
:1037100080FFFF1F30B943F2DB014FF0204242F837
:10372000201005E043F2D2014FF0204242F8201071
:103730006FF07042411C4FF0204343F821201146A6
:103740001A4602EB8002C2F80411704710280AD111
:1037500018214FF020421166402151664FF0FC3194
:103760009166D16610E01821FA4A116040214FF0AD
:103770002042C2F884104FF0FC31F64A0832116042
:103780004FF02042C2F88C1070471820F1492031C8
:10379000086000200906C1F8A4004FF0FC30ED4994
:1037A00028310860091D0860091D08607047D0E9CC
:1037B00001121143C2681143026911434269114366
:1037C00082691143C2691143026A1143426A11437B
:1037D000826A1143C26A1143026B11434FF02043C6
:1037E000026843F822108168082908D11A46016846
:1037F00052F8211041F04001026843F82210416B59
:103800000968426B526841EA0211426B926841EAD0
:103810000221426BD26841EA0241426B126941EADD
:103820000251426B526941EA0261426B9269114353
:103830000268521C4FF0204343F82210C16AB1F5D0
:10384000804F1AD1816B0968826B526841EA02117C
:10385000826B926841EA0221826B126941EA02514D
:10386000826B526941EA0261826B9269114302687C
:1038700003EB8202C2F8041108E06FF070414FF0D0
:103880002043026803EB8202C2F80411704730B58E
:10389000002100220023446844F0080485682C437A
:1038A000C5682C4305692C43456944EA452485696C
:1038B00044EA4531C4692468C5696D6844EA052451
:1038C000C569AD6844EA0544C569ED6844EA056226
:1038D000046A2468056A6D6844EA0524056AAD68CF
:1038E00044EA0544056AED6844EA05630468102C5F
:1038F00005D14FF020442166A266E36608E0954CAE
:1039000021604FF02044C4F88820924C0C3423608E
:1039100030BD016841F01001426841EA42218268ED
:1039200041EA42318B4A20321160C1680968C2689D
:10393000526841EA0221C268926841EA0241C268C3
:10394000D26841EA0261834A28321160016909683C
:103950000269526841EA02210269926841EA024121
:103960000269D26841EA02617A4A2C3211604169E7
:1039700009684269526841EA02214269926841EA53
:1039800002414269D26841EA02614FF02042C2F826
:10399000B010704700210160022141600021816068
:1039A000C160016141618161C16101624FF4805177
:1039B0004162490081620021C16201630F21426BB3
:1039C0001160426B5160FF21426B91600F21426B8D
:1039D000D160426B1161426B51610021426B916178
:1039E0000F21826B1160826B5160FF21826B9160AD
:1039F0000F21826BD160826B1161826B516100215A
:103A0000826B9161704710210160002141608160EB
:103A1000C160016141618161FC21C2691160C269BB
:103A20005160C2699160C269D160026A1160026A24
:103A30005160026A9160026AD160704700210160A2
:103A400041608160FC21C2681160C2685160C26837
:103A50009160C268D16002691160026951600269B7
:103A600091600269D16042691160426951604269A6
:103A700091604269D160704751B14FF0204252F8D5
:103A8000202042F001024FF0204343F8202009E0BB
:103A90004FF0204252F820202F4B1A404FF0204385
:103AA00043F82020704799B1102808D14FF02042E8
:103AB000126E42F004024FF020431A661DE0254AC0
:103AC000126842F004024FF02043C3F8802014E053
:103AD000102809D14FF02042126E1F4BDB1E1A40F6
:103AE0004FF020431A6608E01A4A12681A4BDB1E90
:103AF0001A404FF02043C3F88020704748B1154961
:103B00002031096841F004014FF02042C2F8A010B2
:103B100009E01049203109680F4AD21E11404FF0C8
:103B20002042C2F8A0107047C1B1102808D14FF050
:103B30002042126E42F040024FF020431A6620E00D
:103B4000044A126842F040024FF02043C3F880203C
:103B500017E00000800000A0FEFF0F00102808D131
:103B60004FF02042126E6B4B1A404FF020431A6602
:103B700007E0694A1268674B1A404FF02043C3F8C8
:103B80008020704701460020102903D14FF02042C9
:103B9000506F02E0604A14321068704710B5F2B1FD
:103BA000102807D14FF020435B6E0B434FF02044A9
:103BB000636632E0B0F5807F08D1574B1B1D1B6850
:103BC0000B434FF02044C4F8843026E0524B24339A
:103BD0001B680B434FF02044C4F8A4301DE01028AC
:103BE00007D14FF020435B6E8B434FF02044636658
:103BF00013E0B0F5807F08D1474B1B1D1B688B433A
:103C00004FF02044C4F8843007E0434B24331B6852
:103C10008B434FF02044C4F8A43010BD10B50346C8
:103C200000200022102B03D14FF02044626E09E0E7
:103C3000B3F5807F03D1384C241D226802E0364C56
:103C4000243422680A4201D0012000E0002010BD87
:103C5000102807D14FF02042526E8A434FF0204384
:103C60005A6613E0B0F5807F08D12B4A121D126806
:103C70008A434FF02043C3F8842007E0264A2432C9
:103C800012688A434FF02043C3F8A420704770B5F0
:103C900002460020002300240025102A03D14FF003
:103CA0002046736E09E0B2F5807F03D11A4E361DAF
:103CB000336802E0184E2436336803EA010403EA4D
:103CC000D10514B10DB1012000E0002070BD102815
:103CD00008D14FF02042526E22EAD1024FF0204329
:103CE0005A6615E0B0F5807F09D10B4A121D1268A3
:103CF00022EAD1024FF02043C3F8842008E0064AAC
:103D00002432126822EAD1024FF02043C3F8A420E3
:103D100070470000BFFF0F00800000A010B50446F0
:103D2000C748844208D10121042000F01BFB002178
:103D3000042000F017FB46E0C248844208D101216C
:103D4000082000F00FFB0021082000F00BFB3AE0F8
:103D5000BD48844208D10121102000F003FB00215E
:103D6000102000F0FFFA2EE0B848844208D101216B
:103D7000202000F0F7FA0021202000F0F3FA22E0E2
:103D8000B348844208D10121402000F0EBFA002121
:103D9000402000F0E7FA16E0AE48844208D1012145
:103DA000802000F0DFFA0021802000F0DBFA0AE03A
:103DB000A948844207D10121801500F0D3FA0021DF
:103DC000A01500F0CFFA10BD10B50121084600F093
:103DD000C9FA0021012000F0C5FA10BDF0B500229B
:103DE0000023002400250026002791F803C00CF0D2
:103DF0000F0291F803C01CF0100F03D091F802C01D
:103E00004CEA0202B1F800C01CF0FF0F31D0066886
:103E100000242BE04FF0010C0CFA04F5B1F800C0BF
:103E20000CEA0503AB4220D1A5004FF00F0C0CFAB1
:103E300005F7BE4302FA05FC4CEA060691F803C0FA
:103E4000BCF1280F06D14FF0010C0CFA04FCC0F8AD
:103E500014C00AE091F803C0BCF1480F05D14FF03F
:103E6000010C0CFA04FCC0F810C0641C082CD1D35F
:103E70000660B1F800C0BCF1FF0F34DD46680024D5
:103E80002EE004F1080C4FF0010E0EFA0CF5B1F81B
:103E900000C00CEA0503AB4221D1A5004FF00F0C86
:103EA0000CFA05F7BE4302FA05FC4CEA060691F847
:103EB00003C0BCF1280F05D104F1080C0EFA0CFE6A
:103EC000C0F814E091F803C0BCF1480F07D104F129
:103ED000080C4FF0010E0EFA0CFEC0F810E0641C46
:103EE000082CCED34660F0BD4FF6FF710180022151
:103EF00081700421C17070470246002093680B4214
:103F000001D0012000E0002070470146886880B29F
:103F1000704702460020D3680B4201D0012000E028
:103F2000002070470146C86880B270470161704741
:103F3000416170470AB1016100E041617047C160B1
:103F400070474FF480320A438261816182618269E5
:103F5000826970470022414B1A684FF680731A40FD
:103F600042EA00120A433D4B1A6070473C49C8615F
:103F70007047F0B5002200230024002500F0004621
:103F8000B6F1004F02D1354EF46901E0334E74684A
:103F9000C0F3034582B200F44016B6F5401F08D1C5
:103FA00024F070642D4E766826F070662B4F7E608C
:103FB00012E000F48016B6F5801F06D1032606FA3B
:103FC00005F39C4344F0706406E0460D360102FAA6
:103FD00006F6B44344F0706421B1460D360102FA8E
:103FE00006F6344300F00046B6F1004F02D11B4EF6
:103FF000F46101E0194E7460F0BD30B500228B070A
:104000001C0F0F2303FA04F2144B08338C1053F8DF
:10401000244094438D1043F825408C1053F82430ED
:104020008C07240F00FA04F423430C4C08348D1041
:1040300044F8253030BD0A49DC3108607047000083
:1040400000080140000C0140001001400014014034
:1040500000180140001C0140002001400000014008
:1040600000002042DB48006840F00100D9490860A8
:1040700008464068D8490840D64948600846006864
:10408000D6490840D34908600846006820F48020DB
:1040900008600846406820F4FE0048604FF41F00A6
:1040A00088607047CB49096821F48031C94A1160A2
:1040B0001146096821F480211160B0F5803F03D0DA
:1040C000B0F5802F0ED106E0C249096841F4803175
:1040D000C04A116007E0BF49096841F4A021BD4A08
:1040E000116000E000BF00BF704710B5014600221C
:1040F000002300204A11012A02D1B64C236806E0B1
:10410000022A02D1B34C236A01E0B24C636A01F087
:104110001F02012494401C4201D0012000E0002035
:1041200010BD70B500240025002600BF3120FFF728
:10413000DCFF0646641CB4F5A06F01D0002EF5D05C
:104140003120FFF7D2FF08B1012500E00025284605
:1041500070BD00219F4A116821F0F80141EAC001B9
:10416000116070479E49086070470022994B5A6859
:1041700022F47C1240EA01031A43964B5A607047BE
:104180009749086670470021924A516821F003015F
:104190000143516070478F48406800F00C00704741
:1041A00000218C4A516821F0F001014351607047B1
:1041B0000021884A516821F4E06101435160704751
:1041C0000021844A516821F4605141EAC0015160E4
:1041D000704729B17F4A527A02437E4B5A7206E0F9
:1041E0007C4A527AC343DBB21A407A4B5A72704708
:1041F0007B49D831086070470021764A516821F424
:1042000040410143516070470021724A20321170D1
:10421000704A82F82010012802D004280AD104E054
:1042200001216C4A2032117005E00521694A2032D3
:10423000117000E000BF00BF70476A490860704716
:104240006449096A0143634A116270476549443908
:104250000860704730B500210022002300245D4D26
:104260006D6805F00C0121B1042905D0082923D17E
:1042700005E05D4D056022E05B4D05601FE0554D9A
:104280006D6805F47012534D6D6805F48033022596
:1042900005EB92421BB9554D554305600BE04D4D62
:1042A0006D6815F4003F03D0504D5543056002E0A2
:1042B0004D4D5543056002E04B4D056000BF00BF0A
:1042C000444D6D6805F0F0010909494D6C5C0568C5
:1042D000E54045603F4D6D6805F4E061090A444DD5
:1042E0006C5C4568E54085603A4D6D6805F4605149
:1042F000C90A3F4D6C5C4568E540C560354D6D6849
:1043000005F44041890B3A4D10356C5CC568B5FB2E
:10431000F4F5056130BD29B12E4A526902432D4B97
:104320005A6104E02B4A526982432A4B5A61704712
:1043300029B1284A92690243264B9A6104E0254A32
:1043400092698243234B9A61704729B1214AD2690D
:104350000243204BDA6104E01E4AD26982431D4BBE
:10436000DA61704729B11B4AD2680243194BDA60FF
:1043700004E0184AD2688243164BDA60704729B1CC
:10438000144A12690243134B1A6104E0114A12697C
:104390008243104B1A6170471249403908607047D8
:1043A0000F49C86470470B49C87170470948406A93
:1043B00040F0807007494862704701460020054A76
:1043C00092680A4201D0012000E0002070470149B4
:1043D00088727047001002400000FFF8FFFFF6FEF1
:1043E000000042428004424200127A0000093D006F
:1043F0002C00002010B50446FB48844209D101215D
:104400008803FFF7AFFF00214FF48040FFF7AAFFBA
:1044100032E0F648844209D101214804FFF7AFFF9A
:1044200000214FF40030FFF7AAFF25E0F048844256
:1044300009D101218804FFF7A2FF00214FF4802059
:10444000FFF79DFF18E0EB48844209D10121C80421
:10445000FFF795FF00214FF40020FFF790FF0BE0DE
:10446000E548844208D101210805FFF788FF0021B3
:104470004FF48010FFF783FF10BD2DE9F04786B0A1
:1044800004460D460026002700BFB146B246A88963
:1044900000B100BFA246268A4CF6FF700640E888AD
:1044A00006432682A6894EF6F3100640A88829897D
:1044B0000843698908430643A681A68A4FF6FF4050
:1044C0000640A8890643A68201A8FFF7C3FE54460A
:1044D000C548824501D1049F00E0039FA08910F4E4
:1044E000004F08D007EBC70000EB07102968490010
:1044F000B0FBF1F807E007EBC70000EB07102968F5
:104500008900B0FBF1F86420B8FBF0F00601300937
:10451000642101FB1089A08910F4004F09D03221D9
:1045200001EBC9006421B0FBF1F000F00700064385
:1045300008E0322101EB09106421B0FBF1F000F03A
:104540000F000643268106B0BDE8F0874FF41651F0
:10455000016000218180C18001810C214181002105
:104560008181704710B50022028A4FF2FF031A4082
:104570000B884C8823438C882343CC8823431A43DD
:10458000028210BD0021018041808180C18070477E
:1045900021B1828942F40052828104E082894DF681
:1045A000FF731A4082817047F0B500240025002671
:1045B0000023A1F510676A3F00D100BF0346C1F395
:1045C000421401F01F05012707FA05F6012C01D15D
:1045D0000C3304E0022C01D1103300E014331AB183
:1045E0001F6837431F6002E01F68B7431F60F0BDBC
:1045F00010B51AB1838A0B43838204E0838ACC43CB
:10460000A4B22340838210BD028A4FF6F0731A4091
:104610000282028A0A430282704782894FF2FF7344
:104620001A40828182890A438281704721B182893E
:1046300042F00202828104E082894FF6FD731A4043
:1046400082817047028A4FF6DF731A400282028A23
:104650000A430282704721B1028A42F480420282F8
:1046600004E0028A4BF6FF731A4002827047C1F3DE
:1046700008028280704701468888C0F308007047AE
:10468000818941F0010181817047028BD2B202839E
:10469000028B42EA012202837047028B02F47F42BE
:1046A0000283028B0A430283704721B1828A42F05F
:1046B0002002828204E0828A4FF6DF731A408282EF
:1046C000704721B1828A42F01002828204E0828A1D
:1046D0004FF6EF731A408282704721B1828A42F00E
:1046E0000802828204E0828A4FF6F7731A408282BF
:1046F000704721B1828942F40042828103E08289BD
:10470000C2F30E028281704721B1828A42F40062B4
:10471000828204E0828A4FF2FF731A4082827047DD
:10472000828A4FF6FB731A408282828A0A4382820F
:10473000704721B1828A42F00202828204E0828ABA
:104740004FF6FD731A408282704702460020B1F591
:10475000007F00D100BF13880B4201D0012000E090
:104760000020704701F40072B2F5007F00D100BF55
:10477000CA430280704770B502460023002400251A
:104780000020A1F510666A3E00D100BFC1F34215BA
:1047900001F01F04012606FA04F4012D02D19689C6
:1047A000344006E0022D02D1168A344001E0968A98
:1047B00034400B12012606FA03F31688334014B175
:1047C0000BB1012000E0002070BD10B500220023D5
:1047D000A1F510646A3C00D100BF0A120124944084
:1047E000A3B2DC43048010BD003801400044004007
:1047F00000480040004C00400050004010B5044606
:10480000FF48844208D10121C014FFF7ABFD00210D
:10481000E014FFF7A7FDC4E0B4F1804F08D10121F7
:104820000846FFF7ACFD00210120FFF7A8FDB8E026
:10483000F448844208D101210220FFF7A0FD0021A5
:104840000220FFF79CFDACE0EF48844208D1012133
:104850000420FFF794FD00210420FFF790FDA0E065
:10486000EA48844208D101210820FFF788FD002191
:104870000820FFF784FD94E0E548844208D1012137
:104880001020FFF77CFD00211020FFF778FD88E065
:10489000E048844208D101212020FFF770FD00216B
:1048A0002020FFF76CFD7CE0DB48844208D1012129
:1048B0004014FFF757FD00216014FFF753FD70E02F
:1048C000D648844209D10121C804FFF74BFD0021DD
:1048D0004FF40020FFF746FD63E0D148844209D140
:1048E00001210805FFF73EFD00214FF48010FFF77E
:1048F00039FD56E0CB48844209D101214805FFF734
:1049000031FD00214FF40010FFF72CFD49E0C648AF
:10491000844208D101214020FFF731FD00214020D1
:10492000FFF72DFD3DE0C148844208D101218020E0
:10493000FFF725FD00218020FFF721FD31E0BC4875
:10494000844208D101218015FFF719FD0021A0152F
:10495000FFF715FD25E0B748844209D1012108047D
:10496000FFF700FD00214FF48030FFF7FBFC18E05B
:10497000B148844209D101214804FFF7F3FC00212A
:104980004FF40030FFF7EEFC0BE0AC48844208D156
:1049900001218804FFF7E6FC00214FF48020FFF797
:1049A000E1FC10BD00220288954B98420ED09A4B34
:1049B00098420BD0B0F1804F08D0924B984205D06E
:1049C000914B984202D0914B984204D14FF68F738D
:1049D0001A404B881A438E4B984207D08D4B984211
:1049E00004D04FF6FF431A40CB881A4302808B88CD
:1049F00083850B880385824B98420BD0864B984267
:104A000008D08C4B984205D08B4B984202D08B4BF0
:104A1000984201D10B7A038601238382704770B5D7
:104A2000002200230024058C4FF6FE7635400584D5
:104A3000038C8488028B4FF68F752A40B51E2A405E
:104A40000D882A43751E2B400D892B434D882B431F
:104A50006B4DA8420BD0704DA84208D0754DA842AE
:104A600005D0754DA84202D0744DA84213D14FF61F
:104A7000F7752B404D892B434FF6FB752B408D88E6
:104A80002B434FF6FF652C404FF6FF552C408D8988
:104A90002C43CD892C4384800283CD888586038472
:104AA00070BD70B5002200230024058C4FF6EF7610
:104AB00035400584038C8488028B48F6FF752A40B4
:104AC0004FF6FF452A400D882D0642EA15424FF663
:104AD000DF752B400D892D0543EA15434D882D05C3
:104AE00043EA1543464DA84202D04B4DA8421BD184
:104AF0004FF67F752B404D892D0543EA15434FF640
:104B0000BF752B408D882D0543EA15434FF6FF35C1
:104B10002C404FF2FF752C408D89AD0444EA1544BA
:104B2000CD89AD0444EA154484800283CD8805878D
:104B3000038470BD70B5002200230024058C4FF65D
:104B4000FF6635400584038C8488828B4FF68F7511
:104B50002A404FF6FC752A400D882A434FF6FF5530
:104B60002B400D892D0643EA15434D882D0643EA57
:104B70001543234DA84202D0274DA8421BD14FF226
:104B8000FF752B404D892D0643EA15434FF6FF353F
:104B90002B408D882D0643EA15434EF6FF752C40B9
:104BA0004DF6FF752C408D892D0544EA1544CD89BD
:104BB0002D0544EA154484808283CD88858703844B
:104BC00070BD70B5002200230024058C4EF6FF76E0
:104BD00035400584038C8488828B48F6FF752A4013
:104BE0004FF6FF452A400D882D0642EA15424DF644
:104BF000FF752B400D892D0743EA15434D881FE0B3
:104C0000002C01400004004000080040000C00405F
:104C1000001000400014004000340140004C0140EE
:104C2000005001400054014000180040001C0040AA
:104C30000020004000400140004401400048014085
:104C40002D0743EA1543F84DA84202D0F74DA8427C
:104C500006D14BF6FF752C408D89AD0544EA15440D
:104C600084808283CD88A0F84050038470BD828BFD
:104C70004FF2FF331A408283828B0B0642EA1342C3
:104C800082837047F0B5002400250026078C4EF67D
:104C9000FF7C07EA0C070784848B058C0F073E0C0A
:104CA00040F6FF473C40170644EA17441F0744EA12
:104CB0001744DD4FB8420ED0DC4FB8420BD0B0F1F4
:104CC000804F08D0DA4FB84205D0DA4FB84202D050
:104CD000D94FB84206D14DF6FF773D4046F4805794
:104CE0003D4305E047F6FF573D4041F480573D43C3
:104CF00084830584F0BD828B4FF6F3731A40828360
:104D0000828B0A4382837047F0B500240025002679
:104D1000078C4FF6FF6C07EA0C070784848B058C21
:104D20000F063E0C4FF60C773C401F0542EA174732
:104D30003C43BD4FB8420ED0BC4FB8420BD0B0F18F
:104D4000804F08D0BA4FB84205D0BA4FB84202D00F
:104D5000B94FB84206D14FF6FF573D4046F4807731
:104D60003D4305E04FF2FF573D4041F480773D431E
:104D700084830584F0BD028B4FF2FF331A40028317
:104D8000028B0B0642EA134202837047F0B50024FF
:104D900000250026078C4FF6EF7C07EA0C070784F6
:104DA000048B058C0F053E0C40F6FF473C401F0767
:104DB00044EA1744170644EA17449B4FB8420ED002
:104DC0009A4FB8420BD0B0F1804F08D0984FB842FC
:104DD00005D0984FB84202D0974FB84206D14FF64F
:104DE000DF773D4046F010073D4305E04FF65F7723
:104DF0003D4041F010073D4304830584F0BD028B24
:104E00004FF6F3731A400283028B0A430283704702
:104E1000F0B500240025068C4FF6FE773E40068450
:104E2000048B058C4FF60C7634401E0542EA16467C
:104E300034437D4EB0420ED07C4EB0420BD0B0F128
:104E4000804F08D07A4EB04205D07A4EB04202D0A0
:104E5000794EB04206D14FF6FD76354041F001065D
:104E6000354305E04FF6F576354041F00106354310
:104E700004830584F0BD70B504460D466A4884423B
:104E80000ED06A4884420BD0B4F1804F08D06848F5
:104E9000844205D06748844202D06748844200D1EA
:104EA00000E000BF288850B92B89AA88698820466D
:104EB000FFF7AEFFE9882046FFF7A1FF25E028882D
:104EC00004280AD12B89AA8869882046FFF75EFF4B
:104ED000E9882046FFF74FFF17E0288808280AD105
:104EE0002B89AA8869882046FFF70EFFE9882046AB
:104EF000FFF701FF09E02B89AA8869882046FFF7A0
:104F0000C1FEE9882046FFF7B2FE70BD2DE9F041F1
:104F100004460D4600260127688808B9022600E0ED
:104F20000026A888012801D1022700E0012728884F
:104F3000A0B92B89AA8869882046FFF769FFE9880C
:104F40002046FFF75CFF2B893A4631462046FFF7A3
:104F50001DFFE9882046FFF70EFF13E02B89AA8882
:104F600069882046FFF712FFE9882046FFF703FF14
:104F70002B893A4631462046FFF74AFFE98820460A
:104F8000FFF73DFFBDE8F0810A884B881A438B8804
:104F90001A43CB881A430B891A434B891A438B89CE
:104FA0001A43A0F8442070474FF6FF71818000211A
:104FB0000180C180418001727047002101804180E1
:104FC0008180C180018141818181C181704700213F
:104FD00001804180012181800021C18001817047D1
:104FE0000021018041808180C180018141818181D6
:104FF000704721B1028842F00102028004E0028879
:105000004FF6FE731A400280704731B1B0F8442069
:1050100042F40042A0F8442005E0B0F84420C2F376
:105020000E02A0F844207047002C014000340140DB
:105030000004004000080040000C004010B51AB108
:1050400083890B43838104E08389CC43A4B223404A
:10505000838110BD8182704741EA0203A0F8483085
:10506000704710B51AB183890B43838104E08389AB
:10507000CC43A4B22340838110BD01894FF6F8725E
:10508000114001817047002202894FF68F731A4048
:105090000A430281704730B504460D462946204632
:1050A000FFF7F1FF208940F00700208130BD2DE996
:1050B000F04104460D4616461F46602D06D13B467C
:1050C000012231462046FFF761FE05E03B46012202
:1050D00031462046FFF79CFE29462046FFF7D3FFC6
:1050E000208940F007002081BDE8F08130B5002420
:1050F0000489E4B21D0642EA15450D432C430481A0
:1051000030BD2DE9F04104460D461646984600276D
:105110004346324629462046FFF7E8FF27894FF6E7
:10512000F870074047F007074FF68F70074047F0C9
:1051300070072781BDE8F081F0B504460D4616469C
:105140001F463B46324629462046FFF7CFFF2089BF
:1051500040F480402081F0BD0185828270470022AA
:1051600002884FF68F731A400A4302807047F0B5E9
:105170000024002500260489058B068C4FF6F8775D
:105180003C400C434FF6FC473D4040F201173D4385
:105190004FF6DD773E401F0542EA17473E43048144
:1051A00005830684F0BD0022028B4FF68F731A40F0
:1051B0000A43028370470022028B48F6FF731A40AD
:1051C0000B0642EA1342028370470022828B4FF69D
:1051D0008F731A400A43828370470022828B48F6FD
:1051E000FF731A400B0642EA13428283704721B1D3
:1051F000028842F08002028004E002884FF67F734A
:105200001A400280704721B1828842F004028280F5
:1052100004E082884FF6FB731A408280704721B108
:10522000828842F00802828004E082884FF6F77399
:105230001A408280704721B1828842F00102828048
:1052400004E082884FF6FE731A4082807047002285
:10525000028B4FF6F7731A400A430283704700220D
:10526000028B4FF2FF731A400B0642EA134202838D
:1052700070470022828B4FF6F7731A400A438283ED
:1052800070470022828B4FF2FF731A400B0642EAEE
:105290001342828370470022028B4FF6FB731A4041
:1052A0000A43028370470022028B4FF6FF331A40F5
:1052B0000B0642EA1342028370470022828B4FF6AC
:1052C000FB731A400A43828370470022828B4FF699
:1052D000FF331A400B0642EA1342828370470022D2
:1052E000028B4FF67F731A400A43028370470022F5
:1052F000028BC2F30E020B0642EA1342028370478E
:105300000022828B4FF67F731A400A4382837047D4
:105310000022828BC2F30E020B0642EA1342828302
:1053200070470022028C4FF6FD731A400A43028434
:1053300070470022028C4FF6F7731A400A4302842A
:1053400070470022028C4FF6DF731A400B0542EAC9
:105350001342028470470022028C4FF67F731A407A
:105360000B0542EA1342028470470022028C4FF67A
:10537000FF531A400B0642EA134202847047002290
:10538000028C4FF2FF731A400B0642EA134202846A
:1053900070470022028C4DF6FF731A400B0742EA59
:1053A00013420284704730B5002301248C40A3B21D
:1053B000048CDD43ADB22C400484048C02FA01F568
:1053C000ADB22C43048430BD30B5002304248C409E
:1053D000A3B2048CDD43ADB22C400484048C02FAE9
:1053E00001F5ADB22C43048430BD70B50023002418
:1053F00003461846183301258D40ACB2058CE643B0
:10540000B6B23540058409B1082909D103EB61031F
:105410001D6825F070051D601D6815431D600CE0BA
:105420000D1FADB203EB65031D6825F4E0451D605B
:105430001D68160645EA16451D6070BD21B102883B
:1054400042F00202028004E002884FF6FD731A4027
:105450000280704721B1028842F00402028004E019
:1054600002884FF6FB731A400280704721B1828890
:1054700042F08002828004E082884FF67F731A40F7
:105480008280704702884FF6F7731A4002800288C4
:105490000A430280704782884FF68F731A408280D9
:1054A00082880A438280704702894FF6F8731A4057
:1054B000028102890A430281704702894FF67F7395
:1054C0001A40028102890A43028170478184704731
:1054D0008185704781867047018770478187704753
:1054E000A0F84010704702884FF6FF431A40028030
:1054F00002880A43028070470146888E7047014641
:10550000088F70470146888F70470146B1F8400008
:1055100070470146888C70470146088D70470246E7
:105520000020138A0B4201D0012000E000207047C8
:10553000CA430282704730B502460020002300248F
:10554000158A05EA0103958905EA010413B10CB136
:10555000012000E0002030BDCA43028270470000F5
:1055600010B58CB004461E230BAA03A9204600F0F8
:105570001CFE0090009810B101200CB010BD9DF8E9
:105580002C00044400200B900EE060489DF82C2075
:1055900050F8221003A800F05FFD00B908E09DF864
:1055A0002C00401CC0B20B909DF82C000828ECDBAE
:1055B00000BF9DF82C0007287ED2DFE800F004052C
:1055C000395B8BA6A50000BF51A001F017F851A0D0
:1055D00001F014F85FA001F011F86EA001F00EF8D0
:1055E0007CA001F00BF88BA001F008F899A001F065
:1055F00005F8A6A001F002F8ABA000F0FFFFB0A0F4
:1056000000F0FCFFB4A000F0F9FFB9A000F0F6FF35
:10561000BDA000F0F3FFC3A000F0F0FFCEA000F0AB
:10562000EDFFDAA000F0EAFFE5A000F0E7FFAEE250
:1056300037A000F0E3FFF2A000F0E0FF00200B90A5
:105640000EE0FF4800689DF82C2000EBC200416886
:10565000FCA000F0D3FF9DF82C00401CC0B20B90C2
:10566000F748007D9DF82C108842EADC28A000F065
:10567000C5FF8CE226A000F0C1FFF4A000F0BEFF41
:1056800000200B901CE0EE4909689DF82C2001EBEE
:10569000C20101AB02AA486803A900F0AAFDE848CC
:1056A00000689DF82C1050F8312003A9F7A000F0F5
:1056B000A5FF9DF82C0000E067E2401CC0B20B90F3
:1056C000DF48007D9DF82C108842DCDC10A000F043
:1056D00095FF5CE20EA000F091FF0BAA03A9204603
:1056E00000F08CFE9DF82C0060B9694603A800F01C
:1056F000E6FC0B909DF82C0028B9E9A0009900F079
:105700007DFFE2E1DFE1D1E111E2E3E140000020D1
:105710000D0A00002D2D2D2D2D2D2D2D2D2D2D2D56
:105720002D2D2D2D2D2D2D2D2D2D2D2D55534D4127
:1057300052542056322E382D2D2D2D2D2D2D2D2D20
:105740002D2D2D2D2D2D2D2D2D2D2D2D2D2D2D2096
:105750000D0A00002020202055534D415254CAC745
:10576000D3C9414C49454E54454BBFAAB7A2B5C415
:10577000D2BBB8F6C1E9C7C9B5C4B4AEBFDAB5F794
:10578000CAD4BBA5BDBBD7E9BCFE2CCDA8B9FD20B2
:105790000D0A0000CBFC2CC4E3BFC9D2D4CDA8B9FC
:1057A000FDB4AEBFDAD6FACAD6B5F7D3C3B3CCD000
:1057B000F2C0EFC3E6B5C4C8CEBACEBAAFCAFD2CAC
:1057C000B2A2D6B4D0D02ED2F2B4CB2CC4E3BFC98F
:1057D0000D0A0000D2D4CBE6D2E2B8FCB8C4BAAF0E
:1057E000CAFDB5C4CAE4C8EBB2CECAFD28D6A7B379
:1057F000D6CAFDD7D62831302F3136BDF8D6C629C6
:10580000A1A2D7D6B7FBB4AEA1A2BAAFCAFDC8EB6E
:105810000D0A0000BFDAB5D8D6B7B5C8D7F7CEAAFB
:10582000B2CECAFD292CB5A5B8F6BAAFCAFDD7EEDF
:10583000B6E0D6A7B3D63130B8F6CAE4C8EBB2CEDC
:10584000CAFD2CB2A2D6A7B3D6BAAFCAFDB7B5204F
:105850000D0A0000BBD8D6B5CFD4CABE2ED0C2D454
:10586000F6B2CECAFDCFD4CABEBDF8D6C6C9E8D6F8
:10587000C3B9A6C4DC2CD0C2D4F6BDF8D6C6D7AA0C
:10588000BBBBB9A6C4DC2E0D0A000000BCBCCAF527
:10589000D6A7B3D63A7777772E6F70656E65647644
:1058A0002E636F6D0D0A000055534D415254D3D0F5
:1058B00036B8F6CFB5CDB3C3FCC1EE3A0D0A000041
:1058C0003F3A20202020BBF1C8A1B0EFD6FAD0C5C6
:1058D000CFA20D0A0000000068656C703A20BBF191
:1058E000C8A1B0EFD6FAD0C5CFA20D0A00000000C3
:1058F0006C6973743A20BFC9D3C3B5C4BAAFCAFDCB
:10590000C1D0B1ED0D0A0A0069643A202020BFC958
:10591000D3C3BAAFCAFDB5C44944C1D0B1ED0D0A75
:105920000A0000006865783A2020B2CECAFD313600
:10593000BDF8D6C6CFD4CABE2CBAF3B8FABFD5B814
:10594000F12BCAFDD7D6BCB4D6B4D0D0BDF8D6C6DC
:10595000D7AABBBB0D0A0A006465633A2020B2CE09
:10596000CAFD3130BDF8D6C6CFD4CABE2CBAF3B802
:10597000FABFD5B8F12BCAFDD7D6BCB4D6B4D0D0B7
:10598000BDF8D6C6D7AABBBB0D0A0A00C7EBB0B498
:10599000D5D5B3CCD0F2B1E0D0B4B8F1CABDCAE429
:1059A000C8EBBAAFCAFDC3FBBCB0B2CECAFDB2A24F
:1059B000D2D4BBD8B3B5BCFCBDE1CAF82E0D0A00E9
:1059C0002D2D2D2D2D2D2D2D2D2D2D2D2D2D2D2D07
:1059D0002D2D2D2D2D2D2D2D2D2D414C49454E5448
:1059E000454B2D2D2D2D2D2D2D2D2D2D2D2D2D2DB1
:1059F0002D2D2D2D2D2D2D2D2D2D2D200D0A000081
:105A00002D2D2D2D2D2D2D2D2D2D2D2D2D2D2D2DC6
:105A10002D2D2D2D2D2D2D2D2DBAAFCAFDC7E5B560
:105A2000A52D2D2D2D2D2D2D2D2D2D2D2D2D2D2D2E
:105A30002D2D2D2D2D2D2D2D2D2D2D2D200D0A0013
:105A4000A000002025730D0A000000002D2D2D2D33
:105A50002D2D2D2D2D2D2D2D2D2D2D2D2D2D2D2D76
:105A60002D2D2D2D2DBAAFCAFD204944202D2D2DD1
:105A70002D2D2D2D2D2D2D2D2D2D2D2D2D2D2D2D56
:105A80002D2D2D2D2D2D2D2D200D0A002573206956
:105A9000642069733A0D0A3058253038580D0A00D1
:105AA0004845583A305825580D0A00009DF82C00FA
:105AB000042801D0022060E5F5A000F09FFD012040
:105AC000F849C87501E0022057E5AFF2BC3000F09C
:105AD00095FD5CE0AFF2C83000F090FD0BAA03A981
