:020000040800F2
:10000000601D0020812F0008E1130008E3130008A1
:10001000E7130008EB130008EF13000800000000CE
:10002000000000000000000000000000F3130008C2
:10003000F513000800000000F7130008F91300088A
:100040009B2F00089B2F00089B2F00089B2F000868
:100050009B2F00089B2F00089B2F00089B2F000858
:100060009B2F00089B2F00089B2F00089B2F000848
:100070009B2F00089B2F00089B2F00089B2F000838
:100080009B2F00089B2F00089B2F00089B2F000828
:100090009B2F00089B2F00089B2F00089B2F000818
:1000A0009B2F00089B2F00089B2F00089B2F000808
:1000B000E5540008471C0008452300089B2F000852
:1000C0009B2F00089B2F00089B2F00089B2F0008E8
:1000D0009B2F00083B2D00089D2E00089B2F000839
:1000E0009B2F00089B2F00089B2F00089B2F0008C8
:1000F0009B2F00089B2F00089B2F00089B2F0008B8
:100100009B2F00089B2F0008D11F00089B2F000881
:100110009B2F00089B2F00087F220008B5220008B3
:100120009B2F00089B2F00089B2F00089B2F000887
:1001300000F002F800F06DF80AA090E8000C82448C
:100140008344AAF10107DA4501D100F062F8AFF269
:10015000090EBAE80F0013F0010F18BFFB1A43F0A5
:100160000103184738640000586400000A444FF047
:10017000000C10F8013B13F0070408BF10F8014B06
:100180001D1108BF10F8015B641E05D010F8016B4B
:10019000641E01F8016BF9D113F0080F1EBF10F8AF
:1001A000014BAD1C0C1B09D16D1E58BF01F801CBD2
:1001B000FAD505E014F8016B01F8016B6D1EF9D555
:1001C0009142D6D37047000000230024002500266A
:1001D000103A28BF78C1FBD8520728BF30C148BFAA
:1001E0000B607047642905F01187752905F00E87AB
:1001F000782905F04387632906F0E280732906F029
:10020000E780002070471FB5AFF300801FBD10B519
:1002100010BD06F0E9F81146FFF7F5FF00F08BF985
:1002200006F007F9FFF7F3FF02F02AFD10B50024EE
:10023000FF48407864280BD1FD488078612807D1B9
:10024000FB48C078742803D1F94800795F281FD093
:10025000F748407866280BD1F5488078722807D196
:10026000F348C078652803D1F14800795F280FD0A2
:10027000EF48407863287ED1ED4880786F28FAD126
:10028000EB48C0786E287FD1E94800795F287BD1A0
:100290000020E84908702420E749E64A127888548B
:1002A000E4480078401CE34908707220E249E14AC2
:1002B00012788854DF480078401CDE4908707320AB
:1002C000DD49DC4A12788854DA480078401CD94964
:1002D00008707420D849D74A12788854D5480078D5
:1002E000401CD44908705F20D349D24A1278885400
:1002F000D0480078401CCF4908705F20CE49CD4AD5
:1003000012788854CB480078401CCA4908700021F4
:10031000C948C84A12788154C6480078401CC5496B
:1003200008700021C448C34A12788154C14800783B
:10033000401CC049087008460178BF4801F03BFEE8
:10034000BD49BC4A12788854BA480078401CB94963
:10035000087000240DE0B848015DB84803F049FB7F
:1003600000BF4021B54803F0B2FB0128F9D1601C61
:10037000C4B2B04800E007E000788442EBDB002024
:10038000AF490870AF49088010BD10B500240020A7
:10039000AD4908702420AD49AB4A12788854AA4868
:1003A0000078401CA84908706420A849A64A127821
:1003B0008854A5480078401CA34908706120A349CF
:1003C000A14A12788854A0480078401C9E490870C1
:1003D00074209E499C4A127888549B480078401C9F
:1003E000994908705F219948974A12788154964834
:1003F0000078401C9449087095480078C82812DAA3
:1004000093480078401C92490870084600780D28EF
:1004100003D008460078242808D18D480078401C75
:100420008B49087002E000208949087088480178EB
:100430008648854A1278815483480078401C824956
:10044000087000208149804A127888547E480078DC
:10045000401C7D49087015207C497B4A12788854DD
:1004600079480078401C7849087000240DE07948EC
:10047000005D30307549744A1278885472480078AB
:10048000401C71490870601C84B26E480088844228
:10049000EDDB6D4801786D4801F08DFD6B496A4ACE
:1004A00012788854084668490978405C242805D0A9
:1004B000664865490978405C0D2808D1634862495F
:1004C0000978405C401C61495F4A127888545E4854
:1004D0000078401C5C4908700D215C485A4A12782B
:1004E000815459480078401C574908700A215748E0
:1004F000554A1278815454480078401C524908707B
:10050000012240F22551544803F010FA00240DE076
:100510004E48015D504803F06CFA00BF40214E4840
:1005200003F0D5FA0128F9D1601C84B2464800785E
:100530008442EDDB10BD2DE9F04FADF5037D41F6B2
:10054000B0540025002600274FF000084FF0000BA4
:100550000020829054216DA805F08EFE4FF4C071EA
:100560000DA805F089FE00200C900B9008A8002132
:100570000A460B460EC0182102A805F07DFE002099
:100580000190009001F057FE02F014FB02F072FBA4
:100590004FF4E13002F082FB4FF4165002F02EFCD3
:1005A00001F010F841F61F4142F20F7001F0D6FC45
:1005B00041F61F4140F6B73001F097FE41F61F416A
:1005C000092001F013FB40F2AF41042001F006FEC8
:1005D00040F2CF21042001F0D4FD01F0B1F9012057
:1005E00001F069FA002001F076FA012001F053FAD7
:1005F000082001F041FA01F0EAF90422694617489F
:1006000002F046FA9DF8000000EB8000214601EB65
:1006100040059DF802003F2802DD08208DF8020009
:1006200041F6B05085421FDD42F27470854217E0FA
:10063000BE10002004000020FC050020003801400E
:1006400056040020540400205C040020860800208A
:100650005D04002060060020004400400000070800
:1006600002DAF848058003E041F6B050F549088009
:10067000F448008801F03EFA00F09FBEF24800887E
:1006800010F4004F74D0F0480088C0F30D0AEF4812
:10069000007824286DD1BAF1000F6ADDAAF10100BB
:1006A00081B2EA4801F087FC01900198242802D029
:1006B00001980D2803D10198401CC0B20190AAF105
:1006C0000100E249085C019988427ED1DF48407808
:1006D000732824D1DD488078612820D1DB48C07898
:1006E00066281CD1D94800795F2818D1D7484079AD
:1006F0005F2814D10220D64908700020D54908701F
:100700000120D54908600020CF490880D0490870F1
:10071000012240F22551D14803F008F96BE1CB48A2
:10072000407865287ED1C94880786328FAD1C748C7
:10073000C0786328F6D1C54800795F28F2D1C34854
:1007400040795F28EED10420C14908700020C149DA
:1007500008700120C049086000200B90BB48007A57
:10076000BA49C97900EB012080B28290002622E0CC
:100770003BE12DE14FF0030818E0B44906F1090010
:10078000085CA0F13001012000FA08F0014201D01C
:10079000012000E000200DA90B9A88540B98401C02
:1007A00080B20B90A8F101004FFA80F8B8F1000F69
:1007B000E3DA701C86B282988642DBDB012240F2CB
:1007C0002551A74803F0B2F800E0F2E0002606E069
:1007D0006DA8815DA3A005F0B9FB701C86B2542EF4
:1007E000F6DB002606E00DA8815D9EA005F0AEFBBD
:1007F000701C86B2B6F5C07FF5DB00260DE093488D
:10080000815D974803F0F5F800BF4021944803F05C
:100810005EF90128F9D1701C86B25645EFDB19202C
:10082000914900E08EE0088000262EE04FF000089D
:100830000CE006EB460008EB80006DA9085C08A9F7
:1008400001F8080008F101004FFA80F8B8F10C0F28
:10085000EFDB02A908A801F0EBFD4FF000080FE064
:1008600002A810F8080081497F4A128888547E48FF
:100870000088401C7C49088008F101004FFA80F88C
:10088000B8F1180FECDB701C86B20C210C9890FBB1
:10089000F1F0B042CADC00262EE04FF000080CE078
:1008A00006EB460008EB80000DA9085C08A901F8DA
:1008B000080008F101004FFA80F8B8F10C0FEFDBE7
:1008C00002A908A801F0B4FD4FF000080FE002A84B
:1008D00010F808106548644A1288815462480088FC
:1008E000401C6149088008F101004FFA80F8B8F116
:1008F000180FECDB701C86B20C210B9890FBF1F00A
:10090000B042CADC01F070F84E48008801F0F2F8FD
:100910000021574803F02FFD00205649087001219F
:10092000554803F028FD0121544803F024FD14200C
:1009300002F077F90121524803F01DFD00204249E1
:10094000088058E041484078722823D13F48807899
:1009500074281FD13D48C07873281BD13B480079CB
:100960005F2817D1394840795F2813D100203949D1
:100970000870012038490860FFF707FD0020324960
:10098000088033490870012240F22551334802F0B3
:10099000CDFF30E0FFF7F9FC00202B490880012251
:1009A00040F225512D4802F0C1FF0020284908706F
:1009B00021E0FFF7EAFC002023490880012240F2F1
:1009C0002551264802F0B2FF00202149087012E0AC
:1009D00000201D490880012240F225511F4802F0E5
:1009E000A5FF00201A49087005E0012240F22551B8
:1009F0001A4802F09BFF2348007801286FD1092094
:100A00002149087021480078012863D111490870F4
:100A100000201149086003200D490870FFF7B5FC5C
:100A200000200B49087040F6B7304FF08041A1F824
:100A30002C080121164803F09EFC00200C90002693
:100A400045E000006404002094040020DE13002030
:100A50005A0400205F040020948121420044004099
:100A60000038014025640000060000200800002036
:100A7000000C00407E0400200010004000140040E4
:100A800000040040560400205B0400205E040020A7
:100A9000000800404FF0030814E0F948815D012090
:100AA00000FA08F0014201D0012000E000206DA909
:100AB0000C9A88540C98401CC0B20C90A8F101000C
:100AC0004FFA80F8B8F1000FE7DA701C86B2152EE5
:100AD000E0DB44E01920EB49088000261FE043E0FA
:100AE0004FF0030816E0E648815D012000FA08F0A7
:100AF000014201D0012000E00020E349E14A1288D0
:100B00008854E0480088401CDE490880A8F10100B4
:100B10004FFA80F8B8F1000FE5DA701C86B2DB48B6
:100B200000888642DCDB00F05FFFD948008800F0D7
:100B3000E1FF0021D74803F01EFC0020D6490870D1
:100B40000121D64803F017FC0121D54803F013FC1E
:100B5000142002F066F80121D24803F00CFC0020BA
:100B6000D1490870D1490870D148008810F4004F6D
:100B70007ED0CE48007800287AD1CE480078002870
:100B8000FAD1CB480088C0F30D09CB48007824285F
:100B90006FD1B9F1000F6CDDA9F1010081B2C64837
:100BA00001F009FA01900198242802D001980D283B
:100BB00003D10198401CC0B20190A9F10100BE49C7
:100BC000085C019988427ED10020BC490870BA486F
:100BD0004078722878D1B84880786428FAD1B6482D
:100BE000C0787928F6D1B44800795F28F2D1012085
:100BF000B04908702421B248B04A12788154AF48F5
:100C00000078401CAD4908707221AD48AB4A12789B
:100C10008154AA480078401CA84908706420A8495B
:100C2000A64A12788854A5480078401CA349087049
:100C30007921A348A14A12788154A0480078401C29
:100C40009E4908705F209E499C4A127888549B48B0
:100C50000078401C994908705F209949974A12789A
:100C6000885496480078401C94490870924801E0E6
:100C700097E389E341799248904A127881548F48EA
:100C80000078401C8D490870042269468D4801F0A7
:100C9000FFFE9DF800108A48884A127881548748E0
:100CA0000078401C854908709DF80200402802DD4C
:100CB00008208DF802009DF8020000F0DDFE9DF88E
:100CC00002107F4801E050E339E07C4A12788154F9
:100CD0007A480078401C79490870084601787848BD
:100CE00001F069F97649754A12788854734800789A
:100CF000401C7249087002206E49087000260DE001
:100D00006F48815D704802F074FE00BF40216E485C
:100D100002F0DDFE0128F9D1701C86B26748007828
:100D20008642EDDB002062490880012240F2255115
:100D3000654802F0FBFD00205E4908703DE35E4817
:100D40004078662871D15C4880787228FAD15A4878
:100D5000C0786528F6D1584800795F28F2D1012281
:100D600040F22551584802F0E1FD03205149087036
:100D700000F02DFE41F6B054204600F0BBFE2421C9
:100D80004F484E4A127881544C480078401C4B49D9
:100D9000087066204A49494A1278885447480078C2
:100DA000401C4649087072214548444A12788154D3
:100DB00042480078401C41490870652140483F4A3C
:100DC000127881543D480078401C3C4908705F20EF
:100DD0003B493A4A1278885438480078401C3749D1
:100DE00008705F213648354A1278815433480078BC
:100DF000401C324908703048407931492F4A1278F6
:100E000088542E480078401C2C49087000212C483A
:100E10002A4A1278815429480078001D2749087011
:100E2000042024490870002778E08DE0204600F077
:100E300061FE0A2001F0F5FE0B2000F05FFD10F4CA
:100E4000807F03D001201E49487202E000201C4927
:100E500048720A2001F0E5FE00F0D5FD184908723D
:100E600016480078401E81B2154801F0A4F81449D4
:100E70008872002638E00F48007800B938E025E095
:100E80006006002006000020080000205404002016
:100E900064040020000C00407E040020001000408C
:100EA00000140040000400405E04002056040020AE
:100EB000900400205B040020BE10002004000020ED
:100EC000FC0500200000070800380140FD48815D56
:100ED000FD4802F08EFD00BF4021FB4802F0F7FD07
:100EE0000128F9D1701C86B2F84800788642C2DB2E
:100EF00000BFF748007800B912E0F248C079401C02
:100F0000F049C87142F27470844203DA04F10A00B5
:100F100084B201E041F6B054781C87B2FB2F85DB28
:100F200000BFEC480078012801D100F05DFDEA48DF
:100F3000008800F0DFFD142001F073FE0020E74977
:100F40000880E349087038E2E5484078632878D1A2
:100F5000E34880786F28FAD1E148C0786E28F6D14E
:100F6000DF4800795F28F2D10520D9490870242193
:100F7000D448D64A12788154D4480078401CD349CA
:100F800008706320CF49D14A12788854CF4800783E
:100F9000401CCE4908706F20CA49CC4A1278885448
:100FA000CA480078401CC94908706E21C548C74A24
:100FB00012788154C5480078401CC44908705F20ED
:100FC000C049C24A12788854C0480078401CBF49C2
:100FD00008705F20BB49BD4A12788854BB4800782E
:100FE000401CBA490870BE484079B649B74A1278E1
:100FF0008854B6480078401CB4490870B8488079D5
:10100000B049B24A12788854B0480078401CAF49C1
:10101000087008460178AB4800F0CDFFA949AB4AFB
:1010200012788854A9480078401CA8490870AC4838
:101030008079062847D2DFE800F04603051C2936F0
:1010400042E066E0A648C07900EB800041F6B0516E
:1010500001EB4000A0490880A148C079A14908706F
:101060000422A14801F024FD9B48008800F042FDC5
:101070002AE001209749087000F0B6FC96480088E5
:1010800000F038FD142001F0CCFD1DE00020914956
:10109000087000F09CFC9048008800F02BFD1420A4
:1010A00001F0BFFD10E08E48C0790D388D49887081
:1010B00004228D4801F0FCFC8949C9790D39C8B278
:1010C00000F0DAFC00E000BF00BF06208049087095
:1010D00000260DE07B48815D7B4802F08AFC00BF62
:1010E0004021794802F0F3FC0128F9D1701C86B246
:1010F000764800788642EDDB00207849088001229E
:1011000040F22551704802F011FC0020704908702F
:1011100053E17348407864287CD171488078612815
:10112000FAD16F48C0787428F6D16D4800795F28ED
:10113000F2D107206649087024216248634A127878
:10114000815462480078401C6049087064205D4901
:101150005E4A127888545D480078401C5B490870EC
:1011600061215848594A1278815458480078401CE7
:101170005649087074205349544A12788854534889
:101180000078401C514908705F204E494F4A127840
:1011900088544E480078401C4C4908705F204949EB
:1011A0004A4A1278885449480078401C47490870D8
:1011B0004B4840794349454A12788854434800785F
:1011C000401C42490870084601783E4800F0F3FE92
:1011D0003C493E4A127888543C480078401C3B49C0
:1011E00008703F48C0793E49897900EB01201FFA19
:1011F00080FBBBF13C0F0BD0BBF1480F08D0BBF11B
:10120000540F05D0BBF12A0F02D0BBF1150F79D1D5
:10121000002626E09CE0BBF13C0F08D0BBF1480F54
:1012200005D0BBF1540F02D0BBF12A0F09D12C49D4
:1012300006F10900085C30382C492D4A1288885480
:1012400008E0274906F10800085C30382749284A99
:101250001288885426480088401C25490880701C44
:1012600086B25E45D7DBBBF1150F02D101202149C3
:101270000870BBF13C0F05D0BBF1480F02D0BBF1A9
:10128000540F0AD101201C4908701548007A3038E3
:1012900000EB4000194908700CE0BBF12A0F09D19E
:1012A0000220154908700E48007A303800EB4000E3
:1012B000124908700120124908700820044908707A
:1012C00000262EE0FC05002000380140040000202C
:1012D0005B040020620400206404002090040020CD
:1012E000BE1000200000002000000708600600205B
:1012F000540400205E0400206004002061040020EB
:101300005604002012E02E48815D2E4802F071FB49
:1013100000BF40212B4802F0DAFB0128F9D1701CF4
:1013200086B2294800788642EDDB46E00020274956
:1013300008702749087027490880274908802749ED
:101340000870012240F225511E4802F0EFFA34E005
:10135000002021490880012240F22551194802F05D
:10136000E5FA00201D49087027E000201A4908808E
:10137000012240F22551134802F0D8FAFEF756FF39
:1013800000201649087018E0002013490880012247
:1013900040F225510B4802F0C9FA00200F490870AD
:1013A0000BE00A48007840B90C48007828B90122BF
:1013B00040F22551034802F0B9FAFFF75FB9000087
:1013C000FC050020003801400400002056040020E5
:1013D0005E04002054040020900400205B040020E0
:1013E000704700BFFEE700BFFEE700BFFEE700BF9B
:1013F000FEE77047704770477047000000200021EB
:10140000674A126842F48032654B1A6000BF644A32
:10141000126802F40031401C11B9B0F5A06FF6D18A
:101420005F4A126812F4003F01D0012100E0002160
:10143000012942D15B4A126842F01002594B1A60EE
:101440001A46126822F003021A601A46126842F025
:1014500002021A60524A5268514B5A601A46526848
:101460005A601A46526842F480625A601A465268BC
:1014700022F47C125A601A46526842F4E8125A600A
:101480001A46126842F080721A6000BF444A12681D
:1014900012F0007FFAD0424A526822F00302404B19
:1014A0005A601A46526842F002025A6000BF3C4A33
:1014B000526802F00C02082AF9D1704710B5FFF704
:1014C0009DFF10BD10B53648006840F0010034495A
:1014D0000860084640683449084031494860084679
:1014E0000068324908402E4908600846006820F428
:1014F000802008600846406820F4FE0048604FF4F1
:101500001F008860FFF7DAFF4FF00060284908608D
:1015100010BD10B5002000210022214B5B6803F0B4
:101520000C0020B1042806D0082828D107E0214B60
:10153000214C236027E01F4B1F4C236023E0184BF6
:101540005B6803F47011164B5B6803F4803202236E
:1015500003EB914122B9194B4B43174C23600DE02B
:101560000F4B5B6813F4003F04D0144B4B43124CF9
:10157000236003E00F4B4B430F4C236003E00D4B04
:101580000D4C236000BF00BF054B5B68C3F3031322
:101590000B4CE05C084B1B68C340074C236010BD3C
:1015A00000100240002002400000FFF8FFFFF6FE9E
:1015B00008ED00E000127A006804002000093D00F8
:1015C0006C04002008B50121482002F073F8602067
:1015D000ADF8000010208DF8030003208DF8020004
:1015E00069460B4801F0BCFD2021094801F060FE6E
:1015F0004021074801F05EFE2020ADF8000069465A
:10160000044801F0ADFD2021024801F051FE08BD63
:10161000000C01400018014008B50121082002F02B
:1016200049F84FF44060ADF8000010208DF8030039
:1016300003208DF8020069469E4801F091FD4FF4A9
:1016400040619C4801F034FE08BD10B59948001D6A
:10165000006820F470409849C1F8040C0846D0F89E
:10166000040C40F440509349091D0860012093493F
:1016700008609349C1F8A801042001F0B0FA0020E5
:101680008F49C1F8AC01042001F0A9FA00208C496F
:10169000C1F8A80110BD10B58648001D006820F4EF
:1016A00070408549C1F8040C0846D0F8040C40F499
:1016B00040508049091D086000208049091F0860CA
:1016C0007F49C1F8AC01042001F089FA01207B496F
:1016D000091F08607A49C1F8AC01042001F07FFAC3
:1016E00010BD10B500247348001D006820F4704040
:1016F0007149C1F8040C0846D0F8040C40F40040CD
:101700006C49091D086001206C49086001F067FA06
:1017100001206B49C1F8A80101F061FA07E0601CE3
:10172000C4B2FA2C03DDFFF7B6FF012010BD6348F9
:10173000803800680028F2D16049091F0860F5E789
:1017400010B500205D49091F08605B48D0F8040C03
:1017500020F470405849C1F8040C0846D0F8040C35
:1017600040F440505349091D086000205449C1F815
:10177000AC01022001F033FA01205149C1F8A8015F
:10178000022001F02CFA00204D49C1F8A80110BD3B
:1017900010B500204949091F08604748D0F8040CDB
:1017A00020F470404449C1F8040C0846D0F8040CF9
:1017B00040F440503F49091D086001204049C1F8EC
:1017C000AC01022001F00BFA01203D49C1F8A8014B
:1017D000022001F004FA00203949C1F8A80110BD27
:1017E00070B505463348001D006820F4704032494A
:1017F000C1F8040C0846D0F8040C40F440502D49C0
:10180000091D086000202D49091F0860002417E009
:10181000E8092A4908606806050E022001F0DFF990
:1018200001202749C1F8A801022001F0D8F90020C1
:101830002249091F0860022001F0D1F9601CC4B2DE
:10184000082CE5DB70BD70B5044600251948001D65
:10185000006820F470401849C1F8040C0846D0F81C
:10186000040C40F40040C1F8040C002617E00020EE
:101870001249091F0860022001F0B1F90120104946
:10188000C1F8A8016806050E0C488038006808B148
:10189000681CC5B2012001F0A2F9701CC6B2082E66
:1018A000E5DB14B9FFF774FF01E0FFF749FF2846B5
:1018B00070BD0000000C014000000140AC812142DD
:1018C0000080214270B504460D46FFF7BEFE22207F
:1018D000FFF786FFFFF705FF2046FFF781FFFFF7C1
:1018E00000FF2812FFF77CFFFFF7FBFEE8B2FFF7CF
:1018F00077FFFFF7F6FEFFF7CEFE70BD70B504462A
:10190000FFF7A3FE2220FFF76BFFFFF7EAFE20465A
:10191000FFF766FFFFF7E5FEFFF797FE2320FFF7CF
:101920005FFFFFF7DEFE0120FFF78DFF05462D026A
:101930000020FFF788FF0543FFF7ADFE284670BD86
:1019400010B5FFF769FE0020FFF7D8FF0446A4F5A5
:10195000B040053837D102210846FFF7B3FF3220E7
:1019600001F05FF94CF201010220FFF7ABFF4FF4E9
:10197000167001F056F948F64F010520FFF7A2FF57
:101980004FF4F0410720FFF79DFF08211320FFF7D8
:1019900099FF4FF4A1511520FFF794FF4FF44041F8
:1019A0001620FFF78FFF43F226111C20FFF78AFF56
:1019B00049F624412220FFF785FF4FF2606147205E
:1019C000FFF780FF01E0012010BD0020FCE710B50B
:1019D0004020FFF793FF04464FF6F0700440214685
:1019E0004020FFF76FFF10BD10B54020FFF786FFC6
:1019F00004464FF6F070044044F0010421464020B4
:101A0000FFF760FF10BD10B50B20FFF777FF04460E
:101A1000601210BD70B505460520FFF76FFF044644
:101A20004FF6F070044005F00F00044321460520F6
:101A3000FFF748FF70BD70B504460220FFF75EFF58
:101A4000054614B145F4804501E025F4804529465A
:101A50000220FFF737FF70BD70B505460520FFF780
:101A60004DFF044648F2FF00044044EA05242146A5
:101A70000520FFF727FF70BD70B505464220FFF730
:101A80003DFF04464FF6C07004402C4321464220DF
:101A9000FFF718FF70BD70B505464220FFF72EFF17
:101AA00004464FF6FF00044044EA05242146422044
:101AB000FFF708FF70BD70B505460320FFF71EFF56
:101AC00004464FF6F370044044EA8504214603209F
:101AD000FFF7F8FE70BD70B505460320FFF70EFF57
:101AE00004464FF6FC7004402C4321460320FFF7C8
:101AF000E9FE70BD2DE9F0470446002600270320CB
:101B0000FFF7FCFE054605F01F05C5F3810705F04C
:101B100003060EB90A2604E0012E01D1142600E0C6
:101B2000052617B942F2FC180FE0012F01D0022F51
:101B300002D141F6B05808E05320FFF7DFFE80469F
:101B400008EB880040044FEA1048444501DABDE83C
:101B5000F087A4EB080090FBF6F01FFA80F9C9F3B8
:101B6000090945EA891545F0100529460320FFF7C4
:101B7000A9FE142001F055F800BF0B20FFF7BEFEB0
:101B800010F0800FF9D0E2E72DE9F0410025A846DA
:101B90000320FFF7B3FE0446A711C4F3810804F045
:101BA00003050DB90A2504E0012D01D1142500E03B
:101BB0000525B8F1000F02D142F2FC1610E0B8F191
:101BC000010F02D0B8F1020F02D141F6B05607E082
:101BD0005320FFF793FE064606EB86004004060CF2
:101BE00007FB056084B22046BDE8F0817FB504465E
:101BF0000D460121022001F06AFDADF80840ADF864
:101C000004500020ADF80A00ADF8060001A9F8481C
:101C100002F08AF801221146F54802F0D1FB1D209E
:101C20008DF8000000208DF8010003208DF80200DF
:101C300001208DF80300684601F0C7F90021EC4847
:101C400002F099FB7FBD10B50121E94802F035FE95
:101C5000002872D0E748007800284FD1E648008875
:101C6000E649098888420EDAE548E3490988405C7C
:101C7000E44908600020E4490870DF480088401CFF
:101C8000DD4908803AE00021D94802F074FB0020C9
:101C9000DC490860D8490880142000F0C2FF012008
:101CA000D94908700021D94802F065FB0021D848C5
:101CB00002F061FB0121D74802F05DFB0020D6490C
:101CC0000880D6490870D6490870D6490880D64998
:101CD0000880D648007828B9FFF779FED4480088F4
:101CE000FFF708FF012240F22551D24801F01EFE05
:101CF000012240F22551D04801F018FEBD4800787D
:101D0000022850D1CD480078CD49097888424ADA76
:101D1000B9480088B949098888420FDAB848B649F5
:101D20000988405CB74908600020B7490870B2488C
:101D30000088401CB049088077E00EE1AE4800887A
:101D4000AE490988884270DB0020AE490860BD4872
:101D50000078B0F5487F0ADBB8480078401CB749E6
:101D600008700020B7490870A349088004E0B5480E
:101D70000078401CB3490870B2480078142802D19A
:101D80000120A1490870AF480078B0F5437F4CD1DD
:101D9000AB480078401EA9490978884245DD0020FB
:101DA0009949087041E09348007802283DD1A34842
:101DB0000078A3490978884237DBA14800780028D9
:101DC00033D000208B4908709C4908709C490870EA
:101DD0000021874802F0CFFA00208A4908600021DC
:101DE0008A4802F0C8FA0021894802F0C4FA0121A9
:101DF000884802F0C0FA00208749088087490870A7
:101E00008749087087490880874908808748007893
:101E100028B9FFF7DCFD86480088FFF76BFE01223A
:101E200040F22551834801F081FD72480078012875
:101E30004DD18248007882490978884247DA6E4855
:101E400000886E49098888420EDA6D486A49098817
:101E5000405C6C49086000206B4908706648008847
:101E6000401C6549088074E063480088634909881C
:101E700088426EDB0020634908607248007864285D
:101E80000ADB6E480078401C6C49087000206D49E0
:101E900008705949088004E06A480078401C694984
:101EA000087068480078142802D10120564908704B
:101EB0006448007850284CD161480078401E5F4942
:101EC0000978884245DD00204F49087041E04948C3
:101ED000007801283DD1594800785949097888424D
:101EE00037DB57480078002833D00020414908707C
:101EF000524908705249087000213D4802F03BFAEF
:101F00000020404908600021404802F034FA0021D6
:101F10003F4802F030FA01213E4802F02CFA00203E
:101F20003D4908803D4908703D4908703D49088099
:101F30003D4908803D48007828B9FFF748FD3C48F6
:101F40000088FFF7D7FD012240F22551394801F002
:101F5000EDFC0121264802F0C1FC10BD7FB504460E
:101F60000D460121082001F0B2FBADF80840ADF8A4
:101F700004500020ADF80A00ADF8060001A925487C
:101F800001F0D2FE01221146224802F019FA322055
:101F90008DF8000000208DF8010002208DF802006D
:101FA00001208DF80300684601F00FF8012119485F
:101FB00002F0E1F97FBD10B5024600201078012340
:101FC00003E0D45C60405C1CA3B28B42F9DB10BD23
:101FD00070B500240025002601210E4802F06DFC9A
:101FE00000287ED01848006808B901202FE02DE0B5
:101FF00000040040600400207C0400200600002053
:10200000080000209C0121427E04002000100040B6
:1020100000140040000C0040900400205B040020ED
:102020005A0400205404002094040020620400207C
:102030006404002000380140004400407F04002078
:102040006104002080040020940123420020E04924
:102050000860E048007806287EDBDF48008800281A
:102060007DD1DE480088002879D1DD48007800283D
:1020700075D1DC48007818B1DA48007801286ED1B3
:102080000120D94908700020D84908600120D549AD
:1020900008700025D648007838B90120D449087066
:1020A0000020D4494855681CC5B22420D149485560
:1020B000681CC5B273204855681CC5B261204855DC
:1020C000681CC5B266204855681CC5B25F204855DB
:1020D000681CC5B2C8480078C82805DD0020C6497C
:1020E00000E049E0087004E0C3480078401CC249A1
:1020F0000870C1480078BF494855681CC5B22946D8
:10210000BC48FFF758FF06460D2E01D0242E01D102
:10211000701CC6B2B7484655681CC5B20D20B549FB
:102120004855681CC5B20A204855681CC5B2002431
:102130000DE0B048015DB14801F05BFC00BF4021FB
:10214000AE4801F0C4FC0128F9D1601C84B2AC4255
:10215000EFDB00209F4900E001E008700CE09D48A3
:102160000078322803DD06209A49087004E0994877
:102170000078401C974908700121A14802F0AEFB8D
:1021800070BD7FB504460D460121102001F09FFA75
:10219000ADF80840ADF804500020ADF80A00ADF8E5
:1021A000060001A9974801F0BFFD0122114695489C
:1021B00002F006F936208DF8000000208DF80100AD
:1021C00003208DF8020001208DF80300684600F01E
:1021D000FCFE00218B4802F0CEF87FBD7FB504469F
:1021E0000D460121202001F072FAADF80840ADF84B
:1021F00004500020ADF80A00ADF8060001A982489D
:1022000001F092FD012211467F4802F0D9F83720F3
:102210008DF8000000208DF8010003208DF80200E9
:1022200001208DF80300684600F0CFFE00217648BB
:1022300002F0A1F87FBD08B501210C2001F03AFAA7
:102240004FF44070ADF8000010208DF8030003201B
:102250008DF8020069466D4800F082FF4FF48071EE
:102260006A4801F027F89020ADF8000069466848F8
:1022700000F076FF1021664801F01AF808BD10B58D
:102280000121604802F019FB98B101215D4802F07C
:1022900025FB6048007838B954480C300068C043CA
:1022A0005D49C1F8A00104E04FF48071574801F086
:1022B00001F810BD10B50121534802F0FEFA98B1A3
:1022C0000121514802F00AFB5248007838B94748CA
:1022D00010300068C0435049C1F8A40104E04FF435
:1022E00000714A4800F0E6FF10BD7FB504460D4678
:1022F0000121042001F0EBF9ADF80840ADF80450DD
:102300000020ADF80A00ADF8060001A9434801F02D
:102310000BFD01221146414802F052F81E208DF8B3
:10232000000000208DF8010003208DF8020001203C
:102330008DF80300684600F048FE0021374802F09F
:102340001AF87FBD10B50121344802F0B6FA002812
:102350003CD00121314802F0C1FA2348007801281D
:1023600030D100202149086000212D4802F003F8F7
:1023700000202C49C1F89C01012026490870002149
:10238000204801F0F8FF00211F4801F0F4FF01216F
:102390001B4801F0F0FF0020114908701149087036
:1023A0000D4908800D4908801F490880012240F22C
:1023B00025511E4801F0BAFA012240F225510F487A
:1023C00001F0B4FA0021154801F0D5FF10BD00005E
:1023D00094012342810400209004002094040020F2
:1023E0005B0400205A0400205F04002094812142F5
:1023F00083040020AE080020820400200044004036
:10240000000C00400010004000140040000C01408F
:10241000000801407E0400200080214200080040A6
:102420000004004000002142540400200038014014
:10243000F0B586B003AF0022134614461CC7002433
:102440000025002600BF84E0C4F10B03C35C9DF8A7
:102450001670DA1902EBD2735B10A2EB4303DBB206
:102460008DF80B309DF80B208DF80A209DF80A207E
:102470008DF806209DF806208DF805209DF8052092
:102480008DF804209DF804208DF802209DF802208C
:102490008DF800209DF815309DF80A70DA1902EBCE
:1024A000D2735B10A2EB4303DBB28DF816309DF8BC
:1024B00014208DF815209DF813208DF814209DF818
:1024C00012208DF813209DF811309DF80670DA194E
:1024D00002EBD2735B10A2EB4303DBB28DF8123038
:1024E0009DF810309DF80570DA1902EBD2735B107D
:1024F000A2EB4303DBB28DF811309DF80F309DF84D
:102500000470DA1902EBD2735B10A2EB4303DBB267
:102510008DF810309DF80E208DF80F209DF80D30AD
:102520009DF80270DA1902EBD2735B10A2EB430341
:10253000DBB28DF80E309DF80C208DF80D209DF843
:1025400000208DF80C20C4F10B02825C0A55621C3D
:10255000D4B20C2CFFF678AF002508E0C5F10A02D2
:1025600003AB9A5C0A55621CD4B26A1CD5B20B2D1F
:10257000F4DB002404E00A5D3244D6B2621CD4B21B
:10258000172CF8DB324606EBD6735B10A6EB430341
:10259000CB7506B0F0BD2DE9F04F8FB004460D4667
:1025A0000CA80022134616464CC0182106A803F0BA
:1025B00063FE00260027B0460020059002A80021F7
:1025C0000A460B460EC089468A468B46002001907B
:1025D00000BF08E014F80A0006A901F80A000AF191
:1025E000010000F0FF0ABAF1170FF3DB4FF0000B08
:1025F0005CE09DF83A609DF83910881900EBD071C5
:102600004910A0EB4101C9B28DF83A109DF838008D
:102610008DF839009DF837008DF838009DF83600A8
:102620008DF837009DF83510881900EBD0714910EE
:10263000A0EB4101C9B28DF836109DF8341088190D
:1026400000EBD0714910A0EB4101C9B28DF83510F3
:102650009DF83310881900EBD0714910A0EB4101AF
:10266000C9B28DF834109DF832008DF833009DF812
:102670003110881900EBD0714910A0EB4101C9B2AB
:102680008DF832109DF830008DF8310006A911F850
:102690000B10881900EBD0714910A0EB4101C9B2B1
:1026A0008DF830100BF1010000F0FF0BBBF1170F9C
:1026B0009FDB00BF4FF0000A09E00CA810F80A00E9
:1026C000484400F0FF090AF1010000F0FF0ABAF1E6
:1026D0000B0FF2DBB9F1030F10DC4FF0000A09E039
:1026E0000CA810F80A0002A901F80A000AF101007A
:1026F00000F0FF0ABAF10B0FF2DB57E14FF00009CF
:102700009DF83A008DF812009DF83910481C00EB36
:10271000D0714910A0EB4101C9B28DF811109DF89C
:102720003810481C00EBD0714910A0EB4101C9B230
:102730008DF810109DF837008DF80F009DF83610B9
:10274000481C00EBD0714910A0EB4101C9B28DF8D3
:102750000E109DF83510481C00EBD0714910A0EB0D
:102760004101C9B28DF80D109DF834008DF80C00B0
:102770009DF833008DF80B009DF83210481C00EBDB
:10278000D0714910A0EB4101C9B28DF80A109DF833
:102790003110481C00EBD0714910A0EB4101C9B2C7
:1027A0008DF809109DF830008DF80800CA4609E040
:1027B00002A810F80A00484400F0FF090AF10100DD
:1027C00000F0FF0ABAF10B0FF2DBB9F1020F17DCD0
:1027D000B91D172291FBF2F302FB131106AA515CFB
:1027E000481C00EBD0714910A0EB4101CAB2B91DE1
:1027F000172391FBF3FC03FB1C1106AB5A54D5E0E5
:102800004FF000099DF83A10481C00EBD0714910B8
:10281000A0EB4101C9B28DF812109DF83910481C87
:1028200000EBD0714910A0EB4101C9B28DF8111035
:102830009DF838008DF810009DF83710481C00EB0B
:10284000D0714910A0EB4101C9B28DF80F109DF86D
:102850003610481C00EBD0714910A0EB4101C9B201
:102860008DF80E109DF835008DF80D009DF83400A0
:102870008DF80C009DF83310481C00EBD071491006
:10288000A0EB4101C9B28DF80B109DF83210481C25
:1028900000EBD0714910A0EB4101C9B28DF80A10CC
:1028A0009DF831008DF809009DF830008DF8080082
:1028B000CA4609E002A810F80A00484400F0FF09DF
:1028C0000AF1010000F0FF0ABAF10B0FF2DBB9F1D7
:1028D000020F17DC791D172291FBF2F302FB131193
:1028E00006AA515C481C00EBD0714910A0EB4101D5
:1028F000CAB2791D172391FBF3FC03FB1C1106AB35
:102900005A5453E04FF000099DF83A609DF8391091
:10291000881900EBD0714910A0EB4101C9B28DF8C4
:102920003A109DF838008DF839009DF837008DF881
:1029300038009DF836008DF837009DF8351088195D
:1029400000EBD0714910A0EB4101C9B28DF83610EF
:102950009DF83410881900EBD0714910A0EB4101AB
:10296000C9B28DF835109DF83310881900EBD0717D
:102970004910A0EB4101C9B28DF834109DF8320026
:102980008DF833009DF83110881900EBD071491093
:10299000A0EB4101C9B28DF832109DF830008DF8DE
:1029A00031008DF83060781CC7B283E607F10C0067
:1029B000172190FBF1F201FB1200C0B20590DDF887
:1029C00014A00A2001901DE017219AFBF1F201FBEF
:1029D00012A106AA515C02AA019BD25C881800EBE6
:1029E000D0714910A0EB410117229AFBF2F302FBD0
:1029F00013A206AB99540AF1010000F0FF0A0198F6
:102A0000401E019001980028DEDA4FF0000A0DE028
:102A100006A810F80A0005F80A0015F80A00404454
:102A200000F0FF080AF1010000F0FF0ABAF1170FE9
:102A3000EEDB404608EBD8714910A8EB4101E9757F
:102A40004FF0000A07E000200CA901F80A000AF183
:102A5000010000F0FF0ABAF10B0FF4DB00200FB009
:102A6000BDE8F08F0146088870472DE9F041044623
:102A70000D461746002607E035F81610204602F0EE
:102A800095F8A41C701C86B2BE42F5DBBDE8F0814F
:102A900030B503460C46002507E01846FFF7E2FF75
:102AA00024F815009B1C681C85B29542F5DB30BDEF
:102AB0002DE9F05F04460D461646B4F1006F02D3CF
:102AC0003A48844201D3BDE8F09F01F029FFA4F108
:102AD000006B4FEADB27CBF34908C8F580694E4508
:102AE00000DCB14654E04FF0006202EBC720521404
:102AF0002F49FFF7CDFF4FF0000A0DE008EB0A0069
:102B00002B4931F81000A0F57F41FF3900D005E0D6
:102B10000AF101001FFA80FACA45EFDB00BFCA457F
:102B20001EDA4FF0006202EBC72001F03FFF4FF0CA
:102B3000000A0AE035F81A000AEB08011C4A22F8DC
:102B400011000AF101001FFA80FACA45F2DB4FF0CA
:102B5000006202EBC72052141549FFF786FF04E01C
:102B60004A4629462046FFF780FF4E4500D110E037
:102B70007F1C4FF0000805EB49054C44A6EB09000B
:102B800086B2B6F5806F02DD4FF4806900E0B14691
:102B9000A9E700BF01F0D0FE95E713B50446012276
:102BA00001A92046FFF784FF1CBD000000000808B3
:102BB000BE08002010B56FF0040000F053FA2A4858
:102BC00000682A49B0FBF1F02949087008460078EE
:102BD0004FF47A7148432649891C088010BD244A65
:102BE000127842434FF0E0235A6100229A611A465C
:102BF000126942F001021A6100BF4FF0E022116930
:102C000011F0010F02D011F4803FF6D04FF0E02216
:102C1000126922F001024FF0E0231A6100229A614A
:102C20007047134A921C128842434FF0E0235A61C6
:102C300000229A611A46126942F001021A6100BF2D
:102C40004FF0E022116911F0010F02D011F4803F22
:102C5000F6D04FF0E022126922F001024FF0E0239B
:102C60001A6100229A6170476804002000127A00FD
:102C70008C04002010B54FF4A06000F0A1F910BD45
:102C8000014600BF704700BFB24A128812F0400FE1
:102C9000FAD0C2B2AF4B1B1D1A80704710B586B078
:102CA0000446012144F2040000F004FDA94800F0AC
:102CB00063FD4FF40070ADF8140003208DF816008A
:102CC00018208DF8170005A9A34800F049FA4FF421
:102CD0008060ADF8140004208DF8170005A99E4807
:102CE00000F03EFA25208DF8000003208DF8010049
:102CF0008DF8020001208DF80300684600F065F9A8
:102D000001940020ADF80800ADF80A00ADF80C0001
:102D1000ADF810000C20ADF80E0001A98D4800F0B0
:102D20006EFD012240F225518A4800F0FFFD01218D
:102D3000884800F0EFFD06B010BD10B540F22551F7
:102D4000844800F0DAFE002857D0824800F055FE93
:102D5000C4B2242C05D1012080490870002080498C
:102D600008807E480078012847D17E4800780428F2
:102D700004D100207B490870794908807848008890
:102D800010F4004F39D177480078002835D17448C5
:102D9000008810F4804F15D00A2C03D00020704911
:102DA00008802AE06E48008840F400406C490880A2
:102DB00000206A490870002240F22551654800F061
:102DC000B5FD1AE00D2C06D16548008840F480401E
:102DD0006349088011E062480088C0F30D00624931
:102DE0000C545F480088401C5D49088008460088F4
:102DF000B0F5487F01DB0020088010BD10B586B01B
:102E000004460121042000F055FC0121480400F093
:102E10005EFC564800F0B0FC0420ADF8140003201E
:102E20008DF8160018208DF8170005A94A4800F003
:102E300097F90820ADF8140004208DF8170005A9B3
:102E4000454800F08DF901940020ADF80800ADF878
:102E50000A00ADF80C00ADF810000C20ADF80E0023
:102E600001A9424800F0CBFC26208DF80000032089
:102E70008DF801008DF8020001208DF803006846EE
:102E800000F0A3F8012240F22551384800F04EFD31
:102E90000121364800F03EFD06B010BD10B540F2ED
:102EA0002551324800F029FE002851D02F4800F06B
:102EB000A4FDC4B2242C05D101202D4908700020A6
:102EC0002C4908802A480078012841D129480088E7
:102ED00010F4004F3CD12848007818B126480078FB
:102EE000012835D12348008810F4804F15D00A2CD2
:102EF00003D000201F4908802AE01E48008840F4C3
:102F000000401C490880002019490870002240F246
:102F10002551164800F00AFD1AE00D2C06D115487F
:102F2000008840F480401349088011E0114800886F
:102F3000C0F30D0011490C540E480088401C0D4987
:102F4000088008460088B0F5487F01DB0020088033
:102F500010BD00000038014000080140920400202C
:102F6000900400205B040020BE10002000440040BC
:102F700096040020940400205A040020DE13002050
:102F80000948804709480047FEE7FEE7FEE7FEE7FD
:102F9000FEE7FEE7FEE7FEE7FEE7FEE70448054939
:102FA000054A064B70470000C514000831010008AF
:102FB00060170020601D00206019002060190020AB
:102FC00032490143324A1160704770B50021002335
:102FD0000F22C4780CB32E4C246804F4E064C4F5CA
:102FE000E064210AC1F10403CA40447804FA03F101
:102FF0008478144021430901264C0678A1550478B1
:1030000004F01F050124AC4005786D114FF0E02657
:1030100006EB8505C5F8004109E0047804F01F04BB
:103020000125A5401C4C0678761144F8265070BD49
:103030001A4A0A400243164B1B1F1A60704741B1DF
:10304000134A121D126802434FF0E023C3F8102DFB
:1030500007E00F4A121D126882434FF0E023C3F8C5
:10306000102D7047042808D14FF0E021096941F084
:1030700004014FF0E022116107E04FF0E0210969FF
:1030800021F004014FF0E022116170470000FA05C1
:103090000CED00E000E400E080E100E080FFFF1FB5
:1030A00010B50446C748844208D10121042000F02D
:1030B0001BFB0021042000F017FB46E0C2488442BD
:1030C00008D10121082000F00FFB0021082000F0AA
:1030D0000BFB3AE0BD48844208D10121102000F0EA
:1030E00003FB0021102000F0FFFA2EE0B8488442D4
:1030F00008D10121202000F0F7FA0021202000F063
:10310000F3FA22E0B348844208D10121402000F0C4
:10311000EBFA0021402000F0E7FA16E0AE488442C6
:1031200008D10121802000F0DFFA0021802000F08A
:10313000DBFA0AE0A948844207D10121801500F09A
:10314000D3FA0021A01500F0CFFA10BD10B501216F
:10315000084600F0C9FA0021012000F0C5FA10BDB0
:10316000F0B500220023002400250026002791F856
:1031700003C00CF00F0291F803C01CF0100F03D035
:1031800091F802C04CEA0202B1F800C01CF0FF0F37
:1031900031D0066800242BE04FF0010C0CFA04F546
:1031A000B1F800C00CEA0503AB4220D1A5004FF0F6
:1031B0000F0C0CFA05F7BE4302FA05FC4CEA0606B2
:1031C00091F803C0BCF1280F06D14FF0010C0CFAA6
:1031D00004FCC0F814C00AE091F803C0BCF1480F29
:1031E00005D14FF0010C0CFA04FCC0F810C0641CAF
:1031F000082CD1D30660B1F800C0BCF1FF0F34DD5C
:10320000466800242EE004F1080C4FF0010E0EFA7F
:103210000CF5B1F800C00CEA0503AB4221D1A500C2
:103220004FF00F0C0CFA05F7BE4302FA05FC4CEA0E
:10323000060691F803C0BCF1280F05D104F1080C73
:103240000EFA0CFEC0F814E091F803C0BCF1480F70
:1032500007D104F1080C4FF0010E0EFA0CFEC0F875
:1032600010E0641C082CCED34660F0BD4FF6FF7111
:103270000180022181700421C17070470246002044
:1032800093680B4201D0012000E000207047014606
:10329000886880B2704702460020D3680B4201D094
:1032A000012000E0002070470146C86880B27047E6
:1032B00001617047416170470AB1016100E04161FD
:1032C0007047C16070474FF480320A438261816168
:1032D00082618269826970470022414B1A684FF609
:1032E00080731A4042EA00120A433D4B1A6070474D
:1032F0003C49C8617047F0B5002200230024002536
:1033000000F00046B6F1004F02D1354EF46901E0FD
:10331000334E7468C0F3034582B200F44016B6F52C
:10332000401F08D124F070642D4E766826F0706638
:103330002B4F7E6012E000F48016B6F5801F06D198
:10334000032606FA05F39C4344F0706406E0460D3C
:10335000360102FA06F6B44344F0706421B1460D1A
:10336000360102FA06F6344300F00046B6F1004F8B
:1033700002D11B4EF46101E0194E7460F0BD30B50E
:1033800000228B071C0F0F2303FA04F2144B08339F
:103390008C1053F8244094438D1043F825408C1032
:1033A00053F824308C07240F00FA04F423430C4C08
:1033B00008348D1044F8253030BD0A49DC310860EE
:1033C0007047000000080140000C0140001001405F
:1033D0000014014000180140001C01400020014081
:1033E0000000014000002042DB48006840F001007E
:1033F000D949086008464068D8490840D64948601D
:1034000008460068D6490840D34908600846006865
:1034100020F4802008600846406820F4FE004860E0
:103420004FF41F0088607047CB49096821F4803150
:10343000C94A11601146096821F480211160B0F574
:10344000803F03D0B0F5802F0ED106E0C249096855
:1034500041F48031C04A116007E0BF49096841F476
:10346000A021BD4A116000E000BF00BF704710B549
:1034700001460022002300204A11012A02D1B64C45
:10348000236806E0022A02D1B34C236A01E0B24C61
:10349000636A01F01F02012494401C4201D0012004
:1034A00000E0002010BD70B500240025002600BFFC
:1034B0003120FFF7DCFF0646641CB4F5A06F01D095
:1034C000002EF5D03120FFF7D2FF08B1012500E032
:1034D0000025284670BD00219F4A116821F0F8019F
:1034E00041EAC001116070479E49086070470022A0
:1034F000994B5A6822F47C1240EA01031A43964B16
:103500005A6070479749086670470021924A51688F
:1035100021F003010143516070478F48406800F07B
:103520000C00704700218C4A516821F0F0010143E2
:10353000516070470021884A516821F4E0610143DD
:10354000516070470021844A516821F4605141EA7A
:10355000C0015160704729B17F4A527A02437E4BC5
:103560005A7206E07C4A527AC343DBB21A407A4B65
:103570005A7270477B49D831086070470021764AFB
:10358000516821F440410143516070470021724A63
:1035900020321170704A82F82010012802D00428CD
:1035A0000AD104E001216C4A2032117005E00521A6
:1035B000694A2032117000E000BF00BF70476A49BD
:1035C000086070476449096A0143634A11627047A1
:1035D000654944390860704730B500210022002356
:1035E00000245D4D6D6805F00C0121B1042905D062
:1035F000082923D105E05D4D056022E05B4D0560A3
:103600001FE0554D6D6805F47012534D6D6805F45B
:103610008033022505EB92421BB9554D5543056099
:103620000BE04D4D6D6815F4003F03D0504D5543F0
:10363000056002E04D4D5543056002E04B4D0560CD
:1036400000BF00BF444D6D6805F0F0010909494D08
:103650006C5C0568E54045603F4D6D6805F4E061D0
:10366000090A444D6C5C4568E54085603A4D6D68DB
:1036700005F46051C90A3F4D6C5C4568E540C56082
:10368000354D6D6805F44041890B3A4D10356C5C41
:10369000C568B5FBF4F5056130BD29B12E4A526904
:1036A00002432D4B5A6104E02B4A526982432A4B54
:1036B0005A61704729B1284A92690243264B9A61A0
:1036C00004E0254A92698243234B9A61704729B1ED
:1036D000214AD2690243204BDA6104E01E4AD269D2
:1036E00082431D4BDA61704729B11B4AD2680243FD
:1036F000194BDA6004E0184AD2688243164BDA604C
:10370000704729B1144A12690243134B1A6104E04D
:10371000114A12698243104B1A61704712494039AD
:10372000086070470F49C86470470B49C8717047FB
:103730000948406A40F08070074948627047014676
:103740000020054A92680A4201D0012000E00020D2
:103750007047014988727047001002400000FFF86E
:10376000FFFFF6FE000042428004424200127A004F
:1037700000093D009C04002010B50446FB4884422B
:1037800009D101218803FFF7AFFF00214FF48040EA
:10379000FFF7AAFF32E0F648844209D1012148042C
:1037A000FFF7AFFF00214FF40030FFF7AAFF25E03D
:1037B000F048844209D101218804FFF7A2FF0021CB
:1037C0004FF48020FFF79DFF18E0EB48844209D1B9
:1037D0000121C804FFF795FF00214FF40020FFF7F7
:1037E00090FF0BE0E548844208D101210805FFF76E
:1037F00088FF00214FF48010FFF783FF10BD2DE9F3
:10380000F04786B004460D460026002700BFB146AB
:10381000B246A88900B100BFA246268A4CF6FF70C6
:103820000640E88806432682A6894EF6F310064035
:10383000A88829890843698908430643A681A68A7E
:103840004FF6FF400640A8890643A68201A8FFF76D
:10385000C3FE5446C548824501D1049F00E0039F42
:10386000A08910F4004F08D007EBC70000EB071049
:1038700029684900B0FBF1F807E007EBC70000EB4F
:10388000071029688900B0FBF1F86420B8FBF0F05C
:1038900006013009642101FB1089A08910F4004F52
:1038A00009D0322101EBC9006421B0FBF1F000F036
:1038B0000700064308E0322101EB09106421B0FB48
:1038C000F1F000F00F000643268106B0BDE8F08756
:1038D0004FF41651016000218180C18001810C21CB
:1038E000418100218181704710B50022028A4FF288
:1038F000FF031A400B884C8823438C882343CC88D1
:1039000023431A43028210BD00210180418081803F
:10391000C180704721B1828942F40052828104E063
:1039200082894DF6FF731A4082817047F0B50024FA
:10393000002500260023A1F510676A3F00D100BFD3
:103940000346C1F3421401F01F05012707FA05F6EB
:10395000012C01D10C3304E0022C01D1103300E022
:1039600014331AB11F6837431F6002E01F68B74362
:103970001F60F0BD10B51AB1838A0B43838204E047
:10398000838ACC43A4B22340838210BD028A4FF6BF
:10399000F0731A400282028A0A43028270478289C7
:1039A0004FF2FF731A40828182890A4382817047F5
:1039B00021B1828942F00202828104E082894FF6BD
:1039C000FD731A4082817047028A4FF6DF731A40F6
:1039D0000282028A0A430282704721B1028A42F4BB
:1039E0008042028204E0028A4BF6FF731A40028290
:1039F0007047C1F308028280704701468888C0F38F
:103A000008007047818941F0010181817047028B74
:103A1000D2B20283028B42EA012202837047028BF8
:103A200002F47F420283028B0A430283704721B172
:103A3000828A42F02002828204E0828A4FF6DF739B
:103A40001A408282704721B1828A42F0100282823B
:103A500004E0828A4FF6EF731A408282704721B1E8
:103A6000828A42F00802828204E0828A4FF6F7736B
:103A70001A408282704721B1828942F400428281D9
:103A800003E08289C2F30E028281704721B1828AEB
:103A900042F40062828204E0828A4FF2FF731A408D
:103AA00082827047828A4FF6FB731A408282828A32
:103AB0000A438282704721B1828A42F002028282E6
:103AC00004E0828A4FF6FD731A40828270470246F4
:103AD0000020B1F5007F00D100BF13880B4201D058
:103AE000012000E00020704701F40072B2F5007F71
:103AF00000D100BFCA430280704770B50246002360
:103B0000002400250020A1F510666A3E00D100BF08
:103B1000C1F3421501F01F04012606FA04F4012D39
:103B200002D19689344006E0022D02D1168A344033
:103B300001E0968A34400B12012606FA03F3168838
:103B4000334014B10BB1012000E0002070BD10B56E
:103B500000220023A1F510646A3C00D100BF0A12C4
:103B600001249440A3B2DC43048010BD003801401E
:103B70000044004000480040004C0040005000401D
:103B800010B50446FF48844208D10121C014FFF754
:103B9000ABFD0021E014FFF7A7FDC4E0B4F1804FB6
:103BA00008D101210846FFF7ACFD00210120FFF7F5
:103BB000A8FDB8E0F448844208D101210220FFF7B3
:103BC000A0FD00210220FFF79CFDACE0EF488442FD
:103BD00008D101210420FFF794FD00210420FFF704
:103BE00090FDA0E0EA48844208D101210820FFF7B7
:103BF00088FD00210820FFF784FD94E0E548844219
:103C000008D101211020FFF77CFD00211020FFF7D3
:103C100078FD88E0E048844208D101212020FFF7A8
:103C200070FD00212020FFF76CFD7CE0DB48844222
:103C300008D101214014FFF757FD00216014FFF760
:103C400053FD70E0D648844209D10121C804FFF732
:103C50004BFD00214FF40020FFF746FD63E0D14803
:103C6000844209D101210805FFF73EFD00214FF4F0
:103C70008010FFF739FD56E0CB48844209D101217D
:103C80004805FFF731FD00214FF40010FFF72CFD30
:103C900049E0C648844208D101214020FFF731FDA8
:103CA00000214020FFF72DFD3DE0C148844208D1AE
:103CB00001218020FFF725FD00218020FFF721FD55
:103CC00031E0BC48844208D101218015FFF719FD7D
:103CD0000021A015FFF715FD25E0B748844209D162
:103CE00001210804FFF700FD00214FF48030FFF7A9
:103CF000FBFC18E0B148844209D101214804FFF7D8
:103D0000F3FC00214FF40030FFF7EEFC0BE0AC4871
:103D1000844208D101218804FFF7E6FC00214FF41A
:103D20008020FFF7E1FC10BD00220288954B9842ED
:103D30000ED09A4B98420BD0B0F1804F08D0924BE6
:103D4000984205D0914B984202D0914B984204D1B1
:103D50004FF68F731A404B881A438E4B984207D008
:103D60008D4B984204D04FF6FF431A40CB881A433C
:103D700002808B8883850B880385824B98420BD009
:103D8000864B984208D08C4B984205D08B4B98427A
:103D900002D08B4B984201D10B7A03860123838298
:103DA000704770B5002200230024058C4FF6FE7684
:103DB00035400584038C8488028B4FF68F752A402A
:103DC000B51E2A400D882A43751E2B400D892B43B2
:103DD0004D882B436B4DA8420BD0704DA84208D0A4
:103DE000754DA84205D0754DA84202D0744DA84229
:103DF00013D14FF6F7752B404D892B434FF6FB75CA
:103E00002B408D882B434FF6FF652C404FF6FF5516
:103E10002C408D892C43CD892C4384800283CD880E
:103E20008586038470BD70B5002200230024058CB4
:103E30004FF6EF7635400584038C8488028B48F674
:103E4000FF752A404FF6FF452A400D882D0642EAAD
:103E500015424FF6DF752B400D892D0543EA1543BA
:103E60004D882D0543EA1543464DA84202D04B4DDF
:103E7000A8421BD14FF67F752B404D892D0543EA93
:103E800015434FF6BF752B408D882D0543EA15432A
:103E90004FF6FF352C404FF2FF752C408D89AD0455
:103EA00044EA1544CD89AD0444EA15448480028374
:103EB000CD880587038470BD70B5002200230024DF
:103EC000058C4FF6FF6635400584038C8488828B11
:103ED0004FF68F752A404FF6FC752A400D882A430D
:103EE0004FF6FF552B400D892D0643EA15434D88AB
:103EF0002D0643EA1543234DA84202D0274DA84280
:103F00001BD14FF2FF752B404D892D0643EA154317
:103F10004FF6FF352B408D882D0643EA15434EF6AC
:103F2000FF752C404DF6FF752C408D892D0544EA18
:103F30001544CD892D0544EA154484808283CD88BB
:103F40008587038470BD70B5002200230024058C92
:103F50004EF6FF7635400584038C8488828B48F6C4
:103F6000FF752A404FF6FF452A400D882D0642EA8C
:103F700015424DF6FF752B400D892D0743EA154379
:103F80004D881FE0002C0140000400400008004064
:103F9000000C0040001000400014004000340140BC
:103FA000004C014000500140005401400018004006
:103FB000001C00400020004000400140004401403F
:103FC000004801402D0743EA1543F84DA84202D0AE
:103FD000F74DA84206D14BF6FF752C408D89AD05F3
:103FE00044EA154484808283CD88A0F8405003843D
:103FF00070BD828B4FF2FF331A408283828B0B0697
:1040000042EA134282837047F0B50024002500265F
:10401000078C4EF6FF7C07EA0C070784848B058C1F
:104020000F073E0C40F6FF473C40170644EA174492
:104030001F0744EA1744DD4FB8420ED0DC4FB842A8
:104040000BD0B0F1804F08D0DA4FB84205D0DA4F2C
:10405000B84202D0D94FB84206D14DF6FF773D4065
:1040600046F480573D4305E047F6FF573D4041F495
:1040700080573D4384830584F0BD828B4FF6F373F4
:104080001A408283828B0A4382837047F0B50024F2
:1040900000250026078C4FF6FF6C07EA0C07078403
:1040A000848B058C0F063E0C4FF60C773C401F05A9
:1040B00042EA17473C43BD4FB8420ED0BC4FB8420E
:1040C0000BD0B0F1804F08D0BA4FB84205D0BA4FEC
:1040D000B84202D0B94FB84206D14FF6FF573D4023
:1040E00046F480773D4305E04FF2FF573D4041F4F1
:1040F00080773D4384830584F0BD028B4FF2FF330C
:104100001A400283028B0B0642EA13420283704775
:10411000F0B5002400250026078C4FF6EF7C07EA57
:104120000C070784048B058C0F053E0C40F6FF47F7
:104130003C401F0744EA1744170644EA17449B4FC4
:10414000B8420ED09A4FB8420BD0B0F1804F08D091
:10415000984FB84205D0984FB84202D0974FB84216
:1041600006D14FF6DF773D4046F010073D4305E0AE
:104170004FF65F773D4041F010073D4304830584CF
:10418000F0BD028B4FF6F3731A400283028B0A4391
:1041900002837047F0B500240025068C4FF6FE77A9
:1041A0003E400684048B058C4FF60C7634401E0589
:1041B00042EA164634437D4EB0420ED07C4EB042A9
:1041C0000BD0B0F1804F08D07A4EB04205D07A4E75
:1041D000B04202D0794EB04206D14FF6FD7635405E
:1041E00041F00106354305E04FF6F576354041F0E4
:1041F0000106354304830584F0BD70B504460D46C1
:104200006A4884420ED06A4884420BD0B4F1804F91
:1042100008D06848844205D06748844202D0674885
:10422000844200D100E000BF288850B92B89AA88B9
:1042300069882046FFF7AEFFE9882046FFF7A1FF17
:1042400025E0288804280AD12B89AA886988204675
:10425000FFF75EFFE9882046FFF74FFF17E0288849
:1042600008280AD12B89AA8869882046FFF70EFF03
:10427000E9882046FFF701FF09E02B89AA886988B1
:104280002046FFF7C1FEE9882046FFF7B2FE70BD69
:104290002DE9F04104460D4600260127688808B93B
:1042A000022600E00026A888012801D1022700E0AC
:1042B00001272888A0B92B89AA8869882046FFF79A
:1042C00069FFE9882046FFF75CFF2B893A463146B3
:1042D0002046FFF71DFFE9882046FFF70EFF13E099
:1042E0002B89AA8869882046FFF712FFE9882046B3
:1042F000FFF703FF2B893A4631462046FFF74AFF76
:10430000E9882046FFF73DFFBDE8F0810A884B8829
:104310001A438B881A43CB881A430B891A434B895B
:104320001A438B891A43A0F8442070474FF6FF7157
:10433000818000210180C18041800172704700218D
:10434000018041808180C180018141818181C18161
:104350007047002101804180012181800021C180BE
:10436000018170470021018041808180C1800181ED
:1043700041818181704721B1028842F001020280AF
:1043800004E002884FF6FE731A400280704731B194
:10439000B0F8442042F40042A0F8442005E0B0F810
:1043A0004420C2F30E02A0F844207047002C0140C4
:1043B000003401400004004000080040000C0040B0
:1043C00010B51AB183890B43838104E08389CC4300
:1043D000A4B22340838110BD8182704741EA020369
:1043E000A0F84830704710B51AB183890B43838118
:1043F00004E08389CC43A4B22340838110BD0189AA
:104400004FF6F872114001817047002202894FF681
:104410008F731A400A430281704730B504460D4637
:1044200029462046FFF7F1FF208940F00700208150
:1044300030BD2DE9F04104460D4616461F46602D5D
:1044400006D13B46012231462046FFF761FE05E0DA
:104450003B46012231462046FFF79CFE2946204676
:10446000FFF7D3FF208940F007002081BDE8F081ED
:1044700030B500240489E4B21D0642EA15450D4317
:104480002C43048130BD2DE9F04104460D4616460B
:10449000984600274346324629462046FFF7E8FF64
:1044A00027894FF6F870074047F007074FF68F70DF
:1044B000074047F070072781BDE8F081F0B504465A
:1044C0000D4616461F463B46324629462046FFF714
:1044D000CFFF208940F480402081F0BD0185828299
:1044E0007047002202884FF68F731A400A430280F9
:1044F0007047F0B50024002500260489058B068C42
:104500004FF6F8773C400C434FF6FC473D4040F2F5
:1045100001173D434FF6DD773E401F0542EA17473E
:104520003E43048105830684F0BD0022028B4FF6D2
:104530008F731A400A43028370470022028B48F6A9
:10454000FF731A400B0642EA1342028370470022AF
:10455000828B4FF68F731A400A4382837047002282
:10456000828B48F6FF731A400B0642EA134282839D
:10457000704721B1028842F08002028004E0028884
:104580004FF67F731A400280704721B1828842F053
:104590000402828004E082884FF6FB731A40828016
:1045A000704721B1828842F00802828004E082884C
:1045B0004FF6F7731A408280704721B1828842F02B
:1045C0000102828004E082884FF6FE731A408280E6
:1045D00070470022028B4FF6F7731A400A4302839A
:1045E00070470022028B4FF2FF731A400B0642EA1B
:1045F0001342028370470022828B4FF6F7731A40F2
:104600000A43828370470022828B4FF2FF731A4065
:104610000B0642EA1342828370470022028B4FF658
:10462000FB731A400A43028370470022028B4FF645
:10463000FF331A400B0642EA1342028370470022FE
:10464000828B4FF6FB731A400A4382837047002225
:10465000828B4FF6FF331A400B0642EA13428283E5
:1046600070470022028B4FF67F731A400A43028381
:1046700070470022028BC2F30E020B0642EA13427D
:10468000028370470022828B4FF67F731A400A43E1
:10469000828370470022828BC2F30E020B0642EA2D
:1046A0001342828370470022028C4FF6FD731A403A
:1046B0000A43028470470022028C4FF6F7731A40B7
:1046C0000A43028470470022028C4FF6DF731A40BF
:1046D0000B0542EA1342028470470022028C4FF617
:1046E0007F731A400B0542EA13420284704700228E
:1046F000028C4FF6FF531A400B0642EA1342028423
:1047000070470022028C4FF2FF731A400B0642EAF8
:104710001342028470470022028C4DF6FF731A4048
:104720000B0742EA13420284704730B5002301248C
:104730008C40A3B2048CDD43ADB22C400484048CC5
:1047400002FA01F5ADB22C43048430BD30B500232C
:1047500004248C40A3B2048CDD43ADB22C4004840D
:10476000048C02FA01F5ADB22C43048430BD70B55F
:104770000023002403461846183301258D40ACB2AF
:10478000058CE643B6B23540058409B1082909D144
:1047900003EB61031D6825F070051D601D6815435E
:1047A0001D600CE00D1FADB203EB65031D6825F421
:1047B000E0451D601D68160645EA16451D6070BD82
:1047C00021B1028842F00202028004E002884FF622
:1047D000FD731A400280704721B1028842F0040242
:1047E000028004E002884FF6FB731A400280704793
:1047F00021B1828842F08002828004E082884FF6F4
:104800007F731A408280704702884FF6F7731A4010
:10481000028002880A430280704782884FF68F73B5
:104820001A40828082880A438280704702894FF64C
:10483000F8731A40028102890A4302817047028993
:104840004FF67F731A40028102890A430281704742
:1048500081847047818570478186704701877047E2
:1048600081877047A0F84010704702884FF6FF43D9
:104870001A40028002880A43028070470146888EEF
:1048800070470146088F70470146888F7047014680
:10489000B1F8400070470146888C70470146088D8A
:1048A000704702460020138A0B4201D0012000E02D
:1048B00000207047CA430282704730B5024600208C
:1048C00000230024158A05EA0103958905EA0104FD
:1048D00013B10CB1012000E0002030BDCA430282B8
:1048E000704700000021FF4A116801F038010143C0
:1048F00011607047FB49096821F00801F94A11600D
:1049000011460968014311607047F649096821F0B2
:104910001001F44A116011460968014311607047A3
:10492000F148F0494860F14848607047EE48ED4969
:104930004860EE4848607047EA48006940F08000EF
:10494000E84908617047E748006940F08000E549A0
:10495000086170470420E349C96801F00101012999
:1049600001D101200EE0DF49C96811F0040F01D028
:10497000022007E0DB49C96811F0100F01D00320C5
:1049800000E00420704700B502460423FFF7E2FF71
:10499000034603E0FFF7DEFF0346521E012B01D161
:1049A000002AF7D102B90523184600BD30B50446E8
:1049B00004254FF43020FFF7E6FF0546042D17D1FC
:1049C000C848006940F00200C649086108464461D1
:1049D000006940F0400008614FF43020FFF7D3FF3A
:1049E0000546C048006941F6FD710840BD490861AF
:1049F000284630BD10B504244FF43020FFF7C3FF24
:104A00000446042C16D1B748006940F00400B549AB
:104A100008610846006940F0400008614FF430200A
:104A2000FFF7B1FF0446AF48006941F6FB7108404B
:104A3000AC490861204610BD00B502460423FFF7CB
:104A400089FF034603E0FFF785FF0346521E012B53
:104A500001D1002AF7D102B90523184600BD10B5CF
:104A600004244FF43020FFF7E7FF0446042C16D14E
:104A70009C48006940F004009A49086108460069B2
:104A800040F0400008614FF43020FFF7D5FF0446A6
:104A90009448006941F6FB7108409249086120463C
:104AA00010BD00208F49C96911F0020F01D001200B
:104AB00000E00020704730B5A5240425FFF7F1FF82
:104AC00000B100244FF43020FFF75DFF0546042DB0
:104AD0003AD18548834988608448886008460069DF
:104AE00040F0200008610846006940F0400008617D
:104AF0004FF43020FFF747FF0546042D1BD17948BE
:104B0000006941F6DF71084076490861084600698E
:104B100040F01000086176480480E802FFF733FF98
:104B20000546052D10D06F48006941F6EF71084029
:104B30006C49086108E0052D06D06A48006941F615
:104B4000EF71084067490861284630BDF0B504465A
:104B50000D4604260027F002FFF715FF0646042E37
:104B600022D16048006940F001005E49086125805B
:104B7000F002FFF708FF0646042E0ED1A71C280CF2
:104B80003880F002FFF7FFFE06465648006941F6FE
:104B9000FE7108405349086106E05248006941F639
:104BA000FE7108404F4908613046F0BD70B50446BB
:104BB0000D460426F002FFF7E6FE0646042E11D14C
:104BC0004848006940F00100464908612580F0022C
:104BD000FFF7D9FE06464348006941F6FE710840DA
:104BE00040490861304670BD70B504460D46042644
:104BF000F002FFF7C8FE0646042E17D13A4839499D
:104C000088603A4888600846006940F010000861F2
:104C10002580F002FFF7B7FE0646052E06D0314884
:104C2000006941F6EF7108402E490861304670BDB9
:104C30002DE9F04304464FF6FF752E462F46A84651
:104C40004FF00409E443E5B2C4F30726C4F3074771
:104C50004FEA14684FF40050FFF795FE8146B9F112
:104C6000040F50D120481F498860204888600846BA
:104C7000006940F010000861FF2D07D01C48083083
:104C800005804FF40050FFF77EFE8146B9F1040F16
:104C900009D1FF2E07D016480A3006804FF4005085
:104CA000FFF771FE8146B9F1040F09D1FF2F07D03C
:104CB0000F480C3007804FF40050FFF764FE814628
:104CC000B9F1040F0AD1B8F1FF0F07D00948A0F8D5
:104CD0000E884FF40050FFF756FE8146B9F1050FDC
:104CE00011D009E00020024023016745AB89EFCDD8
:104CF00000F8FF1F00F0FF1F6948006941F6EF71DF
:104D00000840674908614846BDE8F08330B504466D
:104D100004254FF43020FFF736FE0546042D41D11F
:104D200060485F498860604888600846006940F0D4
:104D3000200008610846006940F0400008614FF417
:104D40003020FFF720FE0546042D22D1544800698B
:104D500041F6DF710840524908610846006940F099
:104D6000100008611CB100205049088002E0A52015
:104D70004E4908804FF43020FFF705FE0546052D0B
:104D800010D04748006941F6EF7108404449086176
:104D900008E0052D06D04248006941F6DF71084061
:104DA0003F490861284630BDF0B504460D46164619
:104DB00004273C483A4988603B488860F802FFF77E
:104DC000E2FD0746042F19D13548006940F0100074
:104DD0003349086146F0F800284320433349891CD1
:104DE0000880F802FFF7CFFD0746052F06D02C48B4
:104DF000006941F6EF710840294908613846F0BD65
:104E00002748C069800870472548006A704700201D
:104E10002349096811F0200F01D0012000E0002093
:104E2000704729B11E4A126902431D4B1A6104E002
:104E30001B4A126982431A4B1A61704701460020CF
:104E4000012908D1164AD26912F0010F01D00120C0
:104E500008E0002006E0124AD2680A4201D0012090
:104E600000E0002070470E49C860704704200C49DC
:104E7000C96801F00101012901D101200EE00849B2
:104E8000C96811F0040F01D0022007E00449C96885
:104E900011F0100F01D0032000E004207047000043
:104EA0000020024023016745AB89EFCD00F8FF1FCA
:104EB00010B58CB004461E230BAA03A9204600F0AF
:104EC0001CFE0090009810B101200CB010BD9DF8A0
:104ED0002C00044400200B900EE060489DF82C202C
:104EE00050F8221003A800F05FFD00B908E09DF81B
:104EF0002C00401CC0B20B909DF82C000828ECDB65
:104F000000BF9DF82C0007287ED2DFE800F00405E2
:104F1000395B8BA6A50000BF51A001F017F851A086
:104F200001F014F85FA001F011F86EA001F00EF886
:104F30007CA001F00BF88BA001F008F899A001F01B
:104F400005F8A6A001F002F8ABA000F0FFFFB0A0AA
:104F500000F0FCFFB4A000F0F9FFB9A000F0F6FFEC
:104F6000BDA000F0F3FFC3A000F0F0FFCEA000F062
:104F7000EDFFDAA000F0EAFFE5A000F0E7FFAEE207
:104F800037A000F0E3FFF2A000F0E0FF00200B905C
:104F90000EE0FF4800689DF82C2000EBC20041683D
:104FA000FCA000F0D3FF9DF82C00401CC0B20B9079
:104FB000F748007D9DF82C108842EADC28A000F01C
:104FC000C5FF8CE226A000F0C1FFF4A000F0BEFFF8
:104FD00000200B901CE0EE4909689DF82C2001EBA5
:104FE000C20101AB02AA486803A900F0AAFDE84883
:104FF00000689DF82C1050F8312003A9F7A000F0AC
:10500000A5FF9DF82C0000E067E2401CC0B20B90A9
:10501000DF48007D9DF82C108842DCDC10A000F0F9
:1050200095FF5CE20EA000F091FF0BAA03A92046B9
:1050300000F08CFE9DF82C0060B9694603A800F0D2
:10504000E6FC0B909DF82C0028B9E9A0009900F02F
:105050007DFFE2E1DFE1D1E111E2E3E1B004002014
:105060000D0A00002D2D2D2D2D2D2D2D2D2D2D2D0D
:105070002D2D2D2D2D2D2D2D2D2D2D2D55534D41DE
:1050800052542056322E382D2D2D2D2D2D2D2D2DD7
:105090002D2D2D2D2D2D2D2D2D2D2D2D2D2D2D204D
:1050A0000D0A00002020202055534D415254CAC7FC
:1050B000D3C9414C49454E54454BBFAAB7A2B5C4CC
:1050C000D2BBB8F6C1E9C7C9B5C4B4AEBFDAB5F74B
:1050D000CAD4BBA5BDBBD7E9BCFE2CCDA8B9FD2069
:1050E0000D0A0000CBFC2CC4E3BFC9D2D4CDA8B9B3
:1050F000FDB4AEBFDAD6FACAD6B5F7D3C3B3CCD0B7
:10510000F2C0EFC3E6B5C4C8CEBACEBAAFCAFD2C62
:10511000B2A2D6B4D0D02ED2F2B4CB2CC4E3BFC945
:105120000D0A0000D2D4CBE6D2E2B8FCB8C4BAAFC4
:10513000CAFDB5C4CAE4C8EBB2CECAFD28D6A7B32F
:10514000D6CAFDD7D62831302F3136BDF8D6C6297C
:10515000A1A2D7D6B7FBB4AEA1A2BAAFCAFDC8EB25
:105160000D0A0000BFDAB5D8D6B7B5C8D7F7CEAAB2
:10517000B2CECAFD292CB5A5B8F6BAAFCAFDD7EE96
:10518000B6E0D6A7B3D63130B8F6CAE4C8EBB2CE93
:10519000CAFD2CB2A2D6A7B3D6BAAFCAFDB7B52006
:1051A0000D0A0000BBD8D6B5CFD4CABE2ED0C2D40B
:1051B000F6B2CECAFDCFD4CABEBDF8D6C6C9E8D6AF
:1051C000C3B9A6C4DC2CD0C2D4F6BDF8D6C6D7AAC3
:1051D000BBBBB9A6C4DC2E0D0A000000BCBCCAF5DE
:1051E000D6A7B3D63A7777772E6F70656E656476FB
:1051F0002E636F6D0D0A000055534D415254D3D0AC
:1052000036B8F6CFB5CDB3C3FCC1EE3A0D0A0000F7
:105210003F3A20202020BBF1C8A1B0EFD6FAD0C57C
:10522000CFA20D0A0000000068656C703A20BBF147
:10523000C8A1B0EFD6FAD0C5CFA20D0A0000000079
:105240006C6973743A20BFC9D3C3B5C4BAAFCAFD81
:10525000C1D0B1ED0D0A0A0069643A202020BFC90F
:10526000D3C3BAAFCAFDB5C44944C1D0B1ED0D0A2C
:105270000A0000006865783A2020B2CECAFD3136B7
:10528000BDF8D6C6CFD4CABE2CBAF3B8FABFD5B8CB
:10529000F12BCAFDD7D6BCB4D6B4D0D0BDF8D6C693
:1052A000D7AABBBB0D0A0A006465633A2020B2CEC0
:1052B000CAFD3130BDF8D6C6CFD4CABE2CBAF3B8B9
:1052C000FABFD5B8F12BCAFDD7D6BCB4D6B4D0D06E
:1052D000BDF8D6C6D7AABBBB0D0A0A00C7EBB0B44F
:1052E000D5D5B3CCD0F2B1E0D0B4B8F1CABDCAE4E0
:1052F000C8EBBAAFCAFDC3FBBCB0B2CECAFDB2A206
:10530000D2D4BBD8B3B5BCFCBDE1CAF82E0D0A009F
:105310002D2D2D2D2D2D2D2D2D2D2D2D2D2D2D2DBD
:105320002D2D2D2D2D2D2D2D2D2D414C49454E54FE
:10533000454B2D2D2D2D2D2D2D2D2D2D2D2D2D2D67
:105340002D2D2D2D2D2D2D2D2D2D2D200D0A000037
:105350002D2D2D2D2D2D2D2D2D2D2D2D2D2D2D2D7D
:105360002D2D2D2D2D2D2D2D2DBAAFCAFDC7E5B517
:10537000A52D2D2D2D2D2D2D2D2D2D2D2D2D2D2DE5
:105380002D2D2D2D2D2D2D2D2D2D2D2D200D0A00CA
:105390001005002025730D0A000000002D2D2D2D75
:1053A0002D2D2D2D2D2D2D2D2D2D2D2D2D2D2D2D2D
:1053B0002D2D2D2D2DBAAFCAFD204944202D2D2D88
:1053C0002D2D2D2D2D2D2D2D2D2D2D2D2D2D2D2D0D
:1053D0002D2D2D2D2D2D2D2D200D0A00257320690D
:1053E000642069733A0D0A3058253038580D0A0088
:1053F0004845583A305825580D0A00009DF82C00B1
:10540000042801D0022060E5F5A000F09FFD0120F6
:10541000F849C87501E0022057E5AFF2BC3000F052
:1054200095FD5CE0AFF2C83000F090FD0BAA03A937
:10543000204600F08BFC9DF82C00C8B9694603A8F3
:1054400000F0E5FA0B909DF82C0020B9EAA0009935
:1054500000F07CFD0EE09DF82C00042801D0022015
:1054600033E5E8A000F072FD0020E249C87501E0D4
:1054700002202AE5AFF2184000F068FD2FE0AFF2FD
:10548000204000F063FD0BAA03A9204600F05EFC5B
:105490009DF82C00D8B9694603A800F0B8FA0B9023
:1054A0009DF82C0088B9D348C07D012806D100980A
:1054B00001460268D8A000F049FD0AE000980146C4
:1054C0000268D9A000F042FD03E00220FDE40220C2
:1054D000FBE4D4A000F03AFD01E00120F5E400BFB8
:1054E0000020F2E410B501218807FFF7E6F910B1BA
:1054F000C0490869804701218807FFF7EFF910BD0F
:105500007FB504460D4601210846FEF7E0F841F25A
:105510008830ADF8080041F61F40ADF804000020C7
:10552000ADF80A00ADF8060001A94FF08040FEF783
:10553000FBFB012241218807FEF742FF1C208DF86A
:10554000000003208DF801008DF8020001208DF885
:1055500003006846FDF739FD00214FF08040FEF75B
:105560000AFF7FBD10B5044604EBC40000EB041035
:105570000122C2EB800081B24FF47A70FFF7C0FFC6
:1055800001209C49C87510BD30B595B0044613ABD9
:1055900012AA09A9204600F0D4FA054615B12846FA
:1055A00015B030BD0020149026E0924909689DF89E
:1055B000502001EBC20113AB11AA486801A900F009
:1055C000C0FA05460DB12846EAE709A901A800F08E
:1055D000EBF960B99DF844009DF84810884201DD60
:1055E0000220DDE79DF85000824988750AE09DF8A9
:1055F0005000401CC0B214907E48007D9DF85010B1
:105600008842D2DC00BF7B48007D9DF85010884264
:1056100001D10420C4E714A9204600F001FC05468E
:105620000DB12846BCE79DF850007249487500202E
:10563000B6E7F0B59BB06F48847D007DA04201DCE9
:105640001BB0F0BD6B49096801EBC40107AB08AAA8
:10565000486809A900F075FA09A976A000F076FC5F
:10566000002544E06348018B0120A84001421BD083
:10567000222172A000F06AFC284600F0C4FB5D49BC
:105680002431471839466EA000F060FC22216BA03F
:1056900000F05CFC284600F0B6FB56492431084473
:1056A00011A941F8250018E0284600F0ACFB51494B
:1056B0002431085811A941F825004E48C07D30B961
:1056C00011A850F825105FA000F040FC05E011A8DB
:1056D00050F825105CA000F039FC9DF82000401E19
:1056E000A84202D05AA000F031FC681CC5B29DF857
:1056F00020008542B6DB57A000F028FC3D48407DE5
:105700000B280DD2DFE800F0060D151E27323F4EA4
:105710005DA8B9003749096851F83400804706464A
:10572000BEE0344A126852F8341011988847064691
:10573000B6E0304B1B6853F83420DDE91101904787
:105740000646ADE02B4F3F6857F8343011A807C824
:1057500098470646A4E0DFF89CC0DCF800C05CF87F
:10576000347011A80FC8B847064699E0159BDFF8BA
:1057700084C00093DCF800C05CF8347011A80FC836
:10578000B84706468CE0DDE91523DFF868C0CDE9AF
:105790000023DCF800C05CF8347011A80FC8B847CB
:1057A00006467DE015A90EC9DFF848C08DE80E0059
:1057B000DCF800C05CF8347011A80FC8B847064682
:1057C0006EE015A80FC8DFF82CC08DE80F00DCF8DC
:1057D00000C05CF8347011A80FC8B84706465FE0F7
:1057E0003136BDF8D6C6B2CECAFDCFD4CABE210D61
:1057F0000A000000100500204445433A256C750D51
:105800000A0000003130BDF8D6C6B2CECAFDCFD4F2
:10581000CABE210D0A0000002A2830582558293D0B
:10582000305825580D0A00002A282564293D256492
:105830000D0A00000D0A25732800000025630000F2
:1058400025730000256C75003058255800000000B5
:105850002C0000002900000016A80FC801AF0FC7D8
:10586000159BDFF8ECC00093DCF800C05CF83470E6
:1058700011A80FC8B847064612E017A80FC802AF14
:105880000FC7DDE91523DFF8C8C0CDE90023DCF838
:1058900000C05CF8347011A80FC8B847064600BFB6
:1058A00000BF9DF81C0001280CD12948C07D20B9FB
:1058B000314628A000F04AFB07E0314627A000F05F
:1058C00045FB02E024A000F041FBB9E670B5264894
:1058D000008810F4004F35D023480088C5B200205E
:1058E000224948551A4881682048884704461CB90F
:1058F0001749C868804722E01C48FFF7D9FA0546D7
:10590000012D00D02C46002C19D0012C06D0022CE1
:1059100008D0032C0AD0042C10D10BE014A000F006
:1059200015FB0BE015A000F011FB07E016A000F03E
:105930000DFB03E017A000F009FB00BF00BF002033
:105940000949088070BD01460868704701607047CA
:10595000100500203D256C753B0D0A003D30582593
:10596000583B0D0A0000000090040020BE100020EB
:10597000BAAFCAFDB4EDCEF3210D0A00B2CECAFD16
:10598000B4EDCEF3210D0A00B2CECAFDCCABB6E029
:10599000210D0A00CEB4D5D2B5BDC6A5C5E4B5C4A7
:1059A000BAAFCAFD210D0A0002460AE010780B7852
:1059B000984201D001207047107800B902E0521CD3
:1059C000491CF3E700BF0020F5E706E002780A7003
:1059D000027802B902E0401C491CF7E700BF70479B
:1059E0000146002005E00A7802B903E0421CD0B26B
:1059F000491CF8E700BF704710B50246012000E0DF
:105A000050430B00A1F10104E1B2F9D110BD2DE921
:105A1000F04304460D4600274FF00A09A046002037
:105A2000286027E098F80000392803DC98F8000087
:105A300030280DDA98F80000462803DC98F80000BA
:105A4000412805DA98F8000058280AD1012F08D11A
:105A500098F80000412801DB4FF01009781CC7B20C
:105A600006E098F8000000B905E00120BDE8F083E9
:105A700008F10108D6E700BFA046B9F1100F12D116
:105A8000032F01DA0220F1E798F80000302808D14E
:105A900098F80100582804D108F10208B81EC7B2CE
:105AA00004E00320E2E70FB90420DFE721E00FB1B3
:105AB000781EC7B298F80000392808DC98F8000072
:105AC000302804DB98F80000A0F1300603E098F8D5
:105AD0000000A0F1370639464846FFF78DFF2968D8
