:020000040800F2
:10000000601D00207D2C0008291200082B1200081A
:100010002F120008331200083712000800000000F9
:100020000000000000000000000000003B1200087B
:100030003D120008000000003F12000841120008B5
:10004000972C0008972C0008972C0008972C000884
:10005000972C0008972C0008972C0008972C000874
:10006000972C0008972C0008972C0008972C000864
:10007000972C0008972C0008972C0008972C000854
:10008000972C0008972C0008972C0008972C000844
:10009000972C0008972C0008972C0008972C000834
:1000A000972C0008972C0008972C0008972C000824
:1000B000E15100088F1A000857200008972C00080B
:1000C000972C0008972C0008972C0008972C000804
:1000D000972C0008372A0008992B0008972C000855
:1000E000972C0008972C0008972C0008972C0008E4
:1000F000972C0008972C0008972C0008972C0008D4
:10010000972C0008972C0008DF1C0008972C00088B
:10011000972C0008972C0008931F0008C71F0008A1
:10012000972C0008972C0008972C0008972C0008A3
:1001300000F002F800F06DF80AA090E8000C82448C
:100140008344AAF10107DA4501D100F062F8AFF269
:10015000090EBAE80F0013F0010F18BFFB1A43F0A5
:100160000103184734610000546100000A444FF055
:10017000000C10F8013B13F0070408BF10F8014B06
:100180001D1108BF10F8015B641E05D010F8016B4B
:10019000641E01F8016BF9D113F0080F1EBF10F8AF
:1001A000014BAD1C0C1B09D16D1E58BF01F801CBD2
:1001B000FAD505E014F8016B01F8016B6D1EF9D555
:1001C0009142D6D37047000000230024002500266A
:1001D000103A28BF78C1FBD8520728BF30C148BFAA
:1001E0000B607047642905F08F85752905F08C85B3
:1001F000782905F0C185632905F06087732905F02A
:100200006587002070471FB5AFF300801FBD10B594
:1002100010BD05F067FF1146FFF7F5FF00F05FF92D
:1002200005F085FFFFF7F3FF02F0A8FB10B50024EF
:10023000FF48407864287ED1FD4880786128FAD153
:10024000FB48C07874287FD1F94800795F287BD1BA
:100250000020F84908702420F749F64A127888549B
:10026000F4480078401CF34908707220F249F14AC2
:1002700012788854EF480078401CEE4908707320CB
:10028000ED49EC4A12788854EA480078401CE94964
:1002900008707420E849E74A12788854E5480078E5
:1002A000401CE44908705F20E349E24A1278885410
:1002B000E0480078401CDF4908705F20DE49DD4AD5
:1002C00012788854DB480078401CDA490870002016
:1002D000D949D84A12788854D6480078401CD54964
:1002E00008700020D449D34A12788854D148007845
:1002F000401CD049087008460178CF4801F0E2FC64
:10030000CD49CC4A12788854CA480078401CC94963
:10031000087000BF0DE0C848015DC84803F0E7F968
:1003200000BF4021C54803F050FA0128F9D1601CF4
:10033000C4B2C04800E007E000788442EBDB002054
:10034000BF490870BF49088010BD10B500240020C7
:10035000BD4908702420BD49BB4A12788854BA4868
:100360000078401CB84908706420B849B64A127831
:100370008854B5480078401CB34908706120B349DF
:10038000B14A12788854B0480078401CAE490870D1
:100390007420AE49AC4A12788854AB480078401CAF
:1003A000A94908705F20A949A74A12788854A6482D
:1003B0000078401CA4490870A5480078C82805DAD0
:1003C000A3480078401CA249087002E00020A04920
:1003D00008709F4801789D489B4A127881549A483A
:1003E0000078401C9849087000209849964A127875
:1003F000885495480078401C93490870152193480B
:10040000914A1278815490480078401C8E490870B7
:1004100000240DE08F48005D30308C498A4A127804
:10042000885489480078401C87490870601C84B251
:10043000844800888442EDDB83480178834801F0DA
:1004400041FC8249804A1278885408467E490978DE
:10045000405C242805D07D487B490978405C0D2804
:1004600009D17A4878490978405C401CC1B2774884
:10047000754A1278815474480078401C724908709B
:100480000D207249704A127888546F480078401CD9
:100490006D4908700A216D486B4A127881546A4888
:1004A0000078401C68490870012240F225516A48D2
:1004B00003F0BAF800240DE06448015D664803F0DB
:1004C00016F900BF4021644803F07FF90128F9D1F3
:1004D000601C84B25C4800788442EDDB10BD2DE9DD
:1004E000F04FADF5057D41F6B054204684900025CF
:1004F000002600274FF000080020839082905421AE
:100500006DA805F037FD4FF4C0710DA805F032FD60
:1005100000200C90834609A800210A460B460EC015
:10052000182103A805F026FD00200290019002F09A
:10053000BFF902F01DFA4FF4E13002F02DFA4FF44A
:10054000165002F0D9FA00F061FF41F61F4142F265
:100550000F7001F08AFB41F61F4140F6B73001F001
:100560004DFD41F61F41092001F064FA40F2AF4110
:10057000042001F0C1FC40F2CF21042001F058FC1E
:1005800001F0E7FC01F000F9012001F0B8F90020CA
:1005900001F0C5F9032001F0A2F93F2001F090F924
:1005A00001F039F9022201A92C4802F0EFF89DF878
:1005B000040000EB8000214601EB4005084685421F
:1005C00005DD42F27470854201DA849502E041F65D
:1005D000B0508490849801F0B1F927E32048008856
:1005E00010F4004F7ED01E480088C0F30D0A1D484D
:1005F0000078242877D1BAF1000F74DDAAF1010048
:1006000081B2184801F05EFB02900298242802D0C3
:1006100002980D2803D10298401CC0B20290AAF1A2
:1006200001001049085C0299884271D10D481BE015
:10063000BA10002002000020F80500200038014018
:1006400054040020520400205A0400208208002094
:100650005B0400205C060020004400400000070806
:1006600090040020DA1300204078732824D1FF483A
:100670008078612820D1FD48C07866281CD1FB48CD
:1006800000795F2818D1F94840795F2814D10220F9
:10069000F74908700020F74908700120F649086002
:1006A0000020F6490880F2490870012240F22551E5
:1006B000F34802F0B9FF32E1EC48407865287ED17A
:1006C000EA4880786328FAD1E848C0786328F6D1F0
:1006D000E64800795F28F2D1E44840795F28EED1FE
:1006E000042001E015E107E1E14908700020E1493B
:1006F00008700120E04908604FF0000BDB48007AE9
:10070000DA49C97900EB012080B2829000261FE00F
:10071000E3E04FF0030816E0D448805DA0F130011B
:10072000012000FA08F0014201D0012000E0002081
:100730000DA901F80B000BF101001FFA80FBA8F1D5
:1007400001004FFA80F8B8F1000FE5DA701C86B2AC
:1007500082988642DDDB1920CA490880002630E0F5
:100760004FF000080CE006EB460008EB80006DA996
:10077000085C09A901F8080008F101004FFA80F8A7
:10078000B8F10C0FEFDB03A909A801F0CFFC4FF083
:1007900000080FE003A810F80810BB48B94A1288F7
:1007A0008154B8480088401CB649088008F101000F
:1007B0004FFA80F8B8F1180FECDB701C00E055E040
:1007C00086B20C210C9890FBF1F0B042C8DC0026F8
:1007D0002EE04FF000080CE006EB460008EB80002E
:1007E0000DA9085C09A901F8080008F101004FFAF9
:1007F00080F8B8F10C0FEFDB03A909A801F096FC13
:100800004FF000080FE003A810F808009E499D4A29
:10081000128888549B480088401C9A49088008F137
:1008200001004FFA80F8B8F1180FECDB701C86B2AB
:100830000C209BFBF0F0B042CBDC00F0F9FF002174
:10084000924803F016FC0121914803F012FC0121AB
:10085000904803F00EFC0A2002F061F801218E4856
:1008600003F007FC00208549088058E07F48407865
:10087000722823D17D48807874281FD17B48C078A6
:1008800073281BD1794800795F2817D177484079C0
:100890005F2813D10020774908700120764908604D
:1008A000FFF753FD00207549088071490870012247
:1008B00040F22551724802F0B7FE30E0FFF745FDE7
:1008C00000206E490880012240F225516C4802F058
:1008D000ABFE00206649087021E0FFF736FD0020DE
:1008E00066490880012240F22551654802F09CFECD
:1008F00000205F49087012E0002060490880012252
:1009000040F225515E4802F08FFE002058490870E1
:1009100005E0012240F22551594802F085FE5F486A
:10092000007801287DD109205D4908705D48007874
:1009300001283AD14F49087000204F490860032030
:100940004B490870FFF701FD00204949087040F647
:10095000B7304FF08041A1F82C080121524803F034
:1009600088FB00200C9000261CE04FF0030814E0E8
:100970004E48815D012000FA08F0014201D00120BB
:1009800000E000206DA90C9A88540C98401CC0B25D
:100990000C90A8F101004FFA80F8B8F1000FE7DAE7
:1009A000701C86B2152EE0DB3EE019203549088028
:1009B00000261EE04FF0030816E03C48815D012050
:1009C00000FA08F0014201D0012000E000202E4989
:1009D0002C4A128888542B480088401C29490880DA
:1009E000A8F101004FFA80F8B8F1000FE5DA701CA9
:1009F00086B22F4800888642DCDB00F019FF002118
:100A0000224803F036FB0121214803F032FB01218B
:100A1000204803F02EFB0A2001F081FF01211E482F
:100A200000E006E003F025FB00201E4908701B498A
:100A300008702048008810F4004F7ED017480078D6
:100A400000287AD1164800780028FAD11948008881
:100A5000C0F30D091848007824286FD1B9F1000FB0
:100A60006CDDA9F1010081B2134827E0DA13002000
:100A7000580400205D04002094812142900400204D
:100A8000004400400400002006000020000C00404C
:100A900000100040001400400004004054040020F6
:100AA000590400205C040020000800405C0600207F
:100AB000520400208C040020BA10002001F002F93A
:100AC00002900298242802D002980D2803D102989F
:100AD000401CC0B20290A9F10100FF49085C0299D4
:100AE00088427ED10020FD490870FB48407872287A
:100AF00078D1F94880786428FAD1F748C078792805
:100B0000F6D1F54800795F28F2D10120F449087048
:100B10002421F448F14A12788154F0480078401CAE
:100B2000EE4908707220EF49EC4A12788854EB487D
:100B30000078401CE949087001E048E33AE3642189
:100B4000E848E64A12788154E4480078401CE349BA
:100B500008707920E349E14A12788854DF48007828
:100B6000401CDE4908705F21DE48DC4A127881545F
:100B7000DA480078401CD94908705F20D949D74A23
:100B800012788854D5480078401CD4490870D2485F
:100B90004079D449D14A12788854D0480078401C12
:100BA000CE490870022201A9CF4801F0EFFD9DF85F
:100BB0000400CC49C94A12788854C8480078401CBF
:100BC000C649087008460178C64801F07BF8C54957
:100BD000C24A12788854C1480078401CBF49087046
:100BE00001E0D8E223E00220BD49087000260DE0B4
:100BF000BC48815DBD4802F07AFD00BF4021BB4882
:100C000002F0E3FD0128F9D1701C86B2B3480078E8
:100C10008642EDDB0020B6490880012240F22551D2
:100C2000B24802F001FD0020AD490870DBE2AA489D
:100C30004078662871D1A84880787228FAD1A648F1
:100C4000C0786528F6D1A44800795F28F2D1012246
:100C500040F22551A54802F0E7FC0320A0490870A6
:100C600000F0D9FD41F6B054204600F067FE242183
:100C70009C489A4A1278815498480078401C9749B9
:100C8000087066219748954A1278815493480078F5
:100C9000401C9249087072209249904A12788854F8
:100CA0008E480078401C8D49087065208D498B4A1C
:100CB0001278885489480078401C884908705F2160
:100CC0008848864A1278815484480078401C8349B9
:100CD00008705F218348814A127881547F480078E8
:100CE000401C7E4908707C4840797E497B4A1278D6
:100CF00088547A480078401C784908700021794867
:100D0000764A1278815475480078001D734908703E
:100D1000042073490870002751E05FE0204600F08E
:100D20000DFE0A2001F0FBFD0B2000F00BFD10F47E
:100D3000807F03D001206B49487202E0002069499E
:100D400048720A2001F0EBFD00F081FD6549087250
:100D500062480078401E81B2624800F0B3FF6149EA
:100D60008872002611E05E48007800B911E05D4805
:100D7000815D5E4802F0BBFC00BF40215B4802F091
:100D800024FD0128F9D1701C86B2544800788642AF
:100D9000E9DB00BF5248007800B912E05148C07941
:100DA000401C5049C87142F27470844203DA04F165
:100DB0000A0084B201E041F6B054781C87B2FB2FE0
:100DC000ACDB00BF849800F0B9FD142001F0A7FD52
:100DD0000020474908804249087004E23E484078B4
:100DE000632878D13C4880786F28FAD13A48C07897
:100DF0006E28F6D1384800795F28F2D105203849AD
:100E0000087024203749354A1278885433480078CE
:100E1000401C3249087063203249304A12788854A5
:100E20002E480078401C2D4908706F212D482B4A10
:100E30001278815429480078401C284908706E2196
:100E40002848264A1278815424480078401C2349B7
:100E500008705F202349214A127888541F4800787F
:100E6000401C1E4908705F211E481C4A127881549C
:100E70001A480078401C19490870174841791948E8
:100E8000164A1278815415480078401C134908709E
:100E9000114881791348114A127881540F4800781B
:100EA000401C0E490870084601780E4800F00AFF01
:100EB0000C490A4A1278885408480078401C0749AF
:100EC000087005488079012816D0022815D003281B
:100ED00028D004280EE063E0BA10002002000020B1
:100EE00059040020F80500200000070800380140E0
:100EF0008C0400202ED121E02DE0BC48C07900EB0D
:100F0000800041F6B05101EB40008490B748C079B1
:100F1000B74908700222B74801F048FC849800F0F5
:100F20000DFD18E00120B449087000F081FC8498A0
:100F300000F004FD142001F0F2FC0CE00020AE49AA
:100F4000087000F068FC849800F0F8FC142001F0B0
:100F5000E6FC00E000BF00BF0620A849087000269C
:100F60000DE0A748815DA74802F0C1FB00BF40210A
:100F7000A44802F02AFC0128F9D1701C86B2A248CC
:100F800000788642EDDB0020A0490880012240F273
:100F900025519C4802F048FB00209849087022E146
:100FA0009248407864287CD1904880786128FAD1B2
:100FB0008E48C0787428F6D18C4800795F28F2D129
:100FC00007208E49087024218D488F4A1278815459
:100FD0008D480078401C8C490870642088498A4AF2
:100FE0001278885488480078401C8749087061212D
:100FF0008348854A1278815483480078401C82498E
:10100000087074207E49804A127888547E4800789F
:10101000401C7D4908705F2079497B4A12788854CA
:1010200079480078401C784908705F207449764AF6
:101030001278885474480078401C734908706B48D3
:1010400041796F48704A127881546F480078401C8B
:101050006D49087008460178694800F033FE684918
:10106000694A1278885468480078401C66490870BC
:101070005E48C0795D49897900EB012080B2839098
:1010800083983C280BD08398482808D0839854280C
:1010900005D083982A2802D0839815285CD1002691
:1010A00023E06BE083983C2805D08398482802D041
:1010B0008398542809D14D4906F10900085C30385D
:1010C0005349544A1288885408E0484906F10800F8
:1010D000085C30384E494F4A128888544D48008881
:1010E000401C4C490880701C86B283988642D9DB2C
:1010F0008398152802D101204749087083983C281D
:1011000005D08398482802D08398542809D101201B
:10111000424908703548007A303800EB40004049B9
:10112000087001203F4908700820344908700026E3
:101130000DE03348815D334802F0D9FA00BF402109
:10114000304802F042FB0128F9D1701C86B22E48CB
:1011500000788642EDDB46E00020324908702E49D7
:1011600008702C4908802949088024490870012208
:1011700040F22551234802F057FA34E00020234979
:101180000880012240F225511E4802F04DFA00204D
:101190001A49087027E000201C490880012240F20B
:1011A0002551184802F040FAFFF740F80020134993
:1011B000087018E0002015490880012240F22551EE
:1011C000104802F031FA00200C4908700BE0154875
:1011D000007840B90948007828B9012240F2255129
:1011E000084802F021FAFFF7F9B90000BA10002010
:1011F00000000020000007086004002059040020BF
:10120000F805002000380140020000208C04002076
:101210005C060020520400205C0400205E040020D4
:101220005F04002054040020704700BFFEE700BFA9
:10123000FEE700BFFEE700BFFEE77047704770475C
:101240007047000000200021674A126842F4803293
:10125000654B1A6000BF644A126802F40031401CFA
:1012600011B9B0F5A06FF6D15F4A126812F4003FD1
:1012700001D0012100E00021012942D15B4A12681E
:1012800042F01002594B1A601A46126822F003020B
:101290001A601A46126842F002021A60524A5268F4
:1012A000514B5A601A4652685A601A46526842F4C4
:1012B00080625A601A46526822F47C125A601A46BA
:1012C000526842F4E8125A601A46126842F080727C
:1012D0001A6000BF444A126812F0007FFAD0424AF6
:1012E000526822F00302404B5A601A46526842F09C
:1012F00002025A6000BF3C4A526802F00C02082AFF
:10130000F9D1704710B5FFF79DFF10BD10B53648F5
:10131000006840F0010034490860084640683449DC
:1013200008403149486008460068324908402E4963
:1013300008600846006820F480200860084640687D
:1013400020F4FE0048604FF41F008860FFF7DAFFCA
:101350004FF000602849086010BD10B50020002142
:101360000022214B5B6803F00C0020B1042806D05A
:10137000082828D107E0214B214C236027E01F4B90
:101380001F4C236023E0184B5B6803F47011164B6D
:101390005B6803F48032022303EB914122B9194BBD
:1013A0004B43174C23600DE00F4B5B6813F4003F79
:1013B00004D0144B4B43124C236003E00F4B4B43C0
:1013C0000F4C236003E00D4B0D4C236000BF00BFAA
:1013D000054B5B68C3F303130B4CE05C084B1B68C5
:1013E000C340074C236010BD0010024000200240A3
:1013F0000000FFF8FFFFF6FE08ED00E000127A00A3
:101400006404002000093D006804002008B50121A3
:10141000482001F0CDFF6020ADF8000010208DF8CD
:10142000030003208DF8020069460B4801F016FD09
:101430002021094801F0BAFD4021074801F0B8FD1C
:101440002020ADF800006946044801F007FD202186
:10145000024801F0ABFD08BD000C0140001801403E
:1014600008B50121082001F0A3FF4FF44060ADF85A
:10147000000010208DF8030003208DF8020069465B
:101480009E4801F0EBFC4FF440619C4801F08EFD5A
:1014900008BD10B59948001D006820F470409849B7
:1014A000C1F8040C0846D0F8040C40F440509349AD
:1014B000091D08600120934908609349C1F8A801FB
:1014C000042001F00AFA00208F49C1F8AC01042081
:1014D00001F003FA00208C49C1F8A80110BD10B535
:1014E0008648001D006820F470408549C1F8040C4E
:1014F0000846D0F8040C40F440508049091D0860AB
:1015000000208049091F08607F49C1F8AC01042010
:1015100001F0E3F901207B49091F08607A49C1F80D
:10152000AC01042001F0D9F910BD10B500247348B6
:10153000001D006820F470407149C1F8040C084691
:10154000D0F8040C40F400406C49091D08600120EB
:101550006C49086001F0C1F901206B49C1F8A8018C
:1015600001F0BBF907E0601CC4B2FA2C03DDFFF701
:10157000B6FF012010BD6348803800680028F2D112
:101580006049091F0860F5E710B500205D49091F93
:1015900008605B48D0F8040C20F470405849C1F84A
:1015A000040C0846D0F8040C40F440505349091D7F
:1015B000086000205449C1F8AC01022001F08DF907
:1015C00001205149C1F8A801022001F086F900204C
:1015D0004D49C1F8A80110BD10B500204949091FA7
:1015E00008604748D0F8040C20F470404449C1F822
:1015F000040C0846D0F8040C40F440503F49091D43
:10160000086001204049C1F8AC01022001F065F9F1
:1016100001203D49C1F8A801022001F05EF9002037
:101620003949C1F8A80110BD70B505463348001D01
:10163000006820F470403249C1F8040C0846D0F824
:10164000040C40F440502D49091D086000202D492C
:10165000091F0860002417E0E8092A4908606806A5
:10166000050E022001F039F901202749C1F8A8012F
:10167000022001F032F900202249091F08600220EF
:1016800001F02BF9601CC4B2082CE5DB70BD70B50D
:10169000044600251948001D006820F470401849D0
:1016A000C1F8040C0846D0F8040C40F40040C1F81E
:1016B000040C002617E000201249091F08600220D0
:1016C00001F00BF901201049C1F8A8016806050EC8
:1016D0000C488038006808B1681CC5B2012001F0D0
:1016E000FCF8701CC6B2082EE5DB14B9FFF774FFD6
:1016F00001E0FFF749FF284670BD0000000C0140E3
:1017000000000140AC8121420080214270B50446B6
:101710000D46FFF7BEFE2220FFF786FFFFF705FF0D
:101720002046FFF781FFFFF700FF2812FFF77CFF3D
:10173000FFF7FBFEE8B2FFF777FFFFF7F6FEFFF7D4
:10174000CEFE70BD70B50446FFF7A3FE2220FFF762
:101750006BFFFFF7EAFE2046FFF766FFFFF7E5FEA7
:10176000FFF797FE2320FFF75FFFFFF7DEFE012064
:10177000FFF78DFF05462D020020FFF788FF054388
:10178000FFF7ADFE284670BD10B5FFF769FE0020DB
:10179000FFF7D8FF0446A4F5B040053837D1022141
:1017A0000846FFF7B3FF322001F0B9F84CF201010F
:1017B0000220FFF7ABFF4FF4167001F0B0F848F6C7
:1017C0004F010520FFF7A2FF4FF4F0410720FFF77C
:1017D0009DFF08211320FFF799FF4FF4A151152019
:1017E000FFF794FF4FF440411620FFF78FFF43F2BD
:1017F00026111C20FFF78AFF49F624412220FFF71B
:1018000085FF4FF260614720FFF780FF01E0012074
:1018100010BD0020FCE710B54020FFF793FF044601
:101820004FF6F070044021464020FFF76FFF10BDD7
:1018300010B54020FFF786FF04464FF6F0700440D5
:1018400044F0010421464020FFF760FF10BD10B5B1
:101850000B20FFF777FF0446601210BD70B50546F8
:101860000520FFF76FFF04464FF6F070044005F0C7
:101870000F00044321460520FFF748FF70BD70B5F7
:1018800004460220FFF75EFF054614B145F480458B
:1018900001E025F4804529460220FFF737FF70BD9F
:1018A00070B505460520FFF74DFF044648F2FF00DE
:1018B000044044EA052421460520FFF727FF70BDB8
:1018C00070B505464220FFF73DFF04464FF6C07055
:1018D00004402C4321464220FFF718FF70BD70B52D
:1018E00005464220FFF72EFF04464FF6FF00044056
:1018F00044EA052421464220FFF708FF70BD70B579
:1019000005460320FFF71EFF04464FF6F370044020
:1019100044EA850421460320FFF7F8FE70BD70B548
:1019200005460320FFF70EFF04464FF6FC70044007
:101930002C4321460320FFF7E9FE70BD2DE9F04757
:101940000446002600270320FFF7FCFE054605F0AD
:101950001F05C5F3810705F003060EB90A2604E04A
:10196000012E01D1142600E0052617B942F2FC1819
:101970000FE0012F01D0022F02D141F6B05808E04C
:101980005320FFF7DFFE804608EB880040044FEA53
:101990001048444501DABDE8F087A4EB080090FB4D
:1019A000F6F01FFA80F9C9F3090945EA891545F0EF
:1019B000100529460320FFF7A9FE142000F0AFFF11
:1019C00000BF0B20FFF7BEFE10F0800FF9D0E2E75A
:1019D0002DE9F0410025A8460320FFF7B3FE044699
:1019E000A711C4F3810804F003050DB90A2504E02A
:1019F000012D01D1142500E00525B8F1000F02D119
:101A000042F2FC1610E0B8F1010F02D0B8F1020F5B
:101A100002D141F6B05607E05320FFF793FE064689
:101A200006EB86004004060C07FB056084B22046E6
:101A3000BDE8F0817FB504460D460121022001F08A
:101A4000C4FCADF80840ADF804500020ADF80A0021
:101A5000ADF8060001A9FF4801F0E4FF012211469C
:101A6000FC4802F02BFB1D208DF8000000208DF8B3
:101A7000010003208DF8020001208DF80300684664
:101A800001F021F90021F34802F0F3FA7FBD10B50F
:101A90000121F04802F08FFD00287ED0EE4800784A
:101AA00000284BD1ED480088ED49098888420EDABC
:101AB000EC48EA490988405CEB4908600020EB49A2
:101AC0000870E6480088401CE449088036E00021A0
:101AD000E04802F0CEFA0020E3490860DF490880C0
:101AE0000120E24908700A2000F019FF0021E048B7
:101AF00002F0BFFA0021DF4802F0BBFA0121DE4804
:101B000002F0B7FA0020DD490880DD490870DD49A0
:101B10000870DD490880DD490880DD48007808B993
:101B2000FFF779FE012240F22551DA4801F07CFDF1
:101B3000012240F22551D84801F076FDC6480078D0
:101B400001284FD1D5480078D5490978884249DA2B
:101B5000C2480088C249098888420EDAC148BF4994
:101B60000988405CC04908600020C0490870BB4833
:101B70000088401CB949088072E0B8480088B8491C
:101B8000098888426CDB0020B7490860C5480078A6
:101B900064280CDBC148007800E065E0401CBF49C8
:101BA00008700020BF490870AC49088004E0BD48B7
:101BB0000078401CBB490870BA4800780A2802D156
:101BC0000120AA490870B74800785A2848D1B4487B
:101BD0000078401EB1490978884241DD0020A349C0
:101BE00008703DE09C480078012839D1AB48007866
:101BF000AB490978884233DBA948007800282FD008
:101C0000002095490870A5490870A5490870002171
:101C1000904802F02EFA0020934908600021944871
:101C200002F027FA0021934802F023FA012192489A
:101C300002F01FFA002091490880914908709149EB
:101C4000087091490880914908809148007808B946
:101C5000FFF7E1FD012240F225518E4801F0E4FC3E
:101C600001217C4802F0B8FC10BD7FB504460D464A
:101C70000121082001F0A9FBADF80840ADF804509F
:101C80000020ADF80A00ADF8060001A97A4801F07D
:101C9000C9FE01221146784802F010FA32208DF870
:101CA000000000208DF8010002208DF802000120C4
:101CB0008DF80300684601F006F801216E4802F035
:101CC000D8F97FBD10B5024600201078012303E04B
:101CD000D45C60405C1CA3B28B42F9DB10BD70B5D4
:101CE0000024002500260121634802F064FC00283E
:101CF00076D06D48006808B9012000E000206A49EC
:101D000008606A48007806286BDB5C480088002879
:101D10007CD15E480088002878D159480078002896
:101D200074D15848007818B15648007801286DD110
:101D300001205F49087000204B49091F08600120FD
:101D40005049087000255B48007838B9012059498E
:101D50000870002058494855681CC5B224205649CF
:101D60004855681CC5B273204855681CC5B261202F
:101D70004855681CC5B266204855681CC5B25F202E
:101D80004855681CC5B24D480078C82803DD0020BE
:101D90004A49087004E049480078401C47490870E7
:101DA0004648007844494855681CC5B2294642480F
:101DB000FFF788FF06460D2E01D0242E01D1701C9E
:101DC000C6B23D484655681CC5B20D203A49485533
:101DD000681CC5B20A204855681CC5B200240FE033
:101DE00021E013E03448015D2B4801F080FC00BF86
:101DF0004021294801F0E9FC0128F9D1601C84B296
:101E0000AC42EFDB0020294908700CE0274800783D
:101E1000322803DD06202549087004E023480078B5
:101E2000401C224908700121134802F0D5FB70BD07
:101E30007FB504460D460121102001F0C6FAADF829
:101E40000840ADF804500020ADF80A00ADF80600D7
:101E500001A935E0000400405E0400207804002061
:101E60000400002006000020988121427A0400200E
:101E70000010004000140040000C00408C040020C2
:101E8000590400205804002052040020900400202F
:101E90006004002000380140004400407B04002022
:101EA0005F0400207C040020940123427D04002074
:101EB0005D0400207F040020AA0800207E0400208A
:101EC000884801F0AFFD01221146864802F0F6F87D
:101ED00036208DF8000000208DF8010003208DF8D9
:101EE000020001208DF80300684600F0ECFE00219E
:101EF0007C4802F0BEF87FBD7FB504460D46012147
:101F0000202001F062FAADF80840ADF8045000203E
:101F1000ADF80A00ADF8060001A9734801F082FD92
:101F200001221146704802F0C9F837208DF80000F0
:101F300000208DF8010003208DF8020001208DF8AB
:101F40000300684600F0BFFE0021674802F091F8E8
:101F50007FBD08B501210C2001F02AFA4FF4407032
:101F6000ADF8000010208DF8030003208DF802006A
:101F700069465E4800F072FF8020ADF800006946B7
:101F80005B4800F06BFF4FF48071584801F010F887
:101F900008BD10B50121534802F00DFB90B101219D
:101FA000504802F019FB5348007830B95248006895
:101FB000C0435249C1F8A00104E04FF480714B487E
:101FC00000F0F6FF10BD10B50121474802F0F3FA0A
:101FD00098B10121444802F0FFFA4648007838B928
:101FE0004548001D0068C0434449C1F8A40104E00D
:101FF0004FF400713D4800F0DBFF10BD7FB5044693
:102000000D460121042001F0E0F9ADF80840ADF8DB
:1020100004500020ADF80A00ADF8060001A93848C8
:1020200001F000FD01221146354802F047F81E205C
:102030008DF8000000208DF8010003208DF80200CB
:1020400001208DF80300684600F03DFE00212C4879
:1020500002F00FF87FBD10B50121294802F0ABFA5C
:1020600000283DD00121264802F0B6FA2548007824
:10207000012831D1002020490C3908600021224874
:1020800001F0F7FF00201D49C1F89801012019490E
:1020900008700021134801F0ECFF0021124801F004
:1020A000E8FF0121194801F0E4FF002018490870F9
:1020B000184908701849088018490880184908808C
:1020C000012240F22551174801F0AEFA012240F2F8
:1020D0002551154801F0A8FA0021094801F0C9FF6F
:1020E00010BD00000010004000140040000C014032
:1020F000000801407A040020A08121420080214292
:10210000000800405D04002000040040000C004076
:1021100059040020580400208C0400209004002062
:10212000520400200038014000440040F0B586B061
:1021300003AF0022134614461CC7002400250026C6
:1021400000BF84E0C4F10B03C35C9DF81670DA197C
:1021500002EBD2735B10A2EB4303DBB28DF80B30C2
:102160009DF80B208DF80A209DF80A208DF8062096
:102170009DF806208DF805209DF805208DF8042097
:102180009DF804208DF802209DF802208DF8002093
:102190009DF815309DF80A70DA1902EBD2735B10C6
:1021A000A2EB4303DBB28DF816309DF814208DF8B6
:1021B00015209DF813208DF814209DF812208DF81D
:1021C00013209DF811309DF80670DA1902EBD273D6
:1021D0005B10A2EB4303DBB28DF812309DF8103098
:1021E0009DF80570DA1902EBD2735B10A2EB430382
:1021F000DBB28DF811309DF80F309DF80470DA19BC
:1022000002EBD2735B10A2EB4303DBB28DF810300C
:102210009DF80E208DF80F209DF80D309DF802706E
:10222000DA1902EBD2735B10A2EB4303DBB28DF839
:102230000E309DF80C208DF80D209DF800208DF8B3
:102240000C20C4F10B02825C0A55621CD4B20C2C27
:10225000FFF678AF002508E0C5F10A0203AB9A5CEF
:102260000A55621CD4B26A1CD5B20B2DF4DB0024D3
:1022700004E00A5D3244D6B2621CD4B2172CF8DBFB
:10228000324606EBD6735B10A6EB4303CB7506B064
:10229000F0BD2DE9F04F8FB004460D460CA800228A
:1022A000134616464CC0182106A803F063FE00260C
:1022B0000027B0460020059002A800210A460B46E0
:1022C0000EC089468A468B460020019000BF08E078
:1022D00014F80A0006A901F80A000AF1010000F04A
:1022E000FF0ABAF1170FF3DB4FF0000B5CE09DF82B
:1022F0003A609DF83910881900EBD0714910A0EBB5
:102300004101C9B28DF83A109DF838008DF83900B6
:102310009DF837008DF838009DF836008DF83700AD
:102320009DF83510881900EBD0714910A0EB4101E0
:10233000C9B28DF836109DF83410881900EBD071B1
:102340004910A0EB4101C9B28DF835109DF833104A
:10235000881900EBD0714910A0EB4101C9B28DF88A
:1023600034109DF832008DF833009DF83110881933
:1023700000EBD0714910A0EB4101C9B28DF83210C9
:102380009DF830008DF8310006A911F80B1088195E
:1023900000EBD0714910A0EB4101C9B28DF83010AB
:1023A0000BF1010000F0FF0BBBF1170F9FDB00BF2B
:1023B0004FF0000A09E00CA810F80A00484400F0A9
:1023C000FF090AF1010000F0FF0ABAF10B0FF2DB7E
:1023D000B9F1030F10DC4FF0000A09E00CA810F867
:1023E0000A0002A901F80A000AF1010000F0FF0A40
:1023F000BAF10B0FF2DB57E14FF000099DF83A00FC
:102400008DF812009DF83910481C00EBD07149106E
:10241000A0EB4101C9B28DF811109DF83810481C8D
:1024200000EBD0714910A0EB4101C9B28DF810103A
:102430009DF837008DF80F009DF83610481C00EB12
:10244000D0714910A0EB4101C9B28DF80E109DF872
:102450003510481C00EBD0714910A0EB4101C9B206
:102460008DF80D109DF834008DF80C009DF83300A8
:102470008DF80B009DF83210481C00EBD07149100C
:10248000A0EB4101C9B28DF80A109DF83110481C2B
:1024900000EBD0714910A0EB4101C9B28DF80910D1
:1024A0009DF830008DF80800CA4609E002A810F82F
:1024B0000A00484400F0FF090AF1010000F0FF0A99
:1024C000BAF10B0FF2DBB9F1020F17DCB91D1722BD
:1024D00091FBF2F302FB131106AA515C481C00EBBE
:1024E000D0714910A0EB4101CAB2B91D172391FB6D
:1024F000F3FC03FB1C1106AB5A54D5E04FF0000966
:102500009DF83A10481C00EBD0714910A0EB410136
:10251000C9B28DF812109DF83910481C00EBD0712B
:102520004910A0EB4101C9B28DF811109DF8380097
:102530008DF810009DF83710481C00EBD071491041
:10254000A0EB4101C9B28DF80F109DF83610481C60
:1025500000EBD0714910A0EB4101C9B28DF80E100B
:102560009DF835008DF80D009DF834008DF80C00B5
:102570009DF83310481C00EBD0714910A0EB4101CD
:10258000C9B28DF80B109DF83210481C00EBD071C9
:102590004910A0EB4101C9B28DF80A109DF8310035
:1025A0008DF809009DF830008DF80800CA4609E052
:1025B00002A810F80A00484400F0FF090AF10100DF
:1025C00000F0FF0ABAF10B0FF2DBB9F1020F17DCD2
:1025D000791D172291FBF2F302FB131106AA515C3D
:1025E000481C00EBD0714910A0EB4101CAB2791D23
:1025F000172391FBF3FC03FB1C1106AB5A5453E069
:102600004FF000099DF83A609DF83910881900EBE9
:10261000D0714910A0EB4101C9B28DF83A109DF874
:1026200038008DF839009DF837008DF838009DF896
:1026300036008DF837009DF83510881900EBD07101
:102640004910A0EB4101C9B28DF836109DF8341045
:10265000881900EBD0714910A0EB4101C9B28DF887
:1026600035109DF83310881900EBD0714910A0EB9C
:102670004101C9B28DF834109DF832008DF8330055
:102680009DF83110881900EBD0714910A0EB410181
:10269000C9B28DF832109DF830008DF831008DF8F8
:1026A0003060781CC7B283E607F10C00172190FB5D
:1026B000F1F201FB1200C0B20590DDF814A00A206F
:1026C00001901DE017219AFBF1F201FB12A106AA6D
:1026D000515C02AA019BD25C881800EBD0714910B2
:1026E000A0EB410117229AFBF2F302FB13A206AB07
:1026F00099540AF1010000F0FF0A0198401E019070
:1027000001980028DEDA4FF0000A0DE006A810F864
:102710000A0005F80A0015F80A00404400F0FF0816
:102720000AF1010000F0FF0ABAF1170FEEDB404694
:1027300008EBD8714910A8EB4101E9754FF0000A88
:1027400007E000200CA901F80A000AF1010000F0DE
:10275000FF0ABAF10B0FF4DB00200FB0BDE8F08FD9
:102760000146088870472DE9F04104460D4617469A
:10277000002607E035F81610204602F095F8A41C54
:10278000701C86B2BE42F5DBBDE8F08130B5034671
:102790000C46002507E01846FFF7E2FF24F8150075
:1027A0009B1C681C85B29542F5DB30BD2DE9F05FBE
:1027B00004460D461646B4F1006F02D33A488442EF
:1027C00001D3BDE8F09F01F029FFA4F1006B4FEAAF
:1027D000DB27CBF34908C8F580694E4500DCB146DC
:1027E00054E04FF0006202EBC72052142F49FFF76C
:1027F000CDFF4FF0000A0DE008EB0A002B4931F83D
:102800001000A0F57F41FF3900D005E00AF101007A
:102810001FFA80FACA45EFDB00BFCA451EDA4FF047
:10282000006202EBC72001F03FFF4FF0000A0AE010
:1028300035F81A000AEB08011C4A22F811000AF1C7
:1028400001001FFA80FACA45F2DB4FF0006202EB8A
:10285000C72052141549FFF786FF04E04A4629466F
:102860002046FFF780FF4E4500D110E07F1C4FF05F
:10287000000805EB49054C44A6EB090086B2B6F505
:10288000806F02DD4FF4806900E0B146A9E700BF28
:1028900001F0D0FE95E713B50446012201A92046B8
:1028A000FFF784FF1CBD000000000808BA080020E4
:1028B00010B56FF0040000F053FA2A4800682A4966
:1028C000B0FBF1F029490870084600784FF47A719E
:1028D00048432649891C088010BD244A1278424387
:1028E0004FF0E0235A6100229A611A46126942F0C1
:1028F00001021A6100BF4FF0E022116911F0010FCF
:1029000002D011F4803FF6D04FF0E022126922F09D
:1029100001024FF0E0231A6100229A617047134AC6
:10292000921C128842434FF0E0235A6100229A61C0
:102930001A46126942F001021A6100BF4FF0E0220C
:10294000116911F0010F02D011F4803FF6D04FF061
:10295000E022126922F001024FF0E0231A61002206
:102960009A6170476404002000127A0088040020F5
:1029700010B54FF4A06000F0A1F910BD014600BFF2
:10298000704700BFB24A128812F0400FFAD0C2B2AC
:10299000AF4B1B1D1A80704710B586B0044601214D
:1029A00044F2040000F004FDA94800F063FD4FF478
:1029B0000070ADF8140003208DF8160018208DF873
:1029C000170005A9A34800F049FA4FF48060ADF85C
:1029D000140004208DF8170005A99E4800F03EFA67
:1029E00025208DF8000003208DF801008DF80200ED
:1029F00001208DF80300684600F065F9019400207D
:102A0000ADF80800ADF80A00ADF80C00ADF8100004
:102A10000C20ADF80E0001A98D4800F06EFD0122DA
:102A200040F225518A4800F0FFFD0121884800F05E
:102A3000EFFD06B010BD10B540F22551844800F0FE
:102A4000DAFE002857D0824800F055FEC4B2242C8C
:102A500005D10120804908700020804908807E4807
:102A60000078012847D17E480078042804D100204E
:102A70007B490870794908807848008810F4004F35
:102A800039D177480078002835D17448008810F48F
:102A9000804F15D00A2C03D00020704908802AE00E
:102AA0006E48008840F400406C49088000206A4964
:102AB0000870002240F22551654800F0B5FD1AE08B
:102AC0000D2C06D16548008840F480406349088099
:102AD00011E062480088C0F30D0062490C545F4861
:102AE0000088401C5D49088008460088B0F5487F92
:102AF00001DB0020088010BD10B586B0044601211E
:102B0000042000F055FC0121480400F05EFC56480A
:102B100000F0B0FC0420ADF8140003208DF816007E
:102B200018208DF8170005A94A4800F097F90820E9
:102B3000ADF8140004208DF8170005A9454800F0F1
:102B40008DF901940020ADF80800ADF80A00ADF849
:102B50000C00ADF810000C20ADF80E0001A94248A1
:102B600000F0CBFC26208DF8000003208DF801003A
:102B70008DF8020001208DF80300684600F0A3F8EC
:102B8000012240F22551384800F04EFD012136481F
:102B900000F03EFD06B010BD10B540F225513248A0
:102BA00000F029FE002851D02F4800F0A4FDC4B247
:102BB000242C05D101202D49087000202C490880C3
:102BC0002A480078012841D12948008810F4004F94
:102BD0003CD12848007818B126480078012835D122
:102BE0002348008810F4804F15D00A2C03D0002011
:102BF0001F4908802AE01E48008840F400401C4914
:102C00000880002019490870002240F2255116481A
:102C100000F00AFD1AE00D2C06D11548008840F49A
:102C200080401349088011E011480088C0F30D006E
:102C300011490C540E480088401C0D490880084674
:102C40000088B0F5487F01DB0020088010BD00003F
:102C500000380140000801408E0400208C04002050
:102C600059040020BA1000200044004092040020C3
:102C70009004002058040020DA13002009488047FF
:102C800009480047FEE7FEE7FEE7FEE7FEE7FEE74E
:102C9000FEE7FEE7FEE7FEE704480549054A064B66
:102CA000704700000D130008310100086017002074
:102CB000601D002060190020601900203249014386
:102CC000324A1160704770B5002100230F22C4788A
:102CD0000CB32E4C246804F4E064C4F5E064210ACB
:102CE000C1F10403CA40447804FA03F18478144023
:102CF00021430901264C0678A155047804F01F05EC
:102D00000124AC4005786D114FF0E02606EB8505F7
:102D1000C5F8004109E0047804F01F040125A5402E
:102D20001C4C0678761144F8265070BD1A4A0A40A9
:102D30000243164B1B1F1A60704741B1134A121D04
:102D4000126802434FF0E023C3F8102D07E00F4A4A
:102D5000121D126882434FF0E023C3F8102D704714
:102D6000042808D14FF0E021096941F004014FF037
:102D7000E022116107E04FF0E021096921F0040130
:102D80004FF0E022116170470000FA050CED00E001
:102D900000E400E080E100E080FFFF1F10B5044682
:102DA000C748844208D10121042000F01BFB002108
:102DB000042000F017FB46E0C248844208D10121FC
:102DC000082000F00FFB0021082000F00BFB3AE088
:102DD000BD48844208D10121102000F003FB0021EE
:102DE000102000F0FFFA2EE0B848844208D10121FB
:102DF000202000F0F7FA0021202000F0F3FA22E072
:102E0000B348844208D10121402000F0EBFA0021B0
:102E1000402000F0E7FA16E0AE48844208D10121D4
:102E2000802000F0DFFA0021802000F0DBFA0AE0C9
:102E3000A948844207D10121801500F0D3FA00216E
:102E4000A01500F0CFFA10BD10B50121084600F022
:102E5000C9FA0021012000F0C5FA10BDF0B500222A
:102E60000023002400250026002791F803C00CF061
:102E70000F0291F803C01CF0100F03D091F802C0AC
:102E80004CEA0202B1F800C01CF0FF0F31D0066816
:102E900000242BE04FF0010C0CFA04F5B1F800C04F
:102EA0000CEA0503AB4220D1A5004FF00F0C0CFA41
:102EB00005F7BE4302FA05FC4CEA060691F803C08A
:102EC000BCF1280F06D14FF0010C0CFA04FCC0F83D
:102ED00014C00AE091F803C0BCF1480F05D14FF0CF
:102EE000010C0CFA04FCC0F810C0641C082CD1D3EF
:102EF0000660B1F800C0BCF1FF0F34DD4668002465
:102F00002EE004F1080C4FF0010E0EFA0CF5B1F8AA
:102F100000C00CEA0503AB4221D1A5004FF00F0C15
:102F20000CFA05F7BE4302FA05FC4CEA060691F8D6
:102F300003C0BCF1280F05D104F1080C0EFA0CFEF9
:102F4000C0F814E091F803C0BCF1480F07D104F1B8
:102F5000080C4FF0010E0EFA0CFEC0F810E0641CD5
:102F6000082CCED34660F0BD4FF6FF7101800221E0
:102F700081700421C17070470246002093680B42A3
:102F800001D0012000E0002070470146886880B22F
:102F9000704702460020D3680B4201D0012000E0B8
:102FA000002070470146C86880B2704701617047D1
:102FB000416170470AB1016100E041617047C16041
:102FC00070474FF480320A43826181618261826975
:102FD000826970470022414B1A684FF680731A408D
:102FE00042EA00120A433D4B1A6070473C49C861EF
:102FF0007047F0B5002200230024002500F00046B1
:10300000B6F1004F02D1354EF46901E0334E7468D9
:10301000C0F3034582B200F44016B6F5401F08D154
:1030200024F070642D4E766826F070662B4F7E601B
:1030300012E000F48016B6F5801F06D1032606FACA
:1030400005F39C4344F0706406E0460D360102FA35
:1030500006F6B44344F0706421B1460D360102FA1D
:1030600006F6344300F00046B6F1004F02D11B4E85
:10307000F46101E0194E7460F0BD30B500228B0799
:103080001C0F0F2303FA04F2144B08338C1053F86F
:10309000244094438D1043F825408C1053F824307D
:1030A0008C07240F00FA04F423430C4C08348D10D1
:1030B00044F8253030BD0A49DC3108607047000013
:1030C00000080140000C01400010014000140140C4
:1030D00000180140001C0140002001400000014098
:1030E00000002042DB48006840F00100D949086038
:1030F00008464068D8490840D649486008460068F4
:10310000D6490840D34908600846006820F480206A
:1031100008600846406820F4FE0048604FF41F0035
:1031200088607047CB49096821F48031C94A116031
:103130001146096821F480211160B0F5803F03D069
:10314000B0F5802F0ED106E0C249096841F4803104
:10315000C04A116007E0BF49096841F4A021BD4A97
:10316000116000E000BF00BF704710B501460022AB
:10317000002300204A11012A02D1B64C236806E040
:10318000022A02D1B34C236A01E0B24C636A01F017
:103190001F02012494401C4201D0012000E00020C5
:1031A00010BD70B500240025002600BF3120FFF7B8
:1031B000DCFF0646641CB4F5A06F01D0002EF5D0EC
:1031C0003120FFF7D2FF08B1012500E00025284695
:1031D00070BD00219F4A116821F0F80141EAC00149
:1031E000116070479E49086070470022994B5A68E9
:1031F00022F47C1240EA01031A43964B5A6070474E
:103200009749086670470021924A516821F00301EE
:103210000143516070478F48406800F00C007047D0
:1032200000218C4A516821F0F00101435160704740
:103230000021884A516821F4E061014351607047E0
:103240000021844A516821F4605141EAC001516073
:10325000704729B17F4A527A02437E4B5A7206E088
:103260007C4A527AC343DBB21A407A4B5A72704797
:103270007B49D831086070470021764A516821F4B3
:1032800040410143516070470021724A2032117061
:10329000704A82F82010012802D004280AD104E0E4
:1032A00001216C4A2032117005E00521694A203263
:1032B000117000E000BF00BF70476A4908607047A6
:1032C0006449096A0143634A116270476549443998
:1032D0000860704730B500210022002300245D4DB6
:1032E0006D6805F00C0121B1042905D0082923D10E
:1032F00005E05D4D056022E05B4D05601FE0554D2A
:103300006D6805F47012534D6D6805F48033022525
:1033100005EB92421BB9554D554305600BE04D4DF1
:103320006D6815F4003F03D0504D5543056002E031
:103330004D4D5543056002E04B4D056000BF00BF99
:10334000444D6D6805F0F0010909494D6C5C056854
:10335000E54045603F4D6D6805F4E061090A444D64
:103360006C5C4568E54085603A4D6D6805F46051D8
:10337000C90A3F4D6C5C4568E540C560354D6D68D8
:1033800005F44041890B3A4D10356C5CC568B5FBBE
:10339000F4F5056130BD29B12E4A526902432D4B27
:1033A0005A6104E02B4A526982432A4B5A617047A2
:1033B00029B1284A92690243264B9A6104E0254AC2
:1033C00092698243234B9A61704729B1214AD2699D
:1033D0000243204BDA6104E01E4AD26982431D4B4E
:1033E000DA61704729B11B4AD2680243194BDA608F
:1033F00004E0184AD2688243164BDA60704729B15C
:10340000144A12690243134B1A6104E0114A12690B
:103410008243104B1A617047124940390860704767
:103420000F49C86470470B49C87170470948406A22
:1034300040F0807007494862704701460020054A05
:1034400092680A4201D0012000E000207047014943
:1034500088727047001002400000FFF8FFFFF6FE80
:10346000000042428004424200127A0000093D00FE
:103470009804002010B50446FB48844209D101217C
:103480008803FFF7AFFF00214FF48040FFF7AAFF4A
:1034900032E0F648844209D101214804FFF7AFFF2A
:1034A00000214FF40030FFF7AAFF25E0F0488442E6
:1034B00009D101218804FFF7A2FF00214FF48020E9
:1034C000FFF79DFF18E0EB48844209D10121C804B1
:1034D000FFF795FF00214FF40020FFF790FF0BE06E
:1034E000E548844208D101210805FFF788FF002143
:1034F0004FF48010FFF783FF10BD2DE9F04786B031
:1035000004460D460026002700BFB146B246A889F2
:1035100000B100BFA246268A4CF6FF700640E8883C
:1035200006432682A6894EF6F3100640A88829890C
:103530000843698908430643A681A68A4FF6FF40DF
:103540000640A8890643A68201A8FFF7C3FE544699
:10355000C548824501D1049F00E0039FA08910F473
:10356000004F08D007EBC70000EB0710296849009F
:10357000B0FBF1F807E007EBC70000EB0710296884
:103580008900B0FBF1F86420B8FBF0F006013009C7
:10359000642101FB1089A08910F4004F09D0322169
:1035A00001EBC9006421B0FBF1F000F00700064315
:1035B00008E0322101EB09106421B0FBF1F000F0CA
:1035C0000F000643268106B0BDE8F0874FF4165180
:1035D000016000218180C18001810C214181002195
:1035E0008181704710B50022028A4FF2FF031A4012
:1035F0000B884C8823438C882343CC8823431A436D
:10360000028210BD0021018041808180C18070470D
:1036100021B1828942F40052828104E082894DF610
:10362000FF731A4082817047F0B500240025002600
:103630000023A1F510676A3F00D100BF0346C1F324
:10364000421401F01F05012707FA05F6012C01D1EC
:103650000C3304E0022C01D1103300E014331AB112
:103660001F6837431F6002E01F68B7431F60F0BD4B
:1036700010B51AB1838A0B43838204E0838ACC435A
:10368000A4B22340838210BD028A4FF6F0731A4021
:103690000282028A0A430282704782894FF2FF73D4
:1036A0001A40828182890A438281704721B18289CE
:1036B00042F00202828104E082894FF6FD731A40D3
:1036C00082817047028A4FF6DF731A400282028AB3
:1036D0000A430282704721B1028A42F48042028288
:1036E00004E0028A4BF6FF731A4002827047C1F36E
:1036F00008028280704701468888C0F3080070473E
:10370000818941F0010181817047028BD2B202832D
:10371000028B42EA012202837047028B02F47F424D
:103720000283028B0A430283704721B1828A42F0EE
:103730002002828204E0828A4FF6DF731A4082827E
:10374000704721B1828A42F01002828204E0828AAC
:103750004FF6EF731A408282704721B1828A42F09D
:103760000802828204E0828A4FF6F7731A4082824E
:10377000704721B1828942F40042828103E082894C
:10378000C2F30E028281704721B1828A42F4006244
:10379000828204E0828A4FF2FF731A40828270476D
:1037A000828A4FF6FB731A408282828A0A4382829F
:1037B000704721B1828A42F00202828204E0828A4A
:1037C0004FF6FD731A408282704702460020B1F521
:1037D000007F00D100BF13880B4201D0012000E020
:1037E0000020704701F40072B2F5007F00D100BFE5
:1037F000CA430280704770B50246002300240025AA
:103800000020A1F510666A3E00D100BFC1F3421549
:1038100001F01F04012606FA04F4012D02D1968955
:10382000344006E0022D02D1168A344001E0968A27
:1038300034400B12012606FA03F31688334014B104
:103840000BB1012000E0002070BD10B50022002364
:10385000A1F510646A3C00D100BF0A120124944013
:10386000A3B2DC43048010BD003801400044004096
:1038700000480040004C00400050004010B5044695
:10388000FF48844208D10121C014FFF7ABFD00219D
:10389000E014FFF7A7FDC4E0B4F1804F08D1012187
:1038A0000846FFF7ACFD00210120FFF7A8FDB8E0B6
:1038B000F448844208D101210220FFF7A0FD002135
:1038C0000220FFF79CFDACE0EF48844208D10121C3
:1038D0000420FFF794FD00210420FFF790FDA0E0F5
:1038E000EA48844208D101210820FFF788FD002121
:1038F0000820FFF784FD94E0E548844208D10121C7
:103900001020FFF77CFD00211020FFF778FD88E0F4
:10391000E048844208D101212020FFF770FD0021FA
:103920002020FFF76CFD7CE0DB48844208D10121B8
:103930004014FFF757FD00216014FFF753FD70E0BE
:10394000D648844209D10121C804FFF74BFD00216C
:103950004FF40020FFF746FD63E0D148844209D1CF
:1039600001210805FFF73EFD00214FF48010FFF70D
:1039700039FD56E0CB48844209D101214805FFF7C3
:1039800031FD00214FF40010FFF72CFD49E0C6483F
:10399000844208D101214020FFF731FD0021402061
:1039A000FFF72DFD3DE0C148844208D10121802070
:1039B000FFF725FD00218020FFF721FD31E0BC4805
:1039C000844208D101218015FFF719FD0021A015BF
:1039D000FFF715FD25E0B748844209D1012108040D
:1039E000FFF700FD00214FF48030FFF7FBFC18E0EB
:1039F000B148844209D101214804FFF7F3FC0021BA
:103A00004FF40030FFF7EEFC0BE0AC48844208D1E5
:103A100001218804FFF7E6FC00214FF48020FFF726
:103A2000E1FC10BD00220288954B98420ED09A4BC3
:103A300098420BD0B0F1804F08D0924B984205D0FD
:103A4000914B984202D0914B984204D14FF68F731C
:103A50001A404B881A438E4B984207D08D4B9842A0
:103A600004D04FF6FF431A40CB881A4302808B885C
:103A700083850B880385824B98420BD0864B9842F6
:103A800008D08C4B984205D08B4B984202D08B4B80
:103A9000984201D10B7A038601238382704770B567
:103AA000002200230024058C4FF6FE763540058465
:103AB000038C8488028B4FF68F752A40B51E2A40EE
:103AC0000D882A43751E2B400D892B434D882B43AF
:103AD0006B4DA8420BD0704DA84208D0754DA8423E
:103AE00005D0754DA84202D0744DA84213D14FF6AF
:103AF000F7752B404D892B434FF6FB752B408D8876
:103B00002B434FF6FF652C404FF6FF552C408D8917
:103B10002C43CD892C4384800283CD888586038401
:103B200070BD70B5002200230024058C4FF6EF769F
:103B300035400584038C8488028B48F6FF752A4043
:103B40004FF6FF452A400D882D0642EA15424FF6F2
:103B5000DF752B400D892D0543EA15434D882D0552
:103B600043EA1543464DA84202D04B4DA8421BD113
:103B70004FF67F752B404D892D0543EA15434FF6CF
:103B8000BF752B408D882D0543EA15434FF6FF3551
:103B90002C404FF2FF752C408D89AD0444EA15444A
:103BA000CD89AD0444EA154484800283CD8805871D
:103BB000038470BD70B5002200230024058C4FF6ED
:103BC000FF6635400584038C8488828B4FF68F75A1
:103BD0002A404FF6FC752A400D882A434FF6FF55C0
:103BE0002B400D892D0643EA15434D882D0643EAE7
:103BF0001543234DA84202D0274DA8421BD14FF2B6
:103C0000FF752B404D892D0643EA15434FF6FF35CE
:103C10002B408D882D0643EA15434EF6FF752C4048
:103C20004DF6FF752C408D892D0544EA1544CD894C
:103C30002D0544EA154484808283CD8885870384DA
:103C400070BD70B5002200230024058C4EF6FF766F
:103C500035400584038C8488828B48F6FF752A40A2
:103C60004FF6FF452A400D882D0642EA15424DF6D3
:103C7000FF752B400D892D0743EA15434D881FE042
:103C8000002C01400004004000080040000C0040EF
:103C9000001000400014004000340140004C01407E
:103CA000005001400054014000180040001C00403A
:103CB0000020004000400140004401400048014015
:103CC0002D0743EA1543F84DA84202D0F74DA8420C
:103CD00006D14BF6FF752C408D89AD0544EA15449D
:103CE00084808283CD88A0F84050038470BD828B8D
:103CF0004FF2FF331A408283828B0B0642EA134253
:103D000082837047F0B5002400250026078C4EF60C
:103D1000FF7C07EA0C070784848B058C0F073E0C99
:103D200040F6FF473C40170644EA17441F0744EAA1
:103D30001744DD4FB8420ED0DC4FB8420BD0B0F183
:103D4000804F08D0DA4FB84205D0DA4FB84202D0DF
:103D5000D94FB84206D14DF6FF773D4046F4805723
:103D60003D4305E047F6FF573D4041F480573D4352
:103D700084830584F0BD828B4FF6F3731A408283EF
:103D8000828B0A4382837047F0B500240025002609
:103D9000078C4FF6FF6C07EA0C070784848B058CB1
:103DA0000F063E0C4FF60C773C401F0542EA1747C2
:103DB0003C43BD4FB8420ED0BC4FB8420BD0B0F11F
:103DC000804F08D0BA4FB84205D0BA4FB84202D09F
:103DD000B94FB84206D14FF6FF573D4046F48077C1
:103DE0003D4305E04FF2FF573D4041F480773D43AE
:103DF00084830584F0BD028B4FF2FF331A400283A7
:103E0000028B0B0642EA134202837047F0B500248E
:103E100000250026078C4FF6EF7C07EA0C07078485
:103E2000048B058C0F053E0C40F6FF473C401F07F6
:103E300044EA1744170644EA17449B4FB8420ED091
:103E40009A4FB8420BD0B0F1804F08D0984FB8428B
:103E500005D0984FB84202D0974FB84206D14FF6DE
:103E6000DF773D4046F010073D4305E04FF65F77B2
:103E70003D4041F010073D4304830584F0BD028BB3
:103E80004FF6F3731A400283028B0A430283704792
:103E9000F0B500240025068C4FF6FE773E400684E0
:103EA000048B058C4FF60C7634401E0542EA16460C
:103EB00034437D4EB0420ED07C4EB0420BD0B0F1B8
:103EC000804F08D07A4EB04205D07A4EB04202D030
:103ED000794EB04206D14FF6FD76354041F00106ED
:103EE000354305E04FF6F576354041F001063543A0
:103EF00004830584F0BD70B504460D466A488442CB
:103F00000ED06A4884420BD0B4F1804F08D0684884
:103F1000844205D06748844202D06748844200D179
:103F200000E000BF288850B92B89AA8869882046FC
:103F3000FFF7AEFFE9882046FFF7A1FF25E02888BC
:103F400004280AD12B89AA8869882046FFF75EFFDA
:103F5000E9882046FFF74FFF17E0288808280AD194
:103F60002B89AA8869882046FFF70EFFE98820463A
:103F7000FFF701FF09E02B89AA8869882046FFF72F
:103F8000C1FEE9882046FFF7B2FE70BD2DE9F04181
:103F900004460D4600260127688808B9022600E07D
:103FA0000026A888012801D1022700E001272888DF
:103FB000A0B92B89AA8869882046FFF769FFE9889C
:103FC0002046FFF75CFF2B893A4631462046FFF733
:103FD0001DFFE9882046FFF70EFF13E02B89AA8812
:103FE00069882046FFF712FFE9882046FFF703FFA4
:103FF0002B893A4631462046FFF74AFFE98820469A
:10400000FFF73DFFBDE8F0810A884B881A438B8893
:104010001A43CB881A430B891A434B891A438B895D
:104020001A43A0F8442070474FF6FF7181800021A9
:104030000180C18041800172704700210180418070
:104040008180C180018141818181C18170470021CE
:1040500001804180012181800021C1800181704760
:104060000021018041808180C18001814181818165
:10407000704721B1028842F00102028004E0028808
:104080004FF6FE731A400280704731B1B0F84420F9
:1040900042F40042A0F8442005E0B0F84420C2F306
:1040A0000E02A0F844207047002C0140003401406B
:1040B0000004004000080040000C004010B51AB198
:1040C00083890B43838104E08389CC43A4B22340DA
:1040D000838110BD8182704741EA0203A0F8483015
:1040E000704710B51AB183890B43838104E083893B
:1040F000CC43A4B22340838110BD01894FF6F872EE
:10410000114001817047002202894FF68F731A40D7
:104110000A430281704730B504460D4629462046C1
:10412000FFF7F1FF208940F00700208130BD2DE925
:10413000F04104460D4616461F46602D06D13B460B
:10414000012231462046FFF761FE05E03B46012291
:1041500031462046FFF79CFE29462046FFF7D3FF55
:10416000208940F007002081BDE8F08130B50024AF
:104170000489E4B21D0642EA15450D432C4304812F
:1041800030BD2DE9F04104460D46164698460027FD
:104190004346324629462046FFF7E8FF27894FF677
:1041A000F870074047F007074FF68F70074047F059
:1041B00070072781BDE8F081F0B504460D4616462C
:1041C0001F463B46324629462046FFF7CFFF20894F
:1041D00040F480402081F0BD01858282704700223A
:1041E00002884FF68F731A400A4302807047F0B579
:1041F0000024002500260489058B068C4FF6F877ED
:104200003C400C434FF6FC473D4040F201173D4314
:104210004FF6DD773E401F0542EA17473E430481D3
:1042200005830684F0BD0022028B4FF68F731A407F
:104230000A43028370470022028B48F6FF731A403C
:104240000B0642EA1342028370470022828B4FF62C
:104250008F731A400A43828370470022828B48F68C
:10426000FF731A400B0642EA13428283704721B162
:10427000028842F08002028004E002884FF67F73D9
:104280001A400280704721B1828842F00402828085
:1042900004E082884FF6FB731A408280704721B198
:1042A000828842F00802828004E082884FF6F77329
:1042B0001A408280704721B1828842F001028280D8
:1042C00004E082884FF6FE731A4082807047002215
:1042D000028B4FF6F7731A400A430283704700229D
:1042E000028B4FF2FF731A400B0642EA134202831D
:1042F00070470022828B4FF6F7731A400A4382837D
:1043000070470022828B4FF2FF731A400B0642EA7D
:104310001342828370470022028B4FF6FB731A40D0
:104320000A43028370470022028B4FF6FF331A4084
:104330000B0642EA1342028370470022828B4FF63B
:10434000FB731A400A43828370470022828B4FF628
:10435000FF331A400B0642EA134282837047002261
:10436000028B4FF67F731A400A4302837047002284
:10437000028BC2F30E020B0642EA1342028370471D
:104380000022828B4FF67F731A400A438283704764
:104390000022828BC2F30E020B0642EA1342828392
:1043A00070470022028C4FF6FD731A400A430284C4
:1043B00070470022028C4FF6F7731A400A430284BA
:1043C00070470022028C4FF6DF731A400B0542EA59
:1043D0001342028470470022028C4FF67F731A400A
:1043E0000B0542EA1342028470470022028C4FF60A
:1043F000FF531A400B0642EA134202847047002220
:10440000028C4FF2FF731A400B0642EA13420284F9
:1044100070470022028C4DF6FF731A400B0742EAE8
:1044200013420284704730B5002301248C40A3B2AC
:10443000048CDD43ADB22C400484048C02FA01F5F7
:10444000ADB22C43048430BD30B5002304248C402D
:10445000A3B2048CDD43ADB22C400484048C02FA78
:1044600001F5ADB22C43048430BD70B500230024A7
:1044700003461846183301258D40ACB2058CE6433F
:10448000B6B23540058409B1082909D103EB6103AF
:104490001D6825F070051D601D6815431D600CE04A
:1044A0000D1FADB203EB65031D6825F4E0451D60EB
:1044B0001D68160645EA16451D6070BD21B10288CB
:1044C00042F00202028004E002884FF6FD731A40B7
:1044D0000280704721B1028842F00402028004E0A9
:1044E00002884FF6FB731A400280704721B1828820
:1044F00042F08002828004E082884FF67F731A4087
:104500008280704702884FF6F7731A400280028853
:104510000A430280704782884FF68F731A40828068
:1045200082880A438280704702894FF6F8731A40E6
:10453000028102890A430281704702894FF67F7324
:104540001A40028102890A430281704781847047C0
:1045500081857047818670470187704781877047E2
:10456000A0F84010704702884FF6FF431A400280BF
:1045700002880A43028070470146888E70470146D0
:10458000088F70470146888F70470146B1F8400098
:1045900070470146888C70470146088D7047024677
:1045A0000020138A0B4201D0012000E00020704758
:1045B000CA430282704730B502460020002300241F
:1045C000158A05EA0103958905EA010413B10CB1C6
:1045D000012000E0002030BDCA4302827047000085
:1045E0000021FF4A116801F0380101431160704752
:1045F000FB49096821F00801F94A11601146096870
:10460000014311607047F649096821F01001F44A2E
:10461000116011460968014311607047F148F04983
:104620004860F14848607047EE48ED494860EE4800
:1046300048607047EA48006940F08000E849086136
:104640007047E748006940F08000E549086170471D
:104650000420E349C96801F00101012901D10120C9
:104660000EE0DF49C96811F0040F01D0022007E015
:10467000DB49C96811F0100F01D0032000E00420CD
:10468000704700B502460423FFF7E2FF034603E04C
:10469000FFF7DEFF0346521E012B01D1002AF7D19E
:1046A00002B90523184600BD30B5044604254FF471
:1046B0003020FFF7E6FF0546042D17D1C8480069F2
:1046C00040F00200C649086108464461006940F0B4
:1046D000400008614FF43020FFF7D3FF0546C04883
:1046E000006941F6FD710840BD490861284630BDAA
:1046F00010B504244FF43020FFF7C3FF0446042C08
:1047000016D1B748006940F00400B5490861084671
:10471000006940F0400008614FF43020FFF7B1FF1E
:104720000446AF48006941F6FB710840AC49086196
:10473000204610BD00B502460423FFF789FF03465B
:1047400003E0FFF785FF0346521E012B01D1002A2B
:10475000F7D102B90523184600BD10B504244FF463
:104760003020FFF7E7FF0446042C16D19C4800696F
:1047700040F004009A4908610846006940F0400092
:1047800008614FF43020FFF7D5FF044694480069D4
:1047900041F6FB71084092490861204610BD002097
:1047A0008F49C96911F0020F01D0012000E00020FB
:1047B000704730B5A5240425FFF7F1FF00B10024B0
:1047C0004FF43020FFF75DFF0546042D3AD18548B0
:1047D00083498860844888600846006940F020006A
:1047E00008610846006940F0400008614FF430203D
:1047F000FFF747FF0546042D1BD17948006941F6B4
:10480000DF710840764908610846006940F01000F1
:10481000086176480480E802FFF733FF0546052D5E
:1048200010D06F48006941F6EF7108406C4908618B
:1048300008E0052D06D06A48006941F6EF7108408E
:1048400067490861284630BDF0B504460D46042688
:104850000027F002FFF715FF0646042E22D160481C
:10486000006940F001005E4908612580F002FFF711
:1048700008FF0646042E0ED1A71C280C3880F00233
:10488000FFF7FFFE06465648006941F6FE710840F4
:104890005349086106E05248006941F6FE7108403C
:1048A0004F4908613046F0BD70B504460D460426F8
:1048B000F002FFF7E6FE0646042E11D148480069D3
:1048C00040F00100464908612580F002FFF7D9FE5B
:1048D00006464348006941F6FE71084040490861B8
:1048E000304670BD70B504460D460426F002FFF751
:1048F000C8FE0646042E17D13A48394988603A481E
:1049000088600846006940F0100008612580F002C8
:10491000FFF7B7FE0646052E06D03148006941F67E
:10492000EF7108402E490861304670BD2DE9F04313
:1049300004464FF6FF752E462F46A8464FF0040951
:10494000E443E5B2C4F30726C4F307474FEA14680B
:104950004FF40050FFF795FE8146B9F1040F50D196
:1049600020481F498860204888600846006940F058
:1049700010000861FF2D07D01C48083005804FF457
:104980000050FFF77EFE8146B9F1040F09D1FF2EDA
:1049900007D016480A3006804FF40050FFF771FE2A
:1049A0008146B9F1040F09D1FF2F07D00F480C3011
:1049B00007804FF40050FFF764FE8146B9F1040F01
:1049C0000AD1B8F1FF0F07D00948A0F80E884FF4BC
:1049D0000050FFF756FE8146B9F1050F11D009E0EE
:1049E0000020024023016745AB89EFCD00F8FF1F8F
:1049F00000F0FF1F6948006941F6EF710840674900
:104A000008614846BDE8F08330B5044604254FF4FC
:104A10003020FFF736FE0546042D41D160485F493E
:104A20008860604888600846006940F0200008619E
:104A30000846006940F0400008614FF43020FFF75D
:104A400020FE0546042D22D15448006941F6DF714D
:104A50000840524908610846006940F010000861AA
:104A60001CB100205049088002E0A5204E49088072
:104A70004FF43020FFF705FE0546052D10D04748BE
:104A8000006941F6EF7108404449086108E0052DCE
:104A900006D04248006941F6DF7108403F4908618D
:104AA000284630BDF0B504460D46164604273C485E
:104AB0003A4988603B488860F802FFF7E2FD074604
:104AC000042F19D13548006940F0100033490861BE
:104AD00046F0F800284320433349891C0880F80237
:104AE000FFF7CFFD0746052F06D02C48006941F699
:104AF000EF710840294908613846F0BD2748C06970
:104B0000800870472548006A7047002023490968DB
:104B100011F0200F01D0012000E00020704729B1E2
:104B20001E4A126902431D4B1A6104E01B4A1269B6
:104B300082431A4B1A61704701460020012908D1AF
:104B4000164AD26912F0010F01D0012008E00020BE
:104B500006E0124AD2680A4201D0012000E000209B
:104B600070470E49C860704704200C49C96801F0BD
:104B70000101012901D101200EE00849C96811F0A5
:104B8000040F01D0022007E00449C96811F0100F9A
:104B900001D0032000E00420704700000020024004
:104BA00023016745AB89EFCD00F8FF1F10B58CB02E
:104BB00004461E230BAA03A9204600F01CFE009009
:104BC000009810B101200CB010BD9DF82C000444D9
:104BD00000200B900EE060489DF82C2050F8221029
:104BE00003A800F05FFD00B908E09DF82C00401C10
:104BF000C0B20B909DF82C000828ECDB00BF9DF89C
:104C00002C0007287ED2DFE800F00405395B8BA674
:104C1000A50000BF51A001F017F851A001F014F851
:104C20005FA001F011F86EA001F00EF87CA001F079
:104C30000BF88BA001F008F899A001F005F8A6A0E8
:104C400001F002F8ABA000F0FFFFB0A000F0FCFF05
:104C5000B4A000F0F9FFB9A000F0F6FFBDA000F08D
:104C6000F3FFC3A000F0F0FFCEA000F0EDFFDAA04C
:104C700000F0EAFFE5A000F0E7FFAEE237A000F0A9
:104C8000E3FFF2A000F0E0FF00200B900EE0FF48F1
:104C900000689DF82C2000EBC2004168FCA000F0E9
:104CA000D3FF9DF82C00401CC0B20B90F748007D4C
:104CB0009DF82C108842EADC28A000F0C5FF8CE2A9
:104CC00026A000F0C1FFF4A000F0BEFF00200B9072
:104CD0001CE0EE4909689DF82C2001EBC20101ABF4
:104CE00002AA486803A900F0AAFDE84800689DF8F8
:104CF0002C1050F8312003A9F7A000F0A5FF9DF873
:104D00002C0000E067E2401CC0B20B90DF48007D41
:104D10009DF82C108842DCDC10A000F095FF5CE2CE
:104D20000EA000F091FF0BAA03A9204600F08CFE14
:104D30009DF82C0060B9694603A800F0E6FC0B90D2
:104D40009DF82C0028B9E9A0009900F07DFFE2E170
:104D5000DFE1D1E111E2E3E1AC0400200D0A000043
:104D60002D2D2D2D2D2D2D2D2D2D2D2D2D2D2D2D73
:104D70002D2D2D2D2D2D2D2D55534D415254205679
:104D8000322E382D2D2D2D2D2D2D2D2D2D2D2D2D42
:104D90002D2D2D2D2D2D2D2D2D2D2D200D0A0000ED
:104DA0002020202055534D415254CAC7D3C9414CED
:104DB00049454E54454BBFAAB7A2B5C4D2BBB8F6BD
:104DC000C1E9C7C9B5C4B4AEBFDAB5F7CAD4BBA58B
:104DD000BDBBD7E9BCFE2CCDA8B9FD200D0A000053
:104DE000CBFC2CC4E3BFC9D2D4CDA8B9FDB4AEBFAF
:104DF000DAD6FACAD6B5F7D3C3B3CCD0F2C0EFC374
:104E0000E6B5C4C8CEBACEBAAFCAFD2CB2A2D6B4EB
:104E1000D0D02ED2F2B4CB2CC4E3BFC90D0A00000F
:104E2000D2D4CBE6D2E2B8FCB8C4BAAFCAFDB5C49E
:104E3000CAE4C8EBB2CECAFD28D6A7B3D6CAFDD7FE
:104E4000D62831302F3136BDF8D6C629A1A2D7D603
:104E5000B7FBB4AEA1A2BAAFCAFDC8EB0D0A000001
:104E6000BFDAB5D8D6B7B5C8D7F7CEAAB2CECAFD85
:104E7000292CB5A5B8F6BAAFCAFDD7EEB6E0D6A7CD
:104E8000B3D63130B8F6CAE4C8EBB2CECAFD2CB204
:104E9000A2D6A7B3D6BAAFCAFDB7B5200D0A000097
:104EA000BBD8D6B5CFD4CABE2ED0C2D4F6B2CECAE5
:104EB000FDCFD4CABEBDF8D6C6C9E8D6C3B9A6C40C
:104EC000DC2CD0C2D4F6BDF8D6C6D7AABBBBB9A6D7
:104ED000C4DC2E0D0A000000BCBCCAF5D6A7B3D6B0
:104EE0003A7777772E6F70656E6564762E636F6D97
:104EF0000D0A000055534D415254D3D036B8F6CF69
:104F0000B5CDB3C3FCC1EE3A0D0A00003F3A2020F4
:104F10002020BBF1C8A1B0EFD6FAD0C5CFA20D0AB0
:104F20000000000068656C703A20BBF1C8A1B0EFCA
:104F3000D6FAD0C5CFA20D0A000000006C697374C8
:104F40003A20BFC9D3C3B5C4BAAFCAFDC1D0B1ED11
:104F50000D0A0A0069643A202020BFC9D3C3BAAF42
:104F6000CAFDB5C44944C1D0B1ED0D0A0A00000024
:104F70006865783A2020B2CECAFD3136BDF8D6C673
:104F8000CFD4CABE2CBAF3B8FABFD5B8F12BCAFD3C
:104F9000D7D6BCB4D6B4D0D0BDF8D6C6D7AABBBB82
:104FA0000D0A0A006465633A2020B2CECAFD313092
:104FB000BDF8D6C6CFD4CABE2CBAF3B8FABFD5B89E
:104FC000F12BCAFDD7D6BCB4D6B4D0D0BDF8D6C666
:104FD000D7AABBBB0D0A0A00C7EBB0B4D5D5B3CC7A
:104FE000D0F2B1E0D0B4B8F1CABDCAE4C8EBBAAFF0
:104FF000CAFDC3FBBCB0B2CECAFDB2A2D2D4BBD8EC
:10500000B3B5BCFCBDE1CAF82E0D0A002D2D2D2D27
:105010002D2D2D2D2D2D2D2D2D2D2D2D2D2D2D2DC0
:105020002D2D2D2D2D2D414C49454E54454B2D2DCB
:105030002D2D2D2D2D2D2D2D2D2D2D2D2D2D2D2DA0
:105040002D2D2D2D2D2D2D200D0A00002D2D2D2D3A
:105050002D2D2D2D2D2D2D2D2D2D2D2D2D2D2D2D80
:105060002D2D2D2D2DBAAFCAFDC7E5B5A52D2D2DA2
:105070002D2D2D2D2D2D2D2D2D2D2D2D2D2D2D2D60
:105080002D2D2D2D2D2D2D2D200D0A000C05002050
:1050900025730D0A000000002D2D2D2D2D2D2D2DF9
:1050A0002D2D2D2D2D2D2D2D2D2D2D2D2D2D2D2D30
:1050B0002DBAAFCAFD204944202D2D2D2D2D2D2D8B
:1050C0002D2D2D2D2D2D2D2D2D2D2D2D2D2D2D2D10
:1050D0002D2D2D2D200D0A00257320696420697364
:1050E0003A0D0A3058253038580D0A004845583ACC
:1050F000305825580D0A00009DF82C00042801D0D6
:10510000022060E5F5A000F09FFD0120F849C87578
:1051100001E0022057E5AFF2BC3000F095FD5CE005
:10512000AFF2C83000F090FD0BAA03A9204600F0B2
:105130008BFC9DF82C00C8B9694603A800F0E5FA7D
:105140000B909DF82C0020B9EAA0009900F07CFD9E
:105150000EE09DF82C00042801D0022033E5E8A0E1
:1051600000F072FD0020E249C87501E002202AE546
:10517000AFF2184000F068FD2FE0AFF2204000F0E1
:1051800063FD0BAA03A9204600F05EFC9DF82C00ED
:10519000D8B9694603A800F0B8FA0B909DF82C0026
:1051A00088B9D348C07D012806D10098014602681D
:1051B000D8A000F049FD0AE0009801460268D9A095
:1051C00000F042FD03E00220FDE40220FBE4D4A055
:1051D00000F03AFD01E00120F5E400BF0020F2E418
:1051E00010B501218807FFF7E6F910B1C049086939
:1051F000804701218807FFF7EFF910BD7FB504460E
:105200000D4601210846FEF7E0F841F28830ADF87E
:10521000080041F61F40ADF804000020ADF80A0078
:10522000ADF8060001A94FF08040FEF7FBFB01221C
:1052300041218807FEF742FF1C208DF80000032063
:105240008DF801008DF8020001208DF803006846FA
:10525000FDF739FD00214FF08040FEF70AFF7FBDCA
:1052600010B5044604EBC40000EB04100122C2EBAD
:10527000800081B24FF47A70FFF7C0FF01209C4993
:10528000C87510BD30B595B0044613AB12AA09A974
:10529000204600F0D4FA054615B1284615B030BDB9
:1052A0000020149026E0924909689DF8502001EBF7
:1052B000C20113AB11AA486801A900F0C0FA054663
:1052C0000DB12846EAE709A901A800F0EBF960B999
:1052D0009DF844009DF84810884201DD0220DDE77A
:1052E0009DF85000824988750AE09DF85000401CE6
:1052F000C0B214907E48007D9DF850108842D2DCE8
:1053000000BF7B48007D9DF85010884201D10420E9
:10531000C4E714A9204600F001FC05460DB128465B
:10532000BCE79DF85000724948750020B6E7F0B51B
:105330009BB06F48847D007DA04201DC1BB0F0BDB6
:105340006B49096801EBC40107AB08AA486809A9C1
:1053500000F075FA09A976A000F076FC002544E07B
:105360006348018B0120A84001421BD0222172A07A
:1053700000F06AFC284600F0C4FB5D492431471860
:1053800039466EA000F060FC22216BA000F05CFCAE
:10539000284600F0B6FB56492431084411A941F8CB
:1053A000250018E0284600F0ACFB5149243108588C
:1053B00011A941F825004E48C07D30B911A850F818
:1053C00025105FA000F040FC05E011A850F8251062
:1053D0005CA000F039FC9DF82000401EA84202D0DD
:1053E0005AA000F031FC681CC5B29DF8200085422F
:1053F000B6DB57A000F028FC3D48407D0B280DD2BD
:10540000DFE800F0060D151E27323F4E5DA8B900FB
:105410003749096851F8340080470646BEE0344AEF
:10542000126852F83410119888470646B6E0304B9F
:105430001B6853F83420DDE9110190470646ADE0C2
:105440002B4F3F6857F8343011A807C898470646D5
:10545000A4E0DFF89CC0DCF800C05CF8347011A850
:105460000FC8B847064699E0159BDFF884C0009343
:10547000DCF800C05CF8347011A80FC8B8470646C5
:105480008CE0DDE91523DFF868C0CDE90023DCF806
:1054900000C05CF8347011A80FC8B84706467DE01C
:1054A00015A90EC9DFF848C08DE80E00DCF800C071
:1054B0005CF8347011A80FC8B84706466EE015A80E
:1054C0000FC8DFF82CC08DE80F00DCF800C05CF8D6
:1054D000347011A80FC8B84706465FE03136BDF8F2
:1054E000D6C6B2CECAFDCFD4CABE210D0A00000076
:1054F0000C0500204445433A256C750D0A00000058
:105500003130BDF8D6C6B2CECAFDCFD4CABE210D49
:105510000A0000002A2830582558293D30582558BF
:105520000D0A00002A282564293D25640D0A000083
:105530000D0A257328000000256300002573000074
:10554000256C750030582558000000002C00000024
:105550002900000016A80FC801AF0FC7159BDFF880
:10556000ECC00093DCF800C05CF8347011A80FC8E0
:10557000B847064612E017A80FC802AF0FC7DDE90B
:105580001523DFF8C8C0CDE90023DCF800C05CF8C3
:10559000347011A80FC8B847064600BF00BF9DF879
:1055A0001C0001280CD12948C07D20B9314628A013
:1055B00000F04AFB07E0314627A000F045FB02E07F
:1055C00024A000F041FBB9E670B52648008810F42D
:1055D000004F35D023480088C5B2002022494855E5
:1055E0001A4881682048884704461CB91749C8688A
:1055F000804722E01C48FFF7D9FA0546012D00D06C
:105600002C46002C19D0012C06D0022C08D0032CDB
:105610000AD0042C10D10BE014A000F015FB0BE015
:1056200015A000F011FB07E016A000F00DFB03E051
:1056300017A000F009FB00BF00BF00200949088047
:1056400070BD014608687047016070470C05002076
:105650003D256C753B0D0A003D305825583B0D0A21
:10566000000000008C040020BA100020BAAFCAFD70
:10567000B4EDCEF3210D0A00B2CECAFDB4EDCEF3E7
:10568000210D0A00B2CECAFDCCABB6E0210D0A0056
:10569000CEB4D5D2B5BDC6A5C5E4B5C4BAAFCAFDB2
:1056A000210D0A0002460AE010780B78984201D0DA
:1056B00001207047107800B902E0521C491CF3E742
:1056C00000BF0020F5E706E002780A70027802B910
:1056D00002E0401C491CF7E700BF7047014600206C
:1056E00005E00A7802B903E0421CD0B2491CF8E791
:1056F00000BF704710B50246012000E050430B0088
:10570000A1F10104E1B2F9D110BD2DE9F043044645
:105710000D4600274FF00A09A0460020286027E028
:1057200098F80000392803DC98F8000030280DDADA
:1057300098F80000462803DC98F80000412805DAB4
:1057400098F8000058280AD1012F08D198F80000D5
:10575000412801DB4FF01009781CC7B206E098F829
:10576000000000B905E00120BDE8F08308F1010860
:10577000D6E700BFA046B9F1100F12D1032F01DA0E
:105780000220F1E798F80000302808D198F80100CD
:10579000582804D108F10208B81EC7B204E003205B
:1057A000E2E70FB90420DFE721E00FB1781EC7B2AE
:1057B00098F80000392808DC98F80000302804DB4D
:1057C00098F80000A0F1300603E098F80000A0F17E
:1057D000370639464846FFF78DFF296806FB00105B
:1057E000286008F1010898F8000000B900E0DCE743
:1057F00000BF0020B8E710B50446002010700BE091
:1058000020780870641C491C1078401C10701078B7
:10581000984201DB012010BD2078202802D020789A
:105820000028EDD100200870F5E7014600E0491C92
:105830000878202801D10029F9D1087870472DE98E
:10584000FF4F86B004460D461E464FF0000800206C
:105850000590824601200490002001900090A1460E
:105860002AE099F80000202820D0009800F07F005E
:1058700005281BDA009818B9009840F080000090C5
:10588000009800F07F00042804D199F800002A282D
:1058900000D015E099F80010009800F07F0002AAEF
:1058A00011540098401CC0B2009003E00098852875
:1058B00000D105E009F1010999F800000028D0D1D4
:1058C00000BF009888B10020009901F07F0102AA72
:1058D0005054D9A102A8FFF7E5FE10B9002030709E
:1058E00001E001203070002000900027A1460FE069
:1058F00009F10109781CC7B299F80000202807D1E6
:105900004846FFF792FF8346BBF1280F00D005976A
:1059100099F80000282803D099F800000028E7D162
:10592000A146059810B10598401C81440027BB464C
:1059300071E099F8000008B901276DE099F80000BE
:10594000282807D1BBF1000F04D108F1010000F0B5
:10595000FF081FE099F8000029280FD1BBF1000FC4
:105960000CD1B8F1000F04D0A8F1010000F0FF083D
:1059700000E00127B8F1000F0CD14DE099F80000CC
:10598000222807D1BBF1000F01D1012000E0002047
:1059900000F0FF0BB8F1000F08D199F800002028A3
:1059A00037D099F8000028706D1C32E099F800009B
:1059B0002C2806D1012004900098401CC0B2009011
:1059C00019E099F80000202815D099F8000028283F
:1059D00011D0009858B90198052808DA99F8000004
:1059E00002A9019A88540198401CC0B20190049801
:1059F000401CC0B20490B8F1010F0AD104980228EB
:105A000007D10498401CC0B204900AF1010000F0D4
:105A1000FF0A09F101098CE700BFBAF1010F0AD1B1
:105A2000002002A9019A885483A102A8FFF73AFE38
:105A300008B94FF0000A089880F800A000202870EC
:105A400038460AB0BDE8F08FF0B5034600200024C8
:105A5000002500264FE01F782C2F01D106B9012424
:105A60001F78292F01D01F780FB906B944E0002D07
:105A700034D11F78302F02DB1F78392F11DD1F78CA
:105A8000612F02DB1F78662F0BDD1F78412F02DBB1
:105A90001F78462F05DD1F78582F02D01F78782FEA
:105AA0000CD104B128E01F78612F03DB1F78203F61
:105AB0000F7001E01F780F70491C19E01F78222F2A
:105AC00004D104B118E00125012611E01F78202F30
:105AD0000ED01F782C2F0BD0FF250DE01F78222F22
