:020000040800F2
:10000000181A002029260008F50F0008F70F00082D
:10001000FB0F0008FF0F000803100008000000009D
:1000200000000000000000000000000007100008B1
:1000300009100008000000000B1000080D10000857
:1000400043260008432600084326000843260008EC
:1000500043260008432600084326000843260008DC
:1000600043260008432600084326000843260008CC
:1000700043260008432600084326000843260008BC
:1000800043260008432600084326000843260008AC
:10009000432600084326000843260008432600089C
:1000A000432600084326000843260008432600088C
:1000B000C14500085B1800084326000843260008D5
:1000C000432600084326000843260008432600086C
:1000D00043260008D72300083925000843260008D6
:1000E000432600084326000843260008432600084C
:1000F000432600084326000843260008432600083C
:1001000043260008432600084F190008432600082C
:100110004326000843260008811B0008A51B000891
:10012000432600084326000843260008432600080B
:1001300000F002F800F06DF80AA090E8000C82448C
:100140008344AAF10107DA4501D100F062F8AFF269
:10015000090EBAE80F0013F0010F18BFFB1A43F0A5
:100160000103184714550000345500000A444FF0AD
:10017000000C10F8013B13F0070408BF10F8014B06
:100180001D1108BF10F8015B641E05D010F8016B4B
:10019000641E01F8016BF9D113F0080F1EBF10F8AF
:1001A000014BAD1C0C1B09D16D1E58BF01F801CBD2
:1001B000FAD505E014F8016B01F8016B6D1EF9D555
:1001C0009142D6D37047000000230024002500266A
:1001D000103A28BF78C1FBD8520728BF30C148BFAA
:1001E0000B607047642904F07F87752904F07C87D1
:1001F000782904F0B187632905F05081732905F04F
:100200005581002070471FB5AFF300801FBD10B5AA
:1002100010BD05F057F91146FFF7F5FF00F04CF956
:1002200005F075F9FFF7F3FF02F078F810B5002438
:10023000FE48407864287ED1FC4880786128FAD155
:10024000FA48C07874287FD1F84800795F287BD1BC
:100250000020F74908702420F649F54A127888549E
:10026000F3480078401CF24908707220F149F04AC6
:1002700012788854EE480078401CED4908707320CD
:10028000EC49EB4A12788854E9480078401CE84968
:1002900008707420E749E64A12788854E4480078E8
:1002A000401CE34908705F20E249E14A1278885413
:1002B000DF480078401CDE4908705F20DD49DC4AD9
:1002C00012788854DA480078401CD9490870002018
:1002D000D849D74A12788854D5480078401CD44968
:1002E00008700020D349D24A12788854D048007848
:1002F000401CCF49087008460178CE4801F01AFB2F
:10030000CC49CB4A12788854C9480078401CC84967
:10031000087000BF0DE0C748015DC74802F0BDFE90
:1003200000BF4021C44802F026FF0128F9D1601C1B
:1003300084B2BF4800E007E000788442EBDB002095
:10034000BE490870BE49088010BD10B500240020C9
:10035000BC4908702420BC49BA4A12788854B9486C
:100360000078401CB74908706421B748B54A127834
:100370008154B4480078401CB24908706120B249E9
:10038000B04A12788854AF480078401CAD490870D4
:100390007420AD49AB4A12788854AA480078401CB2
:1003A000A84908705F20A849A64A12788854A54831
:1003B0000078401CA3490870A4480078C82805DAD2
:1003C000A2480078401CA149087002E000209F4923
:1003D00008709E4800789C499A4A12788854994837
:1003E0000078401C9749087000209749954A127878
:1003F000885494480078401C92490870152092490E
:10040000904A127888548F480078401C8D490870B3
:1004100000240DE08E48005D30308B49894A127807
:10042000885488480078401C86490870601C84B253
:10043000834800888442EDDB82480178824801F0DD
:1004400079FA81497F4A127888547E480078401CA6
:100450007C4908700D207C497A4A12788854794882
:100460000078401C774908700A207749754A12784D
:10047000885474480078401C72490870012240F288
:100480002551744802F0A6FD00240DE06E48015D80
:10049000704802F002FE00BF40216E4802F06BFE81
:1004A0000128F9D1601C84B2664800788442EDDBF3
:1004B00000206949087010BD2DE9F04FADF5017DB0
:1004C00041F6B05425460026002700208090824641
:1004D0007F9054216AA804F03DFF4FF4C0710AA830
:1004E00004F038FF00200990834606A800210A4640
:1004F0000B460EC01821684604F02CFF01F0A8FE40
:1005000001F006FF4FF4E13001F016FF4FF4965072
:1005100001F0C2FF00F060FE41F61F4140F6B73027
:1005200001F0DBF941F61F41092001F069F940F2C1
:10053000AF41042001F0D7FA40F2CF21042001F0AE
:10054000A5FA01F0FDFA01F005F8012001F0BDF86F
:10055000002001F0CAF8032001F0A7F83F2001F0C5
:1005600095F801F04BF8284601F0CEF8B7E23B4889
:10057000008810F4004F79D038480088C0F30D0986
:1005800037480078242872D1A9F1010081B234489B
:1005900001F0D0F9A9F10101314A515C884267D1DB
:1005A0004FF0000B1046407873281ED1104680781B
:1005B00061281AD11046C078662816D110460079F5
:1005C0005F2812D1104640795F280ED100202549BE
:1005D000087022490880012023490860012240F266
:1005E00025511C4802F0F6FC20E11D4840786528A2
:1005F0007DD11B4880786328FAD11948C0786328D8
:10060000F6D1174800795F28F2D1154840795F2864
:10061000EED10020134908701148007A1049C979B9
:1006200000EB012080B27F90002641E0720D002097
:10063000000000205C0A0020003801405204002025
:100640005004002059040020E60C00205A04002029
:10065000C00A00200044004057040020F408002095
:10066000921000205804002094812142D8E0CDE06F
:10067000C0E00320809016E0FD48805DA0F13001CD
:100680000120809A9040014201D0012000E000202A
:100690000AA901F80B000BF101001FFA80FB8098FA
:1006A000401E40B2809080980028E5DA701C86B227
:1006B0007F988642DDDB1920EE490880002631E074
:1006C000002080900DE006EB4600809901EB800051
:1006D0006AA9085C06A9809A88548098401C40B298
:1006E000809080980C28EEDB694606A800E06AE05E
:1006F00001F094FA002080900FE080991DF801101D
:10070000DD48DC4A12888154DA480088401CD94907
:1007100008808098401C40B2809080981828ECDBBC
:10072000701C86B20C21099890FBF1F0B042C7DC36
:1007300000262FE0002080900DE006EB4600809917
:1007400001EB80000AA9085C06A9809A8854809869
:10075000401C40B2809080980C28EEDB694606A8C9
:1007600001F05CFA002080900FE080991DF80110E4
:10077000C148C04A12888154BE480088401CBD4907
:1007800008808098401C40B2809080981828ECDB4C
:10079000701C86B20C209BFBF0F0B042CADC012139
:1007A000B64803F03CF90121B54803F038F90121BE
:1007B000B44803F034F90020B3490880B349087005
:1007C000B349088032E0AA48407872282ED1A84860
:1007D000807874282AD1A648C078732826D1A448E6
:1007E00000795F2822D1A24840795F281ED1FFF707
:1007F000ACFD1BE0FFF7A9FD0020A3490880012202
:1008000040F22551A34802F0E5FB0FE000209E498D
:100810000880012240F225519E4802F0DBFB05E0F2
:10082000012240F225519B4802F0D4FB9A480078FF
:10083000012878D109209949087099480078012841
:100840002FD1FFF782FD01209649087042F69910DA
:100850009549088003208D490870002009900026E2
:100860001CE00320809014E09048815D0120809A74
:100870009040014201D0012000E000206AA9099ABD
:1008800088540998401CC0B209908098401E40B21C
:10089000809080980028E7DA701C86B2152EE0DB85
:1008A00033E019207349088000261EE00320809061
:1008B00016E07E48815D0120809A9040014201D07F
:1008C000012000E000206C496A4A12888854694877
:1008D0000088401C674908808098401E40B2809084
:1008E00080980028E5DA701C86B269480088864244
:1008F000DCDB0121614803F092F80121604803F03C
:100900008EF801215F4803F08AF8002062490870E0
:100910005E48007810B900205D49088000206449D5
:1009200008805F4908706248008810F4004F7ED04C
:100930005948007800287AD15D480088C0F30D0836
:100940005C480078242873D1A8F1010081B259488D
:1009500000F0F0FFA8F10101564A515C884268D1CD
:100960000020554908701046407872287ED1104604
:1009700080786428FAD11046C0787928F6D11046DC
:1009800000795F28F2D101204449087024204B49A6
:10099000494A1278885448480078401C46490870F3
:1009A00072214648444A1278815443480078401CDA
:1009B00041490870642041493F4A127888543E48B2
:1009C0000078401C3C49087079213C483A4A12782A
:1009D000815439480078401C374908705F213748F6
:1009E000354A1278815434480078401C32490870E6
:1009F0005F203249304A127888542F480078401CD2
:100A00002D4908702B4841792C482B4A1278815483
:100A100029480078401C2849087008460178274872
:100A200000F088FF2549244A1278885402E0C5E284
:100A3000B7E2A7E220480078401C1F490870022056
:100A40001649087000260DE01C48815D1C4802F024
:100A500024FB00BF40211A4802F08DFB0128F9D188
:100A6000701C86B21448007886422BE038E0000003
:100A7000921000200200002004000020000400402A
:100A80000010004000140040F4080020560400202C
:100A9000500400200044004052040020570400206D
:100AA0005B0400205C0400202C0C0040C00A0020E5
:100AB000F0080020720D0020000000205C0A0020D9
:100AC00000380140C0DB0020FF490880012240F2CD
:100AD0002551FE4802F07EFA0020FD49087073E2BD
:100AE000FC484078662871D1FA4880787228FAD19B
:100AF000F848C0786528F6D1F64800795F28F2D129
:100B0000012240F22551F14802F064FA0320F04935
:100B1000087000F066FD41F6B054204600F0F4FD88
:100B20002420ED49ED4A12788854EC480078401CA6
:100B3000EA4908706621E848E84A12788154E74893
:100B40000078401CE54908707220E349E34A1278B6
:100B50008854E2480078401CE04908706520DE496E
:100B6000DE4A12788854DD480078401CDB49087062
:100B70005F21D948D94A12788154D8480078401C5E
:100B8000D64908705F21D448D44A12788154D3489A
:100B90000078401CD1490870CE484179CE48CF4AF0
:100BA00012788154CD480078401CCC490870002050
:100BB000C949CA4A12788854C8480078001DC749F4
:100BC00008700420C2490870002751E061E0204607
:100BD00000F09AFD0A2001F072FB0B2000F098FC57
:100BE00010F4807F03D00120BB49487202E000204E
:100BF000B94948720A2001F062FB00F00EFDB649C7
:100C00000872B6480078401E81B2B34800F092FEE8
:100C1000B1498872002611E0AD48007800B911E0B2
:100C2000AD48815DA94802F038FA00BF4021A748CD
:100C300002F0A1FA0128F9D1701C86B2A748007809
:100C40008642E9DB00BFA248007800B912E0A24862
:100C5000C079401CA049C87142F27470844203DA22
:100C600004F10A0084B201E041F6B054781C87B266
:100C7000FB2FACDB00BF00F0C1FC284600F044FDB8
:100C8000142001F01CFB00208F4908809049087057
:100C90009AE190484078632874D18E4880786F2814
:100CA000FAD18C48C0786E28F6D18A4800795F283E
:100CB000F2D105208649087024218748874A127896
:100CC000815486480078401C84490870632182481A
:100CD000824A1278815481480078401C7F4908700C
:100CE0006F207D497D4A127888547C480078401CEA
:100CF0007A4908706E207849784A12788854774883
:100D00000078401C754908705F207349734A127857
:100D1000885472480078401C704908705F206E4902
:100D20006E4A127888546D480078401C6B490870F0
:100D3000684841796848694A127881546748007860
:100D4000401C6649087008460178634800F0F2FDCF
:100D50006149624A1278885460480078401C5F49B3
:100D600008705C488079012802D002280BD100E08D
:100D70000AE05848C07900EB80004500284600F0A2
:100D8000C3FC01E025E000BF00BF06205049087009
:100D900000260DE05048815D4C4802F07EF900BF0E
:100DA00040214A4802F0E7F90128F9D1701C86B2C7
:100DB0004A4800788642EDDB002043490880012242
:100DC00040F22551414802F005F9002040490870E1
:100DD000FAE040484078642875D13E488078612820
:100DE000FAD13C48C0787428F6D13A4800795F2897
:100DF000F2D107203649087024203749374A127843
:100E0000885436480078401C3449087064213248C0
:100E1000324A1278815431480078401C2F490870BA
:100E200061212D482D4A127881542C480078401CAD
:100E30002A49087074202849284A1278885427487B
:100E40000078401C254908705F212348234A127806
:100E5000815422480078401C204908705F201E49B8
:100E60001E4A127888541D480078401C1B4908709F
:100E7000184840791849194A127888541748007858
:100E8000401C1649087008460178134800F052FDCE
:100E90001149124A1278885410480078401C0F49B2
:100EA00008700C48C0790B49897900EB01201FFAC2
:100EB00080FABAF13C0F19D0BAF1480F16D0BAF146
:100EC000540F13D00CE050E0F0080020003801402F
:100ED00057040020720D00205C0A00200000002052
:100EE000BAF12A0F02D0BAF1150F34D100260FE063
:100EF000364906F10800085C30383549354A128811
:100F0000885434480088401C32490880701C86B2DE
:100F10005645EDDBBAF1150F02D101202E490870BC
:100F200001202E49087008202D49087000260DE088
:100F30002C48815D2C4802F0B0F800BF40212A48BF
:100F400002F019F90128F9D1701C86B227480078FF
:100F50008642EDDB38E00020204908701D490880FA
:100F6000234908801E4908702EE00020204908808F
:100F7000012240F225511C4802F02CF800201849AB
:100F8000087021E000201A490880012240F2255112
:100F9000154802F01FF8FFF749F9002010490870C2
:100FA00012E0002012490880012240F225510E482B
:100FB00002F010F800200A49087005E0012240F212
:100FC0002551094802F006F8FFF7D1BA720D00204A
:100FD000C00A0020500400205B04002052040020BE
:100FE000570400205C0A0020003801400000002067
:100FF000F0080020704700BFFEE700BFFEE700BF1B
:10100000FEE700BFFEE7704770477047704700007B
:1010100000200021674A126842F48032654B1A6052
:1010200000BF644A126802F40031401C11B9B0F5E7
:10103000A06FF6D15F4A126812F4003F01D001217F
:1010400000E00021012942D15B4A126842F01002FF
:10105000594B1A601A46126822F003021A601A46A7
:10106000126842F002021A60524A5268514B5A60AA
:101070001A4652685A601A46526842F480625A60B0
:101080001A46526822F47C125A601A46526842F498
:10109000E8125A601A46126842F080721A6000BF65
:1010A000444A126812F0007FFAD0424A526822F095
:1010B0000302404B5A601A46526842F002025A60DC
:1010C00000BF3C4A526802F00C02082AF9D170476E
:1010D00010B5FFF79DFF10BD10B53648006840F011
:1010E00001003449086008464068344908403149E5
:1010F000486008460068324908402E4908600846A2
:10110000006820F4802008600846406820F4FE0053
:1011100048604FF41F008860FFF7DAFF4FF000606F
:101120002849086010BD10B5002000210022214B85
:101130005B6803F00C0020B1042806D0082828D1F1
:1011400007E0214B214C236027E01F4B1F4C2360FD
:1011500023E0184B5B6803F47011164B5B6803F4D3
:101160008032022303EB914122B9194B4B43174CB8
:1011700023600DE00F4B5B6813F4003F04D0144B69
:101180004B43124C236003E00F4B4B430F4C236047
:1011900003E00D4B0D4C236000BF00BF054B5B68A7
:1011A000C3F303130B4CE05C084B1B68C340074CB4
:1011B000236010BD00100240002002400000FFF834
:1011C000FFFFF6FE08ED00E000127A006004002048
:1011D00000093D006404002008B50121482001F009
:1011E000BDFD6020ADF8000010208DF80300032045
:1011F0008DF8020069460B4801F006FB20210948E2
:1012000001F0AAFB4021074801F0A8FB2020ADF81F
:1012100000006946044801F0F7FA2021024801F075
:101220009BFB08BD000C01400018014008B50121DE
:10123000082001F093FD4FF44060ADF8000010204D
:101240008DF8030003208DF8020069469E4801F0E6
:10125000DBFA4FF440619C4801F07EFB08BD10B5FD
:101260009948001D006820F470409849C1F8040CAA
:101270000846D0F8040C40F440509349091D08601A
:101280000120934908609349C1F8A801042000F0A7
:10129000F4FF00208F49C1F8AC01042000F0EDFFFD
:1012A00000208C49C1F8A80110BD10B58648001D6A
:1012B000006820F470408549C1F8040C0846D0F855
:1012C000040C40F440508049091D0860002080490A
:1012D000091F08607F49C1F8AC01042000F0CDFF70
:1012E00001207B49091F08607A49C1F8AC0104203C
:1012F00000F0C3FF10BD10B500247348001D006846
:1013000020F470407149C1F8040C0846D0F8040C70
:1013100040F400406C49091D086001206C490860D8
:1013200000F0ABFF01206B49C1F8A80100F0A5FF58
:1013300007E0601CC4B2FA2C03DDFFF7B6FF012002
:1013400010BD6348803800680028F2D16049091F49
:101350000860F5E710B500205D49091F08605B488B
:10136000D0F8040C20F470405849C1F8040C084629
:10137000D0F8040C40F440505349091D0860002087
:101380005449C1F8AC01022000F077FF0120514917
:10139000C1F8A801022000F070FF00204D49C1F8FB
:1013A000A80110BD10B500204949091F0860474831
:1013B000D0F8040C20F470404449C1F8040C0846ED
:1013C000D0F8040C40F440503F49091D086001204A
:1013D0004049C1F8AC01022000F04FFF01203D4917
:1013E000C1F8A801022000F048FF00203949C1F8E7
:1013F000A80110BD70B505463348001D006820F4F3
:1014000070403249C1F8040C0846D0F8040C40F48E
:1014100040502D49091D086000202D49091F086012
:10142000002417E0E8092A4908606806050E022032
:1014300000F023FF01202749C1F8A801022000F095
:101440001CFF00202249091F0860022000F015FF40
:10145000601CC4B2082CE5DB70BD70B504460025E5
:101460001948001D006820F470401849C1F8040CA8
:101470000846D0F8040C40F40040C1F8040C0026E3
:1014800017E000201249091F0860022000F0F5FE55
:1014900001201049C1F8A8016806050E0C488038E3
:1014A000006808B1681CC5B2012000F0E6FE701C9F
:1014B000C6B2082EE5DB14B9FFF774FF01E0FFF7B1
:1014C00049FF284670BD0000000C014000000140AB
:1014D000AC8121420080214270B504460D46FFF7E1
:1014E000BEFE2220FFF786FFFFF705FF2046FFF72D
:1014F00081FFFFF700FF2812FFF77CFFFFF7FBFEDD
:10150000E8B2FFF777FFFFF7F6FEFFF7CEFE70BDFC
:1015100070B50446FFF7A3FE2220FFF76BFFFFF72D
:10152000EAFE2046FFF766FFFFF7E5FEFFF797FEAE
:101530002320FFF75FFFFFF7DEFE0120FFF78DFF9F
:1015400005462D020020FFF788FF0543FFF7ADFE9B
:10155000284670BD10B5FFF769FE0020FFF7D8FFE1
:101560000446A4F5B040053837D102210846FFF7FC
:10157000B3FF322000F0A3FE4CF201010220FFF77E
:10158000ABFF4FF4167000F09AFE48F64F010520AD
:10159000FFF7A2FF4FF4F0410720FFF79DFF08215E
:1015A0001320FFF799FF4FF4A1511520FFF794FF87
:1015B0004FF440411620FFF78FFF43F226111C2005
:1015C000FFF78AFF49F624412220FFF785FF4FF2FB
:1015D00060614720FFF780FF01E0012010BD00207F
:1015E000FCE710B54020FFF793FF04464FF6F0707C
:1015F000044021464020FFF76FFF10BD10B540208A
:10160000FFF786FF04464FF6F070044044F00104F3
:1016100021464020FFF760FF10BD10B50B20FFF7FB
:1016200077FF0446601210BD70B505460520FFF730
:101630006FFF04464FF6F070044005F00F000443BE
:1016400021460520FFF748FF70BD70B50446022013
:10165000FFF75EFF054614B145F4804501E025F42F
:10166000804529460220FFF737FF70BD70B505465B
:101670000520FFF74DFF044648F2FF00044044EA0E
:10168000052421460520FFF727FF70BD70B50546EC
:101690004220FFF73DFF04464FF6C07004402C4344
:1016A00021464220FFF718FF70BD70B50546422065
:1016B000FFF72EFF04464FF6FF00044044EA0524DE
:1016C00021464220FFF708FF70BD70B50546032094
:1016D000FFF71EFF04464FF6F370044044EA85040A
:1016E00021460320FFF7F8FE70BD70B505460320C4
:1016F000FFF70EFF04464FF6FC7004402C432146D2
:101700000320FFF7E9FE70BD2DE9F04704460026EF
:1017100000270320FFF7FCFE054605F01F05C5F373
:10172000810705F003060EB90A2604E0012E01D157
:10173000142600E0052617B942F2FC180FE0012F2D
:1017400001D0022F02D141F6B05808E05320FFF734
:10175000DFFE804608EB880040044FEA104844450D
:1017600001DABDE8F087A4EB080090FBF6F01FFA61
:1017700080F9C9F3090945EA891545F0100529469C
:101780000320FFF7A9FE142000F099FD00BF0B20F5
:10179000FFF7BEFE10F0800FF9D0E2E72DE9F0412F
:1017A0000025A8460320FFF7B3FE0446A711C4F3A3
:1017B000810804F003050DB90A2504E0012D01D1CB
:1017C000142500E00525B8F1000F02D142F2FC1605
:1017D00010E0B8F1010F02D0B8F1020F02D141F6CA
:1017E000B05607E05320FFF793FE064606EB86004F
:1017F0004004060C07FB056084B22046BDE8F0817A
:101800007FB504460D460121022001F0B4FAADF87F
:101810000840ADF804500020ADF80A00ADF806000D
:1018200001A9E94801F0D4FD01221146E64802F081
:101830001BF91D208DF8000000208DF80100032009
:101840008DF8020001208DF80300684600F011FFBA
:101850000021DD4802F0E3F87FBD10B50121DA4830
:1018600002F07FFB002837D0D8480088D849098883
:1018700088420BDAD748D5490988405CD6490860C8
:10188000D2480088401CD149088021E00020D2497C
:101890000860CE4908800021CB4802F0C0F8002142
:1018A000CE4802F0BCF80021CD4802F0B8F8002084
:1018B000CC490870CC490870012240F22551CB4830
:1018C00001F088FB012240F22551C94801F082FB5A
:1018D0000121BD4802F056FB10BD7FB504460D4600
:1018E0000121082001F047FAADF80840ADF8045096
:1018F0000020ADF80A00ADF8060001A9BD4801F0CE
:1019000067FD01221146BB4802F0AEF832208DF887
:10191000000000208DF8010002208DF80200012057
:101920008DF80300684600F0A4FE0121B14802F0E2
:1019300076F87FBD10B5024600201078012303E041
:10194000D45C60405C1CA3B28B42F9DB10BD70B567
:1019500000240025A848007801281FD100209E49B6
:1019600008600021984802F05AF800219B4802F0D4
:1019700056F800219A4802F052F800209949087060
:1019800099490870012240F22551984801F022FB44
:10199000012240F22551964801F01CFB0121954897
:1019A00002F0DFFA002870D00121924802F0EAFA32
:1019B0009248006808B9012000E000208F490860C3
:1019C0008F4800780A285BDB86480078002857D1CA
:1019D00085480078002853D124208A494855681C3E
:1019E000C5B273204855681CC5B261204855681CB3
:1019F000C5B266204855681CC5B25F204855681CB2
:101A0000C5B281480078C82803DD00207E490870EF
:101A100004E07D480078401C7B4908707A480078D3
:101A200078494855681CC5B229467648FFF782FFB9
:101A300074494855681CC5B20D204855681CC5B28C
:101A40000A204855681CC5B200240DE06D48015DB0
:101A5000674801F022FB00BF4021654801F08BFB85
:101A60000128F9D1601C84B2AC42EFDB0120674948
:101A7000087000205849091F08606149087004E097
:101A80005F480078401C5E49087070BD7FB5044611
:101A90000D460121102001F06EF9ADF80840ADF8B7
:101AA00004500020ADF80A00ADF8060001A94B482B
:101AB00001F08EFC01221146484801F0D5FF362086
:101AC0008DF8000000208DF8010003208DF8020041
:101AD00001208DF80300684600F0CBFD00213F484F
:101AE00001F09DFF7FBD7FB504460D4601212020FA
:101AF00001F041F9ADF80840ADF804500020ADF810
:101B00000A00ADF8060001A9354801F061FC012288
:101B10001146334801F0A8FF37208DF8000000205F
:101B20008DF8010003208DF8020001208DF80300DC
:101B3000684600F09EFD0021294801F070FF7FBD3E
:101B400008B501210C2001F009F94FF44070ADF8FF
:101B5000000010208DF8030003208DF80200694674
:101B60002B4800F051FE8020ADF80000694629485E
:101B700000F04AFE4FF48071254800F0EFFE08BDEA
:101B800010B50121154802F0ECF950B101211348BC
:101B900002F0F8F9104808300068C0431E49C1F847
:101BA000A00110BD10B501210D4802F0DAF950B1C5
:101BB00001210B4802F0E6F907480C300068C043E9
:101BC0001549C1F8A40110BD00040040E008002040
:101BD00002000020040000209881214200100040F3
:101BE0000014004057040020560400200038014033
:101BF00000440040000C00405C040020940123429B
:101C0000E20800200E0D0020E30800205804002008
:101C1000000C01400008014000802142F0B586B070
:101C200003AF0022134614461CC7002400250026DB
:101C300000BF84E0C4F10B03C35C9DF81670DA1991
:101C400002EBD2735B10A2EB4303DBB28DF80B30D7
:101C50009DF80B208DF80A209DF80A208DF80620AB
:101C60009DF806208DF805209DF805208DF80420AC
:101C70009DF804208DF802209DF802208DF80020A8
:101C80009DF815309DF80A70DA1902EBD2735B10DB
:101C9000A2EB4303DBB28DF816309DF814208DF8CB
:101CA00015209DF813208DF814209DF812208DF832
:101CB00013209DF811309DF80670DA1902EBD273EB
:101CC0005B10A2EB4303DBB28DF812309DF81030AD
:101CD0009DF80570DA1902EBD2735B10A2EB430397
:101CE000DBB28DF811309DF80F309DF80470DA19D1
:101CF00002EBD2735B10A2EB4303DBB28DF8103022
:101D00009DF80E208DF80F209DF80D309DF8027083
:101D1000DA1902EBD2735B10A2EB4303DBB28DF84E
:101D20000E309DF80C208DF80D209DF800208DF8C8
:101D30000C20C4F10B02825C0A55621CD4B20C2C3C
:101D4000FFF678AF002508E0C5F10A0203AB9A5C04
:101D50000A55621CD4B26A1CD5B20B2DF4DB0024E8
:101D600004E00A5D3244D6B2621CD4B2172CF8DB10
:101D7000324606EBD6735B10A6EB4303CB7506B079
:101D8000F0BD2DE9F04F8FB004460D460CA800229F
:101D9000134616464CC0182106A803F0DBFA0026AD
:101DA0000027B0460020059002A800210A460B46F5
:101DB0000EC089468A468B460020019000BF08E08D
:101DC00014F80A0006A901F80A000AF1010000F05F
:101DD000FF0ABAF1170FF3DB4FF0000B5CE09DF840
:101DE0003A609DF83910881900EBD0714910A0EBCA
:101DF0004101C9B28DF83A109DF838008DF83900CC
:101E00009DF837008DF838009DF836008DF83700C2
:101E10009DF83510881900EBD0714910A0EB4101F5
:101E2000C9B28DF836109DF83410881900EBD071C6
:101E30004910A0EB4101C9B28DF835109DF833105F
:101E4000881900EBD0714910A0EB4101C9B28DF89F
:101E500034109DF832008DF833009DF83110881948
:101E600000EBD0714910A0EB4101C9B28DF83210DE
:101E70009DF830008DF8310006A911F80B10881973
:101E800000EBD0714910A0EB4101C9B28DF83010C0
:101E90000BF1010000F0FF0BBBF1170F9FDB00BF40
:101EA0004FF0000A09E00CA810F80A00484400F0BE
:101EB000FF090AF1010000F0FF0ABAF10B0FF2DB93
:101EC000B9F1030F10DC4FF0000A09E00CA810F87C
:101ED0000A0002A901F80A000AF1010000F0FF0A55
:101EE000BAF10B0FF2DB57E14FF000099DF83A0011
:101EF0008DF812009DF83910481C00EBD071491084
:101F0000A0EB4101C9B28DF811109DF83810481CA2
:101F100000EBD0714910A0EB4101C9B28DF810104F
:101F20009DF837008DF80F009DF83610481C00EB27
:101F3000D0714910A0EB4101C9B28DF80E109DF887
:101F40003510481C00EBD0714910A0EB4101C9B21B
:101F50008DF80D109DF834008DF80C009DF83300BD
:101F60008DF80B009DF83210481C00EBD071491021
:101F7000A0EB4101C9B28DF80A109DF83110481C40
:101F800000EBD0714910A0EB4101C9B28DF80910E6
:101F90009DF830008DF80800CA4609E002A810F844
:101FA0000A00484400F0FF090AF1010000F0FF0AAE
:101FB000BAF10B0FF2DBB9F1020F17DCB91D1722D2
:101FC00091FBF2F302FB131106AA515C481C00EBD3
:101FD000D0714910A0EB4101CAB2B91D172391FB82
:101FE000F3FC03FB1C1106AB5A54D5E04FF000097B
:101FF0009DF83A10481C00EBD0714910A0EB41014C
:10200000C9B28DF812109DF83910481C00EBD07140
:102010004910A0EB4101C9B28DF811109DF83800AC
:102020008DF810009DF83710481C00EBD071491056
:10203000A0EB4101C9B28DF80F109DF83610481C75
:1020400000EBD0714910A0EB4101C9B28DF80E1020
:102050009DF835008DF80D009DF834008DF80C00CA
:102060009DF83310481C00EBD0714910A0EB4101E2
:10207000C9B28DF80B109DF83210481C00EBD071DE
:102080004910A0EB4101C9B28DF80A109DF831004A
:102090008DF809009DF830008DF80800CA4609E067
:1020A00002A810F80A00484400F0FF090AF10100F4
:1020B00000F0FF0ABAF10B0FF2DBB9F1020F17DCE7
:1020C000791D172291FBF2F302FB131106AA515C52
:1020D000481C00EBD0714910A0EB4101CAB2791D38
:1020E000172391FBF3FC03FB1C1106AB5A5453E07E
:1020F0004FF000099DF83A609DF83910881900EBFF
:10210000D0714910A0EB4101C9B28DF83A109DF889
:1021100038008DF839009DF837008DF838009DF8AB
:1021200036008DF837009DF83510881900EBD07116
:102130004910A0EB4101C9B28DF836109DF834105A
:10214000881900EBD0714910A0EB4101C9B28DF89C
:1021500035109DF83310881900EBD0714910A0EBB1
:102160004101C9B28DF834109DF832008DF833006A
:102170009DF83110881900EBD0714910A0EB410196
:10218000C9B28DF832109DF830008DF831008DF80D
:102190003060781CC7B283E607F10C00172190FB72
:1021A000F1F201FB1200C0B20590DDF814A00A2084
:1021B00001901DE017219AFBF1F201FB12A106AA82
:1021C000515C02AA019BD25C881800EBD0714910C7
:1021D000A0EB410117229AFBF2F302FB13A206AB1C
:1021E00099540AF1010000F0FF0A0198401E019085
:1021F00001980028DEDA4FF0000A0DE006A810F87A
:102200000A0005F80A0015F80A00404400F0FF082B
:102210000AF1010000F0FF0ABAF1170FEEDB4046A9
:1022200008EBD8714910A8EB4101E9754FF0000A9D
:1022300007E000200CA901F80A000AF1010000F0F3
:10224000FF0ABAF10B0FF4DB00200FB0BDE8F08FEE
:1022500010B56FF0040000F059FA2A4800682A49C6
:10226000B0FBF1F029490870084600784FF47A7104
:1022700048432649891C088010BD244A12784243ED
:102280004FF0E0235A6100229A611A46126942F027
:1022900001021A6100BF4FF0E022116911F0010F35
:1022A00002D011F4803FF6D04FF0E022126922F004
:1022B00001024FF0E0231A6100229A617047134A2D
:1022C000921C128842434FF0E0235A6100229A6127
:1022D0001A46126942F001021A6100BF4FF0E02273
:1022E000116911F0010F02D011F4803FF6D04FF0C8
:1022F000E022126922F001024FF0E0231A6100226D
:102300009A6170476004002000127A00EC080020F7
:1023100010B54FF4A06000F0A7F910BD014600BF52
:10232000704700BFB34A128812F0400FFAD0C2B211
:10233000B04B1B1D1A80704710B586B004460121B2
:1023400044F2040000F00AFDAA4800F069FD4FF4D1
:102350000070ADF8140003208DF8160018208DF8D9
:10236000170005A9A44800F04FFA4FF48060ADF8BB
:10237000140004208DF8170005A99F4800F044FAC6
:1023800025208DF8000003208DF801008DF8020053
:1023900001208DF80300684600F06BF901940020DD
:1023A000ADF80800ADF80A00ADF80C00ADF810006B
:1023B0000C20ADF80E0001A98E4800F074FD01223A
:1023C00040F225518B4800F005FE0121894800F0BC
:1023D000F5FD06B010BD10B540F22551854800F05E
:1023E000E0FE002857D0834800F05BFEC4B2242CE6
:1023F00005D10120814908700020814908807F486B
:102400000078012847D17F480078042804D10020B3
:102410007C4908707A4908807948008810F4004F98
:1024200039D178480078002835D17548008810F4F3
:10243000804F15D00A2C03D00020714908802AE073
:102440006F48008840F400406D49088000206B49C7
:102450000870002240F22551664800F0BBFD1AE0EA
:102460000D2C06D16648008840F4804064490880FD
:1024700011E063480088C0F30D0063490C546048C4
:102480000088401C5E49088008460088B0F5487FF7
:1024900001DB0020088010BD10B586B00446012184
:1024A000042000F05BFC0121480400F064FC574864
:1024B00000F0B6FC0420ADF8140003208DF81600DF
:1024C00018208DF8170005A94B4800F09DF9082049
:1024D000ADF8140004208DF8170005A9464800F057
:1024E00093F901940020ADF80800ADF80A00ADF8AA
:1024F0000C00ADF810000C20ADF80E0001A9434807
:1025000000F0D1FC26208DF8000003208DF801009A
:102510008DF8020001208DF80300684600F0A9F84C
:10252000012240F22551394800F054FD012137487D
:1025300000F044FD06B010BD10B540F225513348FF
:1025400000F02FFE002853D0304800F0AAFDC4B29E
:10255000242C05D101202E49087000202D49088027
:102560002B480078012843D100202B4908702948C6
:10257000008810F4004F3BD128480078002837D15C
:102580002448008810F4804F17D00A2C03D0002074
:10259000204908802CE01F48008840F400401D4975
:1025A000088000201A4908701D490870002240F276
:1025B0002551164800F00EFD1AE00D2C06D11548E5
:1025C000008840F480401349088011E011480088D9
:1025D000C0F30D0013490C540E480088401C0D49EF
:1025E000088008460088B0F5487F01DB002008809D
:1025F00010BD00000038014000080140F208002032
:10260000F008002057040020720D00200044004014
:10261000F6080020F408002058040020560400208A
:102620005C040020921000200948804709480047B8
:10263000FEE7FEE7FEE7FEE7FEE7FEE7FEE7FEE772
:10264000FEE7FEE704480549054A064B70470000CF
:10265000D91000083101000818140020181A0020B1
:10266000181600201816002032490143324A116022
:10267000704770B5002100230F22C4780CB32E4C94
:10268000246804F4E064C4F5E064210AC1F10403A1
:10269000CA40447804FA03F18478144021430901C4
:1026A000264C0678A155047804F01F050124AC409F
:1026B00005786D114FF0E02606EB8505C5F8004161
:1026C00009E0047804F01F040125A5401C4C06789D
:1026D000761144F8265070BD1A4A0A400243164B40
:1026E0001B1F1A60704741B1134A121D1268024342
:1026F0004FF0E023C3F8102D07E00F4A121D1268B7
:1027000082434FF0E023C3F8102D7047042808D10E
:102710004FF0E021096941F004014FF0E02211611E
:1027200007E04FF0E021096921F004014FF0E022B9
:10273000116170470000FA050CED00E000E400E0D4
:1027400080E100E080FFFF1F10B50446C7488442C7
:1027500008D10121042000F01BFB0021042000F01F
:1027600017FB46E0C248844208D10121082000F04E
:102770000FFB0021082000F00BFB3AE0BD4884422B
:1027800008D10121102000F003FB0021102000F0EF
:10279000FFFA2EE0B848844208D10121202000F041
:1027A000F7FA0021202000F0F3FA22E0B348844237
:1027B00008D10121402000F0EBFA0021402000F078
:1027C000E7FA16E0AE48844208D10121802000F0EB
:1027D000DFFA0021802000F0DBFA0AE0A9488442F9
:1027E00007D10121801500F0D3FA0021A01500F0D7
:1027F000CFFA10BD10B50121084600F0C9FA00213A
:10280000012000F0C5FA10BDF0B50022002300241D
:1028100000250026002791F803C00CF00F0291F864
:1028200003C01CF0100F03D091F802C04CEA020262
:10283000B1F800C01CF0FF0F31D0066800242BE077
:102840004FF0010C0CFA04F5B1F800C00CEA0503D6
:10285000AB4220D1A5004FF00F0C0CFA05F7BE4398
:1028600002FA05FC4CEA060691F803C0BCF1280FF9
:1028700006D14FF0010C0CFA04FCC0F814C00AE0B9
:1028800091F803C0BCF1480F05D14FF0010C0CFAD0
:1028900004FCC0F810C0641C082CD1D30660B1F849
:1028A00000C0BCF1FF0F34DD466800242EE004F1C7
:1028B000080C4FF0010E0EFA0CF5B1F800C00CEA4E
:1028C0000503AB4221D1A5004FF00F0C0CFA05F720
:1028D000BE4302FA05FC4CEA060691F803C0BCF1BF
:1028E000280F05D104F1080C0EFA0CFEC0F814E014
:1028F00091F803C0BCF1480F07D104F1080C4FF068
:10290000010E0EFA0CFEC0F810E0641C082CCED3A9
:102910004660F0BD4FF6FF710180022181700421F5
:10292000C17070470246002093680B4201D001201D
:1029300000E0002070470146886880B27047024678
:102940000020D3680B4201D0012000E00020704736
:102950000146C86880B270470161704741617047A5
:102960000AB1016100E041617047C16070474FF4F6
:1029700080320A4382618161826182698269704723
:102980000022414B1A684FF680731A4042EA001247
:102990000A433D4B1A6070473C49C8617047F0B527
:1029A000002200230024002500F00046B6F1004F6D
:1029B00002D1354EF46901E0334E7468C0F303452B
:1029C00082B200F44016B6F5401F08D124F07064BE
:1029D0002D4E766826F070662B4F7E6012E000F474
:1029E0008016B6F5801F06D1032606FA05F39C4330
:1029F00044F0706406E0460D360102FA06F6B44370
:102A000044F0706421B1460D360102FA06F63443F3
:102A100000F00046B6F1004F02D11B4EF46101E018
:102A2000194E7460F0BD30B500228B071C0F0F23C8
:102A300003FA04F2144B08338C1053F824409443E7
:102A40008D1043F825408C1053F824308C07240F48
:102A500000FA04F423430C4C08348D1044F825305C
:102A600030BD0A49DC3108607047000000080140B1
:102A7000000C01400010014000140140001801400A
:102A8000001C0140002001400000014000002042E5
:102A9000DB48006840F00100D949086008464068FA
:102AA000D8490840D649486008460068D6490840D9
:102AB000D34908600846006820F480200860084672
:102AC000406820F4FE0048604FF41F0088607047A3
:102AD000CB49096821F48031C94A1160114609685F
:102AE00021F480211160B0F5803F03D0B0F5802F34
:102AF0000ED106E0C249096841F48031C04A116034
:102B000007E0BF49096841F4A021BD4A116000E017
:102B100000BF00BF704710B501460022002300200F
:102B20004A11012A02D1B64C236806E0022A02D1DA
:102B3000B34C236A01E0B24C636A01F01F02012426
:102B400094401C4201D0012000E0002010BD70B56F
:102B500000240025002600BF3120FFF7DCFF0646D9
:102B6000641CB4F5A06F01D0002EF5D03120FFF722
:102B7000D2FF08B1012500E00025284670BD0021E4
:102B80009F4A116821F0F80141EAC00111607047C5
:102B90009E49086070470022994B5A6822F47C12C3
:102BA00040EA01031A43964B5A60704797490866FA
:102BB00070470021924A516821F00301014351609E
:102BC00070478F48406800F00C00704700218C4A25
:102BD000516821F0F0010143516070470021884A9B
:102BE000516821F4E0610143516070470021844A3B
:102BF000516821F4605141EAC0015160704729B128
:102C00007F4A527A02437E4B5A7206E07C4A527ADD
:102C1000C343DBB21A407A4B5A7270477B49D831B2
:102C2000086070470021764A516821F44041014311
:102C3000516070470021724A20321170704A82F848
:102C40002010012802D004280AD104E001216C4A96
:102C50002032117005E00521694A2032117000E030
:102C600000BF00BF70476A49086070476449096A3D
:102C70000143634A116270476549443908607047EF
:102C800030B500210022002300245D4D6D6805F061
:102C90000C0121B1042905D0082923D105E05D4D9F
:102CA000056022E05B4D05601FE0554D6D6805F441
:102CB0007012534D6D6805F48033022505EB924286
:102CC0001BB9554D554305600BE04D4D6D6815F42E
:102CD000003F03D0504D5543056002E04D4D554334
:102CE000056002E04B4D056000BF00BF444D6D68BC
:102CF00005F0F0010909494D6C5C0568E540456047
:102D00003F4D6D6805F4E061090A444D6C5C45680F
:102D1000E54085603A4D6D6805F46051C90A3F4D44
:102D20006C5C4568E540C560354D6D6805F4404113
:102D3000890B3A4D10356C5CC568B5FBF4F505613F
:102D400030BD29B12E4A526902432D4B5A6104E02D
:102D50002B4A526982432A4B5A61704729B1284A4B
:102D600092690243264B9A6104E0254A92698243A4
:102D7000234B9A61704729B1214AD2690243204B03
:102D8000DA6104E01E4AD26982431D4BDA61704762
:102D900029B11B4AD2680243194BDA6004E0184A91
:102DA000D2688243164BDA60704729B1144A12691F
:102DB0000243134B1A6104E0114A12698243104B1B
:102DC0001A61704712494039086070470F49C8645A
:102DD00070470B49C87170470948406A40F08070DD
:102DE00007494862704701460020054A92680A4236
:102DF00001D0012000E0002070470149887270472F
:102E0000001002400000FFF8FFFFF6FE0000424203
:102E10008004424200127A0000093D00FC080020B4
:102E200010B50446FB48844209D101218803FFF70D
:102E3000AFFF00214FF48040FFF7AAFF32E0F648D1
:102E4000844209D101214804FFF7AFFF00214FF46C
:102E50000030FFF7AAFF25E0F048844209D10121A4
:102E60008804FFF7A2FF00214FF48020FFF79DFFA9
:102E700018E0EB48844209D10121C804FFF795FF0F
:102E800000214FF40020FFF790FF0BE0E54884425B
:102E900008D101210805FFF788FF00214FF48010B9
:102EA000FFF783FF10BD2DE9F04786B004460D46BD
:102EB0000026002700BFB146B246A88900B100BF76
:102EC000A246268A4CF6FF700640E8880643268212
:102ED000A6894EF6F3100640A88829890843698917
:102EE00008430643A681A68A4FF6FF400640A889FC
:102EF0000643A68201A8FFF7C3FE5446C548824593
:102F000001D1049F00E0039FA08910F4004F08D076
:102F100007EBC70000EB071029684900B0FBF1F888
:102F200007E007EBC70000EB071029688900B0FB3A
:102F3000F1F86420B8FBF0F006013009642101FBD0
:102F40001089A08910F4004F09D0322101EBC9008B
:102F50006421B0FBF1F000F00700064308E03221E5
:102F600001EB09106421B0FBF1F000F00F00064303
:102F7000268106B0BDE8F0874FF4165101600021AC
:102F80008180C18001810C214181002181817047B4
:102F900010B50022028A4FF2FF031A400B884C88BA
:102FA00023438C882343CC8823431A43028210BDD9
:102FB0000021018041808180C180704721B18289D8
:102FC00042F40052828104E082894DF6FF731A4078
:102FD00082817047F0B50024002500260023A1F56A
:102FE00010676A3F00D100BF0346C1F3421401F0ED
:102FF0001F05012707FA05F6012C01D10C3304E067
:10300000022C01D1103300E014331AB11F6837438A
:103010001F6002E01F68B7431F60F0BD10B51AB112
:10302000838A0B43838204E0838ACC43A4B2234087
:10303000838210BD028A4FF6F0731A400282028A20
:103040000A430282704782894FF2FF731A408281DD
:1030500082890A438281704721B1828942F002024B
:10306000828104E082894FF6FD731A4082817047A5
:10307000028A4FF6DF731A400282028A0A430282F2
:10308000704721B1028A42F48042028204E0028A3F
:103090004BF6FF731A4002827047C1F30802828028
:1030A000704701468888C0F308007047818941F065
:1030B000010181817047028BD2B20283028B42EA06
:1030C000012202837047028B02F47F420283028B4B
:1030D0000A430283704721B1828A42F02002828231
:1030E00004E0828A4FF6DF731A408282704721B172
:1030F000828A42F01002828204E0828A4FF6EF73E5
:103100001A408282704721B1828A42F0080282828C
:1031100004E0828A4FF6F7731A408282704721B129
:10312000828942F40042828103E08289C2F30E0266
:103130008281704721B1828A42F40062828204E077
:10314000828A4FF2FF731A4082827047828A4FF65A
:10315000FB731A408282828A0A438282704721B1BD
:10316000828A42F00202828204E0828A4FF6FD7374
:103170001A408282704702460020B1F5007F00D1DC
:1031800000BF13880B4201D0012000E000207047EF
:1031900001F40072B2F5007F00D100BFCA43028083
:1031A000704770B502460023002400250020A1F5D9
:1031B00010666A3E00D100BFC1F3421501F01F0442
:1031C000012606FA04F4012D02D19689344006E066
:1031D000022D02D1168A344001E0968A34400B1247
:1031E000012606FA03F31688334014B10BB101200F
:1031F00000E0002070BD10B500220023A1F510648E
:103200006A3C00D100BF0A1201249440A3B2DC43FF
:10321000048010BD003801400044004000480040D8
:10322000004C00400050004010B50446FF48844266
:1032300008D10121C014FFF7ABFD0021E014FFF716
:10324000A7FDC4E0B4F1804F08D101210846FFF783
:10325000ACFD00210120FFF7A8FDB8E0F44884424E
:1032600008D101210220FFF7A0FD00210220FFF775
:103270009CFDACE0EF48844208D101210420FFF717
:1032800094FD00210420FFF790FDA0E0EA4884426D
:1032900008D101210820FFF788FD00210820FFF751
:1032A00084FD94E0E548844208D101211020FFF715
:1032B0007CFD00211020FFF778FD88E0E048844283
:1032C00008D101212020FFF770FD00212020FFF709
:1032D0006CFD7CE0DB48844208D101214014FFF7FB
:1032E00057FD00216014FFF753FD70E0D64884427B
:1032F00009D10121C804FFF74BFD00214FF4002044
:10330000FFF746FD63E0D148844209D10121080559
:10331000FFF73EFD00214FF48010FFF739FD56E026
:10332000CB48844209D101214805FFF731FD002136
:103330004FF40010FFF72CFD49E0C648844208D145
:1033400001214020FFF731FD00214020FFF72DFD36
:103350003DE0C148844208D101218020FFF725FDCE
:1033600000218020FFF721FD31E0BC48844208D1D4
:1033700001218015FFF719FD0021A015FFF715FDAC
:1033800025E0B748844209D101210804FFF700FD78
:1033900000214FF48030FFF7FBFC18E0B148844275
:1033A00009D101214804FFF7F3FC00214FF400305C
:1033B000FFF7EEFC0BE0AC48844208D10121880401
:1033C000FFF7E6FC00214FF48020FFF7E1FC10BD81
:1033D00000220288954B98420ED09A4B98420BD00F
:1033E000B0F1804F08D0924B984205D0914B984253
:1033F00002D0914B984204D14FF68F731A404B88FC
:103400001A438E4B984207D08D4B984204D04FF60A
:10341000FF431A40CB881A4302808B8883850B8830
:103420000385824B98420BD0864B984208D08C4B38
:10343000984205D08B4B984202D08B4B984201D1D9
:103440000B7A038601238382704770B50022002324
:103450000024058C4FF6FE7635400584038C848865
:10346000028B4FF68F752A40B51E2A400D882A43DD
:10347000751E2B400D892B434D882B436B4DA84265
:103480000BD0704DA84208D0754DA84205D0754D9F
:10349000A84202D0744DA84213D14FF6F7752B40C5
:1034A0004D892B434FF6FB752B408D882B434FF6F0
:1034B000FF652C404FF6FF552C408D892C43CD895C
:1034C0002C4384800283CD888586038470BD70B5CB
:1034D000002200230024058C4FF6EF76354005844A
:1034E000038C8488028B48F6FF752A404FF6FF450F
:1034F0002A400D882D0642EA15424FF6DF752B4013
:103500000D892D0543EA15434D882D0543EA1543E2
:10351000464DA84202D04B4DA8421BD14FF67F75B5
:103520002B404D892D0543EA15434FF6BF752B40BF
:103530008D882D0543EA15434FF6FF352C404FF299
:10354000FF752C408D89AD0444EA1544CD89AD0446
:1035500044EA154484800283CD880587038470BDC6
:1035600070B5002200230024058C4FF6FF6635401D
:103570000584038C8488828B4FF68F752A404FF622
:10358000FC752A400D882A434FF6FF552B400D89C4
:103590002D0643EA15434D882D0643EA1543234D76
:1035A000A84202D0274DA8421BD14FF2FF752B40F5
:1035B0004D892D0643EA15434FF6FF352B408D8884
:1035C0002D0643EA15434EF6FF752C404DF6FF7568
:1035D0002C408D892D0544EA1544CD892D0544EAFA
:1035E000154484808283CD888587038470BD70B53F
:1035F000002200230024058C4EF6FF76354005841A
:10360000038C8488828B48F6FF752A404FF6FF456D
:103610002A400D882D0642EA15424DF6FF752B40D3
:103620000D892D0743EA15434D881FE0002C01400A
:103630000004004000080040000C00400010004062
:103640000014004000340140004C01400050014093
:103650000054014000180040001C004000200040C1
:103660000040014000440140004801402D0743EA6A
:103670001543F84DA84202D0F74DA84206D14BF6AB
:10368000FF752C408D89AD0544EA15448480828302
:10369000CD88A0F84050038470BD828B4FF2FF3379
:1036A0001A408283828B0B0642EA13428283704760
:1036B000F0B5002400250026078C4EF6FF7C07EAB3
:1036C0000C070784848B058C0F073E0C40F6FF47E0
:1036D0003C40170644EA17441F0744EA1744DD4FED
:1036E000B8420ED0DC4FB8420BD0B0F1804F08D0BA
:1036F000DA4FB84205D0DA4FB84202D0D94FB842BB
:1037000006D14DF6FF773D4046F480573D4305E036
:1037100047F6FF573D4041F480573D43848305847D
:10372000F0BD828B4FF6F3731A408283828B0A437B
:1037300082837047F0B5002400250026078C4FF6E1
:10374000FF6C07EA0C070784848B058C0F063E0C80
:103750004FF60C773C401F0542EA17473C43BD4FEC
:10376000B8420ED0BC4FB8420BD0B0F1804F08D059
:10377000BA4FB84205D0BA4FB84202D0B94FB8429A
:1037800006D14FF6FF573D4046F480773D4305E0B4
:103790004FF2FF573D4041F480773D4384830584D9
:1037A000F0BD028B4FF2FF331A400283028B0B06EF
:1037B00042EA134202837047F0B500240025002638
:1037C000078C4FF6EF7C07EA0C070784048B058C07
:1037D0000F053E0C40F6FF473C401F0744EA1744E4
:1037E000170644EA17449B4FB8420ED09A4FB8428E
:1037F0000BD0B0F1804F08D0984FB84205D0984F09
:10380000B84202D0974FB84206D14FF6DF773D401D
:1038100046F010073D4305E04FF65F773D4041F02D
:1038200010073D4304830584F0BD028B4FF6F3730C
:103830001A400283028B0A4302837047F0B50024CA
:103840000025068C4FF6FE773E400684048B058CDF
:103850004FF60C7634401E0542EA164634437D4E40
:10386000B0420ED07C4EB0420BD0B0F1804F08D0A9
:103870007A4EB04205D07A4EB04202D0794EB04274
:1038800006D14FF6FD76354041F00106354305E09F
:103890004FF6F576354041F0010635430483058443
:1038A000F0BD70B504460D466A4884420ED06A48A1
:1038B00084420BD0B4F1804F08D06848844205D0D0
:1038C0006748844202D06748844200D100E000BFCC
:1038D000288850B92B89AA8869882046FFF7AEFF4F
:1038E000E9882046FFF7A1FF25E0288804280AD1AF
:1038F0002B89AA8869882046FFF75EFFE988204661
:10390000FFF74FFF17E0288808280AD12B89AA88DB
:1039100069882046FFF70EFFE9882046FFF701FF80
:1039200009E02B89AA8869882046FFF7C1FEE9884B
:103930002046FFF7B2FE70BD2DE9F04104460D466A
:1039400000260127688808B9022600E00026A8881A
:10395000012801D1022700E001272888A0B92B897E
:10396000AA8869882046FFF769FFE9882046FFF7A3
:103970005CFF2B893A4631462046FFF71DFFE98858
:103980002046FFF70EFF13E02B89AA88698820469E
:10399000FFF712FFE9882046FFF703FF2B893A461D
:1039A00031462046FFF74AFFE9882046FFF73DFFF2
:1039B000BDE8F0810A884B881A438B881A43CB886C
:1039C0001A430B891A434B891A438B891A43A0F86F
:1039D000442070474FF6FF71818000210180C18033
:1039E0004180017270470021018041808180C18047
:1039F000018141818181C181704700210180418025
:103A0000012181800021C180018170470021018056
:103A100041808180C180018141818181704721B1D4
:103A2000028842F00102028004E002884FF6FE7331
:103A30001A400280704731B1B0F8442042F400428D
:103A4000A0F8442005E0B0F84420C2F30E02A0F82C
:103A500044207047002C0140003401400004004025
:103A600000080040000C004010B51AB183890B43D8
:103A7000838104E08389CC43A4B22340838110BDB9
:103A80008182704741EA0203A0F84830704710B5C0
:103A90001AB183890B43838104E08389CC43A4B2A8
:103AA0002340838110BD01894FF6F87211400181D6
:103AB0007047002202894FF68F731A400A43028131
:103AC000704730B504460D4629462046FFF7F1FF02
:103AD000208940F00700208130BD2DE9F0410446E7
:103AE0000D4616461F46602D06D13B460122314643
:103AF0002046FFF761FE05E03B46012231462046A5
:103B0000FFF79CFE29462046FFF7D3FF208940F0AF
:103B100007002081BDE8F08130B500240489E4B2BB
:103B20001D0642EA15450D432C43048130BD2DE9A5
:103B3000F04104460D461646984600274346324655
:103B400029462046FFF7E8FF27894FF6F87007401F
:103B500047F007074FF68F70074047F0700727813F
:103B6000BDE8F081F0B504460D4616461F463B46BB
:103B7000324629462046FFF7CFFF208940F4804097
:103B80002081F0BD018582827047002202884FF6B5
:103B90008F731A400A4302807047F0B50024002555
:103BA00000260489058B068C4FF6F8773C400C43C1
:103BB0004FF6FC473D4040F201173D434FF6DD779D
:103BC0003E401F0542EA17473E43048105830684B1
:103BD000F0BD0022028B4FF68F731A400A43028316
:103BE00070470022028B48F6FF731A400B0642EA28
:103BF0001342028370470022828B4FF68F731A4064
:103C00000A43828370470022828B48F6FF731A4072
:103C10000B0642EA13428283704721B1028842F0C8
:103C20008002028004E002884FF67F731A4002800F
:103C3000704721B1828842F00402828004E08288C9
:103C40004FF6FB731A408280704721B1828842F0A0
:103C50000802828004E082884FF6F7731A4082805F
:103C6000704721B1828842F00102828004E082889C
:103C70004FF6FE731A40828070470022028B4FF687
:103C8000F7731A400A43028370470022028B4FF2F7
:103C9000FF731A400B0642EA134202837047002268
:103CA000828B4FF6F7731A400A43828370470022D3
:103CB000828B4FF2FF731A400B0642EA1342828353
:103CC00070470022028B4FF6FB731A400A430283AF
:103CD00070470022028B4FF6FF331A400B0642EA70
:103CE0001342028370470022828B4FF6FB731A4007
:103CF0000A43828370470022828B4FF6FF331A40BB
:103D00000B0642EA1342828370470022028B4FF671
:103D10007F731A400A43028370470022028BC2F36A
:103D20000E020B0642EA1342028370470022828B86
:103D30004FF67F731A400A43828370470022828BBA
:103D4000C2F30E020B0642EA13428283704700223E
:103D5000028C4FF6FD731A400A430284704700221A
:103D6000028C4FF6F7731A400A4302847047002210
:103D7000028C4FF6DF731A400B0542EA13420284AD
:103D800070470022028C4FF67F731A400B0542EAFF
:103D90001342028470470022028C4FF6FF531A40F0
:103DA0000B0642EA1342028470470022028C4FF253
:103DB000FF731A400B0642EA134202847047002246
:103DC000028C4DF6FF731A400B0742EA134202843D
:103DD000704730B5002301248C40A3B2048CDD432E
:103DE000ADB22C400484048C02FA01F5ADB22C4330
:103DF000048430BD30B5002304248C40A3B2048C6D
:103E0000DD43ADB22C400484048C02FA01F5ADB25E
:103E10002C43048430BD70B50023002403461846AB
:103E2000183301258D40ACB2058CE643B6B235405F
:103E3000058409B1082909D103EB61031D6825F048
:103E400070051D601D6815431D600CE00D1FADB2AF
:103E500003EB65031D6825F4E0451D601D6816062B
:103E600045EA16451D6070BD21B1028842F002028C
:103E7000028004E002884FF6FD731A40028070470A
:103E800021B1028842F00402028004E002884FF669
:103E9000FB731A400280704721B1828842F0800291
:103EA000828004E082884FF67F731A4082807047D8
:103EB00002884FF6F7731A40028002880A43028094
:103EC000704782884FF68F731A40828082880A4337
:103ED0008280704702894FF6F8731A400281028986
:103EE0000A430281704702894FF67F731A400281AC
:103EF00002890A4302817047818470478185704737
:103F0000818670470187704781877047A0F840100D
:103F1000704702884FF6FF431A40028002880A4326
:103F2000028070470146888E70470146088F7047AF
:103F30000146888F70470146B1F84000704701463E
:103F4000888C70470146088D704702460020138A0E
:103F50000B4201D0012000E000207047CA430282DA
:103F6000704730B50246002000230024158A05EA78
:103F70000103958905EA010413B10CB1012000E0A9
:103F8000002030BDCA4302827047000010B58CB0DB
:103F900004461E230BAA03A9204600F01CFE009035
:103FA000009810B101200CB010BD9DF82C00044405
:103FB00000200B900EE060489DF82C2050F8221055
:103FC00003A800F05FFD00B908E09DF82C00401C3C
:103FD000C0B20B909DF82C000828ECDB00BF9DF8C8
:103FE0002C0007287ED2DFE800F00405395B8BA6A1
:103FF000A50000BF51A001F017F851A001F014F87E
:104000005FA001F011F86EA001F00EF87CA001F0A5
:104010000BF88BA001F008F899A001F005F8A6A014
:1040200001F002F8ABA000F0FFFFB0A000F0FCFF31
:10403000B4A000F0F9FFB9A000F0F6FFBDA000F0B9
:10404000F3FFC3A000F0F0FFCEA000F0EDFFDAA078
:1040500000F0EAFFE5A000F0E7FFAEE237A000F0D5
:10406000E3FFF2A000F0E0FF00200B900EE0FF481D
:1040700000689DF82C2000EBC2004168FCA000F015
:10408000D3FF9DF82C00401CC0B20B90F748007D78
:104090009DF82C108842EADC28A000F0C5FF8CE2D5
:1040A00026A000F0C1FFF4A000F0BEFF00200B909E
:1040B0001CE0EE4909689DF82C2001EBC20101AB20
:1040C00002AA486803A900F0AAFDE84800689DF824
:1040D0002C1050F8312003A9F7A000F0A5FF9DF89F
:1040E0002C0000E067E2401CC0B20B90DF48007D6E
:1040F0009DF82C108842DCDC10A000F095FF5CE2FB
:104100000EA000F091FF0BAA03A9204600F08CFE40
:104110009DF82C0060B9694603A800F0E6FC0B90FE
:104120009DF82C0028B9E9A0009900F07DFFE2E19C
:10413000DFE1D1E111E2E3E1100900200D0A000006
:104140002D2D2D2D2D2D2D2D2D2D2D2D2D2D2D2D9F
:104150002D2D2D2D2D2D2D2D55534D4152542056A5
:10416000322E382D2D2D2D2D2D2D2D2D2D2D2D2D6E
:104170002D2D2D2D2D2D2D2D2D2D2D200D0A000019
:104180002020202055534D415254CAC7D3C9414C19
:1041900049454E54454BBFAAB7A2B5C4D2BBB8F6E9
:1041A000C1E9C7C9B5C4B4AEBFDAB5F7CAD4BBA5B7
:1041B000BDBBD7E9BCFE2CCDA8B9FD200D0A00007F
:1041C000CBFC2CC4E3BFC9D2D4CDA8B9FDB4AEBFDB
:1041D000DAD6FACAD6B5F7D3C3B3CCD0F2C0EFC3A0
:1041E000E6B5C4C8CEBACEBAAFCAFD2CB2A2D6B418
:1041F000D0D02ED2F2B4CB2CC4E3BFC90D0A00003C
:10420000D2D4CBE6D2E2B8FCB8C4BAAFCAFDB5C4CA
:10421000CAE4C8EBB2CECAFD28D6A7B3D6CAFDD72A
:10422000D62831302F3136BDF8D6C629A1A2D7D62F
:10423000B7FBB4AEA1A2BAAFCAFDC8EB0D0A00002D
:10424000BFDAB5D8D6B7B5C8D7F7CEAAB2CECAFDB1
:10425000292CB5A5B8F6BAAFCAFDD7EEB6E0D6A7F9
:10426000B3D63130B8F6CAE4C8EBB2CECAFD2CB230
:10427000A2D6A7B3D6BAAFCAFDB7B5200D0A0000C3
:10428000BBD8D6B5CFD4CABE2ED0C2D4F6B2CECA11
:10429000FDCFD4CABEBDF8D6C6C9E8D6C3B9A6C438
:1042A000DC2CD0C2D4F6BDF8D6C6D7AABBBBB9A603
:1042B000C4DC2E0D0A000000BCBCCAF5D6A7B3D6DC
:1042C0003A7777772E6F70656E6564762E636F6DC3
:1042D0000D0A000055534D415254D3D036B8F6CF95
:1042E000B5CDB3C3FCC1EE3A0D0A00003F3A202021
:1042F0002020BBF1C8A1B0EFD6FAD0C5CFA20D0ADD
:104300000000000068656C703A20BBF1C8A1B0EFF6
:10431000D6FAD0C5CFA20D0A000000006C697374F4
:104320003A20BFC9D3C3B5C4BAAFCAFDC1D0B1ED3D
:104330000D0A0A0069643A202020BFC9D3C3BAAF6E
:10434000CAFDB5C44944C1D0B1ED0D0A0A00000050
:104350006865783A2020B2CECAFD3136BDF8D6C69F
:10436000CFD4CABE2CBAF3B8FABFD5B8F12BCAFD68
:10437000D7D6BCB4D6B4D0D0BDF8D6C6D7AABBBBAE
:104380000D0A0A006465633A2020B2CECAFD3130BE
:10439000BDF8D6C6CFD4CABE2CBAF3B8FABFD5B8CA
:1043A000F12BCAFDD7D6BCB4D6B4D0D0BDF8D6C692
:1043B000D7AABBBB0D0A0A00C7EBB0B4D5D5B3CCA6
:1043C000D0F2B1E0D0B4B8F1CABDCAE4C8EBBAAF1C
:1043D000CAFDC3FBBCB0B2CECAFDB2A2D2D4BBD818
:1043E000B3B5BCFCBDE1CAF82E0D0A002D2D2D2D54
:1043F0002D2D2D2D2D2D2D2D2D2D2D2D2D2D2D2DED
:104400002D2D2D2D2D2D414C49454E54454B2D2DF7
:104410002D2D2D2D2D2D2D2D2D2D2D2D2D2D2D2DCC
:104420002D2D2D2D2D2D2D200D0A00002D2D2D2D66
:104430002D2D2D2D2D2D2D2D2D2D2D2D2D2D2D2DAC
:104440002D2D2D2D2DBAAFCAFDC7E5B5A52D2D2DCE
:104450002D2D2D2D2D2D2D2D2D2D2D2D2D2D2D2D8C
:104460002D2D2D2D2D2D2D2D200D0A007009002014
:1044700025730D0A000000002D2D2D2D2D2D2D2D25
:104480002D2D2D2D2D2D2D2D2D2D2D2D2D2D2D2D5C
:104490002DBAAFCAFD204944202D2D2D2D2D2D2DB7
:1044A0002D2D2D2D2D2D2D2D2D2D2D2D2D2D2D2D3C
:1044B0002D2D2D2D200D0A00257320696420697390
:1044C0003A0D0A3058253038580D0A004845583AF8
:1044D000305825580D0A00009DF82C00042801D002
:1044E000022060E5F5A000F09FFD0120F849C875A5
:1044F00001E0022057E5AFF2BC3000F095FD5CE032
:10450000AFF2C83000F090FD0BAA03A9204600F0DE
:104510008BFC9DF82C00C8B9694603A800F0E5FAA9
:104520000B909DF82C0020B9EAA0009900F07CFDCA
:104530000EE09DF82C00042801D0022033E5E8A00D
:1045400000F072FD0020E249C87501E002202AE572
:10455000AFF2184000F068FD2FE0AFF2204000F00D
:1045600063FD0BAA03A9204600F05EFC9DF82C0019
:10457000D8B9694603A800F0B8FA0B909DF82C0052
:1045800088B9D348C07D012806D100980146026849
:10459000D8A000F049FD0AE0009801460268D9A0C1
:1045A00000F042FD03E00220FDE40220FBE4D4A081
:1045B00000F03AFD01E00120F5E400BF0020F2E444
:1045C00010B501218807FFF7CCFC10B1C04908697C
:1045D000804701218807FFF7D5FC10BD7FB5044651
:1045E0000D4601210846FEF7C6FB41F28830ADF8C2
:1045F000080041F61F40ADF804000020ADF80A00A5
:10460000ADF8060001A94FF08040FEF7E1FE01225F
:1046100041218807FFF728FA1C208DF800000320AD
:104620008DF801008DF8020001208DF80300684626
:10463000FEF71FF801218807FFF7F1F97FBD10B5DC
:10464000044604EBC40000EB04100122C2EB80001E
:1046500081B24FF47A70FFF7C1FF01209C49C87501
:1046600010BD30B595B0044613AB12AA09A9204677
:1046700000F0D5FA054615B1284615B030BD00202A
:10468000149026E0924909689DF8502001EBC20180
:1046900013AB11AA486801A900F0C1FA05460DB193
:1046A0002846EAE709A901A800F0ECF960B99DF8ED
:1046B00044009DF84810884201DD0220DDE79DF8A6
:1046C0005000834988750AE09DF85000401CC0B234
:1046D00014907F48007D9DF850108842D2DC00BFC6
:1046E0007B48007D9DF85010884201D10420C4E72A
:1046F00014A9204600F002FC05460DB12846BCE78F
:104700009DF85000724948750020B6E7F0B59BB09F
:104710006F48847D007DA04201DC1BB0F0BD6C4978
:10472000096801EBC40107AB08AA486809A900F0B1
:1047300076FA09A976A000F077FC002544E06448E9
:10474000018B0120A84001421BD0222172A000F061
:104750006BFC284600F0C5FB5D49243147183946FB
:104760006EA000F061FC22216BA000F05DFC2846E9
:1047700000F0B7FB56492431084411A941F825003F
:1047800018E0284600F0ADFB51492431085811A922
:1047900041F825004E48C07D30B911A850F82510C9
:1047A0005FA000F041FC05E011A850F825105DA0C5
:1047B00000F03AFC9DF82000401EA84202D05BA009
:1047C00000F032FC681CC5B29DF820008542B6DBC3
:1047D00057A000F029FC3E48407D0B280DD2DFE8B1
:1047E00000F0060D151E27323F4E5DA9BA0038496C
:1047F000096851F8340080470646BFE0344A126821
:1048000052F83410119888470646B7E0304B1B68C1
:1048100053F83420DDE9110190470646AEE02C4FF5
:104820003F6857F8343011A807C898470646A5E0F6
:10483000DFF89CC0DCF800C05CF8347011A80FC829
:10484000B84706469AE0159BDFF884C00093DCF871
:1048500000C05CF8347011A80FC8B84706468DE058
:10486000DDE91523DFF868C0CDE90023DCF800C0DE
:104870005CF8347011A80FC8B84706467EE015A949
:104880000EC9DFF84CC08DE80E00DCF800C05CF803
:10489000347011A80FC8B84706466FE015A80FC8B6
:1048A000DFF82CC08DE80F00DCF800C05CF8347035
:1048B00011A80FC8B847064660E000003136BDF8C1
:1048C000D6C6B2CECAFDCFD4CABE210D0A000000A2
:1048D000700900204445433A256C750D0A0000001C
:1048E0003130BDF8D6C6B2CECAFDCFD4CABE210D76
:1048F0000A0000002A2830582558293D30582558EC
:104900000D0A00002A282564293D25640D0A0000AF
:104910000D0A2573280000002563000025730000A0
:10492000256C750030582558000000002C00000050
:104930002900000016A80FC801AF0FC7159BDFF8AC
:10494000ECC00093DCF800C05CF8347011A80FC80C
:10495000B847064612E017A80FC802AF0FC7DDE937
:104960001523DFF8C8C0CDE90023DCF800C05CF8EF
:10497000347011A80FC8B847064600BF00BF9DF8A5
:104980001C0001280CD12948C07D20B9314628A03F
:1049900000F04AFB07E0314627A000F045FB02E0AB
:1049A00024A000F041FBB8E670B52648008810F45A
:1049B000004F35D023480088C5B200202249485511
:1049C0001A4881682048884704461CB91749C868B6
:1049D000804722E01C48FFF7D9FA0546012D00D098
:1049E0002C46002C19D0012C06D0022C08D0032C08
:1049F0000AD0042C10D10BE014A000F015FB0BE042
:104A000015A000F011FB07E016A000F00DFB03E07D
:104A100017A000F009FB00BF00BF00200949088073
:104A200070BD01460868704701607047700900203A
:104A30003D256C753B0D0A003D305825583B0D0A4D
:104A400000000000F0080020720D0020BAAFCAFD7F
:104A5000B4EDCEF3210D0A00B2CECAFDB4EDCEF313
:104A6000210D0A00B2CECAFDCCABB6E0210D0A0082
:104A7000CEB4D5D2B5BDC6A5C5E4B5C4BAAFCAFDDE
:104A8000210D0A0002460AE010780B78984201D006
:104A900001207047107800B902E0521C491CF3E76E
:104AA00000BF0020F5E706E002780A70027802B93C
:104AB00002E0401C491CF7E700BF70470146002098
:104AC00005E00A7802B903E0421CD0B2491CF8E7BD
:104AD00000BF704710B50246012000E050430B00B4
:104AE000A1F10104E1B2F9D110BD2DE9F043044672
:104AF0000D4600274FF00A09A0460020286027E055
:104B000098F80000392803DC98F8000030280DDA06
:104B100098F80000462803DC98F80000412805DAE0
:104B200098F8000058280AD1012F08D198F8000001
:104B3000412801DB4FF01009781CC7B206E098F855
:104B4000000000B905E00120BDE8F08308F101088C
:104B5000D6E700BFA046B9F1100F12D1032F01DA3A
:104B60000220F1E798F80000302808D198F80100F9
:104B7000582804D108F10208B81EC7B204E0032087
:104B8000E2E70FB90420DFE721E00FB1781EC7B2DA
:104B900098F80000392808DC98F80000302804DB79
:104BA00098F80000A0F1300603E098F80000A0F1AA
:104BB000370639464846FFF78DFF296806FB001087
:104BC000286008F1010898F8000000B900E0DCE76F
:104BD00000BF0020B8E710B50446002010700BE0BD
:104BE00020780870641C491C1078401C10701078E4
:104BF000984201DB012010BD2078202802D02078C7
:104C00000028EDD100200870F5E7014600E0491CBE
:104C10000878202801D10029F9D1087870472DE9BA
:104C2000FF4F86B004460D461E464FF00008002098
:104C30000590824601200490002001900090A1463A
:104C40002AE099F80000202820D0009800F07F008A
:104C500005281BDA009818B9009840F080000090F1
:104C6000009800F07F00042804D199F800002A2859
:104C700000D015E099F80010009800F07F0002AA1B
:104C800011540098401CC0B2009003E000988528A1
:104C900000D105E009F1010999F800000028D0D100
:104CA00000BF009888B10020009901F07F0102AA9E
:104CB0005054D9A102A8FFF7E5FE10B900203070CA
:104CC00001E001203070002000900027A1460FE095
:104CD00009F10109781CC7B299F80000202807D112
:104CE0004846FFF792FF8346BBF1280F00D0059797
:104CF00099F80000282803D099F800000028E7D18F
:104D0000A146059810B10598401C81440027BB4678
:104D100071E099F8000008B901276DE099F80000EA
:104D2000282807D1BBF1000F04D108F1010000F0E1
:104D3000FF081FE099F8000029280FD1BBF1000FF0
:104D40000CD1B8F1000F04D0A8F1010000F0FF0869
:104D500000E00127B8F1000F0CD14DE099F80000F8
:104D6000222807D1BBF1000F01D1012000E0002073
:104D700000F0FF0BB8F1000F08D199F800002028CF
:104D800037D099F8000028706D1C32E099F80000C7
:104D90002C2806D1012004900098401CC0B200903D
:104DA00019E099F80000202815D099F8000028286B
:104DB00011D0009858B90198052808DA99F8000030
:104DC00002A9019A88540198401CC0B2019004982D
:104DD000401CC0B20490B8F1010F0AD10498022817
:104DE00007D10498401CC0B204900AF1010000F001
:104DF000FF0A09F101098CE700BFBAF1010F0AD1DE
:104E0000002002A9019A885483A102A8FFF73AFE64
:104E100008B94FF0000A089880F800A00020287018
:104E200038460AB0BDE8F08FF0B5034600200024F4
:104E3000002500264FE01F782C2F01D106B9012450
:104E40001F78292F01D01F780FB906B944E0002D33
:104E500034D11F78302F02DB1F78392F11DD1F78F6
:104E6000612F02DB1F78662F0BDD1F78412F02DBDD
:104E70001F78462F05DD1F78582F02D01F78782F16
:104E80000CD104B128E01F78612F03DB1F78203F8D
:104E90000F7001E01F780F70491C19E01F78222F56
:104EA00004D104B118E00125012611E01F78202F5C
:104EB0000ED01F782C2F0BD0FF250DE01F78222F4E
:104EC00000D1002604B107E016B11F780F70491C0D
:104ED000471CF8B25B1CAEE700BF00270F701570CF
:104EE000F0BD01460020002205E04D4B9B5C0344D1
:104EF000D8B2531CDAB28A42F7DB70472DE9F0438F
:104F0000B5B004460D464FF00008002604E000212D
:104F100043488155701CC6B20A2EF8DB06E0641CBB
:104F2000207818B9012035B0BDE8F0832078282812
:104F3000F5D1641C69E034AA69462046FFF774FF86
:104F4000064634449DF8D00020B101282CD0FF281B
:104F500054D151E09DF8000028B333A96846FFF70B
:104F6000C4FD06460EB10220DDE74046FFF7B9FF5B
:104F70002B490A31339A0A50A1F12400018B0120F8
:104F800000FA08F0814326481A38018304211A30B8
:104F900000F8081008F1010000F0FF08B8F10A0F4E
:104FA00001DD0320BFE729E06846FFF787FD401CCD
:104FB000C7B24046FFF795FF19490A3100EB0109D6
:104FC00049466846FFF76FFD15481A38018B0120E6
:104FD00000FA08F0014388B211491A3908831048D1
:104FE00000F8087008F1010000F0FF08B8F10A0F9E
:104FF00001DD032097E701E0022094E700BF20785D
:10500000292801D0207800B900E094E700BF85F896
:105010000080002087E70000766F696400000000D0
:105020008A090020704700000FB4054A054910B5F1
:1050300003AB7944029800F014FA10BC5DF814FB3D
:10504000F8080020EDD2FFFF70B5044685690068BE
:105050003026C10600D42026C00709D106E0D4E9D5
:10506000012130469047206A401C20626D1EF6D513
:1050700070BD70B5044685690068C00709D006E0B8
:10508000D4E9012120209047206A401C20626D1E37
:10509000F6D570BD70B505460C46012A01D1012038
:1050A0000BE02868800600D5EA69002000E0401C7B
:1050B000904202D2215C0029F9D1A9692618091A67
:1050C000A961296A014428462962FFF7BDFF04E06F
:1050D000D5E9012114F8010B9047B442F8D32846D2
:1050E000FFF7C7FF70BD00002DE9F04180460026A4
:1050F00010687529414614A511D0AFF3008000282F
:1051000002DA404211A508E0D8F800108A0701D55C
:105110000FA502E0490704D50EA5012601E0AFF373
:105120000080002408F1240704E000F0C3F93031C6
:105130003955641C0028F8D133462A46214640469A
:10514000BDE8F04100F031B9000000002D00000082
:105150002B0000002000000070B504460D462146DB
:105160001068AFF300802168090502D5104A7A441F
:1051700002E00F4A7A440E32002104F1240306E0D3
:1051800000F00F064FEA1010965D5E54491C00288F
:10519000F6D120680023000704D5702D02D009B194
:1051A000113202232046BDE8704000F0FEB8000036
:1051B000B20300002DE9F05F4FF0000B0546894671
:1051C0004FF0010AC0F820B02846E9688847002857
:1051D0007ED0252802D0D5E90121B0E05C4F002621
:1051E0007F442846E96888472028044607DB312C9D
:1051F00005D2381910F8200C08B10643F1E7B007C2
:1052000001D526F00406C5F81CB00027C5F818B073
:105210002A2C10D1284659F8041B05EB870291610E
:10522000E9688847012F044628D1E869002830DA68
:1052300026F020062DE0A4F1300052460A2801464F
:105240001AD2CAB105EB870092468046816108E018
:10525000D8F8180000EB800004EB40003038C8F8A4
:1052600018002846E968884704465046A4F13001F2
:105270000A2901D20028EBD1012F0AD02E2C08D107
:105280002846E96888477F1C0446022F46F020061E
:10529000BEDBA869002803DA404246F00106A86197
:1052A000F00701D026F010066C2C01D0682C18D124
:1052B00027462846E9688847B84204460BD1802033
:1052C0006C2F00D0C000E96806432846884700E0FC
:1052D0003AE0044615E040206C2F00D080000643E1
:1052E0000FE04C2C05D06A2C03D0742C01D07A2C02
:1052F00007D158464C2CE6D080206A2CE3D0002001
:10530000E1E70CB3A4F14100192802D8203446F497
:1053100000664A46214628462E604E46FAF762FF4E
:1053200050B1012802D106F104094DE7F61D26F01F
:10533000070000F1080947E7D5E901212046904719
:10534000286A401C28623FE7286ABDE8F09F0000F9
:10535000680300004FF0000200B5134694469646DD
:10536000203922BFA0E80C50A0E80C50B1F1200178
:10537000BFF4F7AF090728BFA0E80C5048BF0CC026
:105380005DF804EB890028BF40F8042B08BF704784
:1053900048BF20F8022B11F0804F18BF00F8012BF6
:1053A000704770477047704770472DE9F0470D46CA
:1053B00004469246994600F124080168880604D5FF
:1053C000E06921F01001216000E001200027A842DF
:1053D00000DD471BA1697A1902EB0900081AA061D8
:1053E0002068C00602D42046FFF72EFE002608E003
:1053F000D4E901211AF806009047206A401C761C67
:1054000020624E45F4DB2068C0060AD52046FFF72F
:105410001BFE06E0D4E9012130209047206A401CA1
:105420002062381EA7F10107F4DC07E0D4E901216E
:1054300018F805009047206A401C2062281EA5F13C
:105440000105F3DC2046FFF714FE2168022009065F
:1054500000D40120BDE8F08701694A1C0261087888
:10546000704710B50C46194690B0CDE902420022B3
:105470000692044A7A44CDE9042001A8FFF79AFE77
:1054800010B010BDE1FFFFFF10B5436913B1AFF3DA
:10549000008001E0FFF7FEFD012010BD126800F161
:1054A00024010A7000224A700122EDE711684FF0D2
:1054B000FF32E9E74FF00A01B0FBF1F202FB110104
:1054C00010467047754600F029F8AE46050069465B
:1054D000534620F00700854618B020B5FDF7B2F816
:1054E000BDE820404FF000064FF000074FF00008E5
:1054F0004FF0000B21F00701AC46ACE8C009ACE866
:10550000C009ACE8C009ACE8C0098D467047044644
:10551000AFF300802046FAF785FE00000048704790
:10552000B413002030313233343536373839414204
:1055300043444546403058003031323334353637F5
:1055400038396162636465664030780004000008A1
:10555000000000000000000200010000103F006495
:1055600065630069640068656C70006C6973740041
:1055700068657800766F696420524441353832306E
:105580005F42616E645F5365742875382062616E96
:10559000642900766F696420524441353832305FA7
:1055A000527373695F536574287538207273736919
:1055B0002900766F69642077726974655F6164643D
:1055C000722875333220616464722C753332207610
:1055D000616C2900766F696420524441353832305D
:1055E0005F566F6C5F53657428753820766F6C2931
:1055F00000766F696420524441353832305F547808
:105600005047415F536574287538206761696E297A
:1056100000766F696420524441353832305F4672FB
:1056200065715F536574287531362066726571291E
:105630000075333220726561645F6164647228753D
:10564000333220616464722900766F696420646576
:105650006C61795F6D7328753136206E6D7329002A
:10566000766F69642064656C61795F757328753342
:1056700032206E7573290000985600080000002043
:105680005C0A00006C010008E05700085C0A00207A
:10569000BC0F0000C801000841CA01023B0101140F
:1056A000290301FF01FF01FF01FF014784A24A0412
:1056B000100A010203040607080901B9022B0101BF
:1056C0001C690349083913591E4901391A29083937
:1056D0000A391A4909691C492B493E0915300946FE
:1056E00048691D5954890D6967693B890959C5691C
:1056F000CC49E4D90249F66903393E790C394309AA
:1057000048C1092D30094B7869E36925715966292B
:1057100014391939FE490E492F4909393739098990
:105720000239485956794B49043939091D91092ED6
:10573000C1095930094778390F6938391639045980
:1057400003391D6957690A592899524955990269BF
:105750004B695B69415956094BC1595A593289669F
:10576000694B99C67978393549176999011F2D0117
:1057700002030404100B06070809020406085D551D
:105780001B0866041A6B041A63041A70041A5F0477
:1057900013234A140831561B0829081AB21013BFE4
:1057A000221B0849101A7B081A6008136D161B0883
:1057B00093181ACB081A74081309172B08113019FB
:1057C000101AD4101AAB081AF1081328091C203F2C
:1057D000465C1904130D471C08A9492C69D601CF52
:0400000508000131BD
:00000001FF
