:020000040800F2
:10000000281600203D170008510A0008530A00086E
:10001000570A00085B0A00085F0A00080000000099
:10002000000000000000000000000000630A00085B
:10003000650A000800000000670A0008690A000855
:1000400057170008571700085717000857170008D8
:1000500057170008571700085717000857170008C8
:1000600057170008571700085717000857170008B8
:1000700057170008571700085717000857170008A8
:100080005717000857170008571700085717000898
:100090005717000857170008571700085717000888
:1000A0005717000857170008571700085717000878
:1000B000D5360008B7120008571700085717000870
:1000C0005717000857170008571700085717000858
:1000D000571700088F160008571700085717000811
:1000E0005717000857170008571700085717000838
:1000F0005717000857170008571700085717000828
:1001000057170008571700087313000857170008FF
:1001100057170008571700088D140008B11400087D
:1001200057170008571700085717000857170008F7
:1001300000F002F800F06DF80AA090E8000C82448C
:100140008344AAF10107DA4501D100F062F8AFF269
:10015000090EBAE80F0013F0010F18BFFB1A43F0A5
:1001600001031847DC450000FC4500000A444FF03D
:10017000000C10F8013B13F0070408BF10F8014B06
:100180001D1108BF10F8015B641E05D010F8016B4B
:10019000641E01F8016BF9D113F0080F1EBF10F8AF
:1001A000014BAD1C0C1B09D16D1E58BF01F801CBD2
:1001B000FAD505E014F8016B01F8016B6D1EF9D555
:1001C0009142D6D37047000000230024002500266A
:1001D000103A28BF78C1FBD8520728BF30C148BFAA
:1001E0000B607047642904F00980752904F00680CB
:1001F000782904F03B80632904F0B481732904F06A
:10020000B981002070471FB5AFF300801FBD10B546
:1002100010BD04F0BBF91146FFF7F5FF00F0A2F89E
:1002200004F0D9F9FFF7F3FF01F0D4F910B5024655
:1002300000201078012303E0D45C60405C1CA3B272
:100240008B42F9DB10BD10B50024FF4840786428CC
:100250007ED1FD4880786128FAD1FB48C0787428A7
:100260007FD1F94800795F287BD10020F7490870D9
:100270002420F749F54A12788854F4480078401C45
:10028000F24908707220F249F04A12788854EF4817
:100290000078401CED4908707320ED49EB4A127854
:1002A0008854EA480078401CE84908707420E849FE
:1002B000E64A12788854E5480078401CE349087003
:1002C0005F20E349E14A12788854E0480078401CF6
:1002D000DE4908705F20DE49DC4A12788854DB482A
:1002E0000078401CD94908700020D949D74A1278B3
:1002F0008854D6480078401CD44908700020D4495E
:10030000D24A12788854D1480078401CCF490870EE
:1003100008460178CE48FFF789FFCD49CB4A1278CD
:100320008854CA480078401CC849087000BF0DE0D6
:10033000C748015DC74801F03AFF00BF4021C548EA
:1003400001F0A3FF0128F9D1601C84B2BF4800E08E
:1003500007E000788442EBDB0020BF490870BF490A
:10036000088010BD2DE9F04741F6B054254600261F
:1003700000274FF000084FF0000A01F0C5F801F027
:1003800023F94FF4E13001F033F900F053FC41F66A
:100390001F4141F63F7000F0BFFF41F61F410920A9
:1003A00000F05CFF40F2AF41042001F022F840F27F
:1003B000CF21042000F0F0FF01F048F800F0F8FD34
:1003C000012000F0B0FE002000F0BDFE032000F090
:1003D0009AFE3F2000F088FE00F03EFE284600F026
:1003E000C1FE22E39C48007801283DD119209C4998
:1003F000088000261EE04FF0030816E09948805D53
:10040000012101FA08F1084201D0012000E000209A
:100410009549934A1288885491480088401C904915
:100420000880A8F101004FFA80F8B8F1000FE5DA72
:10043000701C86B2894800888642DCDB01218B482B
:1004400002F077FB01218A4802F073FB0121894801
:1004500002F06FFB01208849087000207E49087077
:100460007E490880854908808448008810F4004F40
:10047000B7D0794800780028B3D180480088C0F30D
:10048000090971480078242875D1A9F1010081B2C9
:100490006D48FFF7CBFEA9F101016B4A515C884220
:1004A0006AD10020694908701046407872287BD1D3
:1004B00010468078642877D11046C078792873D1A7
:1004C000104600795F286FD1242061495F4A127875
:1004D00088545E480078401C5C49087072215C4872
:1004E0005A4A1278815459480078401C574908707C
:1004F00064205749554A1278885454480078401C63
:100500005249087079205249504A127888544F480D
:100510000078401C4D4908705F204D494B4A1278C5
:1005200088544A480078401C484908705F21484870
:10053000464A1278815445480078401C4349087067
:10054000414841794248414A127881543F480078F5
:10055000401C3E490870084601783D48FFF766FE9A
:100560003B493A4A1278885438480078401C374949
:10057000087000260FE055E24EE23548815D3548AF
:1005800001F015FE00BF4021324801F07EFE012837
:10059000F9D1701C86B22D4800788642EDDB002030
:1005A0003649088041E2FFE727484078662869D14C
:1005B000254880787228FAD12348C0786528F6D17A
:1005C000214800795F28F2D101202D49087000F000
:1005D00036FD41F6B054204600F0C4FD24211C48ED
:1005E0001A4A1278815419480078401C174908703B
:1005F00066211748154A1278815414480078401C27
:100600001249087072201249104A127888540F4813
:100610000078401C0D49087065200D490B4A12787E
:1006200088540A480078401C084908705F2108482F
:10063000064A1278815405480078401C0349087026
:100640005F200349014A1EE0000F00200100002046
:10065000500A0020003801405304002050040020BC
:1006600002000020B40A0020040000200004004022
:10067000001000400014004000000020E8080020A6
:100680005204002081E012788854E8480078401C29
:10069000E6490870E6484179E648E44A1278815410
:1006A000E2480078401CE14908700020E149DF4A37
:1006B00012788854DD480078001DDC490870002756
:1006C00054E0204600F04EFDC82000F054FF0B20FF
:1006D00000F04CFC10F4807F03D00120D549487213
:1006E00002E00020D34948724FF4967000F043FFB7
:1006F00000F0C1FCCF490872CC480078401E81B29E
:10070000CC48FFF793FDCB498872002611E0CA4818
:10071000007800B911E0C748815DC84801F047FD85
:1007200000BF4021C54801F0B0FD0128F9D1701C7F
:1007300086B2BE4800788642E9DB00BFBE4800783A
:1007400000B915E00A2000F016FFBA48C079401C35
:10075000B849C87142F27470844203DA04F10A00A5
:1007600084B201E041F6B054781C87B2FB2FA8DBBD
:1007700000BF00F071FC284600F0F4FC142000F0EB
:10078000FAFE0020AE4908804FE1A948407863286E
:1007900071D1A74880786F28FAD1A548C0786E2813
:1007A000F6D1A34800795F28F2D12421A1489F4ABD
:1007B000127881549D480078401C9C490870632140
:1007C0009C489A4A1278815498480078401C97496E
:1007D00008706F219748954A1278815493480078A1
:1007E000401C924908706E219248904A12788154B8
:1007F0008E480078401C8D4908705F208D498B4AD7
:100800001278885489480078401C884908705F2114
:100810008848864A1278815484480078401C83496D
:100820000870834840798349804A127888547F4809
:100830000078401C7D490870084601787D48FFF724
:10084000F5FC7C49794A1278885478480078401C35
:100850007649087076488079012802D002280BD1A9
:1008600000E00AE07248C07900EB800045002846AD
:1008700000F078FC01E019E000BF00BF00260DE0A9
:100880006C48815D6D4801F092FC00BF40216B48CF
:1008900001F0FBFC0128F9D1701C86B26348007896
:1008A0008642EDDB002066490880BEE06048407863
:1008B000642879D15E4880786128FAD15C48C07894
:1008C0007428F6D15A4800795F28F2D1242059497A
:1008D000564A1278885455480078401C534908708D
:1008E00064205449514A1278885450480078401C7A
:1008F0004E49087061214F484C4A127881544B4848
:100900000078401C4949087074214A48474A1278C7
:10091000815446480078401C444908705F2045498E
:10092000424A1278885441480078401C3F49087078
:100930005F2040493D4A127888543C480078401C6A
:100940003A4908703A4841793A48384A127881540D
:1009500036480078401C354908700846017835480B
:10096000FFF764FC3349314A127888542F480078E5
:10097000401C2E4908702E48C0792D49897900EB1A
:1009800001201FFA80FABAF13C0F0BD0BAF1480FE0
:1009900008D0BAF1540F05D0BAF12A0F02D0BAF13B
:1009A000EB0F2DD1002611E032E0214906F10800BD
:1009B000085C3038C1B22348234A12888154224847
:1009C0000088401C20490880701C86B25645ECDB2C
:1009D00001201E49087000260DE01648815D174869
:1009E00001F0E5FB00BF4021144801F04EFC012856
:1009F000F9D1701C86B20D4800788642EDDB14E018
:100A0000002012490870104908800D4908800CE048
:100A100000200B49088008E0002009490880FFF702
:100A200012FC02E0002006490880DBE401000020FF
:100A3000000F0020500A002052040020003801401E
:100A4000E8080020B40A00205004002053040020CD
:100A5000704700BFFEE700BFFEE700BFFEE700BF34
:100A6000FEE7704770477047704700000020002184
:100A7000674A126842F48032654B1A6000BF644ACC
:100A8000126802F40031401C11B9B0F5A06FF6D124
:100A90005F4A126812F4003F01D0012100E00021FA
:100AA000012942D15B4A126842F01002594B1A6088
:100AB0001A46126822F003021A601A46126842F0BF
:100AC00002021A60524A5268514B5A601A465268E2
:100AD0005A601A46526842F480625A601A46526856
:100AE00022F47C125A601A46526842F4E8125A60A4
:100AF0001A46126842F080721A6000BF444A1268B7
:100B000012F0007FFAD0424A526822F00302404BB2
:100B10005A601A46526842F002025A6000BF3C4ACC
:100B2000526802F00C02082AF9D1704710B5FFF79D
:100B30009DFF10BD10B53648006840F001003449F3
:100B40000860084640683449084031494860084612
:100B50000068324908402E4908600846006820F4C1
:100B6000802008600846406820F4FE0048604FF48A
:100B70001F008860FFF7DAFF4FF000602849086027
:100B800010BD10B5002000210022214B5B6803F04E
:100B90000C0020B1042806D0082828D107E0214BFA
:100BA000214C236027E01F4B1F4C236023E0184B90
:100BB0005B6803F47011164B5B6803F48032022308
:100BC00003EB914122B9194B4B43174C23600DE0C5
:100BD0000F4B5B6813F4003F04D0144B4B43124C93
:100BE000236003E00F4B4B430F4C236003E00D4B9E
:100BF0000D4C236000BF00BF054B5B68C3F30313BC
:100C00000B4CE05C084B1B68C340074C236010BDD5
:100C100000100240002002400000FFF8FFFFF6FE37
:100C200008ED00E000127A005804002000093D00A1
:100C30005C04002008B50121482001F019F960206A
:100C4000ADF8000010208DF8030003208DF802009D
:100C500069460B4800F062FE2021094800F006FFBB
:100C60004021074800F004FF2020ADF8000069464D
:100C7000044800F053FE2021024800F0F7FE08BDB2
:100C8000000C01400018014008B50121082001F0C6
:100C9000EFF84FF44060ADF8000010208DF803002D
:100CA00003208DF8020069469E4800F037FE4FF49D
:100CB00040619C4800F0DAFE08BD10B59948001D5F
:100CC000006820F470409849C1F8040C0846D0F838
:100CD000040C40F440509349091D086001209349D9
:100CE00008609349C1F8A801042000F022FC00200C
:100CF0008F49C1F8AC01042000F01BFC00208C4996
:100D0000C1F8A80110BD10B58648001D006820F488
:100D100070408549C1F8040C0846D0F8040C40F432
:100D200040508049091D086000208049091F086063
:100D30007F49C1F8AC01042000F0FBFB01207B4996
:100D4000091F08607A49C1F8AC01042000F0F1FBEA
:100D500010BD10B500247348001D006820F47040D9
:100D60007149C1F8040C0846D0F8040C40F4004066
:100D70006C49091D086001206C49086000F0D9FB2E
:100D800001206B49C1F8A80100F0D3FB07E0601C0B
:100D9000C4B2FA2C03DDFFF7B6FF012010BD634893
:100DA000803800680028F2D16049091F0860F5E723
:100DB00010B500205D49091F08605B48D0F8040C9D
:100DC00020F470405849C1F8040C0846D0F8040CCF
:100DD00040F440505349091D086000205449C1F8AF
:100DE000AC01022000F0A5FB01205149C1F8A80187
:100DF000022000F09EFB00204D49C1F8A80110BD63
:100E000010B500204949091F08604748D0F8040C74
:100E100020F470404449C1F8040C0846D0F8040C92
:100E200040F440503F49091D086001204049C1F885
:100E3000AC01022000F07DFB01203D49C1F8A80172
:100E4000022000F076FB00203949C1F8A80110BD4E
:100E500070B505463348001D006820F470403249E3
:100E6000C1F8040C0846D0F8040C40F440502D4959
:100E7000091D086000202D49091F0860002417E0A3
:100E8000E8092A4908606806050E022000F051FBB7
:100E900001202749C1F8A801022000F04AFB0020E8
:100EA0002249091F0860022000F043FB601CC4B205
:100EB000082CE5DB70BD70B5044600251948001DFF
:100EC000006820F470401849C1F8040C0846D0F8B6
:100ED000040C40F40040C1F8040C002617E0002088
:100EE0001249091F0860022000F023FB012010496D
:100EF000C1F8A8016806050E0C488038006808B1E2
:100F0000681CC5B2012000F014FB701CC6B2082E8C
:100F1000E5DB14B9FFF774FF01E0FFF749FF28464E
:100F200070BD0000000C014000000140AC81214276
:100F30000080214270B504460D46FFF7BEFE222018
:100F4000FFF786FFFFF705FF2046FFF781FFFFF75A
:100F500000FF2812FFF77CFFFFF7FBFEE8B2FFF768
:100F600077FFFFF7F6FEFFF7CEFE70BD70B50446C3
:100F7000FFF7A3FE2220FFF76BFFFFF7EAFE2046F4
:100F8000FFF766FFFFF7E5FEFFF797FE2320FFF769
:100F90005FFFFFF7DEFE0120FFF78DFF05462D0204
:100FA0000020FFF788FF0543FFF7ADFE284670BD20
:100FB00010B5FFF769FE0020FFF7D8FF0446A4F53F
:100FC000B040053837D102210846FFF7B3FF322081
:100FD00000F0D1FA4CF201010220FFF7ABFF4FF411
:100FE000167000F0C8FA48F64F010520FFF7A2FF7F
:100FF0004FF4F0410720FFF79DFF08211320FFF772
:1010000099FF4FF4A1511520FFF794FF4FF4404191
:101010001620FFF78FFF43F226111C20FFF78AFFEF
:1010200049F624412220FFF785FF4FF260614720F7
:10103000FFF780FF01E0012010BD0020FCE710B5A4
:101040004020FFF793FF04464FF6F070044021461E
:101050004020FFF76FFF10BD10B54020FFF786FF5F
:1010600004464FF6F070044044F00104214640204D
:10107000FFF760FF10BD10B50B20FFF777FF0446A8
:10108000601210BD70B505460520FFF76FFF0446DE
:101090004FF6F070044005F00F0004432146052090
:1010A000FFF748FF70BD70B504460220FFF75EFFF2
:1010B000054614B145F4804501E025F480452946F4
:1010C0000220FFF737FF70BD70B505460520FFF71A
:1010D0004DFF044648F2FF00044044EA052421463F
:1010E0000520FFF727FF70BD70B505464220FFF7CA
:1010F0003DFF04464FF6C07004402C432146422079
:10110000FFF718FF70BD70B505464220FFF72EFFB0
:1011100004464FF6FF00044044EA052421464220DD
:10112000FFF708FF70BD70B505460320FFF71EFFEF
:1011300004464FF6F370044044EA85042146032038
:10114000FFF7F8FE70BD70B505460320FFF70EFFF0
:1011500004464FF6FC7004402C4321460320FFF761
:10116000E9FE70BD2DE9F047044600260027032064
:10117000FFF7FCFE054605F01F05C5F3810705F0E6
:1011800003060EB90A2604E0012E01D1142600E060
:10119000052617B942F2FC180FE0012F01D0022FEB
:1011A00002D141F6B05808E05320FFF7DFFE804639
:1011B00008EB880040044FEA1048444501DABDE8D6
:1011C000F087A4EB080090FBF6F01FFA80F9C9F352
:1011D000090945EA891545F0100529460320FFF75E
:1011E000A9FE142000F0C7F900BF0B20FFF7BEFED8
:1011F00010F0800FF9D0E2E72DE9F0410025A84674
:101200000320FFF7B3FE0446A711C4F3810804F0DE
:1012100003050DB90A2504E0012D01D1142500E0D4
:101220000525B8F1000F02D142F2FC1610E0B8F12A
:10123000010F02D0B8F1020F02D141F6B05607E01B
:101240005320FFF793FE064606EB86004004060C8B
:1012500007FB056084B22046BDE8F0817FB50446F7
:101260000D460121022000F010FEADF80840ADF857
:1012700004500020ADF80A00ADF8060001A9954819
:1012800001F030F901221146924801F077FC1D204F
:101290008DF8000000208DF8010003208DF8020079
:1012A00001208DF80300684600F06DFA002189489E
:1012B00001F03FFC7FBD10B50121864801F0DBFE47
:1012C00048B3854800888549098888420BDA8448F4
:1012D00081490988405C834908607F480088401C38
:1012E0007D49088013E000207E4908607A49088023
:1012F0000021784801F01DFC00217B4801F019FC19
:1013000000217A4801F015FC00207949087001217C
:10131000704801F0C1FE10BD7FB504460D460121A5
:10132000082000F0B2FDADF80840ADF804500020F0
:10133000ADF80A00ADF8060001A96E4801F0D2F838
:10134000012211466B4801F019FC32208DF8000093
:1013500000208DF8010002208DF8020001208DF898
:101360000300684600F00FFA0121624801F0E1FB3A
:101370007FBD10B501215F4801F07DFE58B101210C
:101380005C4801F089FE5C48006808B9012000E073
:1013900000205949086010BD7FB504460D46012163
:1013A000102000F072FDADF80840ADF804500020A8
:1013B000ADF80A00ADF8060001A94B4801F092F81B
:1013C00001221146484801F0D9FB36208DF8000073
:1013D00000208DF8010003208DF8020001208DF817
:1013E0000300684600F0CFF900213F4801F0A1FB5F
:1013F0007FBD7FB504460D460121202000F045FD4C
:10140000ADF80840ADF804500020ADF80A00ADF882
:10141000060001A9354801F065F80122114633485C
:1014200001F0ACFB37208DF8000000208DF80100A2
:1014300003208DF8020001208DF80300684600F0BB
:10144000A2F90021294801F074FB7FBD08B50121F4
:101450000C2000F00DFD4FF44070ADF8000010209E
:101460008DF8030003208DF802006946234800F040
:1014700055FA8020ADF800006946214800F04EFA88
:101480004FF480711D4800F0F3FA08BD10B501213A
:10149000154801F0F0FD50B10121134801F0FCFDA9
:1014A000104808300068C0431649C1F8A00110BDBB
:1014B00010B501210D4801F0DEFD50B101210B48AE
:1014C00001F0EAFD07480C300068C0430D49C1F83F
:1014D000A40110BD00040040D80800200200002034
:1014E00004000020988121420010004000140040B8
:1014F00000000020000C004094012342000C014039
:10150000000801400080214210B56FF0040000F097
:1015100087F92A4800682A49B0FBF1F02949087088
:10152000084600784FF47A7148432649891C0880A0
:1015300010BD244A127842434FF0E0235A61002242
:101540009A611A46126942F001021A6100BF4FF017
:10155000E022116911F0010F02D011F4803FF6D0A2
:101560004FF0E022126922F001024FF0E0231A61ED
:1015700000229A617047134A921C128842434FF02E
:10158000E0235A6100229A611A46126942F0010270
:101590001A6100BF4FF0E022116911F0010F02D073
:1015A00011F4803FF6D04FF0E022126922F00102E0
:1015B0004FF0E0231A6100229A617047580400201E
:1015C00000127A00E408002010B54FF4A06000F08B
:1015D000D5F810BD014600BF704700BF514A1288C0
:1015E00012F0400FFAD0C2B24E4B1B1D1A8070474A
:1015F00010B586B00446012144F2040000F038FC26
:10160000484800F097FC4FF40070ADF81400032038
:101610008DF8160018208DF8170005A9424800F033
:101620007DF94FF48060ADF8140004208DF81700A8
:1016300005A93D4800F072F925208DF8000003202F
:101640008DF801008DF8020001208DF80300684636
:1016500000F099F801940020ADF80800ADF80A00F8
:10166000ADF80C00ADF810000C20ADF80E0001A98B
:101670002C4800F0A2FC012240F22551294800F03C
:1016800033FD0121274800F023FD06B010BD10B541
:1016900040F22551234800F00EFE002840D021489A
:1016A00000F089FDC4B221480078012804D100204F
:1016B0001E4908701E4908801D48008810F4004F1C
:1016C0002ED11C48007858BB1948008810F4804F70
:1016D0000CD00A2C03D000201549088020E01448C3
:1016E000008840F400401249088019E00D2C06D112
:1016F0000F48008840F480400D49088010E00C48F5
:101700000088C0F30D000C490C5409480088401CA7
:101710000749088008460088C72801DD00200880A6
:1017200010BD0000003801400008014052040020B4
:10173000E808002000000020000F00200948804732
:1017400009480047FEE7FEE7FEE7FEE7FEE7FEE7A3
:10175000FEE7FEE7FEE7FEE704480549054A064BBB
:1017600070470000350B00083101000828100020E8
:101770002816002028120020281200203249014398
:10178000324A1160704770B5002100230F22C478DF
:101790000CB32E4C246804F4E064C4F5E064210A20
:1017A000C1F10403CA40447804FA03F18478144078
:1017B00021430901264C0678A155047804F01F0541
:1017C0000124AC4005786D114FF0E02606EB85054D
:1017D000C5F8004109E0047804F01F040125A54084
:1017E0001C4C0678761144F8265070BD1A4A0A40FF
:1017F0000243164B1B1F1A60704741B1134A121D5A
:10180000126802434FF0E023C3F8102D07E00F4A9F
:10181000121D126882434FF0E023C3F8102D704769
:10182000042808D14FF0E021096941F004014FF08C
:10183000E022116107E04FF0E021096921F0040185
:101840004FF0E022116170470000FA050CED00E056
:1018500000E400E080E100E080FFFF1F10B50446D7
:10186000C748844208D10121042000F01BFB00215D
:10187000042000F017FB46E0C248844208D1012151
:10188000082000F00FFB0021082000F00BFB3AE0DD
:10189000BD48844208D10121102000F003FB002143
:1018A000102000F0FFFA2EE0B848844208D1012150
:1018B000202000F0F7FA0021202000F0F3FA22E0C7
:1018C000B348844208D10121402000F0EBFA002106
:1018D000402000F0E7FA16E0AE48844208D101212A
:1018E000802000F0DFFA0021802000F0DBFA0AE01F
:1018F000A948844207D10121801500F0D3FA0021C4
:10190000A01500F0CFFA10BD10B50121084600F077
:10191000C9FA0021012000F0C5FA10BDF0B500227F
:101920000023002400250026002791F803C00CF0B6
:101930000F0291F803C01CF0100F03D091F802C001
:101940004CEA0202B1F800C01CF0FF0F31D006686B
:1019500000242BE04FF0010C0CFA04F5B1F800C0A4
:101960000CEA0503AB4220D1A5004FF00F0C0CFA96
:1019700005F7BE4302FA05FC4CEA060691F803C0DF
:10198000BCF1280F06D14FF0010C0CFA04FCC0F892
:1019900014C00AE091F803C0BCF1480F05D14FF024
:1019A000010C0CFA04FCC0F810C0641C082CD1D344
:1019B0000660B1F800C0BCF1FF0F34DD46680024BA
:1019C0002EE004F1080C4FF0010E0EFA0CF5B1F800
:1019D00000C00CEA0503AB4221D1A5004FF00F0C6B
:1019E0000CFA05F7BE4302FA05FC4CEA060691F82C
:1019F00003C0BCF1280F05D104F1080C0EFA0CFE4F
:101A0000C0F814E091F803C0BCF1480F07D104F10D
:101A1000080C4FF0010E0EFA0CFEC0F810E0641C2A
:101A2000082CCED34660F0BD4FF6FF710180022135
:101A300081700421C17070470246002093680B42F8
:101A400001D0012000E0002070470146886880B284
:101A5000704702460020D3680B4201D0012000E00D
:101A6000002070470146C86880B270470161704726
:101A7000416170470AB1016100E041617047C16096
:101A800070474FF480320A438261816182618269CA
:101A9000826970470022414B1A684FF680731A40E2
:101AA00042EA00120A433D4B1A6070473C49C86144
:101AB0007047F0B5002200230024002500F0004606
:101AC000B6F1004F02D1354EF46901E0334E74682F
:101AD000C0F3034582B200F44016B6F5401F08D1AA
:101AE00024F070642D4E766826F070662B4F7E6071
:101AF00012E000F48016B6F5801F06D1032606FA20
:101B000005F39C4344F0706406E0460D360102FA8A
:101B100006F6B44344F0706421B1460D360102FA72
:101B200006F6344300F00046B6F1004F02D11B4EDA
:101B3000F46101E0194E7460F0BD30B500228B07EE
:101B40001C0F0F2303FA04F2144B08338C1053F8C4
:101B5000244094438D1043F825408C1053F82430D2
:101B60008C07240F00FA04F423430C4C08348D1026
:101B700044F8253030BD0A49DC3108607047000068
:101B800000080140000C0140001001400014014019
:101B900000180140001C01400020014000000140ED
:101BA00000002042DB48006840F00100D94908608D
:101BB00008464068D8490840D64948600846006849
:101BC000D6490840D34908600846006820F48020C0
:101BD00008600846406820F4FE0048604FF41F008B
:101BE00088607047CB49096821F48031C94A116087
:101BF0001146096821F480211160B0F5803F03D0BF
:101C0000B0F5802F0ED106E0C249096841F4803159
:101C1000C04A116007E0BF49096841F4A021BD4AEC
:101C2000116000E000BF00BF704710B50146002200
:101C3000002300204A11012A02D1B64C236806E095
:101C4000022A02D1B34C236A01E0B24C636A01F06C
:101C50001F02012494401C4201D0012000E000201A
:101C600010BD70B500240025002600BF3120FFF70D
:101C7000DCFF0646641CB4F5A06F01D0002EF5D041
:101C80003120FFF7D2FF08B1012500E000252846EA
:101C900070BD00219F4A116821F0F80141EAC0019E
:101CA000116070479E49086070470022994B5A683E
:101CB00022F47C1240EA01031A43964B5A607047A3
:101CC0009749086670470021924A516821F0030144
:101CD0000143516070478F48406800F00C00704726
:101CE00000218C4A516821F0F00101435160704796
:101CF0000021884A516821F4E06101435160704736
:101D00000021844A516821F4605141EAC0015160C8
:101D1000704729B17F4A527A02437E4B5A7206E0DD
:101D20007C4A527AC343DBB21A407A4B5A727047EC
:101D30007B49D831086070470021764A516821F408
:101D400040410143516070470021724A20321170B6
:101D5000704A82F82010012802D004280AD104E039
:101D600001216C4A2032117005E00521694A2032B8
:101D7000117000E000BF00BF70476A4908607047FB
:101D80006449096A0143634A1162704765494439ED
:101D90000860704730B500210022002300245D4D0B
:101DA0006D6805F00C0121B1042905D0082923D163
:101DB00005E05D4D056022E05B4D05601FE0554D7F
:101DC0006D6805F47012534D6D6805F4803302257B
:101DD00005EB92421BB9554D554305600BE04D4D47
:101DE0006D6815F4003F03D0504D5543056002E087
:101DF0004D4D5543056002E04B4D056000BF00BFEF
:101E0000444D6D6805F0F0010909494D6C5C0568A9
:101E1000E54045603F4D6D6805F4E061090A444DB9
:101E20006C5C4568E54085603A4D6D6805F460512D
:101E3000C90A3F4D6C5C4568E540C560354D6D682D
:101E400005F44041890B3A4D10356C5CC568B5FB13
:101E5000F4F5056130BD29B12E4A526902432D4B7C
:101E60005A6104E02B4A526982432A4B5A617047F7
:101E700029B1284A92690243264B9A6104E0254A17
:101E800092698243234B9A61704729B1214AD269F2
:101E90000243204BDA6104E01E4AD26982431D4BA3
:101EA000DA61704729B11B4AD2680243194BDA60E4
:101EB00004E0184AD2688243164BDA60704729B1B1
:101EC000144A12690243134B1A6104E0114A126961
:101ED0008243104B1A6170471249403908607047BD
:101EE0000F49C86470470B49C87170470948406A78
:101EF00040F0807007494862704701460020054A5B
:101F000092680A4201D0012000E000207047014998
:101F100088727047001002400000FFF8FFFFF6FED5
:101F2000000042428004424200127A0000093D0053
:101F3000F008002010B50446FB48844209D1012175
:101F40008803FFF7AFFF00214FF48040FFF7AAFF9F
:101F500032E0F648844209D101214804FFF7AFFF7F
:101F600000214FF40030FFF7AAFF25E0F04884423B
:101F700009D101218804FFF7A2FF00214FF480203E
:101F8000FFF79DFF18E0EB48844209D10121C80406
:101F9000FFF795FF00214FF40020FFF790FF0BE0C3
:101FA000E548844208D101210805FFF788FF002198
:101FB0004FF48010FFF783FF10BD2DE9F04786B086
:101FC00004460D460026002700BFB146B246A88948
:101FD00000B100BFA246268A4CF6FF700640E88892
:101FE00006432682A6894EF6F3100640A888298962
:101FF0000843698908430643A681A68A4FF6FF4035
:102000000640A8890643A68201A8FFF7C3FE5446EE
:10201000C548824501D1049F00E0039FA08910F4C8
:10202000004F08D007EBC70000EB071029684900F4
:10203000B0FBF1F807E007EBC70000EB07102968D9
:102040008900B0FBF1F86420B8FBF0F0060130091C
:10205000642101FB1089A08910F4004F09D03221BE
:1020600001EBC9006421B0FBF1F000F0070006436A
:1020700008E0322101EB09106421B0FBF1F000F01F
:102080000F000643268106B0BDE8F0874FF41651D5
:10209000016000218180C18001810C2141810021EA
:1020A0008181704710B50022028A4FF2FF031A4067
:1020B0000B884C8823438C882343CC8823431A43C2
:1020C000028210BD0021018041808180C180704763
:1020D00021B1828942F40052828104E082894DF666
:1020E000FF731A4082817047F0B500240025002656
:1020F0000023A1F510676A3F00D100BF0346C1F37A
:10210000421401F01F05012707FA05F6012C01D141
:102110000C3304E0022C01D1103300E014331AB167
:102120001F6837431F6002E01F68B7431F60F0BDA0
:1021300010B51AB1838A0B43838204E0838ACC43AF
:10214000A4B22340838210BD028A4FF6F0731A4076
:102150000282028A0A430282704782894FF2FF7329
:102160001A40828182890A438281704721B1828923
:1021700042F00202828104E082894FF6FD731A4028
:1021800082817047028A4FF6DF731A400282028A08
:102190000A430282704721B1028A42F480420282DD
:1021A00004E0028A4BF6FF731A4002827047C1F3C3
:1021B00008028280704701468888C0F30800704793
:1021C000818941F0010181817047028BD2B2028383
:1021D000028B42EA012202837047028B02F47F42A3
:1021E0000283028B0A430283704721B1828A42F044
:1021F0002002828204E0828A4FF6DF731A408282D4
:10220000704721B1828A42F01002828204E0828A01
:102210004FF6EF731A408282704721B1828A42F0F2
:102220000802828204E0828A4FF6F7731A408282A3
:10223000704721B1828942F40042828103E08289A1
:10224000C2F30E028281704721B1828A42F4006299
:10225000828204E0828A4FF2FF731A4082827047C2
:10226000828A4FF6FB731A408282828A0A438282F4
:10227000704721B1828A42F00202828204E0828A9F
:102280004FF6FD731A408282704702460020B1F576
:10229000007F00D100BF13880B4201D0012000E075
:1022A0000020704701F40072B2F5007F00D100BF3A
:1022B000CA430280704770B50246002300240025FF
:1022C0000020A1F510666A3E00D100BFC1F342159F
:1022D00001F01F04012606FA04F4012D02D19689AB
:1022E000344006E0022D02D1168A344001E0968A7D
:1022F00034400B12012606FA03F31688334014B15A
:102300000BB1012000E0002070BD10B500220023B9
:10231000A1F510646A3C00D100BF0A120124944068
:10232000A3B2DC43048010BD0038014000440040EB
:1023300000480040004C00400050004010B50446EA
:10234000FF48844208D10121C014FFF7ABFD0021F2
:10235000E014FFF7A7FDC4E0B4F1804F08D10121DC
:102360000846FFF7ACFD00210120FFF7A8FDB8E00B
:10237000F448844208D101210220FFF7A0FD00218A
:102380000220FFF79CFDACE0EF48844208D1012118
:102390000420FFF794FD00210420FFF790FDA0E04A
:1023A000EA48844208D101210820FFF788FD002176
:1023B0000820FFF784FD94E0E548844208D101211C
:1023C0001020FFF77CFD00211020FFF778FD88E04A
:1023D000E048844208D101212020FFF770FD002150
:1023E0002020FFF76CFD7CE0DB48844208D101210E
:1023F0004014FFF757FD00216014FFF753FD70E014
:10240000D648844209D10121C804FFF74BFD0021C1
:102410004FF40020FFF746FD63E0D148844209D124
:1024200001210805FFF73EFD00214FF48010FFF762
:1024300039FD56E0CB48844209D101214805FFF718
:1024400031FD00214FF40010FFF72CFD49E0C64894
:10245000844208D101214020FFF731FD00214020B6
:10246000FFF72DFD3DE0C148844208D101218020C5
:10247000FFF725FD00218020FFF721FD31E0BC485A
:10248000844208D101218015FFF719FD0021A01514
:10249000FFF715FD25E0B748844209D10121080462
:1024A000FFF700FD00214FF48030FFF7FBFC18E040
:1024B000B148844209D101214804FFF7F3FC00210F
:1024C0004FF40030FFF7EEFC0BE0AC48844208D13B
:1024D00001218804FFF7E6FC00214FF48020FFF77C
:1024E000E1FC10BD00220288954B98420ED09A4B19
:1024F00098420BD0B0F1804F08D0924B984205D053
:10250000914B984202D0914B984204D14FF68F7371
:102510001A404B881A438E4B984207D08D4B9842F5
:1025200004D04FF6FF431A40CB881A4302808B88B1
:1025300083850B880385824B98420BD0864B98424B
:1025400008D08C4B984205D08B4B984202D08B4BD5
:10255000984201D10B7A038601238382704770B5BC
:10256000002200230024058C4FF6FE7635400584BA
:10257000038C8488028B4FF68F752A40B51E2A4043
:102580000D882A43751E2B400D892B434D882B4304
:102590006B4DA8420BD0704DA84208D0754DA84293
:1025A00005D0754DA84202D0744DA84213D14FF604
:1025B000F7752B404D892B434FF6FB752B408D88CB
:1025C0002B434FF6FF652C404FF6FF552C408D896D
:1025D0002C43CD892C4384800283CD888586038457
:1025E00070BD70B5002200230024058C4FF6EF76F5
:1025F00035400584038C8488028B48F6FF752A4099
:102600004FF6FF452A400D882D0642EA15424FF647
:10261000DF752B400D892D0543EA15434D882D05A7
:1026200043EA1543464DA84202D04B4DA8421BD168
:102630004FF67F752B404D892D0543EA15434FF624
:10264000BF752B408D882D0543EA15434FF6FF35A6
:102650002C404FF2FF752C408D89AD0444EA15449F
:10266000CD89AD0444EA154484800283CD88058772
:10267000038470BD70B5002200230024058C4FF642
:10268000FF6635400584038C8488828B4FF68F75F6
:102690002A404FF6FC752A400D882A434FF6FF5515
:1026A0002B400D892D0643EA15434D882D0643EA3C
:1026B0001543234DA84202D0274DA8421BD14FF20B
:1026C000FF752B404D892D0643EA15434FF6FF3524
:1026D0002B408D882D0643EA15434EF6FF752C409E
:1026E0004DF6FF752C408D892D0544EA1544CD89A2
:1026F0002D0544EA154484808283CD888587038430
:1027000070BD70B5002200230024058C4EF6FF76C4
:1027100035400584038C8488828B48F6FF752A40F7
:102720004FF6FF452A400D882D0642EA15424DF628
:10273000FF752B400D892D0743EA15434D881FE097
:10274000002C01400004004000080040000C004044
:10275000001000400014004000340140004C0140D3
:10276000005001400054014000180040001C00408F
:10277000002000400040014000440140004801406A
:102780002D0743EA1543F84DA84202D0F74DA84261
:1027900006D14BF6FF752C408D89AD0544EA1544F2
:1027A00084808283CD88A0F84050038470BD828BE2
:1027B0004FF2FF331A408283828B0B0642EA1342A8
:1027C00082837047F0B5002400250026078C4EF662
:1027D000FF7C07EA0C070784848B058C0F073E0CEF
:1027E00040F6FF473C40170644EA17441F0744EAF7
:1027F0001744DD4FB8420ED0DC4FB8420BD0B0F1D9
:10280000804F08D0DA4FB84205D0DA4FB84202D034
:10281000D94FB84206D14DF6FF773D4046F4805778
:102820003D4305E047F6FF573D4041F480573D43A7
:1028300084830584F0BD828B4FF6F3731A40828344
:10284000828B0A4382837047F0B50024002500265E
:10285000078C4FF6FF6C07EA0C070784848B058C06
:102860000F063E0C4FF60C773C401F0542EA174717
:102870003C43BD4FB8420ED0BC4FB8420BD0B0F174
:10288000804F08D0BA4FB84205D0BA4FB84202D0F4
:10289000B94FB84206D14FF6FF573D4046F4807716
:1028A0003D4305E04FF2FF573D4041F480773D4303
:1028B00084830584F0BD028B4FF2FF331A400283FC
:1028C000028B0B0642EA134202837047F0B50024E4
:1028D00000250026078C4FF6EF7C07EA0C070784DB
:1028E000048B058C0F053E0C40F6FF473C401F074C
:1028F00044EA1744170644EA17449B4FB8420ED0E7
:102900009A4FB8420BD0B0F1804F08D0984FB842E0
:1029100005D0984FB84202D0974FB84206D14FF633
:10292000DF773D4046F010073D4305E04FF65F7707
:102930003D4041F010073D4304830584F0BD028B08
:102940004FF6F3731A400283028B0A4302837047E7
:10295000F0B500240025068C4FF6FE773E40068435
:10296000048B058C4FF60C7634401E0542EA164661
:1029700034437D4EB0420ED07C4EB0420BD0B0F10D
:10298000804F08D07A4EB04205D07A4EB04202D085
:10299000794EB04206D14FF6FD76354041F0010642
:1029A000354305E04FF6F576354041F001063543F5
:1029B00004830584F0BD70B504460D466A48844220
:1029C0000ED06A4884420BD0B4F1804F08D06848DA
:1029D000844205D06748844202D06748844200D1CF
:1029E00000E000BF288850B92B89AA886988204652
:1029F000FFF7AEFFE9882046FFF7A1FF25E0288812
:102A000004280AD12B89AA8869882046FFF75EFF2F
:102A1000E9882046FFF74FFF17E0288808280AD1E9
:102A20002B89AA8869882046FFF70EFFE98820468F
:102A3000FFF701FF09E02B89AA8869882046FFF784
:102A4000C1FEE9882046FFF7B2FE70BD2DE9F041D6
:102A500004460D4600260127688808B9022600E0D2
:102A60000026A888012801D1022700E00127288834
:102A7000A0B92B89AA8869882046FFF769FFE988F1
:102A80002046FFF75CFF2B893A4631462046FFF788
:102A90001DFFE9882046FFF70EFF13E02B89AA8867
:102AA00069882046FFF712FFE9882046FFF703FFF9
:102AB0002B893A4631462046FFF74AFFE9882046EF
:102AC000FFF73DFFBDE8F0810A884B881A438B88E9
:102AD0001A43CB881A430B891A434B891A438B89B3
:102AE0001A43A0F8442070474FF6FF7181800021FF
:102AF0000180C180418001727047002101804180C6
:102B00008180C180018141818181C1817047002123
:102B100001804180012181800021C18001817047B5
:102B20000021018041808180C180018141818181BA
:102B3000704721B1028842F00102028004E002885D
:102B40004FF6FE731A400280704731B1B0F844204E
:102B500042F40042A0F8442005E0B0F84420C2F35B
:102B60000E02A0F844207047002C014000340140C0
:102B70000004004000080040000C004010B51AB1ED
:102B800083890B43838104E08389CC43A4B223402F
:102B9000838110BD8182704741EA0203A0F848306A
:102BA000704710B51AB183890B43838104E0838990
:102BB000CC43A4B22340838110BD01894FF6F87243
:102BC000114001817047002202894FF68F731A402D
:102BD0000A430281704730B504460D462946204617
:102BE000FFF7F1FF208940F00700208130BD2DE97B
:102BF000F04104460D4616461F46602D06D13B4661
:102C0000012231462046FFF761FE05E03B460122E6
:102C100031462046FFF79CFE29462046FFF7D3FFAA
:102C2000208940F007002081BDE8F08130B5002404
:102C30000489E4B21D0642EA15450D432C43048184
:102C400030BD2DE9F04104460D4616469846002752
:102C50004346324629462046FFF7E8FF27894FF6CC
:102C6000F870074047F007074FF68F70074047F0AE
:102C700070072781BDE8F081F0B504460D46164681
:102C80001F463B46324629462046FFF7CFFF2089A4
:102C900040F480402081F0BD01858282704700228F
:102CA00002884FF68F731A400A4302807047F0B5CE
:102CB0000024002500260489058B068C4FF6F87742
:102CC0003C400C434FF6FC473D4040F201173D436A
:102CD0004FF6DD773E401F0542EA17473E43048129
:102CE00005830684F0BD0022028B4FF68F731A40D5
:102CF0000A43028370470022028B48F6FF731A4092
:102D00000B0642EA1342028370470022828B4FF681
:102D10008F731A400A43828370470022828B48F6E1
:102D2000FF731A400B0642EA13428283704721B1B7
:102D3000028842F08002028004E002884FF67F732E
:102D40001A400280704721B1828842F004028280DA
:102D500004E082884FF6FB731A408280704721B1ED
:102D6000828842F00802828004E082884FF6F7737E
:102D70001A408280704721B1828842F0010282802D
:102D800004E082884FF6FE731A408280704700226A
:102D9000028B4FF6F7731A400A43028370470022F2
:102DA000028B4FF2FF731A400B0642EA1342028372
:102DB00070470022828B4FF6F7731A400A438283D2
:102DC00070470022828B4FF2FF731A400B0642EAD3
:102DD0001342828370470022028B4FF6FB731A4026
:102DE0000A43028370470022028B4FF6FF331A40DA
:102DF0000B0642EA1342028370470022828B4FF691
:102E0000FB731A400A43828370470022828B4FF67D
:102E1000FF331A400B0642EA1342828370470022B6
:102E2000028B4FF67F731A400A43028370470022D9
:102E3000028BC2F30E020B0642EA13420283704772
:102E40000022828B4FF67F731A400A4382837047B9
:102E50000022828BC2F30E020B0642EA13428283E7
:102E600070470022028C4FF6FD731A400A43028419
:102E700070470022028C4FF6F7731A400A4302840F
:102E800070470022028C4FF6DF731A400B0542EAAE
:102E90001342028470470022028C4FF67F731A405F
:102EA0000B0542EA1342028470470022028C4FF65F
:102EB000FF531A400B0642EA134202847047002275
:102EC000028C4FF2FF731A400B0642EA134202844F
:102ED00070470022028C4DF6FF731A400B0742EA3E
:102EE00013420284704730B5002301248C40A3B202
:102EF000048CDD43ADB22C400484048C02FA01F54D
:102F0000ADB22C43048430BD30B5002304248C4082
:102F1000A3B2048CDD43ADB22C400484048C02FACD
:102F200001F5ADB22C43048430BD70B500230024FC
:102F300003461846183301258D40ACB2058CE64394
:102F4000B6B23540058409B1082909D103EB610304
:102F50001D6825F070051D601D6815431D600CE09F
:102F60000D1FADB203EB65031D6825F4E0451D6040
:102F70001D68160645EA16451D6070BD21B1028820
:102F800042F00202028004E002884FF6FD731A400C
:102F90000280704721B1028842F00402028004E0FE
:102FA00002884FF6FB731A400280704721B1828875
:102FB00042F08002828004E082884FF67F731A40DC
:102FC0008280704702884FF6F7731A4002800288A9
:102FD0000A430280704782884FF68F731A408280BE
:102FE00082880A438280704702894FF6F8731A403C
:102FF000028102890A430281704702894FF67F737A
:103000001A40028102890A43028170478184704715
:103010008185704781867047018770478187704737
:10302000A0F84010704702884FF6FF431A40028014
:1030300002880A43028070470146888E7047014625
:10304000088F70470146888F70470146B1F84000ED
:1030500070470146888C70470146088D70470246CC
:103060000020138A0B4201D0012000E000207047AD
:10307000CA430282704730B5024600200023002474
:10308000158A05EA0103958905EA010413B10CB11B
:10309000012000E0002030BDCA43028270470000DA
:1030A00010B58CB004461E230BAA03A9204600F0DD
:1030B0001CFE0090009810B101200CB010BD9DF8CE
:1030C0002C00044400200B900EE060489DF82C205A
:1030D00050F8221003A800F05FFD00B908E09DF849
:1030E0002C00401CC0B20B909DF82C000828ECDB93
:1030F00000BF9DF82C0007287ED2DFE800F0040511
:10310000395B8BA6A50000BF51A001F017F851A0B4
:1031100001F014F85FA001F011F86EA001F00EF8B4
:103120007CA001F00BF88BA001F008F899A001F049
:1031300005F8A6A001F002F8ABA000F0FFFFB0A0D8
:1031400000F0FCFFB4A000F0F9FFB9A000F0F6FF1A
:10315000BDA000F0F3FFC3A000F0F0FFCEA000F090
:10316000EDFFDAA000F0EAFFE5A000F0E7FFAEE235
:1031700037A000F0E3FFF2A000F0E0FF00200B908A
:103180000EE0FF4800689DF82C2000EBC20041686B
:10319000FCA000F0D3FF9DF82C00401CC0B20B90A7
:1031A000F748007D9DF82C108842EADC28A000F04A
:1031B000C5FF8CE226A000F0C1FFF4A000F0BEFF26
:1031C00000200B901CE0EE4909689DF82C2001EBD3
:1031D000C20101AB02AA486803A900F0AAFDE848B1
:1031E00000689DF82C1050F8312003A9F7A000F0DA
:1031F000A5FF9DF82C0000E067E2401CC0B20B90D8
:10320000DF48007D9DF82C108842DCDC10A000F027
:1032100095FF5CE20EA000F091FF0BAA03A92046E7
:1032200000F08CFE9DF82C0060B9694603A800F000
:10323000E6FC0B909DF82C0028B9E9A0009900F05D
:103240007DFFE2E1DFE1D1E111E2E3E104090020E9
:103250000D0A00002D2D2D2D2D2D2D2D2D2D2D2D3B
:103260002D2D2D2D2D2D2D2D2D2D2D2D55534D410C
:1032700052542056322E382D2D2D2D2D2D2D2D2D05
:103280002D2D2D2D2D2D2D2D2D2D2D2D2D2D2D207B
:103290000D0A00002020202055534D415254CAC72A
:1032A000D3C9414C49454E54454BBFAAB7A2B5C4FA
:1032B000D2BBB8F6C1E9C7C9B5C4B4AEBFDAB5F779
:1032C000CAD4BBA5BDBBD7E9BCFE2CCDA8B9FD2097
:1032D0000D0A0000CBFC2CC4E3BFC9D2D4CDA8B9E1
:1032E000FDB4AEBFDAD6FACAD6B5F7D3C3B3CCD0E5
:1032F000F2C0EFC3E6B5C4C8CEBACEBAAFCAFD2C91
:10330000B2A2D6B4D0D02ED2F2B4CB2CC4E3BFC973
:103310000D0A0000D2D4CBE6D2E2B8FCB8C4BAAFF2
:10332000CAFDB5C4CAE4C8EBB2CECAFD28D6A7B35D
:10333000D6CAFDD7D62831302F3136BDF8D6C629AA
:10334000A1A2D7D6B7FBB4AEA1A2BAAFCAFDC8EB53
:103350000D0A0000BFDAB5D8D6B7B5C8D7F7CEAAE0
:10336000B2CECAFD292CB5A5B8F6BAAFCAFDD7EEC4
:10337000B6E0D6A7B3D63130B8F6CAE4C8EBB2CEC1
:10338000CAFD2CB2A2D6A7B3D6BAAFCAFDB7B52034
:103390000D0A0000BBD8D6B5CFD4CABE2ED0C2D439
:1033A000F6B2CECAFDCFD4CABEBDF8D6C6C9E8D6DD
:1033B000C3B9A6C4DC2CD0C2D4F6BDF8D6C6D7AAF1
:1033C000BBBBB9A6C4DC2E0D0A000000BCBCCAF50C
:1033D000D6A7B3D63A7777772E6F70656E65647629
:1033E0002E636F6D0D0A000055534D415254D3D0DA
:1033F00036B8F6CFB5CDB3C3FCC1EE3A0D0A000026
:103400003F3A20202020BBF1C8A1B0EFD6FAD0C5AA
:10341000CFA20D0A0000000068656C703A20BBF175
:10342000C8A1B0EFD6FAD0C5CFA20D0A00000000A7
:103430006C6973743A20BFC9D3C3B5C4BAAFCAFDAF
:10344000C1D0B1ED0D0A0A0069643A202020BFC93D
:10345000D3C3BAAFCAFDB5C44944C1D0B1ED0D0A5A
:103460000A0000006865783A2020B2CECAFD3136E5
:10347000BDF8D6C6CFD4CABE2CBAF3B8FABFD5B8F9
:10348000F12BCAFDD7D6BCB4D6B4D0D0BDF8D6C6C1
:10349000D7AABBBB0D0A0A006465633A2020B2CEEE
:1034A000CAFD3130BDF8D6C6CFD4CABE2CBAF3B8E7
:1034B000FABFD5B8F12BCAFDD7D6BCB4D6B4D0D09C
:1034C000BDF8D6C6D7AABBBB0D0A0A00C7EBB0B47D
:1034D000D5D5B3CCD0F2B1E0D0B4B8F1CABDCAE40E
:1034E000C8EBBAAFCAFDC3FBBCB0B2CECAFDB2A234
:1034F000D2D4BBD8B3B5BCFCBDE1CAF82E0D0A00CE
:103500002D2D2D2D2D2D2D2D2D2D2D2D2D2D2D2DEB
:103510002D2D2D2D2D2D2D2D2D2D414C49454E542C
:10352000454B2D2D2D2D2D2D2D2D2D2D2D2D2D2D95
:103530002D2D2D2D2D2D2D2D2D2D2D200D0A000065
:103540002D2D2D2D2D2D2D2D2D2D2D2D2D2D2D2DAB
:103550002D2D2D2D2D2D2D2D2DBAAFCAFDC7E5B545
:10356000A52D2D2D2D2D2D2D2D2D2D2D2D2D2D2D13
:103570002D2D2D2D2D2D2D2D2D2D2D2D200D0A00F8
:103580006409002025730D0A000000002D2D2D2D4B
:103590002D2D2D2D2D2D2D2D2D2D2D2D2D2D2D2D5B
:1035A0002D2D2D2D2DBAAFCAFD204944202D2D2DB6
:1035B0002D2D2D2D2D2D2D2D2D2D2D2D2D2D2D2D3B
:1035C0002D2D2D2D2D2D2D2D200D0A00257320693B
:1035D000642069733A0D0A3058253038580D0A00B6
:1035E0004845583A305825580D0A00009DF82C00DF
:1035F000042801D0022060E5F5A000F09FFD012025
:10360000F849C87501E0022057E5AFF2BC3000F080
:1036100095FD5CE0AFF2C83000F090FD0BAA03A965
:10362000204600F08BFC9DF82C00C8B9694603A821
:1036300000F0E5FA0B909DF82C0020B9EAA0009963
:1036400000F07CFD0EE09DF82C00042801D0022043
:1036500033E5E8A000F072FD0020E249C87501E002
:1036600002202AE5AFF2184000F068FD2FE0AFF22B
:10367000204000F063FD0BAA03A9204600F05EFC89
:103680009DF82C00D8B9694603A800F0B8FA0B9051
:103690009DF82C0088B9D348C07D012806D1009838
:1036A00001460268D8A000F049FD0AE000980146F2
:1036B0000268D9A000F042FD03E00220FDE40220F0
:1036C000FBE4D4A000F03AFD01E00120F5E400BFE6
:1036D0000020F2E410B501218807FFF7CCFC10B1FF
:1036E000C0490869804701218807FFF7D5FC10BD54
:1036F0007FB504460D4601210846FEF7C6FB41F2A0
:103700008830ADF8080041F61F40ADF804000020F5
:10371000ADF80A00ADF8060001A94FF08040FEF7B1
:10372000E1FE012241218807FFF728FA1C208DF8CD
:10373000000003208DF801008DF8020001208DF8B3
:1037400003006846FEF71FF801218807FFF7F1F92B
:103750007FBD10B5044604EBC40000EB0410012249
:10376000C2EB800081B24FF47A70FFF7C1FF0120F5
:103770009C49C87510BD30B595B0044613AB12AA6C
:1037800009A9204600F0D5FA054615B1284615B01E
:1037900030BD0020149026E0924909689DF8502021
:1037A00001EBC20113AB11AA486801A900F0C1FAEC
:1037B00005460DB12846EAE709A901A800F0ECF991
:1037C00060B99DF844009DF84810884201DD022050
:1037D000DDE79DF85000834988750AE09DF85000A8
:1037E000401CC0B214907F48007D9DF85010884264
:1037F000D2DC00BF7B48007D9DF85010884201D18B
:103800000420C4E714A9204600F002FC05460DB1CF
:103810002846BCE79DF85000724948750020B6E77D
:10382000F0B59BB06F48847D007DA04201DC1BB0E9
:10383000F0BD6C49096801EBC40107AB08AA4868F0
:1038400009A900F076FA09A976A000F077FC002516
:1038500044E06448018B0120A84001421BD0222192
:1038600072A000F06BFC284600F0C5FB5D492431D6
:10387000471839466EA000F061FC22216BA000F0D1
:103880005DFC284600F0B7FB56492431084411A9D5
:1038900041F8250018E0284600F0ADFB51492431DD
:1038A000085811A941F825004E48C07D30B911A82B
:1038B00050F825105FA000F041FC05E011A850F879
:1038C00025105DA000F03AFC9DF82000401EA842A3
:1038D00002D05BA000F032FC681CC5B29DF820004D
:1038E0008542B6DB57A000F029FC3E48407D0B28FE
:1038F0000DD2DFE800F0060D151E27323F4E5DA900
:10390000BA003849096851F8340080470646BFE0DC
:10391000344A126852F83410119888470646B7E0C6
:10392000304B1B6853F83420DDE9110190470646FF
:10393000AEE02C4F3F6857F8343011A807C89847BD
:103940000646A5E0DFF89CC0DCF800C05CF83470E7
:1039500011A80FC8B84706469AE0159BDFF884C047
:103960000093DCF800C05CF8347011A80FC8B847A9
:1039700006468DE0DDE91523DFF868C0CDE90023B8
:10398000DCF800C05CF8347011A80FC8B8470646D0
:103990007EE015A90EC9DFF84CC08DE80E00DCF8FA
:1039A00000C05CF8347011A80FC8B84706466FE035
:1039B00015A80FC8DFF82CC08DE80F00DCF800C098
:1039C0005CF8347011A80FC8B847064660E00000E4
:1039D0003136BDF8D6C6B2CECAFDCFD4CABE210D8F
:1039E0000A000000640900204445433A256C750D27
:1039F0000A0000003130BDF8D6C6B2CECAFDCFD421
:103A0000CABE210D0A0000002A2830582558293D39
:103A1000305825580D0A00002A282564293D2564C0
:103A20000D0A00000D0A2573280000002563000020
:103A300025730000256C75003058255800000000E3
:103A40002C0000002900000016A80FC801AF0FC706
:103A5000159BDFF8ECC00093DCF800C05CF8347014
:103A600011A80FC8B847064612E017A80FC802AF42
:103A70000FC7DDE91523DFF8C8C0CDE90023DCF866
:103A800000C05CF8347011A80FC8B847064600BFE4
:103A900000BF9DF81C0001280CD12948C07D20B929
:103AA000314628A000F04AFB07E0314627A000F08D
:103AB00045FB02E024A000F041FBB8E670B52648C3
:103AC000008810F4004F35D023480088C5B200208C
:103AD000224948551A4881682048884704461CB93D
:103AE0001749C868804722E01C48FFF7D9FA054605
:103AF000012D00D02C46002C19D0012C06D0022C10
:103B000008D0032C0AD0042C10D10BE014A000F034
:103B100015FB0BE015A000F011FB07E016A000F06C
:103B20000DFB03E017A000F009FB00BF00BF002061
:103B30000949088070BD01460868704701607047F8
:103B4000640900203D256C753B0D0A003D30582569
:103B5000583B0D0A00000000E8080020000F00207C
:103B6000BAAFCAFDB4EDCEF3210D0A00B2CECAFD44
:103B7000B4EDCEF3210D0A00B2CECAFDCCABB6E057
:103B8000210D0A00CEB4D5D2B5BDC6A5C5E4B5C4D5
:103B9000BAAFCAFD210D0A0002460AE010780B7880
:103BA000984201D001207047107800B902E0521C01
:103BB000491CF3E700BF0020F5E706E002780A7031
:103BC000027802B902E0401C491CF7E700BF7047C9
:103BD0000146002005E00A7802B903E0421CD0B299
:103BE000491CF8E700BF704710B50246012000E00D
:103BF00050430B00A1F10104E1B2F9D110BD2DE950
:103C0000F04304460D4600274FF00A09A046002065
:103C1000286027E098F80000392803DC98F80000B5
:103C200030280DDA98F80000462803DC98F80000E8
:103C3000412805DA98F8000058280AD1012F08D148
:103C400098F80000412801DB4FF01009781CC7B23A
:103C500006E098F8000000B905E00120BDE8F08317
:103C600008F10108D6E700BFA046B9F1100F12D144
:103C7000032F01DA0220F1E798F80000302808D17C
:103C800098F80100582804D108F10208B81EC7B2FC
:103C900004E00320E2E70FB90420DFE721E00FB1E1
:103CA000781EC7B298F80000392808DC98F80000A0
:103CB000302804DB98F80000A0F1300603E098F803
:103CC0000000A0F1370639464846FFF78DFF296806
:103CD00006FB0010286008F1010898F8000000B900
:103CE00000E0DCE700BF0020B8E710B50446002084
:103CF00010700BE020780870641C491C1078401C80
:103D000010701078984201DB012010BD2078202827
:103D100002D020780028EDD100200870F5E7014698
:103D200000E0491C0878202801D10029F9D1087841
:103D300070472DE9FF4F86B004460D461E464FF0F2
:103D40000008002005908246012004900020019088
:103D50000090A1462AE099F80000202820D0009881
:103D600000F07F0005281BDA009818B9009840F091
:103D700080000090009800F07F00042804D199F89A
:103D800000002A2800D015E099F80010009800F0F3
:103D90007F0002AA11540098401CC0B2009003E0BA
:103DA0000098852800D105E009F1010999F8000083
:103DB0000028D0D100BF009888B10020009901F000
:103DC0007F0102AA5054D9A102A8FFF7E5FE10B95D
:103DD0000020307001E001203070002000900027AA
:103DE000A1460FE009F10109781CC7B299F800005B
:103DF000202807D14846FFF792FF8346BBF1280FE2
:103E000000D0059799F80000282803D099F8000001
:103E10000028E7D1A146059810B10598401C8144BF
:103E20000027BB4671E099F8000008B901276DE052
:103E300099F80000282807D1BBF1000F04D108F140
:103E4000010000F0FF081FE099F8000029280FD1B9
:103E5000BBF1000F0CD1B8F1000F04D0A8F10100A4
:103E600000F0FF0800E00127B8F1000F0CD14DE091
:103E700099F80000222807D1BBF1000F01D10120E1
:103E800000E0002000F0FF0BB8F1000F08D199F816
:103E90000000202837D099F8000028706D1C32E00F
:103EA00099F800002C2806D1012004900098401CAD
:103EB000C0B2009019E099F80000202815D099F8B8
:103EC0000000282811D0009858B90198052808DA70
:103ED00099F8000002A9019A88540198401CC0B2C8
:103EE00001900498401CC0B20490B8F1010F0AD1AF
:103EF0000498022807D10498401CC0B204900AF12B
:103F0000010000F0FF0A09F101098CE700BFBAF1D6
:103F1000010F0AD1002002A9019A885483A102A8A6
:103F2000FFF73AFE08B94FF0000A089880F800A0A1
:103F30000020287038460AB0BDE8F08FF0B503467F
:103F400000200024002500264FE01F782C2F01D1EF
:103F500006B901241F78292F01D01F780FB906B99F
:103F600044E0002D34D11F78302F02DB1F78392F29
:103F700011DD1F78612F02DB1F78662F0BDD1F78A4
:103F8000412F02DB1F78462F05DD1F78582F02D006
:103F90001F78782F0CD104B128E01F78612F03DB44
:103FA0001F78203F0F7001E01F780F70491C19E047
:103FB0001F78222F04D104B118E00125012611E059
:103FC0001F78202F0ED01F782C2F0BD0FF250DE04F
:103FD0001F78222F00D1002604B107E016B11F7808
:103FE0000F70491C471CF8B25B1CAEE700BF0027EE
:103FF0000F701570F0BD01460020002205E04D4B0A
:104000009B5C0344D8B2531CDAB28A42F7DB704798
:104010002DE9F043B5B004460D464FF000080026E8
:1040200004E0002143488155701CC6B20A2EF8DB1B
:1040300006E0641C207818B9012035B0BDE8F08393
:1040400020782828F5D1641C69E034AA6946204606
:10405000FFF774FF064634449DF8D00020B10128D4
:104060002CD0FF2854D151E09DF8000028B333A98B
:104070006846FFF7C4FD06460EB10220DDE7404664
:10408000FFF7B9FF2B490A31339A0A50A1F12400F6
:10409000018B012000FA08F0814326481A38018379
:1040A00004211A3000F8081008F1010000F0FF08A0
:1040B000B8F10A0F01DD0320BFE729E06846FFF7EA
:1040C00087FD401CC7B24046FFF795FF19490A31EA
:1040D00000EB010949466846FFF76FFD15481A389D
:1040E000018B012000FA08F0014388B211491A3906
:1040F0000883104800F8087008F1010000F0FF087C
:10410000B8F10A0F01DD032097E701E0022094E7F0
:1041100000BF2078292801D0207800B900E094E77A
:1041200000BF85F80080002087E70000766F696493
:10413000000000007E090020704700000FB4054A0F
:10414000054910B503AB7944029800F0EEF910BCB4
:104150005DF814FBEC08002091D4FFFF70B5044615
:10416000856900683026C10600D42026C00709D121
:1041700006E0D4E9012130469047206A401C2062C5
:104180006D1EF6D570BD70B5044685690068C00720
:1041900009D006E0D4E9012120209047206A401C84
:1041A00020626D1EF6D570BD70B505460C46012A1D
:1041B00001D101200BE02868800600D5EA690020C3
:1041C00000E0401C904202D2215C0029F9D1A9698B
:1041D0002618091AA961296A014428462962FFF7AD
:1041E000BDFF04E0D5E9012114F8010B9047B4426A
:1041F000F8D32846FFF7C7FF70BD00002DE9F04156
:104200008046002610687529414614A511D0AFF3E9
:104210000080002802DA404211A508E0D8F800101A
:104220008A0701D50FA502E0490704D50EA501268E
:1042300001E0AFF30080002408F1240704E000F05F
:104240009DF930313955641C0028F8D133462A468F
:1042500021464046BDE8F04100F00AB900000000E8
:104260002D0000002B0000002000000070B5044667
:104270000D4621461068AFF300802168090502D57C
:10428000104A7A4402E00F4A7A440E32002104F1C7
:10429000240306E000F00F064FEA1010965D5E540E
:1042A000491C0028F6D120680023000704D5702D92
:1042B00002D009B1113202232046BDE8704000F05F
:1042C000D7B80000660300002DE9F05F4FF0000B47
:1042D000054689464FF0010AC0F820B02846E96833
:1042E000884700287ED0252802D0D5E90121B0E0FA
:1042F0005C4F00267F442846E9688847202804460A
:1043000007DB312C05D2381910F8200C08B1064310
:10431000F1E7B00701D526F00406C5F81CB0002768
:10432000C5F818B02A2C10D1284659F8041B05EB03
:1043300087029161E9688847012F044628D1E8691E
:10434000002830DA26F020062DE0A4F13000524695
:104350000A2801461AD2CAB105EB87009246804668
:10436000816108E0D8F8180000EB800004EB400001
:104370003038C8F818002846E9688847044650468F
:10438000A4F130010A2901D20028EBD1012F0AD073
:104390002E2C08D12846E96888477F1C0446022F46
:1043A00046F02006BEDBA869002803DA404246F04A
:1043B0000106A861F00701D026F010066C2C01D090
:1043C000682C18D127462846E9688847B842044631
:1043D0000BD180206C2F00D0C000E968064328462E
:1043E000884700E03AE0044615E040206C2F00D0FA
:1043F000800006430FE04C2C05D06A2C03D0742CAF
:1044000001D07A2C07D158464C2CE6D080206A2C5B
:10441000E3D00020E1E70CB3A4F14100192802D851
:10442000203446F400664A46214628462E604E4611
:10443000FBF7D8FE50B1012802D106F104094DE77F
:10444000F61D26F0070000F1080947E7D5E901212C
:1044500020469047286A401C28623FE7286ABDE84A
:10446000F09F00001C0300007047704770477047C2
:104470002DE9F0470D4604469246994600F124087E
:104480000168880604D5E06921F01001216000E090
:1044900001200027A84200DD471BA1697A1902EB21
:1044A0000900081AA0612068C00602D42046FFF760
:1044B00055FE002608E0D4E901211AF806009047CD
:1044C000206A401C761C20624E45F4DB2068C00642
:1044D0000AD52046FFF742FE06E0D4E9012130204C
:1044E0009047206A401C2062381EA7F10107F4DCC7
:1044F00007E0D4E9012118F805009047206A401C24
:104500002062281EA5F10105F3DC2046FFF73BFEE3
:1045100021680220090600D40120BDE8F0870000D0
:1045200001694A1C02610878704710B50C461946AB
:1045300090B0CDE9024200220692044A7A44CDE9C5
:10454000042001A8FFF7C0FE10B010BDE1FFFFFF7F
:1045500010B5436913B1AFF3008001E0FFF724FE0B
:10456000012010BD126800F124010A7000224A7077
:104570000122EDE711684FF0FF32E9E74FF00A0141
:10458000B0FBF1F202FB110110467047754600F0D6
:1045900029F8AE4605006946534620F007008546D7
:1045A00018B020B5FDF7D8F8BDE820404FF0000660
:1045B0004FF000074FF000084FF0000B21F007010B
:1045C000AC46ACE8C009ACE8C009ACE8C009ACE84E
:1045D000C0098D4670470446AFF300802046FBF7C4
:1045E00021FE000000487047C80F002030313233F0
:1045F0003435363738394142434445464030580017
:104600003031323334353637383961626364656648
:1046100040307800040000080000000000000002A4
:1046200000010000103F0064656300696400686574
:104630006C70006C6973740068657800766F6964EB
:1046400020524441353832305F42616E645F5365B9
:10465000742875382062616E642900766F69642061
:10466000524441353832305F527373695F53657419
:1046700028753820727373692900766F6964207712
:10468000726974655F616464722875333220616495
:1046900064722C7533322076616C2900766F696400
:1046A00020524441353832305F566F6C5F53657429
:1046B00028753820766F6C2900766F696420524423
:1046C00041353832305F54785047415F5365742824
:1046D0007538206761696E2900766F6964205244DD
:1046E00041353832305F467265715F5365742875A5
:1046F000313620667265712900753332207265612A
:10470000645F616464722875333220616464722965
:1047100000766F69642064656C61795F6D732875DC
:104720003136206E6D732900766F69642064656C84
:1047300061795F757328753332206E7573290000B7
:104740006047000800000020500A00006C010008CB
:10475000A8480008500A0020D80B0000C801000833
:1047600041CA01023B010114290301FF01FF01FFBE
:1047700001FF013F84A24A04100A01020304060754
:10478000080901B9022B01011C69034908391359B1
:104790001E4901391A2908390A391A4909691C4977
:1047A0002B493E091530094648691D5954890D6940
:1047B00067693B890959C569CC49E4D90249F66959
:1047C00003393E790C39430948C1092D30094B782A
:1047D00069E369257159662914391939FE490E4969
:1047E0002F490939373909890239485956794B49CE
:1047F000043939091D91092EC10959300947783901
:104800000F6938391639045903391D6957690A592E
:1048100028995249559902694B695B694159560972
:104820004BC1595A59328966694B99C679783935DD
:1048300049176999011B2D0102030404100B060797
:1048400008090204060825461B082E041A33041A18
:104850002B041A38041A270413373B1B08F9081ACB
:104860003D081A7A081377151C0811472819081AE9
:10487000280813C9102B085B2C12111B083C081ABE
:1048800065081AD9081A85181A9C081A07101AB947
:1048900008131C091C20533740190413213814082D
:0848A000BD3A6B0809D201CFFB
:0400000508000131BD
:00000001FF
